:020000021000EC
:1080000000800020CD82010015830100178301004C
:108010000000000000000000000000000000000060
:1080200000000000000000000000000019830100B3
:1080300000000000000000001B8301001D83010000
:108040001F8301001F8301001F8301001F830100A4
:108050001F830100000000001F8301001F83010037
:108060001F8301001F8301001F8301001F83010084
:108070001F8301001F8301001F8301001F83010074
:108080001F8301001F8301001F8301001F83010064
:108090001F8301001F8301001F8301001F83010054
:1080A0001F8301001F83010000000000000000008A
:1080B00000000000000000000000000000000000C0
:1080C000164B002B00D1144B9D46402292029A1A67
:1080D000924600218B460F461348144A121A00F0AC
:1080E00065F80F4B002B00D098470E4B002B00D0AB
:1080F00098470020002104000D000D48002802D000
:108100000C4800E000BF00F02DF82000290000F02E
:10811000A1F800F011F8C04600000800008000201F
:10812000000000000000000060200020602000200F
:108130000000000000000000084B10B50400002BF8
:1081400002D0002100E000BF054B1868836A002BB5
:1081500000D09847200000F031F8C0460000000031
:108160003883010070B500260C4D0D4C641BA41023
:10817000A64209D1002600F0D3F80A4D0A4C641B30
:10818000A410A64205D170BDB300EB589847013644
:10819000EEE7B300EB5898470136F2E76020002085
:1081A0006020002060200020602000200300821852
:1081B000934200D1704719700133F9E7FEE7C046DA
:1081C0001D4B1B78012B00D070471C4B1B681B07F5
:1081D000FAD1F0221A4B1B68134018D1194B1B68B7
:1081E00013421CD0154B1B681B07EDD1F022144B1A
:1081F0001B681340402BE7D1124B1B681342E3D19D
:10820000C12380220121DB00D205D150DCE7102BF5
:1082100001D0302BEAD10B4B1B681342E6D10A4A3E
:108220000A4B1A6080220A4B12021A60024B1B781A
:10823000012BD7D0C8E7C046E00F00F0E40F00F0F4
:10824000E80F00F0EC0F00F0DFFF07C0040500406E
:10825000186C0040F0B58025A024E923A126C6466D
:10826000ED020322A846E405DB00F600064F00B548
:10827000E250A55143463220A35100F009F8E551E0
:10828000024800F005F8F5E70C050000B80B000007
:1082900082B00190019B002B14D0019B0A48013B46
:1082A00001930138C046C046C046C046C046C046DD
:1082B000C046C046C046C046C046C046F1D1019B3C
:1082C000002BEAD102B07047E703000003210A48FF
:1082D00002680A430260094802680A4302600849CA
:1082E000084A094B9B1A03DD043BC858D050FBDCFD
:1082F00006488047064800472405004054050040D2
:10830000448301000020002060200020C181010082
:10831000C1800100FEE7FEE7FEE7FEE7FEE7FEE7BD
:10832000F8B5C046F8BC08BC9E467047F8B5C046D4
:0C833000F8BC08BC9E46704700200020EE
:08833C0084FDFF7F0100000039
:108344000000000000000000000000000000000029
:108354000000000000000000000000000000000019
:108364000000000000000000000000000000000009
:1083740000000000000000000000000000000000F9
:1083840000000000000000000000000000000000E9
:1083940000000000000000000000000000000000D9
:04000003100082CD9A
:00000001FF
