:020000021000EC
:10800000008000208D890100D5890100D7890100F9
:108010000000000000000000000000000000000060
:10802000000000000000000000000000D9890100ED
:108030000000000000000000DB890100DD89010074
:10804000DF890100DF890100DF890100DF8901008C
:10805000DF89010000000000DF890100DF890100E5
:10806000DF890100DF890100DF890100DF8901006C
:10807000DF890100DF890100DF890100DF8901005C
:10808000DF890100DF890100DF890100DF8901004C
:10809000DF890100DF890100DF890100DF8901003C
:1080A000DF890100DF8901000000000000000000FE
:1080B00000000000000000000000000000000000C0
:1080C000164B002B00D1144B9D46402292029A1A67
:1080D000924600218B460F461348144A121A00F0AC
:1080E00065F80F4B002B00D098470E4B002B00D0AB
:1080F00098470020002104000D000D48002802D000
:108100000C4800E000BF00F02DF82000290000F02E
:10811000A1F800F011F8C04600000800008000201F
:1081200000000000000000006C200020A4200020BF
:108130000000000000000000084B10B50400002BF8
:1081400002D0002100E000BF054B1868836A002BB5
:1081500000D09847200000F031F8C0460000000031
:10816000288A010070B500260C4D0D4C641BA4102C
:10817000A64209D1002600F04BFC0A4D0A4C641BB4
:10818000A410A64205D170BDB300EB589847013644
:10819000EEE7B300EB5898470136F2E76C20002079
:1081A0006C2000206C2000206C200020030082182E
:1081B000934200D1704719700133F9E7FEE7C046DA
:1081C0001D4B1B78012B00D070471C4B1B681B07F5
:1081D000FAD1F0221A4B1B68134018D1194B1B68B7
:1081E00013421CD0154B1B681B07EDD1F022144B1A
:1081F0001B681340402BE7D1124B1B681342E3D19D
:10820000C12380220121DB00D205D150DCE7102BF5
:1082100001D0302BEAD10B4B1B681342E6D10A4A3E
:108220000A4B1A6080220A4B12021A60024B1B781A
:10823000012BD7D0C8E7C046E00F00F0E40F00F0F4
:10824000E80F00F0EC0F00F0DFFF07C0040500406E
:10825000186C0040A022F0B50321CE464746424BA1
:10826000D20580B5D15000234049414C53500921DB
:10827000404A8425A150404A0231A1503F49404A1A
:108280006D00A1508E2252006351A3500832A350BA
:10829000A0220421D200A150FD3AFF3AA35001339D
:1082A000A36083B0236000F06FF88046002853D1AC
:1082B00000270026814600F039F96359002BFAD0D7
:1082C0004B466351A323DB00E358DBB2002E0FD1F2
:1082D0001F02804600F02AF963590136002BEAD0CC
:1082E0004B466351A323DB00E358DBB2002EEFD0F3
:1082F00042461532904202D91F028046DBE73F22F8
:108300001F43BB08390A11401A400323B80B80B23F
:108310003B40032B00D1043B00F0DCF901A800F046
:1083200099F9061EC7D00199164B0A04120EE250A5
:108330008E225200A358012BFCD14B46A350FF23A1
:10834000104A0B40A3508E225200A358012BFCD19F
:108350004B460026A350AEE70120404203B00CBCC0
:1083600090469946F0BDC046240700002C07000047
:10837000002000400C0500001405000000A04E0085
:10838000240500001C050000802280210023D20566
:10839000490010B55350013313605358002BFCD0E3
:1083A000002201214A4B4B481B6880245960D96048
:1083B0001A50A02040001A5004301A5004301A50AD
:1083C00004301A50B9306402FF301C500538FF38B1
:1083D0001950A2200424C0001C503F4C30301C50C7
:1083E0006E3C3E48FF3C1C5019603D4B1A60802398
:1083F000AC325B059A58120718D4EC2239499858C8
:10840000394A5050F0215858E521C9005050F42104
:10841000585836495050F8215858E621C900505054
:10842000FC215B58BE390B4331495350314AFC2182
:1084300013681800884301000420002900D010BDF3
:108440002833DBB22C2BFAD8A12303242A48DB00E3
:10845000C4508020244B80001950F038195001314D
:10846000196119580029FCD000211950234859607E
:10847000196001801068224AFF24985003200432BA
:108480009850204A9858A043985098588E3C2043C2
:1084900098501D481D4A9850A6200122C0001A502D
:1084A0001B48195004201B49FF3058501A49053009
:1084B00058501A48043158500021194B00201970A7
:1084C0001021184B1A70184A13690B431361B6E751
:1084D000682000200405000071020000440500002F
:1084E0006C20002024070000001000402C07000032
:1084F000340700006420002000F00140A02000208C
:108500000C05000024050000002941761C05000030
:108510002C050000340500001405000025000300B0
:1085200072200020A220002000ED00E0F0B5C64639
:10853000102100B53D4A3E4E13693E4C0B4313617A
:10854000B31C98463C4D86223C4B5200995800295A
:1085500008D00021022099503949743288502A7875
:10856000042A26D0A022236852009958002908D056
:10857000002199508622314B520099580029F1D0A0
:10858000E7E7A222520098580028DCD099502D4BE2
:10859000263A1B78FF3A1A4001239340C02228490B
:1085A00052008B50284B1A68501C186004BC90462F
:1085B000F0BD033A5A608022D2009B58012B06D0AE
:1085C0001B4F272200213800FFF7F0FDCAE70F23D9
:1085D000327837001340022BF3D87278252AF0D86E
:1085E000002B1BD0012B17D05520002A0FD0B378B9
:1085F0008342E6D1013AD2B20332F31CB21804E04E
:108600000133591E09788142DBD19342F8D10F4AD8
:10861000138801331380D4E70F20E6E70C49404666
:1086200000F0DEF90028CCD1F1E7C04600ED00E013
:108630007420002068200020A220002000100040AC
:1086400000E100E0602000206C200020A02000203D
:108650002C8A01000021044B1A781970034B1B88E7
:10866000036010007047C046722000207020002078
:10867000124B1A780023012A01D9180070470028EC
:108680000BD0012811D00228F7D10D4A0D4B1A60EA
:108690000A220D4B1A700123EFE70C4A094B1A60AE
:1086A0000822094B1A700123E7E7094A054B1A60B3
:1086B0000922054B1A700123DFE7C046A2200020E3
:1086C00000A00040682000206020002000800040C2
:1086D00000900040F8B54746CE469C46994B80B581
:1086E0009846196000260123974F8146974D984878
:1086F0003C7803702E800520002C03D10CBC9046E2
:108700009946F8BD4846002830D04846032805D091
:10871000012C4ED0012302202B80EFE7012CF9D051
:108720008C488D4A0188A1240A43A8212A80A225C9
:108730008A4AC90056508A49E400ED000B514E5157
:10874000884D4E514D460D51802189005650F039CB
:10875000565013615358002BFCD0002353505360E4
:108760001360038001333B700020C7E7A8217B4AD8
:10877000C9005050A224A1204D467949C000E40010
:108780000B500D51774C0D5103240C508021890062
:108790005550F039555013615358002BFCD000232D
:1087A0005350536013606B4A0020138001333B70B9
:1087B000A4E727290DD8674B1E80012828D002285E
:1087C00001D000209AE7D3B2252B05D92C800320B5
:1087D00094E72C80012091E70F206646624C3040E0
:1087E000637020706346012E3DD0002E72D0022EA1
:1087F0006BD0013333D1022A00D194E06FD3032A26
:10880000DFD10800FFF734FF0028DAD1042075E734
:10881000554C272200212000FFF7C8FCA8224F4B0F
:10882000D20052499E50083A99505149514A00206D
:1088300099504246A1211268C900520002325A5092
:108840004D4A03219C50802252009E50921899500C
:10885000F43A9E504A465A6004233B704EE7012387
:1088600004202B804AE7A01C0F21FFF79FFCA822C1
:1088700000213A4BD2003D489950083A98503C4864
:108880003C4A98504246A1201268C0005200023271
:108890001A508022384852001C50A22499500331AB
:1088A00092189950354AE4001168354A9950354A72
:1088B00011682B4A4131FF3111512A49535001238C
:1088C000135001333B70002018E7A01C5521FFF71F
:1088D0006DFCCCE7A01C2C4900F091F8C7E7A8205C
:1088E000A72500231D4A214EC000ED00135056510C
:1088F0001F4E204D490056510231343D51511E4901
:108900001E4D54508021802449005350A400FD394D
:1089100011512E681A4D56511150012010511060FE
:1089200039701800EAE60B002833DBB22C2B00D993
:108930006CE703230B4000D068E7104A1800116071
:10894000DCE6C0469C200020A220002070200020F1
:1089500072200020A02000200080FFFF00100040B7
:1089600000F0014014050000742000205B060000A8
:10897000555555003C05000004050000642000200A
:108980000C050000682000202C8A010003210A4801
:1089900002680A430260094802680A430260084903
:1089A000084A094B9B1A03DD043BC858D050FBDC36
:1089B000064880470648004724050040540500400B
:1089C0005C8A0100002000206C200020C181010091
:1089D000C1800100FEE7FEE7FEE7FEE7FEE7FEE7F7
:1089E00030B50024A24201D1002005E0035D651CE2
:1089F0000C5DA34201D0181B30BD2C00F2E7002310
:108A000010B59A4200D110BDCC5CC4540133F8E7D4
:108A1000F8B5C046F8BC08BC9E467047F8B5C046DD
:108A2000F8BC08BC9E46704700200020FFC1FBE850
:108A30004C90728BE7B3518963AB23230284187285
:108A4000AA612F3B51A8E53749FBC9CA0C18532C22
:048A5000FD00000025
:088A54006CF6FF7F0100000039
:108A5C00000000000000000000000000000000000A
:108A6C0000000000000000000000000000000000FA
:108A7C0000000000000000000000000000000000EA
:108A8C0000000000000000000000000000000000DA
:108A9C0000000000000000000000000000000000CA
:108AAC0000000000000000000000000000000000BA
:0C8ABC00080000000400000000800040E2
:040000031000898DD3
:00000001FF
