:100000000040002099040000E1040000E304000027
:1000100000000000000000000000000000000000E0
:10002000000000000000000000000000E5040000E7
:100030000000000000000000E7040000E9040000E8
:10004000EB040000EB040000EB040000EB040000F4
:10005000EB04000000000000EB040000EB040000D3
:10006000EB040000EB040000EB040000EB040000D4
:10007000EB040000EB040000EB040000EB040000C4
:10008000EB040000EB040000EB040000EB040000B4
:10009000EB040000EB040000EB040000EB040000A4
:1000A000EB040000EB040000000000000000000072
:1000B0000000000000000000000000000000000040
:1000C000164B002B00D1144B9D46402292029A1AE7
:1000D000924600218B460F461348144A121A00F02C
:1000E00065F80F4B002B00D098470E4B002B00D02B
:1000F00098470020002104000D000D48002802D080
:100100000C4800E000BF00F02DF82000290000F0AE
:1001100057F900F011F8C046000008000040002028
:1001200000000000000000006000002060000020CF
:100130000000000000000000084B10B50400002B78
:1001400002D0002100E000BF054B1868836A002B35
:1001500000D09847200000F031F8C04600000000B1
:100160000405000070B500260C4D0D4C641BA41056
:10017000A64209D1002600F0B9F90A4D0A4C641BC9
:10018000A410A64205D170BDB300EB5898470136C4
:10019000EEE7B300EB5898470136F2E76000002025
:1001A0006000002060000020600000200300821832
:1001B000934200D1704719700133F9E7FEE7C0465A
:1001C00080B500AF00F01CF8031E06D0094B0A4AA8
:1001D0001A600A4B802212021A6000F051F8031EC6
:1001E00005D08023DA05C123DB000121D150C046B0
:1001F000BD4680BD04050040DFFF07C0186C00400D
:1002000080B500AF1A4B1B68FF221340012B2AD187
:10021000184B1B680F22134025D1174B1B68F02287
:10022000134006D1154B1B68F022134001D1012366
:100230001AE0114B1B68F0221340102B06D10F4B14
:100240001B68F022134001D101230DE00A4B1B680B
:10025000F0221340302B06D1084B1B68F0221340CC
:1002600001D1012300E000231800BD4680BDC04637
:10027000E00F00F0E40F00F0E80F00F0EC0F00F0EA
:1002800080B500AF0D4B1B68FF221340012B11D12D
:100290000B4B1B680F2213400CD10A4B1B68F0223A
:1002A0001340402B06D1084B1B68F022134001D1AC
:1002B000012300E000231800BD4680BDE00F00F0E0
:1002C000E40F00F0E80F00F0EC0F00F080B582B012
:1002D00000AF7860A023DB057A68C132FF3292005C
:1002E0000321D150C046BD4602B080BD80B582B06A
:1002F00000AF78600A00FB1C1A70A023DB05FA1C13
:100300001278920011007A68C132FF329200D15007
:10031000C046BD4602B080BD80B582B000AF7860F7
:100320000A00FB1C1A70FB1C1B78002B08D1A023B1
:10033000DB057A68C132FF3292000021D15007E01C
:10034000A023DA0501217B689940A323DB00D1506B
:10035000C046BD4602B080BD80B582B000AF7860B7
:10036000A023DA0501217B689940A123DB00D1504D
:10037000C046BD4602B080BD80B582B000AF786097
:10038000A023DB0501217A6891400A0002495A50F6
:10039000C046BD4602B080BD0C05000080B582B0ED
:1003A00000AF7860A023DA05A223DB00D2587B6877
:1003B000DA401300012213401800BD4602B080BD90
:1003C00080B500AF1220FFF781FF1220FFF7C4FFB6
:1003D00000211020FFF7A0FF00211120FFF79CFF54
:1003E00001211220FFF798FF01211320FFF794FF4E
:1003F00001211420FFF790FF01211520FFF78CFF4A
:1004000001211620FFF788FF03211020FFF76EFF60
:1004100003211120FFF76AFF1020FFF7BFFF031E23
:1004200003D11320FFF798FF02E01320FFF7A4FF8A
:100430001220FFF791FF322000F00AF81220FFF798
:100440009BFF024B180000F003F8E5E7B80B000033
:1004500080B584B000AF786014E07B68013B7B60BE
:100460000C4BFB60FB6818000138C046C046C04614
:10047000C046C046C046C046C046C046C046C0464C
:10048000C046F1D17B68002BE7D1C046BD4604B021
:1004900080BDC046E703000003210A4802680A4302
:1004A0000260094802680A4302600849084A094B89
:1004B0009B1A03DD043BC858D050FBDC064880473C
:1004C0000648004724050040540500401005000080
:1004D0000000002060000020C1010000C1000000F9
:1004E000FEE7FEE7FEE7FEE7FEE7FEE7F8B5C046FB
:1004F000F8BC08BC9E467047F8B5C046F8BC08BCBE
:080500009E4670470000002038
:08050800B8FBFF7F01000000B9
:1005100000000000000000000000000000000000DB
:1005200000000000000000000000000000000000CB
:1005300000000000000000000000000000000000BB
:1005400000000000000000000000000000000000AB
:10055000000000000000000000000000000000009B
:10056000000000000000000000000000000000008B
:04000003000004995C
:00000001FF
