:020000021000EC
:1080000000400020711F0200B91F0200BB1F0200C8
:108010000000000000000000000000000000000060
:10802000000000000000000000000000BD1F020072
:108030000000000000000000BF1F0200C11F02007E
:10804000C31F0200C31F0200799A0100C31F020070
:10805000C31F0200000000007BA40100C31F020038
:10806000C31F0200C31F0200C31F0200C31F020080
:10807000C31F0200C31F0200C31F0200C31F020070
:10808000C31F0200C5930100C31F0200C31F0200EB
:1080900015940100C31F0200311F0200C31F02001C
:1080A000C31F0200C31F0200000000000000000008
:1080B00000000000000000000000000000000000C0
:1080C000164B002B00D1144B9D46402292029A1A67
:1080D000924600218B460F461348144A121A00F0AC
:1080E00065F80F4B002B00D098470E4B002B00D0AB
:1080F00098470020002104000D000D48002802D000
:108100000C4800E000BF00F02DF82000290005F029
:1081100067FA00F011F8C046000008000040002097
:10812000000000000000000078200020F02800205F
:108130000000000000000000084B10B50400002BF8
:1081400002D0002100E000BF054B1868836A002BB5
:1081500000D09847200000F031F8C0460000000031
:108160003421020070B500260C4D0D4C641BA41088
:10817000A64209D1002609F0D1FF0A4D0A4C641B22
:10818000A410A64205D170BDB300EB589847013644
:10819000EEE7B300EB5898470136F2E7782000206D
:1081A000782000207820002078200020030082180A
:1081B000934200D1704719700133F9E7FEE7C046DA
:1081C00090B589B000AF78601F23FB1800221A70A9
:1081D00054E0304B1A681F23FB181B78DB00D318C0
:1081E000BB61BB691B781A00012393407B612A4B5A
:1081F0001B687A6913403AD07B69DA43264B1B68C7
:108200001A40254B1A60BB691B781322BC18180052
:1082100002F023F903002370BB691B781A000123C5
:1082200093401A001D4B1B6813401322BA18127892
:10823000B96909788A40934219D11323FB181B7836
:10824000BA695278013A51424A41D2B29B1A5A4213
:108250005341DBB2FB60BB695B68002B07D0BB6995
:108260005B68BA691278F968C9B2100098471F2391
:10827000FB181A781F23FB1801321A70084B1B7861
:108280001F22BA1812789A42A3D3C046BD4609B03D
:1082900090BDC046782000208C200020882000203F
:1082A0007C20002080B584B000AF78600A00FB1C01
:1082B0001A7001227B689A401300FB601F4B1B68F9
:1082C000180001F02DFA0300BB60BB68002B31D110
:1082D0001B4B1B68FA68134024D17B68180002F01E
:1082E000BCF8031E06D0174B1A68FB681A43154BDF
:1082F0001A6006E0FB68DA43124B1B681A40114B08
:108300001A600F4B1A68FB681A430D4B1A600B4B2F
:1083100018680D4B1B680022190001F0B9F9030021
:10832000BB6008E0FB68DA43054B1B681A40044B4E
:108330001A6000E0C046BD4604B080BD8420002025
:108340008C200020882000208020002080B588B06C
:1083500000AFF8607A600B23FB180A1C1A707B6868
:10836000042B01D807235FE001F08CFF03001A0003
:1083700001235340DBB2002B08D001F043FF030080
:10838000FB61FB69002B01D0FB694DE0284BFA68CB
:108390001A60284B0B22BA1812781A70264B7A688A
:1083A0001A60264B00221A60254B00221A602BE02F
:1083B0000B23FB181B78DB00FA68D318BB6114236E
:1083C000FB1803221A701423FB1800225A7014237E
:1083D000FB1800229A701423FB180022DA70BB6984
:1083E0009A781423FB185A70BB691B781800154A39
:1083F0001423FB18190001F051FF0300FB61FB6916
:10840000002B01D0FB690FE00B23FB181B780B221C
:10841000BA18591E1170002BCAD10B4A0B4B002100
:10842000180001F0BDF803001800BD4608B080BD7B
:10843000782000207C200020802000208820002040
:108440008C200020A5820100C18101008420002031
:1084500080B582B000AF00237B600CE00B4B1A6844
:108460007B68DB00D3181B780121180001F07EFF28
:108470007B6801337B60064B1B781A007B689A424D
:10848000ECD800231800BD4602B080BD7820002043
:108490007C20002080B500AFBFF34F8F024B034A12
:1084A000DA60BFF34F8FFEE700ED00E00400FA054D
:1084B00080B584B000AFF860B9607A60FFF7EAFF7A
:1084C000C046BD4604B080BD80B584B000AF7860C2
:1084D0007B689B68FB607B68DA68FB68D31A1800CE
:1084E000BD4604B080BD80B582B000AF78600A00A0
:1084F000FB1C1A707B681800FFF7E6FF02007B6820
:108500009B889A4211D87B681A687B68DB68796817
:1085100089880B40D318FA1C12781A707B68DB68C4
:108520005A1C7B68DA60002300E004231800BD4673
:1085300002B080BD80B582B000AF786039607B68E2
:108540001800FFF7C1FF031E11D07B681A687B6813
:108550009B68796889880B40D3181A783B681A7031
:108560007B689B685A1C7B689A60002300E00523A7
:108570001800BD4602B080BD80B582B000AF786003
:108580007B68032213405A425341DBB21800BD46B8
:1085900002B080BD80B582B000AF0200FB1D1A7032
:1085A000064BFA1D127811001F220A40012191404A
:1085B0000A001A60C046BD4602B080BD00E100E07E
:1085C00080B582B000AF0200FB1D1A70074AFB1D88
:1085D0001B7819001F230B40012199400B00190043
:1085E0008023D150C046BD4602B080BD00E100E00E
:1085F00080B582B000AF0200FB1D1A70084AFB1D57
:108600001B7819001F230B40012199400B00190012
:1086100080235B00D150C046BD4602B080BDC0463D
:1086200000E100E080B582B000AF0200FB1D1A70CF
:10863000084AFB1D1B7819001F230B40012199409C
:108640000B001900C0235B00D150C046BD4602B0EC
:1086500080BDC04600E100E0B0B582B000AF0200CE
:108660003960FB1D1A70FB1D1B787F2B32D92F4CF4
:10867000FB1D1B781A000F231340083B99082B4A57
:10868000FB1D1B7818000F230340083B9B08063393
:108690009B00D31804331B68FA1D127810000322C4
:1086A0000240D200FF2090400200D2431A403B68B3
:1086B0009B01FF201840FB1D1B781D0003232B404E
:1086C000DB00984003001A438B1D9B00E318043322
:1086D0001A6027E0164CFB1D1B785BB29B081449FF
:1086E000FA1D127852B29208C03292005258F91D07
:1086F0000978080003210140C900FF2088400100DB
:10870000C94311403A689201FF201040FA1D1278C7
:10871000150003222A40D200904002000A43C033D1
:108720009B001A51C046BD4602B0B0BD00ED00E04E
:1087300000E100E080B582B000AF0200FB1D1A70BE
:10874000FB1D1B787F2B18D9174AFB1D1B781900BE
:108750000F230B40083B9B0806339B00D3180433C0
:108760001A68FB1D1B78190003230B40DB00DA405D
:1087700013009B090322134012E00C4AFB1D1B78D7
:108780005BB29B08C0339B009A58FB1D1B781900F5
:1087900003230B40DB00DA4013009B090322134044
:1087A0001800BD4602B080BD00ED00E000E100E031
:1087B00080B582B000AF0C4B5B68DB05DB0D7B60E6
:1087C0007B68002B0AD07B68103B3B603B685BB248
:1087D0001800FFF7AFFF0300DBB200E0042318002E
:1087E000BD4602B080BDC04600ED00E080B582B05D
:1087F00000AF78600649A123DB007A68CA500321E4
:108800001120FFF729FFC046BD4602B080BDC0461B
:108810000010014080B582B000AF1749D1239B0002
:1088200080225202CA501449C1239B008022520266
:10883000CA501120FFF7F6FE1120FFF7ABFE0E4BDA
:1088400001221A602F237B607B6818000138C04624
:10885000C046C046C046C046C046C046C046C046E8
:10886000C046C046C046F1D1044B01221A70C04632
:10887000BD4602B080BDC04600100140B8200020B7
:1088800080B582B000AF1120FFF79AFE1F49D223B6
:108890009B0080225202CA501C49C2239B008022A6
:1088A0005202CA50194B01225A602F237B607B6809
:1088B00018000138C046C046C046C046C046C04643
:1088C000C046C046C046C046C046C046F1D10F4B68
:1088D00001229A600E4B00221A602F233B603B68F6
:1088E00018000138C046C046C046C046C046C04613
:1088F000C046C046C046C046C046C046F1D1054B42
:1089000000221A70C046BD4602B080BD0010014072
:10891000A4200020B820002080B500AF024A034BFD
:10892000D3581800BD4680BD00100140040500006A
:1089300080B582B000AF786039607A683B68D31A3E
:108940001B021B0A1800BD4602B080BD80B582B074
:1089500000AF78600449A823DB007A68CA50C0469B
:10896000BD4602B080BDC0460010014080B586B053
:1089700000AF78604C4B19687A681300DB009B18D5
:108980009B00CB18BB60494B1B68013303D1474B9D
:108990007A681A6084E0BB685968434B1868434B97
:1089A0001A681300DB009B189B00C3185B68994290
:1089B0001ED83D4B19683D4B1A681300DB009B180D
:1089C0009B00CA18384B1868384B19680B00DB003D
:1089D0005B189B00C3185968BB685B68CB1A53606F
:1089E000324B1A68BB681A62304B7A681A6057E0DB
:1089F000BB685B68FB602D4B1B687B612B4B1B6866
:108A00003B6117E0284B19683A691300DB009B189B
:108A10009B00CB185B68FA68D31AFB603B697B61EB
:108A2000214B19683A691300DB009B189B00CB1897
:108A30001B6A3B613B6901330BD01B4B19683A69D8
:108A40001300DB009B189B00CB185A68FB689A4206
:108A5000D8D33B69013313D0134B19683A6913001B
:108A6000DB009B189B00CA180F4B186839690B0074
:108A7000DB005B189B00C3185968FB68CB1A536076
:108A8000BB68FA685A60BB683A691A62064B196893
:108A90007A691300DB009B189B00CB187A681A6276
:108AA000C046BD4606B080BD94200020A020002016
:108AB00080B586B000AF78603E4B1B687B617B69F8
:108AC0003B610FE03A697B689A420FD03B697B615A
:108AD000394B19683A691300DB009B189B00CB18CF
:108AE0001B6A3B613B690133ECD100E0C0463B6946
:108AF00001335AD07A693B699A4218D12E4B1968D2
:108B00002C4B1A681300DB009B189B00CB181A6AC9
:108B1000284B1A60274B1B68013308D1274B0122D1
:108B20009A60274B00221A60264B01221A70224BB2
:108B300019683A691300DB009B189B00CB185B682F
:108B4000FB601D4B19687A691300DB009B189B00C2
:108B5000CA18194B186839690B00DB005B189B00B9
:108B6000C3181B6A1362144B19687A691300DB007F
:108B70009B189B00CB181B6A3B613B69013315D0E6
:108B80000D4B19683A691300DB009B189B00CA184B
:108B9000094B186839690B00DB005B189B00C31890
:108BA0005968FB68CB18536000E0C046BD4606B06C
:108BB00080BDC046A020002094200020001001406D
:108BC000A4200020B920002080B500AF1120FFF7BD
:108BD0000FFDC046BD4680BD80B500AF1420FFF735
:108BE00007FDC046BD4680BD80B584B000AF78604B
:108BF000114B1B68002B15D00F4B1A687B689869C6
:108C00007B68DB69190090470300FB60FB68BB6071
:108C1000BB68002B0CD0BB68002200211800FFF7B6
:108C200047FC05E07B689A697B68DB691800904720
:108C3000C046BD4604B080BDB420002080B584B0DD
:108C400000AF2C4B1B68013350D000237B60FFF733
:108C500063FE0200284B1B6819001000FFF768FE36
:108C60000300BB60234B1B68FB601EE0234B1968AD
:108C7000FA681300DB009B189B00CB183B603B6835
:108C80005A68BB689A4214D83B685B68BA68D31AC2
:108C9000BB603B685B687A68D3187B603B681B6A83
:108CA000FB603B681800FFF79FFFFB680133DDD1D5
:108CB00000E0C046124B1A78124B1B789A420CD136
:108CC000104B1B780133DAB20E4B1A700D4B1B7828
:108CD000022B02D10B4B00221A700A4B1B781A0090
:108CE000094B92007968D150FFF776FFC046BD4628
:108CF00004B080BDA0200020A420002094200020EB
:108D0000B0200020B1200020A820002080B582B033
:108D100000AF7860184B1A78184B1B789A4223D012
:108D2000154B1B780133DAB2134B1A70124B1B78B8
:108D3000022B02D1104B00221A700F4B1B781A0025
:108D40000F4B9200D2587B681A607B681A680D4BF3
:108D50001B68D2180B4B1A600A4B1B681B021A0ABD
:108D6000084B1A60012303E07B6800221A6000238D
:108D70001800BD4602B080BDB0200020B120002008
:108D8000A8200020A420002080B586B000AF424B70
:108D90001B683B611723FB18404A12781A7066E083
:108DA0003F4B1A681723FB181B78DB00D318FB60B6
:108DB0001623FB18FA6812781A7051E0FB6859689C
:108DC0001623FB181A7813005B009B18DB00CB18E6
:108DD000BB601623FB181A781623FB1801321A7091
:108DE000FB689B781622BA1812789A4203D1162390
:108DF000FB1800221A70BB681B78022B02D0032BD1
:108E000028D02CE0274B1968BB685A681300DB0098
:108E10009B189B00CB187B607B681B7D002B1FD0B1
:108E2000BB685B681800FFF743FE7B6800221A7579
:108E300016E01C4B1968184B1A681300DB009B18CE
:108E40009B00CB183B603B6800221A753B681A6A8E
:108E5000114B1A60104B1B680133EAD100E0C04689
:108E6000FB685B781622BA1812789A42A6D11723AB
:108E7000FB181B781722BA18591E1170002B8FD1BE
:108E8000054B1A683B69D31A5A1E9341DBB218008E
:108E9000BD4606B080BDC046A0200020982000201E
:108EA0009C2000209420002080B588B000AFF8609E
:108EB000B9607A600023FB6142E0254B1968254BBD
:108EC0001A681300DB009B189B00CB18BB61BB69C1
:108ED0005A68FB689A4206D9BB695A68FB68D21A7D
:108EE000BB695A6030E0BB695B68FA68D31AFB6003
:108EF000BB695B68FA69D318FB61BB6900225A60E1
:108F0000BB6900221A75134B1B687B61BB691A6A27
:108F1000104B1A60BB691B69002B11D0BA68FB6942
:108F2000D3181B021A0ABB699A60BB691A69BB692C
:108F3000DA607B681A68BB691A627B687A691A60B2
:108F4000044B1B680133B8D1C046BD4608B080BD94
:108F500094200020A020002080B58AB000AF786067
:108F6000664B1B68BB612723FB18654A12781A7091
:108F7000AEE0644B1A682723FB181B78DB00D3187C
:108F80007B619AE07B6801330ED07B683B625E4B6D
:108F900019683A6A1300DB009B189B00CB18FB6131
:108FA000FB691B6A7B6045E07B695A687B691B78BB
:108FB00019000B005B005B18DB00D3183B617B6979
:108FC0001B780133DAB27B691A707B691A787B6986
:108FD0009B789A4202D17B6900221A703B695B68D8
:108FE0003B62494B19683A6A1300DB009B189B00EF
:108FF000CB18FB613B691B78012B5ED1FB691B7DA4
:10900000002B00D059E03B699A68FB699A603B6984
:10901000DA68FB69DA603B691A69FB691A613B69C6
:109020005A69FB69DA61394B1B78002B02D0FB6966
:1090300000229A60FB699A68354B1B68D31A1B02A1
:109040001B0A344A93420ED8FB699A68304B1B685E
:1090500019001000FFF76CFC0200FB69DB68D218F6
:10906000FB695A6018E02A4B1A68FB699B68190073
:109070001000FFF75DFC0300FB60FB69DA68FB682A
:109080009A4206D9FB69DA68FB68D21AFB695A6012
:1090900002E0FB6900225A60FB6900229A60FB69CA
:1090A0000022DA60FB6901221A75FB690122524233
:1090B0001A623B6A1800FFF759FC7B68013300D045
:1090C00060E77B691A787B695B789A4200D059E740
:1090D0002723FB181B782722BA18591E1170002B62
:1090E00000D046E7054B1A68BB69D31A5A1E934154
:1090F000DBB21800BD460AB080BDC046A0200020EB
:10910000982000209C20002094200020B9200020DE
:10911000A4200020FEFF7F0090B589B000AF7860EA
:109120002A4B1B6801334BD0294B1968274B1A680F
:109130001300DB009B189B00CB185B68FB61FFF7FB
:10914000EBFB0300BB61234B1B687B617A69BB6946
:1091500011001800FFF7ECFB030003333B611E4BCB
:109160001B7801225340DBB2002B01D0FFF752FBEA
:10917000FA693B69934200D213007A69D3187B6184
:109180007B691B021B0A7B617B691800FFF7DEFB12
:10919000FFF7C2FB0300FB60BA69FB68110018000F
:1091A000FFF7C6FB0300DC1CBA697B6911001800DD
:1091B000FFF7BEFB03009C4204D9FFF705FD01E069
:1091C000FFF75EFBC046BD4609B090BDA020002061
:1091D00094200020A4200020B820002090B587B063
:1091E00000AF01235B427B601E4B1B683B611E4B43
:1091F0001B68FB600B23FC183B001800FFF786FD83
:10920000030023701723FC18FFF7BEFD0300237033
:109210000B23FB181B78002B09D03B683A1D3969DA
:109220001800FFF741FE1723FB1801221A707B6814
:109230001800FFF791FE031E03D01723FB1801222D
:109240001A701723FB181B78002B03D0FB6818003B
:10925000FFF762FF054B00221A70C046BD4607B0FB
:1092600090BDC046A4200020A0200020B9200020EE
:1092700080B582B000AF786039603B68DAB27B6855
:109280005A70C046BD4602B080BD80B584B000AF04
:10929000786039607B685B780133FB607B689B7822
:1092A0001A00FB689A4201D10023FB607B681B789F
:1092B0001A00FB689A4201D100230EE03B68FA686D
:1092C0001A607B685A687B685B7819000B005B004A
:1092D0005B18DB00D318BB60BB681800BD4604B048
:1092E00080BD000080B586B000AFF860B9607A60DC
:1092F0003B601B4B1A68FB68DB00D3181022BA18BE
:1093000011001800FFF7C1FF03007B617B69002B90
:1093100001D1042320E07B6901221A707B69BA68BD
:109320005A60FFF7F9FA02007B699A607B697A68F4
:10933000DA607B693A681A617B693A6A5A61084B5C
:109340001A68FB68DB00D3183A6911001800FFF7B0
:109350008FFFFFF741FC00231800BD4606B080BD1B
:109360009C20002080B584B000AF78603960144B39
:109370001A687B68DB00D3180822BA18110018009D
:10938000FFF783FF0300FB60FB68002B01D1042380
:1093900012E0FB6802221A70FB683A685A60084BB8
:1093A0001A687B68DB00D318BA6811001800FFF751
:1093B0005FFFFFF711FC00231800BD4604B080BD1D
:1093C0009C20002080B500AF114AA0235B00002143
:1093D000D1500F4AA2235B000021D1500C4AA42394
:1093E0005B000021D1500A4AA6235B000021D15026
:1093F000074A80235B000021D150054A82235B008D
:109400000021D150FFF71AFCC046BD4680BDC046C2
:109410000010014080B500AFFFF7E0FEC046BD463A
:1094200080BD000080B586B000AFF8600800110074
:109430007B600B23FB18021C1A700A23FB180A1C02
:109440001A707B681800FFF797F803001A000123D1
:109450005340DBB2002B01D007238BE07B68002B4D
:1094600001D1072386E0FFF70BFA444B3A6A1A60F2
:10947000434B0B22BA1812781A70424B7A681A6062
:1094800000237B6116E03F4B19687A691300DB000B
:109490009B189B00CB1800221A703A4B19687A6906
:1094A0001300DB009B189B00CB1800221A757B6908
:1094B00001337B610B23FB181A787B699A42E2DC4B
:1094C0000B23FB181A781300DB009B189B001A0073
:1094D0007B689B187B602C4B03221A702B4B7A689D
:1094E0001A607B6818337B6000237B6121E0274B87
:1094F0001A687B69DB00D3183B613B6900221A7054
:109500003B6900225A703B690A22BA1812789A7095
:109510003B697A685A600A23FB181A7813005B00CB
:109520009B18DB001A007B689B187B607B6901330A
:109530007B617B69022BDADD154B012252421A60F6
:10954000144B00221A70144B00221A701420FFF7DB
:1095500069F803211420FFF77FF81420FFF71AF8A9
:10956000FB681800FFF742F9FFF7D6F902000B4B32
:109570001A6000231800BD4606B080BDB42000204C
:109580009020002094200020982000209C20002083
:10959000A0200020B0200020B1200020A420002026
:1095A00080B586B000AFF8607A600B23FB180A1C08
:1095B0001A70284B1B68002B01D1082346E07B68FA
:1095C000002B01D1072341E0FB68002B01D10723C9
:1095D0003CE000237B6132E01E4B19687A6913007E
:1095E000DB009B189B00CB181B78002B24D1194B58
:1095F00019687A691300DB009B189B00CB180122C5
:109600001A70144B19687A691300DB009B189B00D1
:10961000CB180B22BA1812785A700E4B19687A6957
:109620001300DB009B189B00CB187A689A617A695B
:10963000FB681A60002309E07B6901337B61064BFC
:109640001B781A007B699A42C6DC04231800BD46C9
:1096500006B080BD942000209020002080B582B00C
:1096600000AFFFF7A5F80300012B02D0032B03D0B6
:1096700005E000237B6005E001237B6002E002231C
:109680007B60C0467B681800BD4602B080BD00000C
:1096900090B589B002AFF860B9607A601E4B1B6864
:1096A000002B01D1082333E01C4B1B781A00FB6808
:1096B0009A4202D9BB68042B01D8072328E0164B35
:1096C0001968FA681300DB009B189B00CB181B7805
:1096D000012B01D008231BE00F4B1968FA68130017
:1096E000DB009B189B00CB185B78012B01D1BB687A
:1096F00000E000237B61FFF7B1FF04007869BA68DE
:10970000F9687B68009303002000FFF7EBFD03007E
:109710001800BD4607B090BD942000209020002086
:1097200080B582B000AF7860134B1B68002B01D16D
:1097300008231DE0114B1B781A007B689A4201D860
:10974000072315E00C4B19687A681300DB009B189F
:109750009B00CB181B78012B01D0082308E0FFF7F2
:109760007DFF02007B6819001000FFF7FBFD03007E
:109770001800BD4602B080BD94200020902000203B
:1097800080B582B000AF786039603B681B7B002BEE
:1097900007D03B685A687B681A607B6800221A71A0
:1097A00006E03B681A687B681A607B6801221A71C0
:1097B000C046BD4602B080BD80B582B000AF7860C3
:1097C00039607B681B79002B18D03B685A687B682E
:1097D0001B68D21A3B689B689A4207D97B681A6853
:1097E0003B689B68D2187B681A601FE03B685A6828
:1097F0007B681A607B6800221A7117E07B681A6820
:109800003B681B68D21A3B689B689A4207D97B6801
:109810001A683B689B68D21A7B681A6006E03B684E
:109820001A687B681A607B6801221A717B681B6862
:109830001800BD4602B080BD80B584B000AF78602E
:109840007B689B68FB607B68DA68FB68D31A18004A
:10985000BD4604B080BD000080B500AF084B0022BB
:109860001A70084B0122DA60064B01225A60054A41
:10987000A023DB000021D150C046BD4680BDC046BC
:10988000E02000200020004080B582B000AF094BEE
:109890000122DA60084B01221A703B0003221A7081
:1098A000064B1B683A0010009847C046BD4602B000
:1098B00080BDC04600200040E0200020DC200020C9
:1098C00080B582B000AF144B1B78DBB2022B02D004
:1098D000124B01229A60FA1D114B11001800FEF77D
:1098E00029FE031E02D0FFF7CFFF12E00B4AC2236E
:1098F0009B008021D150094AFB1D1B781900094BA0
:10990000D150054B02221A70044AC1239B008021CA
:10991000D150BD4602B080BDE020002000200040B4
:10992000CC2000201C05000080B500AF064B1800BD
:10993000FFF782FF031E02D0FFF7C2FF01E0FFF72F
:10994000A3FFC046BD4680BDCC20002080B500AF3F
:10995000084B1B78DBB2012B02D0022B03D006E0B0
:10996000FFF77AFF03E0034B03221A70C046C0469C
:10997000BD4680BDE020002080B500AF114B1B78B4
:10998000DBB2002B02D0032B15D018E00E4AA02327
:10999000DB000421D1500C4B01221A600B4B180044
:1099A000FFF74AFF031E02D0FFF78AFF07E0054BCF
:1099B00001221A7003E0034B02221A70C046C0460F
:1099C000BD4680BDE020002000200040CC200020CB
:1099D00080B500AF094B1B78DBB2012B0ADB022BF1
:1099E00005DD032B00D005E0FFF736FF03E0FFF7AE
:1099F0009BFF00E0C046C046BD4680BDE020002081
:109A000080B500AF044B1B78DBB2012B01D1FFF70F
:109A100057FFC046BD4680BDE020002080B500AFA6
:109A2000FFF71AFFC046BD4680BD000080B582B07A
:109A300000AF0200FB1D1A70FB1D1B78042B13D80E
:109A40009A000C4BD3181B689F46FFF77FFF0CE072
:109A5000FFF792FF09E0FFF7BBFF06E0FFF7D0FF3B
:109A600003E0FFF7DBFF00E0C046C046BD4602B0A2
:109A700080BDC0463821020080B588B000AF364AAC
:109A800084235B00D358002B33D0334A84235B00FC
:109A90000021D150304AA323DB00D358DAB22F4B38
:109AA00011001800FEF71FFD0300FB61FB69002B8E
:109AB0000ED01023FB1801221A701023FB18FA692C
:109AC0005A60274B1B681022BA181000984710E004
:109AD000224B1800FFF7B0FE0300012B09D1082329
:109AE000FB1800221A701E4B1B680822BA181000BF
:109AF0009847194A8E235B00D358002B07D0164A8B
:109B00008E235B000021D1500320FFF78FFF124A04
:109B100092235B00D358002B19D00F4A92235B008D
:109B20000021D1500C4A9023DB00D358BB610A4975
:109B30009023DB00BA69CA503B0002221A703B0036
:109B4000BA695A60064B1B683A0010009847C04635
:109B5000BD4608B080BDC04600200040BC200020AB
:109B6000DC20002080B582B000AF0200FB1D1A701F
:109B7000064BFA1D127811001F220A400121914064
:109B80000A001A60C046BD4602B080BD00E100E098
:109B900080B582B000AF0200FB1D1A70084AFB1DA1
:109BA0001B7819001F230B40012199400B0019005D
:109BB000C0235B00D150C046BD4602B080BDC04648
:109BC00000E100E0B0B582B000AF02003960FB1DDB
:109BD0001A70FB1D1B787F2B32D92F4CFB1D1B7875
:109BE0001A000F231340083B99082B4AFB1D1B78D2
:109BF00018000F230340083B9B0806339B00D31833
:109C000004331B68FA1D1278100003220240D200B0
:109C1000FF2090400200D2431A403B689B01FF2086
:109C20001840FB1D1B781D0003232B40DB009840D0
:109C300003001A438B1D9B00E31804331A6027E0CE
:109C4000164CFB1D1B785BB29B081449FA1D127859
:109C500052B29208C03292005258F91D0978080099
:109C600003210140C900FF2088400100C943114081
:109C70003A689201FF201040FA1D12781500032265
:109C80002A40D200904002000A43C0339B001A5180
:109C9000C046BD4602B0B0BD00ED00E000E100E00E
:109CA00080B582B000AF0200FB1D1A70BB1D0A1CFC
:109CB0001A70BB1D1A78FB1D1B785BB211001800CF
:109CC000FFF780FFFB1D1B785BB21800FFF760FFFA
:109CD000FB1D1B785BB21800FFF744FFC046BD4672
:109CE00002B080BD80B582B000AF0200BB1D1A80FB
:109CF000BB1D1B88180000F01DF803001B68013B0A
:109D00005A425341DBB21800BD4602B080BD80B557
:109D100082B000AF0200BB1D1A80BB1D1B8818005B
:109D200000F008F8030000221A60C046BD4602B0E9
:109D300080BD000080B582B000AF0200BB1D1A805C
:109D4000BB1D1B88034A944663441800BD4602B0FD
:109D500080BDC0460060004080B582B000AF786032
:109D60000449C1239B007A68CA50C046BD4602B070
:109D700080BDC0460060004080B582B000AF786012
:109D8000044AC1239B00D3587A6813401800BD468B
:109D900002B080BD0060004080B582B000AF786046
:109DA0000849084A7B684533FF339B009B580122D2
:109DB0001A437B684533FF339B005A50C046BD466B
:109DC00002B080BD0060004090B585B000AFF86083
:109DD000B960FB1D1A701649154AFB684533FF33FD
:109DE0009B009B58134A1A40FB684533FF339B0086
:109DF0005A500F480E4AFB684533FF339B009A5870
:109E0000BB681902F8235B011940FB1D1B781B047A
:109E10001C00C0239B0223400B431A43FB684533BD
:109E2000FF339B001A50C046BD4605B090BDC046EA
:109E300000600040FFE0FCFF80B582B000AF7860BA
:109E4000064A7B684533FF339B009B581B0A1F2241
:109E500013401800BD4602B080BDC04600600040FF
:109E600080B582B000AF7860064A7B684533FF3327
:109E70009B009B581B0C03221340DBB21800BD460D
:109E800002B080BD0060004080B582B000AF786055
:109E90000A00FB1C1A70A023DB05FA1C1278920042
:109EA00011007A68C132FF329200D150C046BD46DF
:109EB00002B080BD80B584B000AF7860A023DB0520
:109EC0007A68C132FF329200D35802229343FB607A
:109ED000A023DB057A68C132FF329200F968D150C5
:109EE000C046BD4604B080BD80B582B000AF78608A
:109EF0000A00FB1C1A70A023DB05A022D20579689A
:109F0000C131FF3189008A580E4911407A68C13247
:109F1000FF329200D150A023DB05A022D205796840
:109F2000C131FF3189008A58F91C097809041143AD
:109F30007A68C132FF329200D150C046BD4602B0AD
:109F400080BDC046FFFFFCFF80B582B000AF7860E7
:109F5000A023DA05A223DB00D2587B68DA40130085
:109F6000012213401800BD4602B080BD80B500AF8D
:109F7000A023DA05A223DB00D3581800BD4680BD1C
:109F800080B582B000AF7860A023DB057A68C1326B
:109F9000FF329200D3581B0C03221340DBB218008F
:109FA000BD4602B080BD000080B582B000AF7860D1
:109FB0000E4A2C217B68D3185B181B785BB2002BF0
:109FC0000ADB0A4A2C217B68D3185B181B785BB22A
:109FD000032B01DC012300E000231A1C01231340A2
:109FE000DBB21800BD4602B080BDC046E4200020B0
:109FF00080B582B000AF7860084A2C217B68D31806
:10A000005B181B785BB20122032B01DC00231A1CB6
:10A01000D3B21800BD4602B080BDC046E420002087
:10A0200080B582B000AF7860074A2C217B68D318D6
:10A030005B181B785BB2DB43DBB2DB09DBB21800D9
:10A04000BD4602B080BDC046E420002080B584B08B
:10A0500000AFF860B9607A601A00FB1C1A70BB6828
:10A0600058B2114A2C21FB68D3185B18021C1A70D5
:10A070000D4ABB689B00D31804337A681A60FB1C36
:10A080001B7801225340DBB2002B09D0BB68043B94
:10A09000FA6850B2044A4C21D3185B18021C1A709B
:10A0A000C046BD4604B080BDE420002080B582B02B
:10A0B00000AF7860054A2C217B68D3185B18FF221B
:10A0C0001A70C046BD4602B080BDC046E4200020E4
:10A0D00080B582B000AF7860054A2C217B68D31828
:10A0E0005B181B785BB21800BD4602B080BDC0464D
:10A0F000E420002080B582B000AF7860054A4C2192
:10A100007B68D3185B181B785BB2DBB21800BD46C6
:10A1100002B080BDE420002080B582B000AF78603E
:10A12000044A7B689B00D31804331B681800BD46A3
:10A1300002B080BDE420002080B588B000AFF86098
:10A14000B960FB1D1A701F23FB18FF221A70FB1D3C
:10A150001B78002B01D0002300E004237B61FB1D52
:10A160001B78002B01D0042300E00A233B617B69AC
:10A17000BB6116E0114ABB699B00D31804331B680E
:10A1800001330BD1FB1D1B78BA68B969F868FFF77A
:10A190005DFF1F23FB18BA691A7006E0BB69013323
:10A1A000BB61BA693B699A42E4D31F23FB181B7851
:10A1B0005BB21800BD4608B080BDC046E420002058
:10A1C00080B582B000AF0200FB1D1A70FB1D1B782A
:10A1D0000B4A9B00D3180433012252421A60FB1D24
:10A1E0001B78032B08D9FB1D1B78043B044A4C2128
:10A1F000D3185B18FF221A70C046BD4602B080BD5E
:10A20000E420002080B582B000AF1D4B1B78002BEE
:10A2100001D0082330E0FB1D00221A7009E0FB1D6D
:10A220001B781800FFF742FFFB1D1A78FB1D013257
:10A230001A70FB1D1B781F2BF1D9FB1D00221A7011
:10A2400009E0FB1D1B781800FFF7BAFFFB1D1A7809
:10A25000FB1D01321A70FB1D1B78092BF1D901215E
:10A260000620FFF71DFD80231B061800FFF774FD75
:10A27000034B01221A7000231800BD4602B080BDB6
:10A28000E420002080B500AF034B1B785A1E934199
:10A29000DBB21800BD4680BDE420002090B587B039
:10A2A00000AFF860B9607A6000237B61FB6818003A
:10A2B000FFF7B6FE031E02D008237B614EE0BB68A9
:10A2C000DA781323FC187968FB681800FFF734FF6D
:10A2D000030023701323FB181B785BB201333BD0C0
:10A2E000BB689B78002B04D0FB681800FFF7E2FDE9
:10A2F00006E0BB685A78FB6811001800FFF7C4FD40
:10A30000BB68DB78002B0AD01323FB1800201856FB
:10A31000BB681A78FB681900FFF756FD1EE013238F
:10A32000FB181B785BB2043B1322BA18127852B2A6
:10A33000043A0D494C208A18121800215156BA6867
:10A340001278920152B20A4350B2074A4C21D318F4
:10A350005B18021C1A7001E004237B617B69180002
:10A36000BD4607B090BDC046E420002090B587B040
:10A3700000AF78600A00FB1C1A707B681800FFF7BA
:10A3800037FE031E3CD07B681800FFF7A1FE0300D8
:10A39000043B1622BC181800FFF7ACFE0300237024
:10A3A0001523FB181622BA18127892091A70152371
:10A3B000FB181B78032B0FD1FFF7D8FD01000122FA
:10A3C0007B689A4013000B4001D0032200E0022278
:10A3D0001723FB181A700AE01523FB181B78012BB2
:10A3E00001D1022200E003221723FB181A70172361
:10A3F000FB181A787B6811001800FFF775FD28E03C
:10A400007B681800FFF7D0FD031E22D07B68180080
:10A41000FFF75EFE03003B613B699BB240339AB29B
:10A420000E23FB1892001A803B691800FFF7B4FC5A
:10A430000E23FB181B881800FFF769FCFB1C1B7818
:10A44000002B06D001223B699A4013001800FFF749
:10A4500083FCC046BD4607B090BD80B582B000AF5A
:10A4600078607B681800FFF76FFD03005A1E934168
:10A47000DBB21800BD4602B080BD90B58FB000AF12
:10A4800000237B6300233B632A23FB1880225200B6
:10A490001A8001237B620023FB6227E02A23FB183A
:10A4A0001B881800FFF71EFC031E12D00122FB6A56
:10A4B0009A4013001800FFF75FFC031E09D02A23FF
:10A4C000FB181B881800FFF722FC7A6B7B6A13438A
:10A4D0007B637B6A5B007B622A23FB182A22BA1803
:10A4E000128804321A80FB6A0133FB62FB6A032B79
:10A4F000D4D9BE235B001800FFF7F4FB031E0DD078
:10A50000BE235B001800FFF702FC7B6B8022120663
:10A5100013437B63FFF72AFD03003B637B6B0F2232
:10A5200013402CD001237B620023FB6224E07B6A72
:10A530007A6B13401AD0FB6A1800FFF77DFC03000A
:10A540003B621F23FC18FB6A1800FFF789FC03001D
:10A550002370FB6A1800FFF7DFFD0300BB611F23B8
:10A56000FB1819783A6ABB69100098477B6A5B0050
:10A570007B62FB6A0133FB62FB6A032BD7D97B6BDF
:10A58000002B68DA0023FB6262E01723FC18FB6AE9
:10A590001800FFF7AFFD030023701723FB181B788B
:10A5A000C02293433B610F23FB181722BA1812787D
:10A5B00092091A7001223B699A4013007B623B6941
:10A5C0001800FFF715FD031E3FD03B691800FFF789
:10A5D0007FFD03001800FFF79FFD0300BB60BB6811
:10A5E000002B32D0FC1D3B691800FFF7C9FC0300AB
:10A5F00023707B6A3A6B134003D0FB1D1B78022B40
:10A6000007D07B6A3A6B13401FD1FB1D1B78032BCD
:10A610001BD10F23FB181B78032B0FD1FB1D1B78BD
:10A62000022B01D1032200E00222BB1D1A70BB1DC8
:10A630001A783B6911001800FFF756FC0F23FB182E
:10A6400019783A69BB6810009847FB6A0133FB62CE
:10A65000FB6A052B99D9C046BD460FB090BD80B5A9
:10A6600000AF80235B051B699BB21800BD4680BD0F
:10A6700080B582B000AF0B4B5B697B607B680133B8
:10A6800008D0FFF7ECFF03001900786807F09AFC88
:10A69000030002E080235B055B691800BD4602B041
:10A6A00080BDC0460010001029DF7047C04618006A
:10A6B00028DF7047C046180080B582B000AF7860D0
:10A6C0007B68032213405A425341DBB21800BD4657
:10A6D00002B080BD80B582B000AF78601F497A6853
:10A6E00013009B009B189B00CB18043300221A70A8
:10A6F0001A497A6813009B009B189B00CB180633FD
:10A7000000221A8015497A6813009B009B189B0051
:10A71000CB180C3301221A6010497A6813009B0091
:10A720009B189B00CB18103300221A600B497A68E3
:10A7300013009B009B189B00CB18143300221A6057
:10A7400006497A6813009B009B189B00CB180833BE
:10A7500000221A80C046BD4602B080BD38210020CC
:10A7600080B582B000AF104B00221A800F4B002240
:10A770001A700F4B00221A700D4B00225A700C4BAE
:10A7800000229A7000237B6006E07B681800FFF7C8
:10A79000A1FF7B6801337B607B68092BF5D9C0463C
:10A7A000BD4602B080BDC0460C2200200F22002012
:10A7B0003821002080B586B000AFB9607A601900FA
:10A7C0000F23FB18021C1A700C23FB180A1C1A809A
:10A7D0001323FB1800221A70444B5B780A2B00D11C
:10A7E0007DE0424B1978414B5A781323FB188A18A5
:10A7F0001A701323FB181B78092B06D91323FB1897
:10A800001322BA1812780A3A1A701323FB181A780E
:10A81000364913009B009B189B00CB1804330F2272
:10A82000BA1812781A701323FB181A782F491300DC
:10A830009B009B189B00CB18053300221A70132332
:10A84000FB181A78294913009B009B189B00CB1812
:10A8500014337A681A601323FB181A7823490820E6
:10A8600013009B009B189B00CB181B18BA6804337D
:10A8700003CA03C31323FB181A781C4913009B0057
:10A880009B189B00CB1806330C22BA1812881A802A
:10A890001323FB181A78154913009B009B189B0083
:10A8A000CB1808332022BA1812881A8000237B6143
:10A8B0000E4B9B7801225340DBB2002B08D000F0F6
:10A8C000CBFA03007B617B69112B01D100237B61F3
:10A8D000064B5B780133DAB2044B5A7001E0042373
:10A8E0007B617B691800BD4606B080BD3821002021
:10A8F00080B582B000AF00237B600E4B5B78002BED
:10A9000012D00C4B9B7801225340DBB2002B0BD0B2
:10A9100000F0A2FA03007B607B68002B04D07B6808
:10A92000112B01D100237B607B681800BD4602B06B
:10A9300080BDC04638210020B0B586B002AF786037
:10A9400039600F23FB183A6812781A703B689A68CE
:10A950000B4B1201D358BB603B68083318003B68AF
:10A960001D693B685B881C007A680F23FB18197807
:10A970000094BC682B00A047C046BD4604B0B0BDE3
:10A980001022002080B586B000AF786000237B6184
:10A990009A4B9B78002B00D12DE1984B00229A70A6
:10A9A000974B1B78082B21D17B68022B03D1944B4A
:10A9B00000221A7002E0934B00221A70FFF798FFF2
:10A9C00003007B617B69002B00D10FE18B4B1B786F
:10A9D0001A0013009B009B189B00884A9B181A1DA5
:10A9E0007B6911001800FFF7A7FFFFE07B68022BCF
:10A9F00003D0032B00D1C4E0FDE0804B1B781A008C
:10AA000013009B009B189B007C4A9B1804333B61FE
:10AA10007D4B1B8801339AB27B4B1A803B691B78B4
:10AA2000022B08D1784B1B889B023A6952889342CB
:10AA300001DB012200E000220F23FB181A701A78B4
:10AA400001210A401A703B691B78052B05D16C4B1C
:10AA50001B78072B01D1012200E000220E23FB18F6
:10AA60001A701A7801210A401A703B691B78042B6E
:10AA700005D1634B1B78072B01D1012200E0002296
:10AA80000D23FB181A701A7801210A401A703B69CD
:10AA90001B78042B0CD15C4B1B889B023A695288B3
:10AAA000934205DB564B1B78002B01D1012200E0BD
:10AAB00000220C23FB181A701A7801210A401A7020
:10AAC0000E23FB181B78002B0ED10D23FB181B78CF
:10AAD000002B09D10C23FB181B78002B04D10F236A
:10AAE000FB181B78002B35D00B23FB18434A127838
:10AAF0001A70434B00221A70434B00221A803F4BBE
:10AB00005B78013BDAB23D4B5A703C4B1B7801330A
:10AB1000DAB23A4B1A70394B1B78092B05D9374BEF
:10AB20001B780A3BDAB2354B1A700B23FB181A78E4
:10AB300013009B009B189B00304A9B181A1D7B69D1
:10AB400011001800FFF7F8FE0B23FB181B78180004
:10AB5000FFF7C0FDFFF7CCFE03007B617B69002B94
:10AB600046D0264B1B781A0013009B009B189B00B5
:10AB7000224A9B181A1D7B6911001800FFF7DCFEA2
:10AB800036E01E4B1B781A0013009B009B189B009D
:10AB90001A4A9B1804333B613B695B780133DAB294
:10ABA0003B695A703B695B78032B0ED1134B1B78C2
:10ABB0001A0013009B009B189B00104A9B1804333B
:10ABC00019000D20FFF7B8FE14E000F045F903006E
:10ABD0007B617B69002B0DD07B69112B0AD03A6910
:10ABE0007B6911001800FFF7A7FE03E0C04602E0F2
:10ABF000C04600E0C046BD4606B080BD38210020FA
:10AC00000F2200200E2200200C220020B0B586B0BA
:10AC100000AFF860B9607A603B6003237B618C4BC6
:10AC20001B78002B0CD17B68002B06D13B68002BD6
:10AC300003D1874B02221A7002E0854B01221A7061
:10AC4000834B1B78062B00D9EFE09A00814BD31879
:10AC50001B689F46FFF70CFD03005C1EFFF7FFFC1F
:10AC6000030063431C00FFF7FAFC03001A00BB68F3
:10AC700053431D00FFF7F3FC03009B089BB21A002F
:10AC800029002000FFF710FD03007B617B69002B8A
:10AC900000D0CCE06E4B02221A70C8E0BB681800EE
:10ACA000FFF706FD03007B617B69002B00D0C0E04D
:10ACB0007B68002B12D13B68002B0BD1FB681B7803
:10ACC000042B03D1624B07221A70B2E0604B0522BD
:10ACD0001A70AEE05E4B04221A70AAE05C4B0322AD
:10ACE0001A70A6E0FFF7BBFC03001A00BB685343D1
:10ACF0001D00FFF7BDFC03005C1EFFF7B0FC030066
:10AD0000634319007B681A002800FFF7CDFC03009D
:10AD10007B617B69002B00D08DE03B68002B0BD161
:10AD2000FB681B78042B03D1494B06221A7082E082
:10AD3000474B05221A707EE0454B04221A707AE0D8
:10AD4000FFF78DFC03001A00BB685A437B689B0029
:10AD5000D318FA6852889B181D00FFF789FC03007E
:10AD60005C1EFFF77CFC030063431A007B689B00BA
:10AD7000D318FA6852889B1819003B681A002800FB
:10AD8000FFF792FC03007B617B69002B55D1FB68C8
:10AD90001B78042B03D12E4B06221A704DE02C4B4E
:10ADA00005221A7049E0FFF75AFC03001A00BB683D
:10ADB0005A437B689B00D3181800FB681969FB682D
:10ADC0005B889B089BB21A00FFF76EFC03007B6157
:10ADD0007B69002B33D17B68002B06D13B68002BAD
:10ADE00003D11B4B07221A7029E0194B06221A7057
:10ADF00025E0FFF73DFC03005C1EFFF730FC03007D
:10AE00005C43FFF72CFC03001900200007F0DAF880
:10AE100003001800FFF74CFC03007B617B69002BEB
:10AE20000FD10B4B07221A700BE0C0460AE0C04658
:10AE300008E0C04606E0C04604E0C04602E0C04666
:10AE400000E0C0467B691800BD4606B0B0BDC046F4
:10AE50000F2200204C21020090B58FB000AF0F23CD
:10AE60007B637A4B1B781A0013009B009B189B0096
:10AE7000764A9B1804333B633B6BDB68FB623B6B9E
:10AE80001B78042B36D0052B00D1A1E0022B00D07B
:10AE9000D0E03B6B1B69BB626D4B1B889B027B62E6
:10AEA0003B6B5B881A007B6AD31A3B62BA6A7B6A87
:10AEB000D318BB623B6B9B881A007B6AD318FA6A73
:10AEC000D318FB623B6A634A934209D8F86A3B6A2B
:10AED0009A08BB6A1900FFF7E7FB03007B63A9E050
:10AEE000F86A80235A00BB6A1900FFF7DDFB0300F4
:10AEF0007B639FE03B6B9A681E23FB185649120147
:10AF00008A18083212881A803B6B9A681C23FB1837
:10AF1000514912018A180A3212881A803B6B9B68C9
:10AF20004D4A1B01D31804331B68BB61BA69FB6A25
:10AF30009A420AD11E23FB181B881C22BA181288B9
:10AF400053433A6B5288934203D03B6B9B68022B6E
:10AF500013D1FFF784FB03001900F86A07F032F8F9
:10AF600003001A003A4B1B88D3187B617B691800D9
:10AF7000FFF79EFB03007B635CE0FFF770FB0300C1
:10AF80001900F86A07F01EF803007B61FFF767FB02
:10AF900003001A007B695343FA6AD31A9B083B618A
:10AFA0007B695C1CFFF75BFB030063431A003B6B90
:10AFB0005B881900FB6ACB18D31A9B08FB60FB68FF
:10AFC0003A697969386BFFF721FE03007B6331E052
:10AFD000FFF745FB03001900F86A06F0F3FF0300D2
:10AFE000BB603B6B9B881A00FB6AD418FFF737FBEA
:10AFF00003001A00BB685343E31A9B087B60BB68DD
:10B000005C1CFFF72CFB030063431A003B6B9B881F
:10B010001900FB6ACB18396B49885B18D31A9B0857
:10B020003B603B687A68B968386BFFF7EFFD030057
:10B030007B63C0467B6B002B02D1044B01229A70CC
:10B040007B6B1800BD460FB090BDC0463821002074
:10B050000C220020FF0300001022002090B583B0D6
:10B0600000AFFFF77DFB2D4B00221A80FFF700FB9E
:10B0700003009C1EFFF7F3FA030063431A00284BFA
:10B080001A60284B00221A8000237B601CE0264BAC
:10B090007A6812010021D150234A7B681B01D31822
:10B0A000083300221A80204A7B681B01D3180C3316
:10B0B00000221A801C4A7B681B01D3180A33002225
:10B0C0001A807B6801337B607B68002BDFD0174BD5
:10B0D00008221A70FFF7CCFA03005C1EFFF7BFFAD4
:10B0E00003005C43FFF7BBFA03001900200006F0E1
:10B0F00069FF03001800FFF7DBFA03003B603B68C1
:10B10000002B05D10A4B01229A700A4B01221A70BA
:10B110003B681800BD4603B090BDC0460422002025
:10B12000082200200C220020102200200F220020E4
:10B13000382100200E220020B0B584B000AF786026
:10B1400039606F4B1B7801225340DBB2002B01D0DA
:10B150000823D0E07B68002B01D10E23CBE03B68B5
:10B16000002B01D10E23C6E07B681B68002B01D1A8
:10B170000E23C0E07B689C88FFF771FA03009C42B5
:10B1800003D87B689B880F2B01D80723B3E07B682B
:10B19000DB88002B2DD07B68DB881A007B689B88BE
:10B1A00053431A00574B1B68D418FFF761FA03008A
:10B1B0005D1EFFF754FA03006B439C4219D87B686D
:10B1C000DB881A007B689B8853431C00FFF747FA13
:10B1D00003009C420FDDFFF742FA03001A007B6870
:10B1E0009B881900100006F073FF0B009BB2002B28
:10B1F00001D007237FE07B689B88032213409BB22A
:10B20000002B01D0072376E03F4B1B88012B01D197
:10B21000042370E03C4B1B881A003B681A60394BD2
:10B220001A683B685A60384B1B8818003B685A689C
:10B2300036490301CB1804331A60334B1B881A00BC
:10B240007B681968314B1201D1502F4B1B881800B5
:10B250007B6899882D4A0301D31808330A1C1A8089
:10B26000294B1B8818007B68D988284A0301D3180A
:10B270000A330A1C1A800E23FB1800221A807B68EE
:10B280009B881A007B68DB885343BB600E23FB1846
:10B290001A880E23FB1801321A80FFF7E0F9030029
:10B2A0001A00BB689A4207D2FFF7D9F903001A00C7
:10B2B000BB689B1ABB6001E00023BB60FFF7CFF9BE
:10B2C00003001A000F4B1B68D2180E4B1A60BB68A4
:10B2D000002BDBD10C4B1B880C4A1B01D3180C3301
:10B2E0000E22BA1812881A80074B1B8801339AB2B3
:10B2F000054B1A8000231800BD4604B0B0BDC046FF
:10B300000E2200200822002004220020102200200B
:10B3100090B587B000AFF8607A600A23FB180A1C6A
:10B320001A80314B1B7801225340DBB2002B01D035
:10B33000082355E0FB68002B01D10E2350E07B6809
:10B34000002B01D10E234BE0FB681B68002B06D1BC
:10B35000FB681A68254B1201D358002B01D1072333
:10B360003EE01023FB18FA6803CA03C31023FB183E
:10B370005A680A23FB181988FB681B681B481B01C5
:10B38000C31808331B884B43D2181023FB185A608C
:10B390001023FB185A681023FB181B6813491B0164
:10B3A000CB18043319681023FB181B680F481B01C6
:10B3B000C3180A331B881C001023FB181B680B489A
:10B3C0001B01C31808331B886343CB189A4201D36F
:10B3D000072305E07B681022BA1803CA03C30023C1
:10B3E0001800BD4607B090BD0E220020102200209C
:10B3F00090B587B002AFF860B9601900BB1D1A8024
:10B400003B1D0A1C1A804B4B1B7801225340DBB2B8
:10B41000002B01D0082388E0BB68002B01D10E234C
:10B4200083E0FB68002B01D10E237EE0FB681B68E4
:10B43000002B06D1FB681A683F4B1201D358002B32
:10B4400001D1072371E0FB685A68FB681B683A4921
:10B450001B01CB1804331968FB681B6836481B01B5
:10B46000C3180A331B881C00FB681B6832481B0189
:10B47000C31808331B886343CB189A4201D30723B0
:10B4800053E0BB1D1B88002B0AD0FB681B682A4AAF
:10B490001B01D31808331B88BA1D12889A4201D9A0
:10B4A000072342E0BB1D1A883B1D1B88D218FB688E
:10B4B0001B6821491B01CB1808331B889A4201DD08
:10B4C000072332E0BB681800FFF7F6F803001A0004
:10B4D00001235340DBB2002B0BD13B1D1B8818000E
:10B4E000FFF7EAF803001A0001235340DBB2002BF8
:10B4F00001D0102319E0FB685B681800FFF7DCF847
:10B5000003001A0001235340DBB2002B01D01023AB
:10B510000BE0BB1D1888BA68F9683B1D1B880093B7
:10B5200003000220FFF746F903001800BD4605B0EE
:10B5300090BDC0460E2200201022002090B587B09A
:10B5400002AFF860B9601900BB1D1A803B1D0A1CD0
:10B550001A804B4B1B7801225340DBB2002B01D0E9
:10B56000082388E0BB68002B01D10E2383E0FB6831
:10B57000002B01D10E237EE0FB681B68002B06D157
:10B58000FB681A683F4B1201D358002B01D10723E7
:10B5900071E0FB685A68FB681B683A491B01CB18CD
:10B5A00004331968FB681B6836481B01C3180A334B
:10B5B0001B881C00FB681B6832481B01C31808333A
:10B5C0001B886343CB189A4201D3072353E0BB1D6A
:10B5D0001B88002B0AD0FB681B682A4A1B01D31862
:10B5E00008331B88BA1D12889A4201D9072342E00A
:10B5F000BB1D1A883B1D1B88D218FB681B6821499C
:10B600001B01CB1808331B889A4201DD072332E067
:10B61000BB681800FFF750F803001A0001235340DD
:10B62000DBB2002B0BD13B1D1B881800FFF744F841
:10B6300003001A0001235340DBB2002B01D010237A
:10B6400019E0FB685B681800FFF736F803001A0082
:10B6500001235340DBB2002B01D010230BE0BB1DB4
:10B660001888BA68F9683B1D1B8800930300052001
:10B67000FFF7A0F803001800BD4605B090BDC04616
:10B680000E2200201022002090B587B002AFF86093
:10B69000B9601900BB1D1A803B1D0A1C1A80524B51
:10B6A0001B7801225340DBB2002B01D0082397E026
:10B6B000BB68002B01D10E2392E0FB68002B01D167
:10B6C0000E238DE0BB681B68002B06D1BB681A688F
:10B6D000464B1201D358002B01D1072380E0BB68F1
:10B6E0005A68BB681B6841491B01CB1804331968B1
:10B6F000BB681B683D481B01C3180A331B881C002C
:10B70000BB681B6839481B01C31808331B88634397
:10B71000CB189A4201D3072362E0BB1D1B88002B84
:10B720000AD0BB681B68314A1B01D31808331B8839
:10B73000BA1D12889A4201D9072351E0BB1D1A880D
:10B740003B1D1B88D218BB681B6828491B01CB18FE
:10B7500008331B889A4201DD072341E0FB6818008B
:10B76000FEF7AAFF03001A0001235340DBB2002BAF
:10B770000BD13B1D1B881800FEF79EFF03001A002B
:10B7800001235340DBB2002B01D0102328E0BB681B
:10B790005B681800FEF790FF03001A000123534076
:10B7A000DBB2002B01D010231AE03B1D1A88BB68C6
:10B7B0005B68D3181900BB1D1A88FB68180006F0D7
:10B7C0009CFCBB681A68094B1201D458BB1D1B882E
:10B7D000FA68B8680093130000220321A0470023F1
:10B7E0001800BD4605B090BD0E220020102200209A
:10B7F00090B587B002AF78600A00BB1C1A80384B46
:10B800001B7801225340DBB2002B01D0082362E0F9
:10B810007B68002B01D10E235DE07B681B68002B49
:10B8200006D17B681A682F4B1201D358002B01D127
:10B83000072350E07B685A687B681B6829491B0115
:10B84000CB18043319687B681B6826481B01C31892
:10B850000A331B881C007B681B6822481B01C31825
:10B8600008331B886343CB189A4201D3072332E085
:10B870007B685B681800FEF71FFF03001A000123B6
:10B880005340DBB2002B01D0102324E07B685A68C0
:10B890007B681B6813491B01CB1804331B68D01A43
:10B8A0007B681B680F4A1B01D31808331B881900DB
:10B8B00006F00EFC0B1E01D007230CE0BB1C1A88FF
:10B8C000796800230093130000220420FEF772FF22
:10B8D0000300FB60FB681800BD4605B090BDC04684
:10B8E0000E2200201022002080B582B000AF7860C8
:10B8F0000B4B1B7801225340DBB2002B01D00823F5
:10B900000AE07B68002B01D10E2305E0054B5B7834
:10B910001A007B681A6000231800BD4602B080BD83
:10B920000E2200203821002080B584B000AF78605E
:10B9300039607B68032B16D8A023DA05A223DB002D
:10B94000D358DB43FB600C4B7A689200D35801223A
:10B950009A4013001A00FB6813405A1E9341DAB252
:10B960003B681A7002E03B6800221A70002318003E
:10B97000BD4604B080BDC0466821020080B586B0D7
:10B9800000AF0200FB1D1A70BB1D0A1C1A701723A2
:10B99000FB1800221A7000233B6102E03B6901336F
:10B9A0003B613B69032B07D8454B3A699200D2585B
:10B9B000FB1D1B789A42F1D13B69032B6BD8BB1D51
:10B9C0001B78012B04D0022B58D0002B37D062E01B
:10B9D0001723F9183B483A6913005B009B181B5C5E
:10B9E0000B7038493A6913005B009B18CB18013380
:10B9F0001B78002B15D0344B1868344B1A68130091
:10BA00009B009B185B001900314B1A00FDF740FEAC
:10BA10000300FB60FB68002B03D12D4BFA1D12784D
:10BA20001A7028493A6913005B009B18CB1802333F
:10BA30001978284A3B69D3180A1C1A702BE0224B4C
:10BA40001B681800FDF76CFE224A3B69D318197871
:10BA50001C483A6913005B009B18C31802331B781B
:10BA6000994217D11723F91816483A6913005B0059
:10BA70009B18C31802331B780B700BE01723F918BF
:10BA800010483A6913005B009B18C31801331B78F8
:10BA90000B7000E0C0461723FB181B78002B0AD060
:10BAA0000D4B1B68002B06D00B4B1B681722BA18D6
:10BAB000127810009847C046BD4606B080BDC0460B
:10BAC0006821020038220020442200202422002085
:10BAD000482200204C2200203422002080B582B071
:10BAE00000AF78607B681B7802211800FFF746FFE3
:10BAF000C046BD4602B080BD90B589B000AF02001F
:10BB0000FB1D1A700023FB610023BB61FB1D1B782A
:10BB1000172B00D934E39A00E74BD3181B689F46D4
:10BB2000A023DA05A123DB00D821C903D150A0232B
:10BB3000DB05E24A00219950E14BFA1D12781A7098
:10BB40001FE3A023DA05A123DB00D021C903D150D4
:10BB5000A023DB05D94A00219950A023DB05D94A4F
:10BB60009B58F822D2035A408023DB02134016D0A0
:10BB7000A023DA05A123DB008021C902D150A02334
:10BB8000DB05CE4A00219950FB1D1B78022B02D108
:10BB9000E123DB0001E0FA231B01BB6114E0A023D9
:10BBA000DB05C6498022D2025A50A023DA05A12320
:10BBB000DB000021D150FB1D1B78022B01D1C823D3
:10BBC00001E0C8235B00BB61BD4BFA1D12781A70FF
:10BBD000BD4B1C68BB696421180006F0F3F9030033
:10BBE0001A00BA4B1B685343002219002000FDF7CE
:10BBF0004FFD0300FB61C4E2A023DA05A123DB00B3
:10BC0000D021C903D150A023DB05AC4A00219950B3
:10BC1000A023DB05AB4A9B58F822D2035A4080236D
:10BC2000DB02134016D0A023DA05A123DB0080211C
:10BC3000C902D150A023DB05A04A00219950FB1D69
:10BC40001B78032B02D1C8239B0001E0FA231B01C0
:10BC5000BB6114E0A023DB0598498022D2025A5030
:10BC6000A023DA05A123DB000021D150FB1D1B78A6
:10BC7000032B01D1C82301E0C8235B00BB61904BBB
:10BC8000FA1D12781A70904B1C68BB696421180069
:10BC900006F098F903001A008C4B1B6853430022EE
:10BCA00019002000FDF7F4FC0300FB6169E2A0230A
:10BCB000DA05A123DB00D021C903D150A023DB0585
:10BCC0007E4A00219950A023DB057E4A9B58F8222A
:10BCD000D2035A408023DB0213400FD0A023DA05A1
:10BCE000A123DB008021C902D150A023DB05734AC8
:10BCF00000219950FA231B01BB610EE0A023DB0554
:10BD00006E498022D2025A50A023DA05A123DB001B
:10BD10000021D150C8235B00BB61694BFA1D12782A
:10BD20001A70694B1C68BB696421180006F04AF957
:10BD300003001A00654B1B685343002219002000C2
:10BD4000FDF7A6FC0300FB611BE2A023DA05A1239B
:10BD5000DB00D021C903D150A023DB05574A0021C5
:10BD60009950A023DB05574A9B58F822D2035A402A
:10BD70008023DB02134015D0A023DA05A123DB00CA
:10BD80008021C902D150A023DB054C4A00219950E3
:10BD9000FB1D1B78052B01D1C82301E0FA231B01F1
:10BDA000BB6114E0A023DB0544498022D2025A5033
:10BDB000A023DA05A123DB000021D150FB1D1B7855
:10BDC000052B01D1C82301E0C8235B00BB613C4BBC
:10BDD000FA1D12781A703C4B1C68BB69642118006C
:10BDE00006F0F0F803001A00384B1B68534300229A
:10BDF00019002000FDF74CFC0300FB61C1E1A0230A
:10BE0000DA05A123DB00D021C903D150A023DB0533
:10BE10002A4A00219950A023DB052A4A9B58F82280
:10BE2000D2035A408023DB0213400CD0A023DA0552
:10BE3000A123DB008021C902D150A023DB051F4ACA
:10BE4000002199500BE0A023DB051C498022D2027F
:10BE50005A50A023DA05A123DB000021D150184B52
:10BE6000FA1D12781A70184B1868184B1B680022BC
:10BE70001900FDF70DFC0300FB6182E1A023DA0548
:10BE8000A123DB00D021C903D150A023DB050B4A3D
:10BE900000219950A023DB0508498022D2025A5084
:10BEA000A023DA05A123DB000021D150044BFA1DA9
:10BEB00012781A7065E1C046982102000C05000056
:10BEC00020220020040500002C2200202422002033
:10BED000A023DB05AD4A9B587B61A023DA057B6973
:10BEE000D94380231B031940A123DB00D150A02399
:10BEF000DB057969802212030A40A5495A50A54BF7
:10BF00001868A54B1B6800221900FDF7C1FB030050
:10BF1000FB6136E1A023DB059C4A9B583B61A023D3
:10BF2000DA053B69D94380231B031940A123DB00B9
:10BF3000D150A023DB053969802212030A409449BD
:10BF40005A50944B1868944B1A6813009B009B1826
:10BF500000221900FDF79CFB0300FB6111E1A02307
:10BF6000DB058A4A9B58FB60A023DA05FB68D943AE
:10BF700080231B031940A123DB00D150A023DB0544
:10BF8000F968802212030A4081495A50814B18688F
:10BF9000814B1B6800221900FDF77AFB0300FB614F
:10BFA000EFE0A023DB05794A9B58BB60A023DA05AC
:10BFB000BB68D94380231B031940A123DB00D15068
:10BFC000A023DB05B968802212030A4070495A5049
:10BFD000704B1868704B1A6813009B009B18002266
:10BFE0001900FDF755FB0300FB61CAE0A023DB0548
:10BFF0006749F822D2035A50A023DA05A123DB00B7
:10C000000021D150BDE0654B1B681800FDF788FB8F
:10C010000300FB61FB1D1B781122D31ABB61BB69B6
:10C02000002B27D0FB69002B24D1BB69012B14D92D
:10C030005A4B1C68BB69C82253436421180005F0A1
:10C04000C1FF03001A00544B1B6853430022190020
:10C050002000FDF71DFB0300FB61A023DB054C491D
:10C06000802252035A50A023DA05A123DB000021CD
:10C07000D15086E0A023DA05A123DB00802149030B
:10C08000D150A023DB05424A0021995079E0A0233A
:10C09000DA05A123DB00F821C903D150A023DB0579
:10C0A0003B4A002199503E4BFA1D12781A7068E005
:10C0B000A023DA05A123DB00F021C903D150A0237E
:10C0C000DB05334A00219950A023DB05304980224B
:10C0D000D2025A50A023DA05A123DB000021D1505F
:10C0E0002F4BFA1D12781A704BE0A023DA05A1231A
:10C0F000DB00E821C903D150A023DB05244A00213D
:10C100009950A023DB052249802212035A50A02314
:10C11000DA05A123DB000021D150214BFA1D127852
:10C120001A702EE0A023DA05A123DB00E021C90369
:10C13000D150A023DB05164A00219950A023DB052E
:10C140001349C02212035A50A023DA05A123DB00B1
:10C150000021D150124BFA1D12781A7011E0A02361
:10C16000DB050B49F822D2035A50A023DA05A1239C
:10C17000DB000021D1500A4BFA1D12781A7000E042
:10C18000C046FB691800BD4609B090BD040500001B
:10C190000C0500002C220020242200203022002048
:10C1A0002022002080B582B000AF7860064B1B686B
:10C1B0000122134004D0054B1B781800FFF79CFCAC
:10C1C000C046BD4602B080BD2822002020220020AB
:10C1D00080B584B000AF7860A023DB050C4A9B5883
:10C1E000FB60A023DA05FB68D94380235B03194079
:10C1F000A123DB00D150A023DB05F9688022520384
:10C200000A4004495A50C046BD4604B080BDC046ED
:10C21000040500000C05000080B584B000AF0200EA
:10C22000FB1D1A700023FB60084B1B6801221340A2
:10C2300006D0FB1D1B781800FFF75EFC0300FB60B7
:10C24000FB681800BD4604B080BDC046282200200F
:10C2500080B586B000AFF860B9607A6000237B617A
:10C26000384BBA681A60384BFA681A60374B7A68EC
:10C270001A60FB680222134031D000233B610AE0C0
:10C280003B6901220121180000F072F803007B6174
:10C290003B6901333B613B69032B02D87B69002B6F
:10C2A000EED07B69002B08D1BB685A08284B0421CB
:10C2B0001800FCF74BF803007B617B69002B03D16E
:10C2C000FCF7C6F803007B617B69002B07D1214A8C
:10C2D000214B00211800FDF763F903007B61FB6827
:10C2E0000122134012D0A023DA05A123DB00F8219C
:10C2F000C903D150A023DB05184A00219950A0237F
:10C30000DA05A323DB00F821C903D1507B69002B98
:10C3100007D1134A134B00211800FDF741F9030020
:10C320007B617B69002B07D10F4A104B012118005C
:10C33000FDF736F903007B617B691800BD4606B046
:10C3400080BDC04624220020282200203422002064
:10C3500078210200DDBA0100442200200C05000013
:10C36000A5C101002C220020D1C1010030220020F3
:10C3700080B584B000AF786008001100FB1C021C7F
:10C380001A70BB1C0A1C1A700023FB607B68032B0D
:10C390003BD8BB1C1B78012B0BD1FB1C1B78012B42
:10C3A00004D17B68DBB20D33DAB200E00022BB1CA3
:10C3B0001A70FB1C1B78012B04D0022B0BD0002B16
:10C3C00014D01EE014497A6813005B009B18BA1C55
:10C3D00012785A541BE010497A6813005B009B18CE
:10C3E000CB180133BA1C12781A7010E00A497A6827
:10C3F00013005B009B18CB180233BA1C12781A701A
:10C4000005E00723FB60C04601E00723FB60FB68F3
:10C410001800BD4604B080BD3822002080B586B02B
:10C4200000AF786000237B612DE0A023DB051A4A72
:10C43000796989008A58C132FF329200D3583B6132
:10C4400001227B699A4013001A007B68134001D0D7
:10C45000032300E00023FB603B69104A13403B616B
:10C46000FB681B043A6913433B61A023DB050A4ABE
:10C47000796989008A58C132FF3292003969D150F6
:10C480007B6901337B617B69032BCED900231800C4
:10C49000BD4606B080BDC04668210200FFFFFCFF1C
:10C4A00080B582B000AF012200210020FFF760FFBD
:10C4B00003007B607B68002B04D07B68072B01D0D6
:10C4C0007B681EE0072202210120FFF751FF0300D5
:10C4D0007B607B68002B04D07B68072B01D07B68D6
:10C4E0000FE0042202210020FFF742FF03007B60DF
:10C4F0007B68002B04D07B68072B01D07B6800E0B1
:10C5000000231800BD4602B080BD80B582B000AFE8
:10C51000012202210020FFF72BFF03007B607B68D4
:10C52000002B04D07B68072B01D07B681EE007221C
:10C5300002210120FFF71CFF03007B607B68002BBA
:10C5400004D07B68072B01D07B680FE00A22002112
:10C550000020FFF70DFF03007B607B68002B04D0F9
:10C560007B68072B01D07B6800E000231800BD46E4
:10C5700002B080BD80B584B000AF78600B23FB189B
:10C5800019000020FFF7D0F90300FB60FB68002BC7
:10C5900001D0FB6822E00A23FB1819000120FFF7F5
:10C5A000C3F90300FB60FB68002B01D0FB6815E0BA
:10C5B0000A23FB181B78002B03D07B6802221A7019
:10C5C0000BE00B23FB181B78002B03D07B680B229E
:10C5D0001A7002E07B6800221A7000231800BD4622
:10C5E00004B080BD80B582B000AF0320FFF716FF16
:10C5F00003007B607B68002B04D07B68062B01D096
:10C600007B6800E000231800BD4602B080BD00003A
:10C6100080B584B000AF78607B681B88102B02D097
:10C62000112B1AD033E01C4B1B68002B0FD1FFF7E6
:10C6300037FF0300FB60FB68002B08D0174B1B681B
:10C64000002B04D0154B1B68FA6810009847124B5A
:10C650001B685A1C104B1A6019E00F4B1B685A1EBE
:10C660000D4B1A600C4B1B68002B0FD1FFF74DFFD1
:10C670000300FB60FB68002B08D0084B1B68002BF5
:10C6800004D0064B1B68FA6810009847C046C046A5
:10C69000BD4604B080BDC046542200205022002078
:10C6A00080B584B000AF786039600023FB600F4B29
:10C6B0007A681A603B68002B0AD03B681800FFF7C5
:10C6C00059FF0300FB60FB68002B01D0FB6808E00A
:10C6D000074B1B68002B03D1FFF717FF0300FB601C
:10C6E000FB681800BD4604B080BDC0465022002043
:10C6F0005422002076DF7047C046180078DF70476C
:10C70000C04618007ADF7047C04618007CDF7047CB
:10C71000C046180060DF7047C04618003CDF704715
:10C72000C046180048DF7047C046180080B582B088
:10C7300000AF02003960BB1D1A80BB1D1B883A6820
:10C7400003481900FBF7B4FEC046BD4602B080BDE9
:10C75000EFBEADDE80B582B000AF154A154B1100BB
:10C760001800FDF729F80200FB1D1A70FB1D1A784E
:10C77000114B1100180002F0D1FA03003B603B6836
:10C78000002B10D03B68082B0DD03B680B4A93421E
:10C7900009D03B680A4A934205D03B680022002139
:10C7A0001800FBF785FEC046BD4602B080BDC046FE
:10C7B000D0220020E0220020582200200430000077
:10C7C0000134000080B582B000AF7860FFF7C2FF8F
:10C7D000C046BD4602B080BD80B582B000AF786073
:10C7E0007B6800221A70564B1B78002B03D0544BE9
:10C7F0001B78022B01D1012300E000231A1C012326
:10C800001340DAB27B685A704D4B1B78002B03D073
:10C810004B4B1B78012B01D1012300E000231A1C94
:10C8200001231340DAB27B689A707B680022DA70C9
:10C830007B6800221A71424B1B78424A1B01D318B5
:10C84000023300229A5E7B681A813D4B1B781A00E6
:10C850003C4B1201D2567B689A71394B1B78394A8E
:10C860001B01D318063300229A5E7B689A81344BF1
:10C870001B78344A1B01D318043300229A567B6874
:10C880009A722F4B1B782F4A1B01D3180A330022B0
:10C890009A5E7B681A822A4B1B782A4A1B01D3189E
:10C8A000083300229A567B689A737B6812222649C5
:10C8B0009B180822180005F020FC214B1B78214A08
:10C8C0001B01D3180E3300229A5E7B689A831C4B9F
:10C8D0001B781C4A1B01D3180C3300229A567B6824
:10C8E0009A76174B1B780133DAB2154B1A70144B3A
:10C8F0001B78042B02D1124B00221A70124B9B7929
:10C900001B33DAB2104B9A710F4B9B793B2B12D928
:10C910000D4B9B793C3BDAB20B4B9A710A4B5B791E
:10C920000133DAB2084B5A71074B5B793B2B02D9C2
:10C93000054B00225A71C046BD4602B080BDC046BC
:10C94000ED2200208C2200206C20002080B586B0D3
:10C9500002AF164A0023009313000522062100208F
:10C96000FCF760FD0300FB60FB68BB60BB68002B4D
:10C9700005D0BB68002200211800FBF799FD0C4A86
:10C980000C4B01211800FCF70BFE03007B607B6859
:10C990003B603B68002B05D03B680022002118005B
:10C9A000FBF786FDC046BD4604B080BDF0220020E6
:10C9B000C5C70100E822002080B588B000AF3B1D4C
:10C9C0001A780F218A43111C01220A431A703B1D59
:10C9D0001A780F210A40111C10220A431A702D4B9D
:10C9E000180005F093FB03009AB22A493B1D18007A
:10C9F000FFF78CFE0300FB61FB69BB61BB69002B89
:10CA000005D0BB69002200211800FBF751FD8023EF
:10CA10009B001800FFF772FE0300FB61FB697B615E
:10CA20007B69002B05D07B69002200211800FBF7F1
:10CA30003FFD0823FB18082200211800FBF7B6FB76
:10CA40000823FB18C82252001A800823FB18C822AA
:10CA500092005A800823FB1800229A800823FB18B2
:10CA6000C8225200DA800823FB181800FFF74AFE9C
:10CA70000300FB61FB693B613B69002B05D03B690F
:10CA8000002200211800FBF713FDC046BD4608B088
:10CA900080BDC046F821020080B58CB000AFFA1C02
:10CAA0001F4B1100180002F02DFE0300FB62FB6A11
:10CAB000BB62BB6A002B05D0BB6A002200211800B4
:10CAC000FBF7F6FCFB1C1B78002B24D0154B1B78C6
:10CAD00001225340DBB2002B1DD03B1D1800FFF795
:10CAE0007BFE3A1D0E4B1100180002F0AFFD030053
:10CAF000FB62FB6A002B02D0082B0BD003E0094B32
:10CB000001221A7007E0FB6A002200211800FBF7DF
:10CB1000CFFC00E0C046C046BD460CB080BDC0465C
:10CB200070220020CC22002080B582B000AF786057
:10CB300039603B681B78002B02D0022B03D006E043
:10CB4000FFF7AAFF03E0044B00221A70C046C0465C
:10CB5000BD4602B080BDC046CC22002090B5A1B039
:10CB600000AF6423FB180C2200211800FBF71EFB0A
:10CB70006423FB18944A1A606423FB1811225A811B
:10CB80006423FB181A790F218A43111C01220A43DE
:10CB90001A716423FB181A790F210A40111C2022F4
:10CBA0000A431A716423FB185A790F218A435A7178
:10CBB0006423FB185A790F210A405A716423FB1829
:10CBC0009A790F218A439A716423FB189A790F216D
:10CBD0000A409A716423FB18DA790F218A43111CE9
:10CBE00001220A43DA716423FB18DA790F210A4023
:10CBF000111C10220A43DA716423FB181A7A0F21E0
:10CC00008A431A726423FB181A7A0F210A401A7297
:10CC10006423FA186D4B1100180002F0CDFC0300DC
:10CC2000FB67FB6FBB67BB6F002B05D0BB6F0022A0
:10CC300000211800FBF73CFC5023FB1814220021B4
:10CC40001800FBF7B3FA5023FB185A7B0F218A43D5
:10CC5000111C01220A435A735023FB185A7B0F21DF
:10CC60000A40111C10220A435A735023FB189A7B66
:10CC70000F218A43111C01220A439A735023FB1887
:10CC80009A7B0F210A40111C10220A439A735023E9
:10CC9000FB18DA7B0F218A43DA735023FB18DA7B07
:10CCA0000F210A40DA735023FB181A7C0F218A43A4
:10CCB000111C01220A431A745023FB181A7C0F21FD
:10CCC0000A40111C10220A431A745023FB18002238
:10CCD0001A605023FB1801221A715023FB180022FE
:10CCE0009A605023FB1864221A735023FA18384BA9
:10CCF0001100180001F0DAFF0300FB67FB6F7B6790
:10CD00007B6F002B05D07B6F002200211800FBF702
:10CD1000CFFB1023FB18402200211800FBF746FA36
:10CD20002C4A1023FB181100180003F083FA2A4A3A
:10CD30001023FB1808331100180003F07BFA3A00A7
:10CD4000264B1124136054603B00254A9A6010233F
:10CD5000FB183A001A631023FB183C22995C0F2041
:10CD60008143081C0121014399541023FB183C22E4
:10CD7000995C0F200140081C102101439954102395
:10CD8000FB183D22995C0F20814399541023FB1816
:10CD90003D22995C0F20014099541023FB18180084
:10CDA00003F0D6F80300FB67FB6F3B673B6F002B7C
:10CDB00005D03B6F002200211800FBF779FBC0462D
:10CDC000BD4621B090BDC04629CB01007022002095
:10CDD000582200200822020010220200554433226B
:10CDE0008877660080B500AF3E4B51221A603D4BFC
:10CDF00064225A603B4B01229A603A4B01221A731B
:10CE0000384A394B11001800FCF7BAFC374B752231
:10CE10005A80364B00221A70344B4C22DA80334B46
:10CE200000221A71314B67225A81304B00221A724C
:10CE30002E4B3C22DA812D4B00221A732B4B792288
:10CE40005A822A4B00221A74284B5122DA82274B2D
:10CE500000221A75254B6A225A83244B00221A7627
:10CE6000224B4822DA83214B00221A771F4B8A2259
:10CE70005A841E4B2022002199541C4B5822DA84DC
:10CE80001A4B242200219954184B78225A85174BAB
:10CE9000282200219954154B6922DA85134B2C2244
:10CEA00000219954114B91225A86104B30220021B7
:10CEB00099540E4B6422DA860C4B3422002199548B
:10CEC0000A4B83225A87094B382200219954074B79
:10CED0007D22DA87054B3C2200219954C046BD468D
:10CEE00080BDC046D0220020E02200208C220020FD
:10CEF00080B582B000AF0C4B186880235B02002223
:10CF00001900FCF7C5FB03007B607B683B603B6856
:10CF1000002B05D03B68002200211800FBF7C8FA5F
:10CF2000C046BD4602B080BDE822002080B584B076
:10CF300000AF78607B681B78002B12D10B4B1B88ED
:10CF40003B211800FFF7D6FB0300FB60FB68BB60CA
:10CF5000BB68002B05D0BB68002200211800FBF73E
:10CF6000A7FAC046BD4604B080BDC0466020002080
:10CF700080B582B000AF78607B6800220021180085
:10CF8000FBF796FAC046BD4602B080BD80B58AB0B8
:10CF900000AF3B1D1C2200211800FBF707F93B1DC9
:10CFA00000221A603B1DA02292025A603B1DF02213
:10CFB00012039A603B1D03221A733B1D0022DA8183
:10CFC0003B1D00221A743B1D0C4A5A613B1D0C4A42
:10CFD0009A613B1D180002F081FC03007B627B6AB2
:10CFE0003B623B6A002B05D03B6A002200211800FF
:10CFF000FBF75EFAC046BD460AB080BD2DCF0100EA
:10D0000071CF010080B584B000AF0020FFF704F9B4
:10D010000300FB60FB68BB60BB68002B05D0BB68EE
:10D02000002200211800FBF743FAFFF7DBFA0300A8
:10D03000FB60FB687B607B68002B05D07B6800226F
:10D0400000211800FBF734FAFFF768FB0300FB60D0
:10D05000FB683B603B68002B05D03B680022002149
:10D060001800FBF725FAC046BD4604B080BD80B568
:10D0700084B000AF0200FB1D1A70FB1D1B78002B53
:10D0800013D0022B00D014E00220FFF7C5F80300F4
:10D09000FB60FB68BB60BB68002B09D0BB6800224B
:10D0A00000211800FBF704FA02E0FFF7ABFF00E0F5
:10D0B000C046C046BD4604B080BD000080B586B005
:10D0C00000AF786000237B617B681B88112B19D02F
:10D0D000552B1FD0102B00D034E00720FFF79CF811
:10D0E00003007B617B693B613B69002B05D03B6999
:10D0F000002200211800FBF7DBF97B689A88134BAC
:10D100001A801FE0114B012252421A80104B00225C
:10D110001A7017E07B689B79002B12D10B4B1B8890
:10D1200013211800FFF7E6FA03007B617B69FB60BF
:10D13000FB68002B05D0FB68002200211800FBF7DC
:10D14000B7F9C046C046BD4606B080BD602000208D
:10D15000CC22002080B582B000AF78607A68114B95
:10D160001100180001F071FF7A680F4B11001800D0
:10D1700001F012FC7B68180002F0FCFC7B681800D0
:10D1800004F0A4F87B681800FFF742FA7B681800E7
:10D19000FFF794FF7B68180001F044FAC046BD46D3
:10D1A00002B080BD702200205822002080B582B0DD
:10D1B00000AF78607B681800FDF7E4FB7B6818001F
:10D1C00001F0ECFAC046BD4602B080BD80B588B023
:10D1D00000AF2A4900234822082004F03BFE030048
:10D1E000FB61FB69BB61BB69002B05D0BB690022F9
:10D1F00000211800FBF75CF93B0008220021180011
:10D20000FAF7D4FF3B001A7801218A431A703B00D9
:10D210001800FFF77FFA03007B617B693B613B6984
:10D22000002B05D03B69002200211800FBF740F9D4
:10D23000134B180004F054FE03007B617B69FB6014
:10D24000FB68002B05D0FB68002200211800FBF7CB
:10D250002FF90C4B180004F057FE03007B617B692B
:10D26000BB60BB68002B05D0BB6800220021180002
:10D27000FBF71EF9C046BD4608B080BDA8250020BA
:10D2800055D10100ADD1010080B586B000AF0200DC
:10D29000FB1D1A70FB1D1B78072B22D002DC042B10
:10D2A00008D03EE00A2B02D00D2B2DD039E0FFF73D
:10D2B000A9FE36E01D4B1B8813211800FFF71AFA50
:10D2C00003007B617B69082B26D07B693B613B694E
:10D2D000002B21D03B69002200211800FBF7E8F861
:10D2E0001AE001F08DFA03007B617B69082B15D0F1
:10D2F0007B69FB60FB68002B10D0FB6800220021DB
:10D300001800FBF7D5F809E0084B1B88084A934240
:10D3100006D0FFF7C1FB03E0C04602E0C04600E0D4
:10D32000C046C046BD4606B080BDC0466020002055
:10D33000FFFF000080B588B000AFF860B9607A6088
:10D340007B68FB61FB69002B05D0FB690022002193
:10D350001800FBF7ADF8BB681B78152B00D01BE05D
:10D360001323FA180F4B1100180002F0CBF9030039
:10D37000BB61BB697B617B69002B05D07B690022A7
:10D3800000211800FBF794F81323FB181B78002BDF
:10D3900001D0FFF781FBC04600231800BD4608B04E
:10D3A00080BDC0467022002080B58AB000AF020068
:10D3B000FB1D1A701423FB18FA1D12781A70FDF762
:10D3C0004DFE03007B627B6A3B623B6A002B05D00B
:10D3D0003B6A002200211800FBF76AF81423FB18AF
:10D3E000180003F003FE03007B627B6AFB61FB69AC
:10D3F000002B05D0FB69002200211800FBF758F82C
:10D400000823FB180533052200211800FAF7CEFE89
:10D410000823FB185A7901210A435A710823FB1883
:10D420005A7902218A435A710823FB185A791C2120
:10D430008A43111C0C220A435A710823FB185A799B
:10D4400020218A435A710823FB1807229A71082366
:10D45000FB181022DA710823FB180F4A1A60082300
:10D46000FB1801221A710823FA180C4B110018003E
:10D4700003F06CFE03007B627B6ABB61BB69002B1F
:10D4800005D0BB69002200211800FBF711F8C04647
:10D49000BD460AB080BDC04635D30100EC22002055
:10D4A00080B598B002AF2023FB183022002118006D
:10D4B000FAF77CFE2023FB1802221A702023FB18A7
:10D4C00001229A702023FB180622DA702023FB1811
:10D4D00002221A822023FB18164A5A613B001800C8
:10D4E00020231A000021FAF761FE3B0001221A7284
:10D4F0003B002822DA603B00B4221A610E493A0050
:10D500002023F818002300930B00002100F0FAFDFF
:10D5100003007B657B6D3B653B6D002B05D03B6D50
:10D52000002200211800FAF7C3FFC046BD4616B01E
:10D5300080BDC046642000206FD0010080B586B059
:10D5400000AF7860194B1A491A000320FEF780FEDD
:10D5500003007B617B693B613B69002B05D03B6924
:10D56000002200211800FAF7A3FF0B23FB18190073
:10D570000020FFF795F803007B617B69FB60FB6887
:10D58000002B05D0FB68002200211800FAF790FF5D
:10D590000B23FB181B78023B5A425341DAB27B68DB
:10D5A0001A70C046BD4606B080BDC04689D2010093
:10D5B000CD0C000080B582B000AFFFF7B3F80300D8
:10D5C0007B607B683B603B68002B05D03B6800229A
:10D5D00000211800FAF76CFFC046BD4602B080BDBE
:10D5E00080B584B000AFFFF7B1F9FB1D1800FFF75D
:10D5F000A5FFFFF7EBFDFB1D1B781800FFF7D4FE1E
:10D60000FFF7DAF9FFF74CFFFFF7A8FAFFF7EAFB9D
:10D61000FFF7BCFCFFF76CFC022000F087FE030064
:10D62000FB60FB68BB60BB68002B05D0BB680022B9
:10D6300000211800FAF73CFFFFF7BCFFFCE772DFA0
:10D640007047C046180079DF7047C04618007DDF7C
:10D650007047C046180065DF7047C046180080B5A7
:10D6600082B000AF02003960BB1D1A80BB1D1B8851
:10D67000DAB23B681A703B680133BA1D1288120A8D
:10D6800092B2D2B21A7002231800BD4602B080BD19
:10D6900080B588B000AFF860B9607A601C23FB18D1
:10D6A0007A6812781A701C23FB181B7802331F2B20
:10D6B00004DCFB685B7802331F2B01DD0C2380E068
:10D6C0001C23FB181B789AB21E23FB181D218A1AF3
:10D6D0001A801623FB181E22BA1812881A801C23DF
:10D6E000FB181B780233BA68D3181622BA18110037
:10D6F0001800FFF7ACFF0300BB61BB69002B01D032
:10D70000BB695EE0FB681B78022B12D11623FB1865
:10D710001B881E22BA1812889A420AD31D23FB18AE
:10D7200009221A701E23FB181622BA1812881A80B2
:10D730001BE01D23FB1808221A70FB685B78002B86
:10D740000DD0FB685B789BB21E22BA1812889A42F1
:10D7500005D3FB685A781E23FB181A8005E01E23A8
:10D76000FB181622BA1812881A801C23FB181B7883
:10D770001C22BA18591C11701A00BB689B181E2273
:10D78000BA181288D2B20132D2B21A701C23FB1816
:10D790001B781C22BA18591C11701A00BB689B1800
:10D7A0001D22BA1812781A707B681A781E23FB188B
:10D7B0001B88DBB2D318DBB20233DAB27B681A7093
:10D7C00000231800BD4608B080BD80B584B000AF0E
:10D7D000786039603B681B7804331F2B01DD0C2314
:10D7E00036E00A23FB181800FFF72DFF0300FB604B
:10D7F000FB68002B01D0FB682AE03B681B785A1CB1
:10D80000D1B23A6811701A007B689B1803221A7013
:10D810003B681B785A1CD1B23A6811701A007B68B9
:10D820009B1819221A700A23FB181A883B681B7868
:10D8300019007B685B1819001000FFF710FF030048
:10D840001A003B681B789B18DAB23B681A700023F9
:10D850001800BD4604B080BD80B584B000AFB9608B
:10D860007A600F23FB18021C1A707B681B78033345
:10D870001F2B01DD0C2323E07B681B785A1CD1B2DF
:10D880007A6811701A00BB689B1802221A707B68B4
:10D890001B785A1CD1B27A6811701A00BB689B18A9
:10D8A0000A221A707B681B785A1CD1B27A681170F0
:10D8B0001A00BB689B180F22BA1812781A7000233E
:10D8C0001800BD4604B080BD80B58AB000AFF860D6
:10D8D000080011007B600B23FB18021C1A700A233E
:10D8E000FB180A1C1A702323FB1800221A7022232B
:10D8F000FB183A6B12781A7000237B627BE0FB689E
:10D900005A687B6A9B00D3181422BA1810001900B9
:10D9100004231A0004F0F1FB1A23F9181423FB184E
:10D9200000221800FFF797FE0300FB61FB69002B44
:10D9300001D0FB697BE01A23FB181B780A22BA1876
:10D9400012789A4254D12323FB181B78002B01D064
:10D95000002200E002221B23FB181A703B6B1B788D
:10D960001A001A23FB181B78D2181B23FB181B78EC
:10D97000D3181F2B01DD0C2359E02323FB181B7840
:10D9800001225340DBB2002B16D03B6B1B780133D6
:10D99000DAB23B6B1A703B6B1B785A1CD1B23A6BF4
:10D9A00011701A007B689B180B22BA1812781A7033
:10D9B0002323FB1801221A703B6B1B781A007B682B
:10D9C0009A181A23F9181423FB181800FFF743FEBE
:10D9D0000300FB61FB69002B01D0FB6927E03B6B77
:10D9E0001A781A23FB181B78D318DAB23B6B1A701B
:10D9F0007B6A01337B62FB681B881A007B6A9A4250
:10DA000000DD7CE72323FB181B78002B0ED022239C
:10DA1000FB181B787A68D3183A6B11782222BA184F
:10DA200012788A1AD2B2013AD2B21A7000231800C0
:10DA3000BD460AB080BD80B588B002AFF86008006E
:10DA400011007B600B23FB18021C1A700A23FB18C1
:10DA50000A1C1A707A680B23FB181978F8683B6A5D
:10DA6000009313000222FFF72FFF03007B617B6905
:10DA7000002B01D07B6912E07A680A23FB18197821
:10DA8000F8683B6A009313001022FFF71DFF0300A4
:10DA90007B617B69002B01D07B6900E000231800CB
:10DAA000BD4606B080BD000080B582B000AF786092
:10DAB0007B681B88052B0AD97B681A88C8231B0141
:10DAC0009A4206D97B681B88164A934201D00723E5
:10DAD00023E07B685B88052B0AD97B685A88C823BA
