:020000021000EC
:1080000000800020D5E301001DE401001FE4010011
:108010000000000000000000000000000000000060
:1080200000000000000000000000000021E401004A
:10803000000000000000000023E4010025E401002E
:1080400027E4010027E401004599010027E401002D
:1080500027E4010000000000499C010027E4010022
:1080600027E4010027E4010027E4010027E40100E0
:1080700027E4010027E4010027E4010027E40100D0
:1080800027E40100BD90010027E4010027E401007E
:108090000D91010027E4010095E3010027E40100B0
:1080A00027E4010027E401000000000000000000B8
:1080B00000000000000000000000000000000000C0
:1080C000164B002B00D1144B9D46402292029A1A67
:1080D000924600218B460F461348144A121A00F0AC
:1080E00065F80F4B002B00D098470E4B002B00D0AB
:1080F00098470020002104000D000D48002802D000
:108100000C4800E000BF00F02DF82000290002F02C
:10811000FFFD00F011F8C0460000080000800020BC
:10812000000000000000000064200020884D0020B6
:108130000000000000000000084B10B50400002BF8
:1081400002D0002100E000BF054B1868836A002BB5
:1081500000D09847200000F031F8C0460000000031
:10816000F0F8010070B500260C4D0D4C641BA410F6
:10817000A64209D1002607F0AFFB0A4D0A4C641B4A
:10818000A410A64205D170BDB300EB589847013644
:10819000EEE7B300EB5898470136F2E76420002081
:1081A0006420002064200020642000200300821846
:1081B000934200D1704719700133F9E7FEE7C046DA
:1081C00080B584B000AF78607B689B68FB607B689B
:1081D000DA68FB68D31A1800BD4604B080BD80B5CC
:1081E00082B000AF78600A00FB1C1A707B68180030
:1081F000FFF7E6FF02007B689B889A4211D87B68F4
:108200001A687B68DB68796889880B40D318FA1C88
:1082100012781A707B68DB685A1C7B68DA6000236E
:1082200000E004231800BD4602B080BD80B582B0D6
:1082300000AF786039607B681800FFF7C1FF031E4C
:1082400011D07B681A687B689B68796889880B40C5
:10825000D3181A783B681A707B689B685A1C7B6835
:108260009A60002300E005231800BD4602B080BDDF
:1082700080B582B000AF78607B68032213405A4219
:108280005341DBB21800BD4602B080BD80B582B05C
:1082900000AF0200FB1D1A70064BFA1D1278110088
:1082A0001F220A40012191400A001A60C046BD46C3
:1082B00002B080BD00E100E080B582B000AF0200F6
:1082C000FB1D1A70074AFB1D1B7819001F230B406A
:1082D000012199400B0019008023D150C046BD46B2
:1082E00002B080BD00E100E080B582B000AF0200C6
:1082F000FB1D1A70084AFB1D1B7819001F230B4039
:10830000012199400B00190080235B00D150C04629
:10831000BD4602B080BDC04600E100E080B582B03D
:1083200000AF0200FB1D1A70084AFB1D1B781900E4
:108330001F230B40012199400B001900C0235B0053
:10834000D150C046BD4602B080BDC04600E100E04D
:10835000B0B582B000AF02003960FB1D1A70FB1D82
:108360001B787F2B32D92F4CFB1D1B781A000F2353
:108370001340083B99082B4AFB1D1B7818000F235C
:108380000340083B9B0806339B00D31804331B684B
:10839000FA1D1278100003220240D200FF20904004
:1083A0000200D2431A403B689B01FF201840FB1D8E
:1083B0001B781D0003232B40DB00984003001A4369
:1083C0008B1D9B00E31804331A6027E0164CFB1D3D
:1083D0001B785BB29B081449FA1D127852B29208BE
:1083E000C03292005258F91D09780800032101405B
:1083F000C900FF2088400100C94311403A6892013A
:10840000FF201040FA1D1278150003222A40D200E6
:10841000904002000A43C0339B001A51C046BD463B
:1084200002B0B0BD00ED00E000E100E080B582B038
:1084300000AF0200FB1D1A70FB1D1B787F2B18D9A3
:10844000174AFB1D1B7819000F230B40083B9B08A4
:1084500006339B00D31804331A68FB1D1B781900E0
:1084600003230B40DB00DA4013009B090322134077
:1084700012E00C4AFB1D1B785BB29B08C0339B00CB
:108480009A58FB1D1B78190003230B40DB00DA40D0
:1084900013009B09032213401800BD4602B080BDA3
:1084A00000ED00E000E100E080B582B000AF0C4BD1
:1084B0005B68DB05DB0D7B607B68002B0AD07B688B
:1084C000103B3B603B685BB21800FFF7AFFF030057
:1084D000DBB200E004231800BD4602B080BDC046F8
:1084E00000ED00E080B582B000AF78600649A123BE
:1084F000DB007A68CA5003211120FFF729FFC0462C
:10850000BD4602B080BDC0460010014080B582B0BB
:1085100000AF1749D1239B0080225202CA50144950
:10852000C1239B0080225202CA501120FFF7F6FEA1
:108530001120FFF7ABFE0E4B01221A602F237B6048
:108540007B6818000138C046C046C046C046C046D9
:10855000C046C046C046C046C046C046C046F1D12F
:10856000044B01221A70C046BD4602B080BDC04611
:10857000001001408C20002080B582B000AF112097
:10858000FFF79AFE1F49D2239B0080225202CA5055
:108590001C49C2239B0080225202CA50194B01225F
:1085A0005A602F237B607B6818000138C046C046A4
:1085B000C046C046C046C046C046C046C046C0468B
:1085C000C046C046F1D10F4B01229A600E4B0022EB
:1085D0001A602F233B603B6818000138C046C04634
:1085E000C046C046C046C046C046C046C046C0465B
:1085F000C046C046F1D1054B00221A70C046BD46A8
:1086000002B080BD00100140782000208C200020A6
:1086100080B500AF024A034BD3581800BD4680BD59
:10862000001001400405000080B582B000AF786002
:1086300039607A683B68D31A1B021B0A1800BD46D2
:1086400002B080BD80B582B000AF78600449A82335
:10865000DB007A68CA50C046BD4602B080BDC04645
:108660000010014080B586B000AF78604C4B1968AF
:108670007A681300DB009B189B00CB18BB60494B4A
:108680001B68013303D1474B7A681A6084E0BB68EA
:108690005968434B1868434B1A681300DB009B185A
:1086A0009B00C3185B6899421ED83D4B19683D4B2F
:1086B0001A681300DB009B189B00CA18384B186817
:1086C000384B19680B00DB005B189B00C318596816
:1086D000BB685B68CB1A5360324B1A68BB681A627E
:1086E000304B7A681A6057E0BB685B68FB602D4BC3
:1086F0001B687B612B4B1B683B6117E0284B19689B
:108700003A691300DB009B189B00CB185B68FA6882
:10871000D31AFB603B697B61214B19683A691300EE
:10872000DB009B189B00CB181B6A3B613B69013344
:108730000BD01B4B19683A691300DB009B189B0098
:10874000CB185A68FB689A42D8D33B69013313D0DF
:10875000134B19683A691300DB009B189B00CA1879
:108760000F4B186839690B00DB005B189B00C318BE
:108770005968FB68CB1A5360BB68FA685A60BB68DB
:108780003A691A62064B19687A691300DB009B1874
:108790009B00CB187A681A62C046BD4606B080BD01
:1087A000682000207420002080B586B000AF78607B
:1087B0003E4B1B687B617B693B610FE03A697B68DC
:1087C0009A420FD03B697B61394B19683A691300B3
:1087D000DB009B189B00CB181B6A3B613B69013394
:1087E000ECD100E0C0463B6901335AD07A693B695D
:1087F0009A4218D12E4B19682C4B1A681300DB00D3
:108800009B189B00CB181A6A284B1A60274B1B68D1
:10881000013308D1274B01229A60274B00221A60AE
:10882000264B01221A70224B19683A691300DB00AB
:108830009B189B00CB185B68FB601D4B19687A691D
:108840001300DB009B189B00CA18194B1868396984
:108850000B00DB005B189B00C3181B6A1362144BF0
:1088600019687A691300DB009B189B00CB181B6A00
:108870003B613B69013315D00D4B19683A69130010
:10888000DB009B189B00CA18094B186839690B005C
:10889000DB005B189B00C3185968FB68CB1853605A
:1088A00000E0C046BD4606B080BDC0467420002032
:1088B0006820002000100140782000208D2000203A
:1088C00080B500AF1120FFF70FFDC046BD4680BD4B
:1088D00080B500AF1420FFF707FDC046BD4680BD40
:1088E00080B584B000AF7860114B1B68002B15D0A9
:1088F0000F4B1A687B6898697B68DB6919009047A1
:108900000300FB60FB68BB60BB68002B0CD0BB683E
:1089100000220021180001F0EBFA05E07B689A695B
:108920007B68DB6918009047C046BD4604B080BD37
:108930008820002080B584B000AF2C4B1B68013329
:1089400050D000237B60FFF763FE0200284B1B68BA
:1089500019001000FFF768FE0300BB60234B1B6883
:10896000FB601EE0234B1968FA681300DB009B18BC
:108970009B00CB183B603B685A68BB689A4214D88E
:108980003B685B68BA68D31ABB603B685B687A680F
:10899000D3187B603B681B6AFB603B681800FFF7DD
:1089A0009FFFFB680133DDD100E0C046124B1A780F
:1089B000124B1B789A420CD1104B1B780133DAB260
:1089C0000E4B1A700D4B1B78022B02D10B4B002261
:1089D0001A700A4B1B781A00094B92007968D15023
:1089E000FFF776FFC046BD4604B080BD742000206E
:1089F000782000206820002084200020852000208E
:108A00007C20002080B582B000AF7860184B1A78C7
:108A1000184B1B789A4223D0154B1B780133DAB2DE
:108A2000134B1A70124B1B78022B02D1104B0022F1
:108A30001A700F4B1B781A000F4B9200D2587B68AC
:108A40001A607B681A680D4B1B68D2180B4B1A60B2
:108A50000A4B1B681B021A0A084B1A60012303E029
:108A60007B6800221A6000231800BD4602B080BD5A
:108A700084200020852000207C20002078200020F9
:108A800080B586B000AF424B1B683B611723FB18D3
:108A9000404A12781A7066E03F4B1A681723FB1899
:108AA0001B78DB00D318FB601623FB18FA681278DA
:108AB0001A7051E0FB6859681623FB181A781300E6
:108AC0005B009B18DB00CB18BB601623FB181A78E1
:108AD0001623FB1801321A70FB689B781622BA180D
:108AE00012789A4203D11623FB1800221A70BB6831
:108AF0001B78022B02D0032B28D02CE0274B1968BF
:108B0000BB685A681300DB009B189B00CB187B6086
:108B10007B681B7D002B1FD0BB685B681800FFF7CC
:108B200043FE7B6800221A7516E01C4B1968184B2F
:108B30001A681300DB009B189B00CB183B603B6856
:108B400000221A753B681A6A114B1A60104B1B6899
:108B50000133EAD100E0C046FB685B781622BA1800
:108B600012789A42A6D11723FB181B781722BA183D
:108B7000591E1170002B8FD1054B1A683B69D31A0F
:108B80005A1E9341DBB21800BD4606B080BDC046F8
:108B9000742000206C20002070200020682000201D
:108BA00080B588B000AFF860B9607A600023FB61DF
:108BB00042E0254B1968254B1A681300DB009B180F
:108BC0009B00CB18BB61BB695A68FB689A4206D907
:108BD000BB695A68FB68D21ABB695A6030E0BB694E
:108BE0005B68FA68D31AFB60BB695B68FA69D318E3
:108BF000FB61BB6900225A60BB6900221A75134BE6
:108C00001B687B61BB691A6A104B1A60BB691B69E0
:108C1000002B11D0BA68FB69D3181B021A0ABB6972
:108C20009A60BB691A69BB69DA607B681A68BB69BC
:108C30001A627B687A691A60044B1B680133B8D1E9
:108C4000C046BD4608B080BD6820002074200020CA
:108C500080B58AB000AF7860664B1B68BB61272384
:108C6000FB18654A12781A70AEE0644B1A68272325
:108C7000FB181B78DB00D3187B619AE07B6801331B
:108C80000ED07B683B625E4B19683A6A1300DB00CA
:108C90009B189B00CB18FB61FB691B6A7B6045E05E
:108CA0007B695A687B691B7819000B005B005B18B5
:108CB000DB00D3183B617B691B780133DAB27B6937
:108CC0001A707B691A787B699B789A4202D17B691A
:108CD00000221A703B695B683B62494B19683A6A2B
:108CE0001300DB009B189B00CB18FB613B691B78D2
:108CF000012B5ED1FB691B7D002B00D059E03B6945
:108D00009A68FB699A603B69DA68FB69DA603B69DB
:108D10001A69FB691A613B695A69FB69DA61394B67
:108D20001B78002B02D0FB6900229A60FB699A68CD
:108D3000354B1B68D31A1B021B0A344A93420ED8C8
:108D4000FB699A68304B1B6819001000FFF76CFC38
:108D50000200FB69DB68D218FB695A6018E02A4BF5
:108D60001A68FB699B6819001000FFF75DFC03009F
:108D7000FB60FB69DA68FB689A4206D9FB69DA682E
:108D8000FB68D21AFB695A6002E0FB6900225A6054
:108D9000FB6900229A60FB690022DA60FB6901220C
:108DA0001A75FB69012252421A623B6A1800FFF7EA
:108DB00059FC7B68013300D060E77B691A787B69D6
:108DC0005B789A4200D059E72723FB181B782722AB
:108DD000BA18591E1170002B00D046E7054B1A68CF
:108DE000BB69D31A5A1E9341DBB21800BD460AB0C4
:108DF00080BDC046742000206C2000207020002020
:108E0000682000208D20002078200020FEFF7F00B9
:108E100090B589B000AF78602A4B1B6801334BD006
:108E2000294B1968274B1A681300DB009B189B001D
:108E3000CB185B68FB61FFF7EBFB0300BB61234BC7
:108E40001B687B617A69BB6911001800FFF7ECFBB6
:108E5000030003333B611E4B1B7801225340DBB2FE
:108E6000002B01D0FFF752FBFA693B69934200D215
:108E700013007A69D3187B617B691B021B0A7B6133
:108E80007B691800FFF7DEFBFFF7C2FB0300FB6006
:108E9000BA69FB6811001800FFF7C6FB0300DC1C71
:108EA000BA697B6911001800FFF7BEFB03009C4202
:108EB00004D9FFF705FD01E0FFF75EFBC046BD46A4
:108EC00009B090BD74200020682000207820002088
:108ED0008C20002090B587B000AF01235B427B60FF
:108EE0001E4B1B683B611E4B1B68FB600B23FC1871
:108EF0003B001800FFF786FD030023701723FC18C2
:108F0000FFF7BEFD030023700B23FB181B78002B1B
:108F100009D03B683A1D39691800FFF741FE172355
:108F2000FB1801221A707B681800FFF791FE031EE0
:108F300003D01723FB1801221A701723FB181B7884
:108F4000002B03D0FB681800FFF762FF054B0022DF
:108F50001A70C046BD4607B090BDC04678200020BC
:108F6000742000208D20002080B582B000AF786092
:108F700039603B68DAB27B685A70C046BD4602B0C1
:108F800080BD80B584B000AF786039607B685B7865
:108F90000133FB607B689B781A00FB689A4201D121
:108FA0000023FB607B681B781A00FB689A4201D1A2
:108FB00000230EE03B68FA681A607B685A687B6899
:108FC0005B7819000B005B005B18DB00D318BB60FB
:108FD000BB681800BD4604B080BD000080B586B0F7
:108FE00000AFF860B9607A603B601B4B1A68FB68A1
:108FF000DB00D3181022BA1811001800FFF7C1FFC8
:1090000003007B617B69002B01D1042320E07B6995
:1090100001221A707B69BA685A60FFF7F9FA0200F8
:109020007B699A607B697A68DA607B693A681A6161
:109030007B693A6A5A61084B1A68FB68DB00D318EF
:109040003A6911001800FFF78FFFFFF741FC00237A
:109050001800BD4606B080BD7020002080B584B0E9
:1090600000AF78603960144B1A687B68DB00D31856
:109070000822BA1811001800FFF783FF0300FB60F5
:10908000FB68002B01D1042312E0FB6802221A7056
:10909000FB683A685A60084B1A687B68DB00D31893
:1090A000BA6811001800FFF75FFFFFF711FC0023FB
:1090B0001800BD4604B080BD7020002080B500AF10
:1090C000114AA0235B000021D1500F4AA2235B006C
:1090D0000021D1500C4AA4235B000021D1500A4A40
:1090E000A6235B000021D150074A80235B000021AA
:1090F000D150054A82235B000021D150FFF71AFCB2
:10910000C046BD4680BDC0460010014080B500AFDE
:10911000FFF7E0FEC046BD4680BD000080B586B0CA
:1091200000AFF860080011007B600B23FB18021CE5
:109130001A700A23FB180A1C1A707B681800FFF7C4
:1091400097F803001A0001235340DBB2002B01D033
:1091500007238BE07B68002B01D1072386E0FFF714
:109160000BFA444B3A6A1A60434B0B22BA18127836
:109170001A70424B7A681A6000237B6116E03F4BFD
:1091800019687A691300DB009B189B00CB1800223A
:109190001A703A4B19687A691300DB009B189B0020
:1091A000CB1800221A757B6901337B610B23FB18F6
:1091B0001A787B699A42E2DC0B23FB181A781300B9
:1091C000DB009B189B001A007B689B187B602C4B74
:1091D00003221A702B4B7A681A607B6818337B6005
:1091E00000237B6121E0274B1A687B69DB00D318E1
:1091F0003B613B6900221A703B6900225A703B694F
:109200000A22BA1812789A703B697A685A600A235F
:10921000FB181A7813005B009B18DB001A007B68B0
:109220009B187B607B6901337B617B69022BDADDF4
:10923000154B012252421A60144B00221A70144B33
:1092400000221A701420FFF769F803211420FFF799
:109250007FF81420FFF71AF8FB681800FFF742F9AF
:10926000FFF7D6F902000B4B1A6000231800BD4629
:1092700006B080BD882000206420002068200020E7
:109280006C2000207020002074200020842000200A
:10929000852000207820002080B586B000AFF860DF
:1092A0007A600B23FB180A1C1A70284B1B68002BD2
:1092B00001D1082346E07B68002B01D1072341E060
:1092C000FB68002B01D107233CE000237B6132E0E7
:1092D0001E4B19687A691300DB009B189B00CB18A2
:1092E0001B78002B24D1194B19687A691300DB0015
:1092F0009B189B00CB1801221A70144B19687A69CD
:109300001300DB009B189B00CB180B22BA181278B5
:109310005A700E4B19687A691300DB009B189B008A
:10932000CB187A689A617A69FB681A60002309E0B1
:109330007B6901337B61064B1B781A007B699A427B
:10934000C6DC04231800BD4606B080BD682000209E
:109350006420002080B582B000AFFFF7A5F80300BD
:10936000012B02D0032B03D005E000237B6005E036
:1093700001237B6002E002237B60C0467B6818000B
:10938000BD4602B080BD000090B589B002AFF86064
:10939000B9607A601E4B1B68002B01D1082333E0B3
:1093A0001C4B1B781A00FB689A4202D9BB68042B3D
:1093B00001D8072328E0164B1968FA681300DB0070
:1093C0009B189B00CB181B78012B01D008231BE0B6
:1093D0000F4B1968FA681300DB009B189B00CB1831
:1093E0005B78012B01D1BB6800E000237B61FFF7B4
:1093F000B1FF04007869BA68F9687B6800930300DC
:109400002000FFF7EBFD03001800BD4607B090BD3C
:10941000682000206420002080B582B000AF786012
:10942000134B1B68002B01D108231DE0114B1B7847
:109430001A007B689A4201D8072315E00C4B196883
:109440007A681300DB009B189B00CB181B78012B5C
:1094500001D0082308E0FFF77DFF02007B681900B8
:109460001000FFF7FBFD03001800BD4602B080BDF1
:10947000682000206420002080B582B000AF7860B2
:109480007B6801221A71C046BD4602B080BD000053
:1094900080B584B000AF0023FB603D4BBB60002370
:1094A0007B6080233B607B6808337B6019E0FB684E
:1094B000DA00384BD3181800FFF7DEFF354BFA6897
:1094C000D200B968D150BA683B68D318BB60314A42
:1094D000FB68DB00D318053300221A70FB680133E8
:1094E000FB60FA687B689A42E1D380235B003B60B3
:1094F0007B6804337B6019E0FB68DA00254BD318E6
:109500001800FFF7B9FF234BFA68D200B968D150B1
:10951000BA683B68D318BB601E4AFB68DB00D318EF
:10952000053301221A70FB680133FB60FA687B681F
:109530009A42E1D38023DB003B607B6803337B608E
:1095400019E0FB68DA00134BD3181800FFF794FFFB
:10955000104BFA68D200B968D150BA683B68D3188A
:10956000BB600C4AFB68DB00D318053302221A707B
:10957000FB680133FB60FA687B689A42E1D3064BD3
:1095800001221A7000231800BD4604B080BDC046F9
:1095900090200020903400200835002080B586B04F
:1095A00000AF78603960314B1B7801225340DBB249
:1095B000002B01D02E4B54E07B68002B01D12D4BAA
:1095C0004FE03B68002B01D12A4B4AE03B681B6807
:1095D000FB60FB68002B04D0FA688023DB009A4212
:1095E00001D9254B3DE0254B7B61FB68802B02D8E0
:1095F00000233B6131E0FA6880235B009A4202D885
:1096000008233B6129E00C233B6126E01C4A3B69AF
:10961000DB00D31804331B78002B1BD0184A3B699E
:10962000DB00D318043300221A70154B3A69D200BC
:10963000D2587B681A6000237B61114A3B69DB00CA
:10964000D31805331B781A000E4B9200D2583B6892
:109650001A6005E03B6901333B613B690E2BD5D9AC
:109660007B691800BD4606B080BDC04608350020A5
:10967000088100000E8100000781000004810000C5
:1096800090340020F4F8010080B584B000AF786019
:10969000174B1B7801225340DBB2002B01D0154B36
:1096A00021E07B68002B01D1134B1CE0134BFB60C6
:1096B0000023BB6013E0124BBA68D200D2587B681B
:1096C0009A4209D1BB68DA000D4BD3181800FFF796
:1096D000D3FE0023FB6005E0BB680133BB60BB68C1
:1096E0000E2BE8D9FB681800BD4604B080BDC0460B
:1096F00008350020088100000E8100001081000064
:109700009034002080B584B000AF78607B689B689F
:10971000FB607B68DA68FB68D31A1800BD4604B0AA
:1097200080BD000080B500AF084B00221A70084BC6
:109730000122DA60064B01225A60054AA023DB00B1
:109740000021D150C046BD4680BDC0463035002006
:109750000020004080B582B000AF094B0122DA60E2
:10976000084B01221A703B0003221A70064B1B683B
:109770003A0010009847C046BD4602B080BDC046C2
:1097800000200040303500202C35002080B582B00C
:1097900000AF144B1B78DBB2022B02D0124B01221C
:1097A0009A60FA1D114B11001800FEF73FFD031ED1
:1097B00002D0FFF7CFFF12E00B4AC2239B008021AB
:1097C000D150094AFB1D1B781900094BD150054B9C
:1097D00002221A70044AC1239B008021D150BD4649
:1097E00002B080BD30350020002000401C35002034
:1097F0001C05000080B500AF064B1800FFF782FF84
:10980000031E02D0FFF7C2FF01E0FFF7A3FFC0462F
:10981000BD4680BD1C35002080B500AF084B1B78CD
:10982000DBB2012B02D0022B03D006E0FFF77AFF58
:1098300003E0034B03221A70C046C046BD4680BDFC
:109840003035002080B500AF114B1B78DBB2002B08
:1098500002D0032B15D018E00E4AA023DB00042110
:10986000D1500C4B01221A600B4B1800FFF74AFF36
:10987000031E02D0FFF78AFF07E0054B01221A7092
:1098800003E0034B02221A70C046C046BD4680BDAD
:1098900030350020002000401C35002080B500AF8E
:1098A000094B1B78DBB2012B0ADB022B05DD032BF6
:1098B00000D005E0FFF736FF03E0FFF79BFF00E075
:1098C000C046C046BD4680BD3035002080B500AFE3
:1098D000044B1B78DBB2012B01D1FFF757FFC046C9
:1098E000BD4680BD3035002080B500AFFFF71AFFC0
:1098F000C046BD4680BD000080B582B000AF02000A
:10990000FB1D1A70FB1D1B78042B13D89A000C4BFF
:10991000D3181B689F46FFF77FFF0CE0FFF792FF0D
:1099200009E0FFF7BBFF06E0FFF7D0FF03E0FFF71A
:10993000DBFF00E0C046C046BD4602B080BDC04669
:1099400000F9010080B588B000AF364A84235B007F
:10995000D358002B33D0334A84235B000021D150ED
:10996000304AA323DB00D358DAB22F4B1100180082
:10997000FEF735FC0300FB61FB69002B0ED01023C2
:10998000FB1801221A701023FB18FA695A60274B42
:109990001B681022BA181000984710E0224B1800DC
:1099A000FFF7B0FE0300012B09D10823FB180022AA
:1099B0001A701E4B1B680822BA1810009847194AE3
:1099C0008E235B00D358002B07D0164A8E235B00F2
:1099D0000021D1500320FFF78FFF124A92235B0032
:1099E000D358002B19D00F4A92235B000021D1508D
:1099F0000C4A9023DB00D358BB610A499023DB005B
:109A0000BA69CA503B0002221A703B00BA695A6018
:109A1000064B1B683A0010009847C046BD4608B088
:109A200080BDC046002000400C3500202C350020B1
:109A300080B582B000AF0200BB1D1A80BB1D1B8821
:109A4000180000F01DF803001B68013B5A42534107
:109A5000DBB21800BD4602B080BD80B582B000AF59
:109A60000200BB1D1A80BB1D1B88180000F008F8FF
:109A7000030000221A60C046BD4602B080BD00004F
:109A800080B582B000AF0200BB1D1A80BB1D1B88D1
:109A9000034A944663441800BD4602B080BDC046E8
:109AA0000060004080B582B000AF7860044AC123F6
:109AB0009B00D3587A6813401800BD4602B080BDA1
:109AC0000060004080B582B000AF7860064A7B68D5
:109AD0004533FF339B009B581B0A1F22134018007D
:109AE000BD4602B080BDC0460060004080B582B077
:109AF00000AF7860064A7B684533FF339B009B5874
:109B00001B0C03221340DBB21800BD4602B080BD1F
:109B10000060004080B582B000AF78600A00FB1C96
:109B20001A70A023DB05A022D2057968C131FF316C
:109B300089008A580E4911407A68C132FF3292007A
:109B4000D150A023DB05A022D2057968C131FF31B5
:109B500089008A58F91C0978090411437A68C132CE
:109B6000FF329200D150C046BD4602B080BDC04613
:109B7000FFFFFCFF80B500AFA023DA05A223DB00C6
:109B8000D3581800BD4680BD80B582B000AF786064
:109B9000A023DB057A68C132FF329200D3581B0C38
:109BA00003221340DBB21800BD4602B080BD0000A6
:109BB00080B582B000AF7860084A2C217B68D3184A
:109BC0005B181B785BB20122032B01DC00231A1CFB
:109BD000D3B21800BD4602B080BDC0463435002067
:109BE00080B582B000AF7860054A2C217B68D3181D
:109BF0005B181B785BB21800BD4602B080BDC04642
:109C00003435002080B582B000AF7860054A4C2121
:109C10007B68D3185B181B785BB2DBB21800BD46BB
:109C200002B080BD3435002080B582B000AF7860CE
:109C3000044A7B689B00D31804331B681800BD4698
:109C400002B080BD3435002090B58FB000AF002346
:109C50007B6300233B632A23FB18802252001A8077
:109C600001237B620023FB6227E02A23FB181B8869
:109C70001800FFF7DDFE031E12D00122FB6A9A4096
:109C800013001800FFF70EFF031E09D02A23FB184C
:109C90001B881800FFF7E1FE7A6B7B6A13437B6336
:109CA0007B6A5B007B622A23FB182A22BA1812887F
:109CB00004321A80FB6A0133FB62FB6A032BD4D99E
:109CC000BE235B001800FFF7B3FE031E0DD0BE23BA
:109CD0005B001800FFF7C1FE7B6B80221206134366
:109CE0007B63FFF747FF03003B637B6B0F2213404F
:109CF0002CD001237B620023FB6224E07B6A7A6B19
:109D000013401AD0FB6A1800FFF7DCFE03003B6229
:109D10001F23FC18FB6A1800FFF7E8FE03002370FE
:109D2000FB6A1800FFF780FF0300BB611F23FB18CD
:109D300019783A6ABB69100098477B6A5B007B62BE
:109D4000FB6A0133FB62FB6A032BD7D97B6B002BC9
:109D500068DA0023FB6262E01723FC18FB6A180034
:109D6000FFF750FF030023701723FB181B78C02256
:109D700093433B610F23FB181722BA1812789209FC
:109D80001A7001223B699A4013007B623B691800FC
:109D9000FFF70EFF031E3FD03B691800FFF720FFBF
:109DA00003001800FFF740FF0300BB60BB68002BF7
:109DB00032D0FC1D3B691800FFF7E6FE030023705C
:109DC0007B6A3A6B134003D0FB1D1B78022B07D034
:109DD0007B6A3A6B13401FD1FB1D1B78032B1BD1F1
:109DE0000F23FB181B78032B0FD1FB1D1B78022BB5
:109DF00001D1032200E00222BB1D1A70BB1D1A789C
:109E00003B6911001800FFF785FE0F23FB18197836
:109E10003A69BB6810009847FB6A0133FB62FB6A32
:109E2000052B99D9C046BD460FB090BD80B582B014
:109E300000AF7860A023DB057A68C132FF32920060
:109E40000321D150C046BD4602B080BD32DF70470D
:109E5000C046180040DF7047C046180080B582B089
:109E600000AF786039607B68DAB23B681A703B6893
:109E700001337A68120AD2B21A703B6802337A68E8
:109E8000120CD2B21A703B6803337A68120ED2B247
:109E90001A7004231800BD4602B080BD80B582B0A0
:109EA00000AF78607B681B781A007B6801331B78F1
:109EB0001B021A437B6802331B781B041A437B681E
:109EC00003331B781B0613431800BD4602B080BD48
:109ED00070DF7047C046180071DF7047C046180039
:109EE00073DF7047C04618007CDF7047C04618001B
:109EF00080B584B000AFF860B9607A60A023DB055C
:109F00000F49C02212035A50A023DA05A123DB0017
:109F10000021D15079680B4B7F22180005F0C7FC57
:109F2000084B7F2200219954BB689AB2064B1A80D5
:109F3000064BFA681A60044B1B88044B1B68FEE74B
:109F40000C05000020360020A0360020A43600209A
:109F500080B582B000AF02003960BB1D1A80BB1D06
:109F60001B883A6803481900FFF7C2FFC046BD4688
:109F700002B080BDEFBEADDE80B582B000AF002381
:109F80007B600EE0C0231A037B681A411300012294
:109F9000134003D07B681800FFF748FF7B6801334C
:109FA0007B607B681F2BEDD9A023DA05A123DB00A2
:109FB000C0210903D150A023DB05034A0021995099
:109FC000C046BD4602B080BD0C05000080B584B01F
:109FD00000AF786039600023FB6018E0FA68130076
:109FE0009B009B189B000F4A9B181800FFF756FF19
:109FF0000300BB603B681A68BB689A4204D17B6867
:10A00000FA681A60002309E0FB680133FB60FB6813
:10A01000042BE3D97B6800221A6005231800BD4693
:10A0200004B080BDBC35002090B5B1B000AF786001
:10A03000774B1B78022B06D0032B00D1A6E0012B17
:10A0400000D106E20CE26C23FB1800225A706C234C
:10A05000FB1803221A706C23FB180E225A60682327
:10A06000FA186C23FB181100180002F09BFC030087
:10A07000BC22BA181360BC23FB181B68B822BA189C
:10A080001360B823FB181B68002B07D0B823FB18FC
:10A090001B68002200211800FFF72AFF7423FB1819
:10A0A0005C4A13CA13C312681A607423F918582340
:10A0B000FB181022180005F0EAFB5823FA18442375
:10A0C000F9185423FB18180003F0C4F90300BC224C
:10A0D000BA181360BC23FB181B68B422BA181360AB
:10A0E000B423FB181B68002B07D0B423FB181B6894
:10A0F000002200211800FFF7FBFEBB6E9B680433B3
:10A100000A2241211800FEF751F8786DBB6E5822E3
:10A11000BA184421791801F0EBFD0300BC22BA18EB
:10A120001360BC23FB181B68B022BA181360B0235D
:10A13000FB181B68002B07D0B023FB181B680022FC
:10A1400000211800FFF7D4FE334B1868C023DB0151
:10A1500000221900FFF718F90300BC22BA18136097
:10A16000BC23FB181B68AC22BA181360AC23FB1885
:10A170001B68002B00D16EE1AC23FB181B6800228A
:10A1800000211800FFF7B4FEC04664E100233B64E1
:10A19000224A4023FB1811001800FFF717FF0300A5
:10A1A000BC22BA181360BC23FB181B68052B3DD1D9
:10A1B000174B02221A701A4B03221A70194B0022F5
:10A1C0001A60194B642200211800FDF7EFFF124BB3
:10A1D0001868C023DB0100221900FFF7D5F803003F
:10A1E000BC22BA181360BC23FB181B68A822BA183B
:10A1F0001360A823FB181B68002B00D12DE1A823B6
:10A20000FB181B68002200211800FFF771FE27E1F0
:10A210006020002018F90100AC35002014F901007D
:10A22000B8350020B4350020BC3500208E4B1B68AB
:10A230005A1C8D4B1A608C4B1B68002B04D18A4B27
:10A240001B685A1C884B1A60874B1B682822BA1857
:10A2500011001800FFF702FE2823F9182C23FB1821
:10A260000422180005F013FB2C23FB1804331021E3
:10A270001800FFF7EBFD0300BC22BA181360BC23E3
:10A28000FB181B68794A9342EED0BC23FB181B686D
:10A29000A422BA181360A423FB181B68002B07D054
:10A2A000A423FB181B68002200211800FFF720FEE2
:10A2B0002023FB1800225A702023FB1804221A7056
:10A2C0002023FB1814225A601C23FA182023FB18A1
:10A2D0001100180002F066FB0300BC22BA181360DC
:10A2E000BC23FB181B68A022BA181360A023FB181C
:10A2F0001B68002B07D0A023FB181B68002200213D
:10A300001800FFF7F5FDFB699B682C22B9180422A1
:10A31000180005F0BCFAFB699B68181D2C23FB187C
:10A3200004331022190005F0B2FA0C23FB18102296
:10A3300000211800FDF73AFF8423FB184C4A13CA8A
:10A3400013C312681A608423F9180C23FB18102217
:10A35000180005F09CFAFB69464A0C21791846481A
:10A3600003F0DCFB0300BC22BA181360BC23FB180B
:10A370001B689C22BA1813609C23FB181B68002BD7
:10A3800007D09C23FB181B68002200211800FFF750
:10A39000AFFD3A6C13009B009B189B00374A9B183B
:10A3A0002C22B9180422180005F071FA3A6C130037
:10A3B0009B009B189B001A1D304BD0182C23FB18B8
:10A3C00004331022190005F062FA274B1B68012B99
:10A3D0001FD12B4B1868A023DB0100221900FEF7C8
:10A3E000D3FF0300BC22BA181360BC23FB181B6800
:10A3F0009822BA1813609823FB181B68002B2ED0E4
:10A400009823FB181B68002200211800FFF770FD3D
:10A4100025E01B4B186880235B0100221900FEF722
:10A42000B3FF0300BC22BA181360BC23FB181B68DF
:10A430009422BA1813609423FB181B68002B0ED0CB
:10A440009423FB181B68002200211800FFF750FD21
:10A4500006E0C04604E0C04602E0C04600E0C04658
:10A46000BD4631B090BDC046B43500200720000085
:10A4700018F9010017170000A4350020BC35002092
:10A48000AC35002080B586B000AF7860504B1B78AB
:10A49000042B00D996E09A004E4BD3181B689F46B8
:10A4A000A023DA05A123DB00C0210903D150A0239A
:10A4B000DB05494A0021995085E0A023DB05474A86
:10A4C0009B587B61A023DA057B69D9438023DB029B
:10A4D0001940A123DB00D150A023DB05796980223C
:10A4E000D2020A403C495A50A023DA05A123DB00DE
:10A4F00080210903D150A023DB05374A0021995060
:10A5000061E0A023DB0534498022D2025A50A02307
:10A51000DA05A123DB000021D150A023DA05A12315
:10A52000DB0080210903D150A023DB052A4A00214A
:10A53000995048E0A023DB0527498022D2025A50D7
:10A54000A023DA05A123DB000021D150A023DB05E5
:10A55000224A9B583B61A023DA053B69D9438023FB
:10A560001B031940A123DB00D150A023DB0539696F
:10A57000802212030A4018495A5024E0A023DB0528
:10A58000164A9B58FB60A023DA05FB68D943802359
:10A59000DB021940A123DB00D150A023DB05F968C1
:10A5A0008022D2020A400C495A50A023DB050A49F6
:10A5B000802212035A50A023DA05A123DB000021D8
:10A5C000D15000E0C046C046BD4606B080BDC04682
:10A5D000B835002040F901000C050000040500001A
:10A5E00080B588B002AF204A0023009313000622F2
:10A5F00002210020FEF792FD03007B617B693B6135
:10A600003B69002B05D03B69002200211800FFF7B1
:10A610006FFC164A164B00211800FEF73DFE0300A2
:10A62000FB60FB68BB60BB68002B05D0BB680022E9
:10A6300000211800FFF75CFC0E4A0F4B01211800A7
:10A64000FEF72AFE0300FB60FB687B607B68002B43
:10A6500005D07B68002200211800FFF749FCC046A6
:10A66000BD4606B080BDC046A836002029A0010026
:10A67000AC35002085A40100B035002080B594B031
:10A6800000AF4F23FB1804221A703B1D1A780F21CC
:10A690008A43111C01220A431A703B1D1A780F21AC
:10A6A0000A40111C10220A431A70454B180005F08D
:10A6B000F7F803009AB242493B1D1800FFF714FC5B
:10A6C0000300BB64BB6C7B647B6C002B05D07B6C94
:10A6D000002200211800FFF70BFC3A4B1800FFF78F
:10A6E000FBFB0300BB64BB6C3B643B6C002B05D0E5
:10A6F0003B6C002200211800FFF7FAFB314B0022CF
:10A700009A71304B00221A702E4B1800FFF7E0FBB5
:10A710000300BB64BB6CFB63FB6B002B05D0FB6BC6
:10A72000002200211800FFF7E3FB3B00264A1268D5
:10A730001A600823FB18302200211800FDF736FDAF
:10A740000823FB1802221A700823FB184F22BA189C
:10A750001278DA700823FB1801221A820823FB18EA
:10A760003A005A610823FB180021180000F0B7FFD7
:10A770000300BB64BB6CBB63BB6B002B05D0BB6B26
:10A78000002200211800FFF7B3FB104B1422002118
:10A790001800FDF70BFD0D4B00221A700B4B002229
:10A7A0005A600A4B00221A72084B852292001A82C4
:10A7B000064B00225A82C046BD4614B080BDC0463A
:10A7C00028F90100883500203CF90100903500206F
:10A7D00080B588B000AFF860B9607A603B603B68D4
:10A7E000FB61FB69002B05D0FB69002200211800EA
:10A7F000FFF77EFBBB6A9B681800FFF74FFB030067
:10A800007B6100233B611423FA181023FB1811000D
:10A810001800FFF7DBFB0300BB61BB69052B01D10F
:10A8200000231BE0BB6A98683A6913009B009B18E1
:10A830009B000C4A9B181422190005F019F8031EFE
:10A840000BD13A6913009B009B189B00054A9B188B
:10A85000142200211800FDF7A9FC00231800BD46B2
:10A8600008B080BDBC35002090B58FB000AFF86057
:10A87000B9607A603B607B681B78802B54D00ADC1F
:10A88000022B53D002DC012B52D060E0032B51D0BD
:10A89000042B51D05BE0862B50D004DC812B07D0F9
:10A8A000852B4DD053E0872B4CD0882B4CD04EE0DD
:10A8B0001023FB18102200211800FDF777FC20233D
:10A8C000FB18254A13CA13C312681A602023F9180B
:10A8D0001023FB181022180004F0D9FFBB680833BE
:10A8E0001022B9181022180004F0C2FF031E2DD147
:10A8F0001A4B03221A701A4B04221A70194B18684B
:10A9000080235B0100221900FEF73EFD03007B63FC
:10A910007B6B3B633B6B002B18D03B6B0022002111
:10A920001800FFF7E5FA11E0C04610E0C0460EE05F
:10A93000C0460CE0C0460AE0C04608E0C04606E05B
:10A94000C04604E0C04602E0C04600E0C046002326
:10A950001800BD460FB090BD18F90100602000201E
:10A96000B8350020AC35002080B58AB000AF7860E3
:10A9700039603B681B78012B5ED0022B00D18BE045
:10A98000002B00D08BE0484B180002F0B1FF030011
:10A990007B627B6A3B623B6A002B05D03B6A0022EC
:10A9A00000211800FFF7A4FA404A41493E4B180025
:10A9B00003F040F803007B627B6AFB61FB69002BBC
:10A9C00005D0FB69002200211800FFF791FA394AEF
:10A9D000354B1100180002F0EBFF03007B627B6A2D
:10A9E000BB61BB69002B05D0BB69002200211800A8
:10A9F000FFF77EFA304B642200211800FDF7D6FBEA
:10AA00002E4B02221A702E4B03221A702D4B1868FF
:10AA1000C023DB0100221900FEF7B6FC03007B62B5
:10AA20007B6A7B617B69002B38D07B690022002127
:10AA30001800FFF75DFA31E0224B1B681800FEF7A3
:10AA4000EBFC03007B627B6A3B613B69002B05D01A
:10AA50003B69002200211800FFF74AFA124B180048
:10AA600002F076FF03007B627B6AFB60FB68002BD1
:10AA700005D0FB68002200211800FFF739FA0E4BC1
:10AA8000642200211800FDF791FB0C4B01221A7083
:10AA90000B4B02221A7002E0C04600E0C046C046DE
:10AAA000BD460AB080BDC046A4350020171700007F
:10AAB000784D0020D1A70100BC3500206020002087
:10AAC000B8350020AC35002080B588B000AF354BDC
:10AAD0009A790C23FB181A70324B5A790C23FB1805
:10AAE0005A70304B1A790C23FB189A700C23FB1800
:10AAF000FF22DA700C23FB18FE221A71294BDA7838
:10AB00000C23FB185A71274B9A780C23FB189A7167
:10AB1000244B5A780C23FB18DA71224B1B78002B3C
:10AB200009D10C23FB181B7802229343DAB20C23C1
:10AB3000FB181A7008E00C23FB181B780222134341
:10AB4000DAB20C23FB181A703B1D0C22BA181A60DB
:10AB50003B1D154A5A603B1D180002F0E7FB03003D
:10AB6000FB61FB69BB61BB69002B05D0BB6900229F
:10AB700000211800FFF7BCF90C4B180001F094F904
:10AB80000300FB61FB697B617B69002B05D07B695E
:10AB9000002200211800FFF7ABF9C046BD4608B0FF
:10ABA00080BDC0468835002069A9010069A8010060
:10ABB00080B584B000AF164B1800FFF791F9030081
:10ABC000FB60FB68BB60BB68002B05D0BB68002244
:10ABD00000211800FFF78CF90E4B01221A700E4B62
:10ABE000186880239B0100221900FEF7CDFB0300AB
:10ABF000FB60FB687B607B68002B05D07B680022D4
:10AC000000211800FFF774F9C046BD4604B080BDAE
:10AC100090350020B8350020B035002080B584B0D4
:10AC200000AF78607B681B88102B02D0112B04D0FA
:10AC30001BE0104B02221A7017E00F4B1B68180024
:10AC4000FEF7EAFB0300FB60FB68BB60BB68002B00
:10AC500005D0BB68002200211800FFF749F9054B19
:10AC600000221A70FFF7A4FFC046C046BD4604B0DC
:10AC700080BDC046B8350020AC35002080B582B01C
:10AC800000AF78607B68180004F0AEFB7B681800AA
:10AC9000FFF7C4FFC046BD4602B080BD80B584B09A
:10ACA00000AF144900234822082003F019FB0300D9
:10ACB000FB60FB68BB60BB68002B05D0BB68002253
:10ACC00000211800FFF714F90B4B180003F04EFB9E
:10ACD00003007B607B683B603B68002B05D03B68D2
:10ACE000002200211800FFF703F9C046BD4604B05A
:10ACF00080BDC046083900207DAC010080B500AFA2
:10AD0000FFF7CCFFFFF7BAFC00231800BD4680BD5B
:10AD100080B584B000AFFFF72FF9FFF761FCFFF7B4
:10AD2000EDFF0300FB60FB68BB60BB68002B05D038
:10AD3000BB68002200211800FFF7DAF8FFF7C4FE15
:10AD4000FFF736FFFFF786F80300FB60FB687B60C8
:10AD50007B68002BF6D07B68002200211800FFF7EB
:10AD6000C7F8EFE772DF7047C046180079DF704719
:10AD7000C04618007DDF7047C046180064DF70478A
:10AD8000C046180080B582B000AF02003960BB1D1C
:10AD90001A80BB1D1B88DAB23B681A703B6801330E
:10ADA000BA1D1288120A92B2D2B21A700223180087
:10ADB000BD4602B080BD80B588B000AFF860B96014
:10ADC0007A601C23FB187A6812781A701C23FB180F
:10ADD0001B7802331F2B04DCFB685B7802331F2BCC
:10ADE00001DD0C2380E01C23FB181B789AB21E2384
:10ADF000FB181D218A1A1A801623FB181E22BA1866
:10AE000012881A801C23FB181B780233BA68D318E7
:10AE10001622BA1811001800FFF7ACFF0300BB613F
:10AE2000BB69002B01D0BB695EE0FB681B78022B7D
:10AE300012D11623FB181B881E22BA1812889A42B8
:10AE40000AD31D23FB1809221A701E23FB18162291
:10AE5000BA1812881A801BE01D23FB1808221A70EA
:10AE6000FB685B78002B0DD0FB685B789BB21E22E1
:10AE7000BA1812889A4205D3FB685A781E23FB1829
:10AE80001A8005E01E23FB181622BA1812881A80B1
:10AE90001C23FB181B781C22BA18591C11701A00AD
:10AEA000BB689B181E22BA181288D2B20132D2B2E5
:10AEB0001A701C23FB181B781C22BA18591C11701D
:10AEC0001A00BB689B181D22BA1812781A707B688A
:10AED0001A781E23FB181B88DBB2D318DBB20233AF
:10AEE000DAB27B681A7000231800BD4608B080BD36
:10AEF00080B584B000AF786039603B681B7804335C
:10AF00001F2B01DD0C2336E00A23FB181800FFF786
:10AF10002DFF0300FB60FB68002B01D0FB682AE0DB
:10AF20003B681B785A1CD1B23A6811701A007B68D2
:10AF30009B1803221A703B681B785A1CD1B23A68DE
:10AF400011701A007B689B1819221A700A23FB18CB
:10AF50001A883B681B7819007B685B181900100081
:10AF6000FFF710FF03001A003B681B789B18DAB24A
:10AF70003B681A7000231800BD4604B080BD80B540
:10AF800084B000AFB9607A600F23FB18021C1A70FE
:10AF90007B681B7803331F2B01DD0C2323E07B68C8
:10AFA0001B785A1CD1B27A6811701A00BB689B18C2
:10AFB00002221A707B681B785A1CD1B27A68117011
:10AFC0001A00BB689B180A221A707B681B785A1CEF
:10AFD000D1B27A6811701A00BB689B180F22BA1898
:10AFE00012781A7000231800BD4604B080BD80B5E9
:10AFF0008AB000AFF860080011007B600B23FB18DB
:10B00000021C1A700A23FB180A1C1A702323FB184F
:10B0100000221A702223FB183A6B12781A70002350
:10B020007B627BE0FB685A687B6A9B00D318142222
:10B03000BA181000190004231A0004F028FC1A237F
:10B04000F9181423FB1800221800FFF797FE0300DD
:10B05000FB61FB69002B01D0FB697BE01A23FB1825
:10B060001B780A22BA1812789A4254D12323FB186B
:10B070001B78002B01D0002200E002221B23FB18CA
:10B080001A703B6B1B781A001A23FB181B78D21816
:10B090001B23FB181B78D3181F2B01DD0C2359E051
:10B0A0002323FB181B7801225340DBB2002B16D060
:10B0B0003B6B1B780133DAB23B6B1A703B6B1B782E
:10B0C0005A1CD1B23A6B11701A007B689B180B2284
:10B0D000BA1812781A702323FB1801221A703B6BDE
:10B0E0001B781A007B689A181A23F9181423FB1886
:10B0F0001800FFF743FE0300FB61FB69002B01D042
:10B10000FB6927E03B6B1A781A23FB181B78D318CE
:10B11000DAB23B6B1A707B6A01337B62FB681B8877
:10B120001A007B6A9A4200DD7CE72323FB181B7818
:10B13000002B0ED02223FB181B787A68D3183A6BA9
:10B1400011782222BA1812788A1AD2B2013AD2B2EF
:10B150001A7000231800BD460AB080BD80B588B0C3
:10B1600002AFF860080011007B600B23FB18021C83
:10B170001A700A23FB180A1C1A707A680B23FB1832
:10B180001978F8683B6A009313000222FFF72FFF3B
:10B1900003007B617B69002B01D07B6912E07A6838
:10B1A0000A23FB181978F8683B6A009313001022F1
:10B1B000FFF71DFF03007B617B69002B01D07B69DA
:10B1C00000E000231800BD4606B080BD80B582B007
:10B1D00000AF78607B681B88052B0AD97B681A88CA
:10B1E000C8231B019A4206D97B681B88164A9342E2
:10B1F00001D0072323E07B685B88052B0AD97B6895
:10B200005A88C8231B019A4206D97B685B880E4A7C
:10B21000934201D0072312E07B681B880A4A9342BD
:10B220000CD07B685B88084A934207D07B681A88F9
:10B230007B685B889A4201D9072300E0002318004D
:10B24000BD4602B080BDC046FFFF000080B586B09D
:10B2500000AFF860B9607A607B681B7806331F2BFB
:10B2600001D90C2347E0FB681800FFF7AFFF03008C
:10B270007B617B69002B01D07B693CE07B681B789C
:10B280005A1CD1B27A6811701A00BB689B1805224B
:10B290001A707B681B785A1CD1B27A6811701A0038
:10B2A000BB689B1812221A70FB681A887B681B788F
:10B2B0001900BB685B1819001000FFF763FD03005D
:10B2C0001A007B681B789B18DAB27B681A70FB68DF
:10B2D0005A887B681B781900BB685B18190010003E
:10B2E000FFF750FD03001A007B681B789B18DAB249
:10B2F0007B681A7000231800BD4606B080BD80B57B
:10B3000086B000AFF860B9607A60FB689B88DAB2FB
:10B310001723FB1802321A707B681B789A1C1723BC
:10B32000FB181B78D3181F2B01DD0C234CE07B6826
:10B330001B785A1CD1B27A6811701A00BB689B182E
:10B340001722BA1812780132D2B21A707B681B78B1
:10B350005A1CD1B27A6811701A00BB689B18FF2280
:10B360001A70FB681A887B681B781900BB685B1829
:10B3700019001000FFF706FD03001A007B681B7818
:10B380009B18DAB27B681A70FB689B88002B1AD076
:10B39000FB689B68002B01D1072315E07B681B78B5
:10B3A0001A00BB689818FB689968FB689B881A00AC
:10B3B00004F06DFA7B681A78FB689B88DBB2D318BF
:10B3C000DAB27B681A7000231800BD4606B080BD53
:10B3D00080B588B000AFF860B9607A60FB689B6A9E
:10B3E000002B01D1072372E01F23FB1800221A70E3
:10B3F00064E0FB68996A1F23FB181A7813005B004E
:10B400009B189B00CB18BB61BB699B88DAB21723E2
:10B41000FB1802321A707B681B785A1CD1B27A680A
:10B4200011701A00BB689B181722BA1812780132E3
:10B43000D2B21A707B681B785A1CD1B27A6811702C
:10B440001A00BB689B1816221A70BB691A887B68A1
:10B450001B781900BB685B1819001000FFF792FCFD
:10B4600003001A007B681B789B18DAB27B681A709D
:10B47000BB699B88002B1AD0BB699B68002B01D14C
:10B48000072324E07B681B781A00BB689818BB6907
:10B490009968BB699B881A0004F0F9F97B681A78EF
:10B4A000BB699B88DBB2D318DAB27B681A701F23A2
:10B4B000FB181A781F23FB1801321A70FB682C2224
:10B4C0009B5C1F22BA1812789A4292D3002318006C
:10B4D000BD4608B080BD80B588B002AFF860B960E5
:10B4E0007A6000237B617B6800221A70FB681B78FE
:10B4F000002B0CD07A68B968FB681800FFF75BFC7A
:10B5000003007B617B69002B01D07B69C3E0FB6892
:10B510009B78002B0CD07A68BB6811001800FFF7ED
:10B52000E7FC03007B617B69002B01D07B69B2E003
:10B53000FB68DB78002B21D07B681B785A1CD1B2CA
:10B540007A6811701A00BB689B1802221A707B6817
:10B550001B785A1CD1B27A6811701A00BB689B180C
:10B5600001221A707B681B785A1CD1B27A6811705C
:10B570001A00BB689B18FA68D2781A70FB685B687F
:10B58000002B0FD0FB685B681B785BB27A68B968E8
:10B590001800FFF7F4FC03007B617B69002B01D0EE
:10B5A0007B6978E0FB681B89002B11D0FB680833AE
:10B5B0001800BA687B680093130006220221FFF787
:10B5C000CDFD03007B617B69002B01D07B6962E0CC
:10B5D000FB681B8A002B11D0FB6810331800BA6877
:10B5E0007B680093130007220321FFF7B7FD0300D8
:10B5F0007B617B69002B01D07B694CE0FB681B8B76
:10B60000002B11D0FB6818331800BA687B680093D0
:10B61000130015221421FFF7A1FD03007B617B6954
:10B62000002B01D07B6936E0FB681B6A002B0DD034
:10B63000FB681B6A7A68B9681800FFF707FE030009
:10B640007B617B69002B01D07B6924E0FB685B6A2E
:10B65000002B0DD0FB685B6A7A68B9681800FFF7A9
:10B660004EFE03007B617B69002B01D07B6912E0F9
:10B67000FB682C229B5C002B0CD07A68B968FB68B5
:10B680001800FFF7A5FE03007B617B69002B01D04A
:10B690007B6900E07B691800BD4606B080BD80B5BF
:10B6A00082B000AF78607B68DB781A000423134017
:10B6B00001D1072300E000231800BD4602B080BD81
:10B6C00080B582B000AF78607B68DB78002B01D05A
:10B6D000072300E000231800BD4602B080BD80B5FE
:10B6E00096B000AF786039604B23FB1800221A70C7
:10B6F0004A23FB1800221A707B68002B1DD07B6840
:10B700001800FFF7CCFF0300FB64FB6C002B01D09B
:10B71000FB6C42E04B23FA182823F9187B681800C9
:10B72000FFF7D9FE0300FB64FB6C002B01D0FB6C20
:10B7300033E02823FB187B6501E000237B653B6831
:10B74000002B1DD03B681800FFF7BAFF0300FB6415
:10B75000FB6C002B01D0FB6C1FE04A23FA18082376
:10B76000F9183B681800FFF7B6FE0300FB64FB6C9A
:10B77000002B01D0FB6C10E00823FB183B6501E0B7
:10B7800000233B654B23FB1819784A23FB181B78D1
:10B790003A6D786DFFF7E6FA03001800BD4616B063
:10B7A00080BD80B582B000AF78600A00FB1C1A70C3
:10B7B0007B68180002F01EF87B683A229A717B6859
:10B7C000FA1C1278DA71C046BD4602B080BD000096
:10B7D000B0B588B002AFF860B9607A60134B1B68EF
:10B7E000002B1FD0BB689B682C3B7B61BB689B68B0
:10B7F000043B3B613B695B881B0A9BB21AB23B6905
:10B800005B881B021BB213431BB29AB23B695A807E
:10B81000064B1C687D683A697969F868BB680093D3
:10B820002B00A047C046BD4606B0B0BD543900202D
:10B8300090B58FB000AFF860B9607A603B603B684C
:10B840009B687B631423FB1800225A701423FB1897
:10B8500003221A703B68DA681423FB185A601C2311
:10B86000FA181423FB181100180001F09BF80300CC
:10B870003B633B6B002B00D0B7E0FB699B682C3B24
:10B88000FB62FB699B68043BBB62FB699B687B6254
:10B89000BB6A81221A70BB6A00225A70BB6A0022FE
:10B8A0005A80FB6A40211800FFF77BFFFB6ABA68E9
:10B8B0001833083213CA13C312681A60FB69DB68B5
:10B8C0009BB204339BB21B0A9BB21AB2FB69DB68C2
:10B8D0009BB204339BB21B021BB213431BB29AB23E
:10B8E000FB6A9A80BB681B7EFF2B15D1FB6A414A1D
:10B8F0009A60FB6A0022DA60FB6A08330833F96851
:10B900000822180003F0C3FFFB6A1B7C022253408D
:10B91000DAB2FB6A1A7407E0FB6ABA6808331832B5
:10B9200013CA13C312681A607B6B1A887B6A1A8069
:10B930007B6B5A887B6A5A80FB699B68181D3B6841
:10B940009B68191D3B68DB68043B1A0003F09FFFEE
:10B95000FB69DB689BB23E339AB22223FB181A8044
:10B96000FB6A083318002223FA180023102101F083
:10B970008BFEFB6A183318002223FA1800231021CB
:10B9800001F082FEFB699B68181FFB69DB689BB2B4
:10B99000043399B22223FA18002301F075FE222302
:10B9A000FB181B88DB439BB21B0A9BB21AB22223F3
:10B9B000FB181B88DB439BB21B021BB213431BB259
:10B9C0009AB2BB6A5A80FB69FA6992682C3A9A600B
:10B9D000FB69FA69D2682C32DA60FA69FB681100F7
:10B9E000180001F021FE03003B63C046BD460FB0C6
:10B9F00090BDC046FE80000090B597B000AFF860E3
:10BA0000B9607A603B605623FB180C221A80002331
:10BA10003B650023FB640023BB64BB681B899A4A17
:10BA2000934200D123E1994B2AE13B689A6856235F
:10BA3000FB181B88D3183B653B6D5B78002B01D14D
:10BA4000924B1DE13B6D1B78032B03D0222B00D1C1
:10BA5000AEE000E13B6DBB64BB6C9B78002B00D17A
:10BA6000A3E0BB6CDB781A004023134000D19CE0BC
:10BA7000BB6CDB785BB2002B00DA96E0BB6C1B8AF8
:10BA8000814A934200D1E3E01023FB187E4A1A60FA
:10BA90001023FB1800225A601023FB180833F968A2
:10BAA0000822180003F0F3FE1023FB181B7A022271
:10BAB0005340DAB21023FB181A72BB6C1033190012
:10BAC000BB6C9B78DB08DBB21A001023FB18180054
:10BAD00003F0DDFEBB6C9B781A000723134048D0AF
:10BAE000BB6C9B781A0007231340FF2212021A41F5
:10BAF0004723FB181A70BB6C9B78DB08DBB21A007B
:10BB0000BB6C9B181A7C4623FB18472179180978CF
:10BB10000A401A70BB6C9B78DB08DBB21900BB6C67
:10BB20009B78DB08DBB21A001023FB189B5C5BB22E
:10BB30004722BA18127852B2D24352B213405BB2C3
:10BB4000DAB21023FB185A54BB6C9B78DB08DBB2CB
:10BB50001900BB6C9B78DB08DBB21A001023FB18C2
:10BB60009A5C4623FB181B781343DAB21023FB18A8
:10BB70005A54BB6C5B68002B0DD01023FB180222BB
:10BB80001A741023FA18FB681100180001F03AFC2F
:10BB900003003B640BE01023FA18FB681100180047
:10BBA00001F0E2FC03003B6401E0384B68E052E046
:10BBB0003B6DFB642823FB1804331022002118007E
:10BBC000FCF7F4FA2823FB18FA6C0433083213CA82
:10BBD00013C312681A60FB6C9A782823FB185A70FA
:10BBE000FB6CDB780F221340DAB22823FB181A70A3
:10BBF000FB6CDB781B11012213405A1E9341DAB211
:10BC00002823FB181A75FB6CDB88002B16D1282320
:10BC1000FB1819782423FA18FB68180000F080FD3F
:10BC200003003B643B6C002B14D17A6AFB68110063
:10BC3000180000F0E5FC03003B640BE02823FA1831
:10BC4000FB681100180000F057FC03003B6401E0A2
:10BC5000C04600E0C0463B6D5B789BB2DB0099B20A
:10BC60005623FB185622BA1812888A181A805623AF
:10BC7000FB181A883B68DB689A4200D2D5E600239D
:10BC80001800BD4617B090BDFE80000043C1000003
:10BC900080B586B000AFF860B9607A603B607B68C1
:10BCA0001B78862B0BD002DC852B05D016E0872B6A
:10BCB0000ED0882B0FD011E00C4B7B6111E03B685C
:10BCC0007A68B968F868FFF797FE03007B6108E0BF
:10BCD000064B7B6105E000237B6102E0034B7B6147
:10BCE000C0467B691800BD4606B080BD40C100005B
:10BCF00090B58BB000AFF860B9607A603B60654B7F
:10BD00001B7801225340DBB2002B01D0624BBDE017
:10BD1000FB68002B01D1614BB8E0BB68002B01D15F
:10BD20005E4BB3E07B68002B01D15C4BAEE03B681F
:10BD3000002B01D1594BA9E03B681B78032B01D0A4
:10BD4000574BA3E000237B623B689B682C3B3B6224
:10BD50003B689B68043BFB613B689B68BB61FB697C
:10BD600080221A70FB6900225A70FB6900225A80F7
:10BD70003B6A40211800FFF714FD3B6ABA6808339C
:10BD800013CA13C312681A603B6A7A68183313CA5D
:10BD900013C312681A603B68DB689BB204339BB222
:10BDA0001B0A9BB21AB23B68DB689BB204339BB29E
:10BDB0001B021BB213431BB29AB23B6A9A80BB6947
:10BDC00000221A80374B1B881B0A9BB21AB2354BD4
:10BDD0001B881B021BB213431BB29AB2BB695A8069
:10BDE0003B68DB689BB23E339AB21623FB181A807D
:10BDF0003B6A083318001623FA180023102101F0BB
:10BE000043FC3B6A183318001623FA18002310214C
:10BE100001F03AFC3B689B68181F3B68DB689BB2EB
:10BE2000043399B21623FA18002301F02DFC1623CF
:10BE3000FB181B88DB439BB21B0A9BB21AB216236A
:10BE4000FB181B88DB439BB21B021BB213431BB2C4
:10BE50009AB2FB695A80134B1B8801339AB2114B7B
:10BE60001A803B689B682C3B1A003B689A603B68D1
:10BE7000DB682C331A003B68DA603A68FB68110013
:10BE8000180001F0D1FB03007B627B6A1800BD46FD
:10BE90000BB090BD5039002080C100000EC10000E1
:10BEA00007C100005239002080B582B000AF786031
:10BEB0000A4B1B7801225340DBB2002B01D0084B08
:10BEC00008E07B68002B01D1064B03E0064B7A6843
:10BED0001A6000231800BD4602B080BD5039002012
:10BEE00080C100000EC100005439002080B500AFB1
:10BEF000044B00221A60044B01221A700023180020
:10BF0000BD4680BD543900205039002080B58AB02C
:10BF100000AFF860B9607A60524B1B780122534041
:10BF2000DBB2002B01D0504B98E0FB68002B01D115
:10BF30004E4B93E0BB68002B01D14C4B8EE07B68ED
:10BF4000002B01D1494B89E000237B622323FB189E
:10BF500000221A707B689B68FB610023BB617B68D1
:10BF6000DB68032B03D9BB689B88032B02D8404BAB
:10BF70007B6262E07B68DB689BB23A339AB216233D
:10BF8000FB181A80BB68083318001623FA18002320
:10BF9000102101F079FBBB68183318001623FA183A
:10BFA0000023102101F070FB7B6898687B68DB68D8
:10BFB00099B21623FA18002301F066FB1623FB182A
:10BFC0001B88DB439AB21623FB181A807B68032276
:10BFD0001A707B689B681A1D7B689A607B68DB68B7
:10BFE0001A1F7B68DA601623FB181B88002B02D00F
:10BFF000204B7B6221E0FB691B78812B05DC802BC9
:10C0000007DA013B032B15D817E0853B032B11D82A
:10C0100003E07B689B68BB610FE07B68FA69B968E5
:10C02000F868FFF735FE03007B622323FB1801222B
:10C030001A7002E0104B7B62C0467A6A7968FB682E
:10C040001800FFF7C5FBFB691B78802B05D17B68C7
:10C05000FA69B968F868FFF7EBFB00231800BD46E2
:10C060000AB080BD5039002080C100000EC1000020
:10C0700042C1000041C1000040C1000080B582B053
:10C0800000AF78607B68FF221A707B6800225A70CC
:10C090007B6800221A757B68043310220021180087
:10C0A000FCF784F8C046BD4602B080BD80B584B0C0
:10C0B00000AF78600023FB6023E0FA6813005B00A8
:10C0C0009B18DB007A68C42149004A439B18083357
:10C0D0001A000F4BD3181800FFF7D0FF0C4A7B68EB
:10C0E000C42149004B43D318043300221A70084B73
:10C0F0007A68C42149004A430021D150FB680133CA
:10C10000FB60FB680F2BD8D9C046BD4604B080BD8C
:10C110005C39002080B584B000AF78600023FB60FC
:10C120000BE00B4BFA68C42149004A43D2587B68A4
:10C130009A4206D0FB680133FB60FB68002BF0D00D
:10C1400000E0C046FB681800BD4604B080BDC04694
:10C150005C39002080B586B000AFF8607A600B23B0
:10C16000FB180A1C1A7000237B6127E017497A69C3
:10C17000F86813005B009B18DB00C42252004243A6
:10C180009B18CB1808331B780B22BA1812789A42E6
:10C1900011D17A6913005B009B18DB00FA68C42197
:10C1A00049004A439B1808331A00084BD2187B6891
:10C1B0001A60002306E07B6901337B617B690F2BEA
:10C1C000D4D9034B1800BD4606B080BD5C390020B1
:10C1D00005B10000F0B587B000AFF860B9607A60D3
:10C1E000654AFB68C42149004B43D31804331B78CC
:10C1F0003B6100237B61B2E05F497A69F868130014
:10C200005B009B18DB00C422520042439B18CB18F2
:10C2100008331B78FF2B00D19EE07A6913005B0086
:10C220009B18DB00FA68C42149004A439B18083375
:10C230001A00514BD3181C1DBD684F497A69F86824
:10C2400013005B009B18DB00C422520042439B1882
:10C25000CB1809331B78DB08DBB21E0046497A692C
:10C26000F86813005B009B18DB00C42252004243B5
:10C270009B18CB1809331B781A00072313405A1E4A
:10C280009341DBB2F31A1A002900200003F0F0FA00
:10C29000031E5ED138497A69F86813005B009B1869
:10C2A000DB00C422520042439B18CB1809331B7891
:10C2B000DB08DBB21C0030497A69F86813005B00C8
:10C2C0009B18DB00C422520042439B18CB181B1959
:10C2D0000C33197828487A69FC6813005B009B18B6
:10C2E000DB00C422520062439B18C31809331B7839
:10C2F000DB08DBB21A00BB689B5C4B40DBB21C0066
:10C300001D497A69F86813005B009B18DB00C422A2
:10C31000520042439B18CB1809331B781A0007239D
:10C320001340FF2212021A411300234011D17A69EF
:10C3300013005B009B18DB00FA68C42149004A43E4
:10C340009B1808331A000C4BD2187B681A60002324
:10C350000DE03B69013B3B617B6901337B617B699C
:10C360000F2B03D83B69002B00D045E7034B180087
:10C37000BD4607B0F0BDC0465C39002005B10000E5
:10C3800080B584B000AF786039600023FB6024E0A2
:10C390001649FA68786813005B009B18DB00C4221A
:10C3A000520042439B18CB1808331B78FF2B11D146
:10C3B000FA6813005B009B18DB007A68C42149000F
:10C3C0004A439B1808331A00084BD2183B681A607E
:10C3D000002306E0FB680133FB60FB680F2BD7D915
:10C3E000034B1800BD4604B080BDC0465C39002038
:10C3F00004B1000080B582B000AF00237B6006E08E
:10C400007B681800FFF752FE7B6801337B607B6816
:10C41000002BF5D0034B01221A7000231800BD46F3
:10C4200002B080BD5839002080B584B000AF78607C
:10C43000134B1B7801225340DBB2002B01D0114B70
:10C4400019E07B68002B01D10F4B14E00023FB6047
:10C450000020FFF75FFE0300BB60BB68012B07D025
:10C460000A4BBA68C42149004A437968D15001E0B7
:10C47000074BFB60FB681800BD4604B080BDC0469A
:10C480005839002080B100000EB100005C39002056
:10C4900004B1000080B584B000AF7860124B1B7807
:10C4A00001225340DBB2002B01D0104B17E07B6818
:10C4B000002B01D10E4B12E00023FB607B681800BB
:10C4C000FFF728FE0300BB60BB68012B04D0BB68EC
:10C4D0001800FFF7EBFD01E0064BFB60FB6818005E
:10C4E000BD4604B080BDC0465839002080B1000070
:10C4F0000EB1000005B1000080B586B000AF7860D5
:10C500003960394B1B7801225340DBB2002B01D03C
:10C51000364B64E03B68002B01D1354B5FE03B6854
:10C520001B780F2B01D9334B59E03B685B78802B8C
:10C5300001D9304B53E000233B6100237B617B68D2
:10C540001800FFF7E7FD0300FB60FB68012B43D0F9
:10C550003B6819780823FA18FB681800FFF7FAFD02
:10C5600003003B613B69002B1ED00823FA18FB68CF
:10C5700011001800FFF704FF03007B617B69002BAB
:10C5800012D11D4AFB68C42149004B43D318043320
:10C590001B780133D8B2184AFB68C42149004B43C9
:10C5A000D3180433021C1A707B69002B16D1BB68A8
:10C5B0003A6812781A70BB683A6852785A70BB6849
:10C5C0003A68127D1A75BB68181D3B680433102247
:10C5D000190003F05CF901E0084B7B617B691800EE
:10C5E000BD4606B080BDC0465839002080B100006D
:10C5F0000EB1000007B100005C39002005B1000059
:10C6000080B584B000AF78603960204B1B78012280
:10C610005340DBB2002B01D01D4B33E07B68002B75
:10C6200001D11C4B2EE03B68002B01D1194B29E0B6
:10C630000023FB607B681800FFF76CFD0300BB6004
:10C64000BB68012B1BD03B681B78FF2B12D0124A12
:10C65000BB68C42149004B43D31804331B78013B0A
:10C66000D8B20D4ABB68C42149004B43D3180433E8
:10C67000021C1A703B681800FFF700FD01E0074B31
:10C68000FB60FB681800BD4604B080BD583900202F
:10C6900080B100000EB100005C39002005B100003F
:10C6A00080B586B000AFF860B9607A60184B1B782F
:10C6B00001225340DBB2002B01D0164B23E0FB6874
:10C6C000002B01D1144B1EE0BB68002B01D1124B93
:10C6D00019E07B68002B01D10F4B14E0FB681800B8
:10C6E000FFF718FD03003B613B69012B08D07A6816
:10C6F000B9683B691800FFF76DFD03007B6101E03D
:10C70000064B7B617B691800BD4606B080BDC04604
:10C710005839002080B100000EB1000005B10000C2
:10C7200080B586B000AFF8607A600B23FB180A1C56
:10C730001A701A4B1B7801225340DBB2002B01D038
:10C74000174B27E0FB68002B01D1164B22E07B68DA
:10C75000002B01D1134B1DE00B23FB181B780F2B73
:10C7600001D9114B16E0FB681800FFF7D3FC03005A
:10C770003B613B69012B0AD07A680B23FB181978BF
:10C780003B691800FFF7E6FC03007B6101E0074B03
:10C790007B617B691800BD4606B080BD583900201A
:10C7A00080B100000EB1000007B1000005B100002B
:10C7B00080B582B000AF78607B6800225A607B68E9
:10C7C00000229A607B680022DA607B6800221A707F
:10C7D0007B6800221A61C046BD4602B080BD0000E1
:10C7E00080B584B000AF0200FB1D1A700023FB600F
:10C7F000FB1D1B78052B13D89A000C4BD3181B6814
:10C800009F460023FB600CE02823FB6009E02C23FB
:10C81000FB6006E03023FB6003E03423FB6000E0B4
:10C82000C046FB681800BD4604B080BD54F9010045
:10C8300080B586B000AFF860B960FB1D1A70314B4F
:10C840003B6100237B6155E02F497A6913009B000F
:10C850009B189B00CB1810331B68002B47D12A492B
:10C860007A6913009B009B189B00CB181033BA68A1
:10C870001A60FB1D1B78002B2DD17A6913009B00D9
:10C880009B189B00204A9B18181D7A6913009B0077
:10C890009B189B0010331A001B4BD3181900FCF790
:10C8A0007DFE03003B613B69002B09D17A691300CF
:10C8B0009B009B189B00144A9A18FB681A601CE0A6
:10C8C00011497A6913009B009B189B00CB18103309
:10C8D00000221A6011E07A6913009B009B189B00EC
:10C8E000094A9A18FB681A6000233B6105E07B69DE
:10C8F00001337B617B69092BA6D93B691800BD46D2
:10C9000006B080BD04B00000E83A002080B584B0D5
:10C9100000AF786039601423FB603A680E4BD31A7D
:10C92000BB60FA6813009B009B185B001A00BB6891
:10C930009A4206D3BB68F968180002F093FF0B1EF9
:10C9400001D0064B03E07B683A681A6000231800A8
:10C95000BD4604B080BDC046E83A002010B00000DB
:10C9600080B582B000AF00237B600CE07A681300D2
:10C970009B009B189B00094A9B181800FFF718FFA3
:10C980007B6801337B607B68092BEFD9044B012264
:10C990001A7000231800BD4602B080BDE83A00209E
:10C9A000E43A002080B586B000AF786039602D4B46
:10C9B0001B7801225340DBB2002B01D02A4B4DE003
:10C9C0007B68002B01D1294B48E03B68002B01D14B
:10C9D000264B43E07B681B78002B03D07B681B78D9
:10C9E000052B01D9224B39E07B685B78012B01D9FB
:10C9F0001F4B33E07B685B68002B01D11D4B2DE0A2
:10CA00007B681B781800FFF7EBFE03007B617B68F7
:10CA10005A687B69D1187B685A780C23FB18180078
:10CA2000FFF706FF03003B613B69002B15D1FB6854
:10CA30007A685268DA60FB687A6812781A707B68E4
:10CA40005B78012B05D0FB68FA6851687A698A180F
:10CA50009A60FB681A003B681A603B691800BD4683
:10CA600006B080BDE43A002080B000000EB00000A7
:10CA700007B0000009B0000080B584B000AF786056
:10CA80000A00FB1C1A70174B1B7801225340DBB2C3
:10CA9000002B01D0144B20E07B68002B01D1134BFD
:10CAA0001BE07A680823FB1811001800FFF72EFF1F
:10CAB0000300FB60FB68002B0ED1FB1C1B78002BD6
:10CAC00006D0BB685B681800FCF7DEFD0300FB6066
:10CAD000BB681800FFF76CFEFB681800BD4604B089
:10CAE00080BDC046E43A002080B000000EB00000D7
:10CAF00080B584B000AF78603960174BBB6000230D
:10CB0000FB6021E01549FA6813009B009B189B000D
:10CB1000CB1810331B78002B13D0FA6813009B003E
:10CB20009B189B000D4A9B1879681022180002F090
:10CB30009FFE031E05D13B68FA681A600023BB60A4
:10CB400005E0FB680133FB60FB68022BDAD9BB68A8
:10CB50001800BD4604B080BD05C00000B43B0020F5
:10CB600080B584B000AF7860104BBB600023FB60E1
:10CB700013E00F49FA6813009B009B189B00CB1829
:10CB800010331B78002B05D17B68FA681A600023EC
:10CB9000BB6005E0FB680133FB60FB68022BE8D952
:10CBA000BB681800BD4604B080BDC04604C000008C
:10CBB000B43B002080B584B000AF78600A00FB1C55
:10CBC0001A70FB1C1B78002B1DD00023FB6017E0A4
:10CBD0000023BB600EE0194AFB68DB00D218BB687B
:10CBE000D31804331B781A007B689A4222D0BB68A2
:10CBF0000133BB60BB68022BEDD9FB680133FB60DE
:10CC0000FB68002BE4D00E497A6813009B009B1848
:10CC10009B00CB18103300221A707A6813009B0017
:10CC20009B189B00064A9B18102200211800FBF756
:10CC3000BDFA00E0C046BD4604B080BDF03B002018
:10CC4000B43B002080B586B000AF78603960052322
:10CC50003B6100237B614DE02A4A7B68DB00D218F0
:10CC60007B69D31804331B78FF2B40D0254A7B689F
:10CC7000DB00D2187B69D31804331B781A00130029
:10CC80009B009B189B00204A9B18FB60FB6839683F
:10CC90001022180002F0ECFD031E25D03B681B6833
:10CCA0001A4A93420DD13B685B68002B09D13B685F
:10CCB0009B68002B05D13B68DA68B0235B059A427C
:10CCC00012D03B681B68114A934210D13B685B68E5
:10CCD000002B0CD13B689B68002B08D13B68DA68BD
:10CCE00080235B049A4202D100233B6105E07B690B
:10CCF00001337B617B69022BAED93B691800BD46CD
:10CD000006B080BDF03B0020B43B0020FF020000D5
:10CD100080B586B000AF786039607B685B69FB6086
:10CD20003B680822BA1811001800FFF7E1FE030063
:10CD30003B613B69002B06D00823FB181800FFF766
:10CD40000FFF03003B613B69002B64D1344B3B6117
:10CD500000237B611DE0334AFB68DB00D2187B694E
:10CD6000D31804331B781A00BB689A420ED13B6873
:10CD7000187C2D497A6913009B009B189B00CB18E7
:10CD80001033021C1A7000233B6105E07B690133FC
:10CD90007B617B69022BDED93B69214A93423AD100
:10CDA000224B3B6100237B6132E01E4AFB68DB00C3
:10CDB000D2187B69D31804331B78FF2B25D13B682D
:10CDC000187C19497A6913009B009B189B00CB18AB
:10CDD0001033021C1A707A6913009B009B189B0089
:10CDE000114A9B1839681022180002F050FDBB68E8
:10CDF000D9B20C4AFB68DB00D2187B69D318043324
:10CE00000A1C1A7000233B6105E07B6901337B61DA
:10CE10007B69022BC9D93B691800BD4606B080BDAD
:10CE200040C00000F03B0020B43B002004C00000E4
:10CE300080B586B000AF7860396000233B61002385
:10CE40007B6138E07A687B69D3181A7839687B6926
:10CE5000CB181B789A4203D13B6908333B6127E02A
:10CE60007A687B69D31819783A687B69D3181A787D
:10CE70000F23FB184A401A700023BB6012E00F23F7
:10CE8000FB181B785BB2002B10DB3B6901333B6165
:10CE90000F23FA180F23FB181B78DB181370BB68DD
:10CEA0000133BB60BB68072BE9D907E0C04605E04A
:10CEB0007B6901337B617B690F2BC3D93B69180008
:10CEC000BD4606B080BD000080B584B000AF78607C
:10CED0003960164BBB60164B1B68012B18D1002321
:10CEE000FB6011E0134BFA68D200D358002B08D036
:10CEF000104BFA68D200D2587B681A600023BB60DE
:10CF00000FE0FB680133FB60FB68002BEAD008E010
:10CF1000074B1B68002B02D1044BBB6001E0064BA2
:10CF2000BB60BB681800BD4604B080BD05C00000F2
:10CF3000F83B0020F03B002006C0000080B584B024
:10CF400000AF78607B6800221A600023FB601AE063
:10CF50000B23FB187968FA688A18043212781A7061
:10CF60000B23FB181B78FF2B0AD07A68FB68D318B9
:10CF70000433FF221A70FB6801211800FFF71AFE24
:10CF8000FB680133FB60FB68022BE1D9C046BD465C
:10CF900004B080BD80B582B000AF78607B685B690B
:10CFA0001800BD4602B080BD80B58AB000AF786081
:10CFB000396000237B623BE0214B7A6AD200D35870
:10CFC000002B32D11E4B7A6AD2007968D1507A6A2E
:10CFD0007B685A613B687A6A1A600C23FB18194A0D
:10CFE0001A600C23FB1800225A600C23FB1808332C
:10CFF00079680822180002F04AFC0C23FB181B7AFF
:10D0000002225340DAB20C23FB181A720C23FB18CD
:10D0100002221A740C23FA187B6811001800FFF71B
:10D0200077FE03003B62002306E07B6A01337B62EC
:10D030007B6A002BC0D004231800BD460AB080BD17
:10D04000F03B0020FE80000080B582B000AF786029
:10D050007B68DA00044BD3181800FFF76FFFC04657
:10D06000BD4602B080BDC046F03B002080B586B012
:10D0700000AF78600C23FB1800221A70054B1B6868
:10D080000C22B9187A6810009847C046BD4606B011
:10D0900080BDC046B03B002080B586B000AF786050
:10D0A0000C23FB1801221A70054B1B680C22B918BF
:10D0B0007A6810009847C046BD4606B080BDC0469D
:10D0C000B03B002080B586B000AF786039600C239B
:10D0D000FB1802221A700C23FB183A689A603B680E
:10D0E0005A680C23FB185A60054B1B680C22B918B0
:10D0F0007A6810009847C046BD4606B080BDC0465D
:10D10000B03B002080B584B000AF78603960002368
:10D11000FB603B689B68283BBB60BB689B881B0A25
:10D120009BB21AB2BB689B881B021BB213431BB293
:10D130009AB2BB689A80BB685B881B0A9BB21AB222
:10D14000BB685B881B021BB213431BB29AB2BB685D
:10D150005A80BB689B79112B0AD03A2B11D13A68BF
:10D16000B9687B681800FEF7D1FE0300FB600FE092
:10D170003A68B9687B68180000F008FE0300FB609D
:10D1800006E03A687B6811001800FFF79BFFC04675
:10D190003B6801211800FFF76FFCFB681800BD46D3
:10D1A00004B080BD80B58AB000AF786039602723B5
:10D1B000FB1800221A707B681800FFF7EBFE0300D3
:10D1C000BB613B681B78012B09D003DC002B00D12D
:10D1D00096E09AE0022B1FD0032B35D095E0182360
:10D1E000FA187B6811001800FFF7DEFE03003B62AF
:10D1F0003B6A002B00D085E07B681800FFF714F92C
:10D2000003003B62484B1B685A1C474B1A607B6803
:10D210001800FFF72BFF75E0BB69002B00D073E00F
:10D220007B681800FFF738FF7B681800FFF732F9BA
:10D2300003003B623C4B1B685A1E3B4B1A60BB69A8
:10D240001800FFF701FF5FE0BB69002B53D13B687B
:10D25000DB68052B04D12723FB1801221A7054E048
:10D260003B685B681833FB61BB69FA691100180001
:10D27000FFF7E8FC03003B623B6A002B04D0272346
:10D28000FB1801221A7040E00C23FB1801225A708F
:10D290000C23FB1801221A703B681B891A000C230F
:10D2A000FB185A601423FA180C23FB1811001800FD
:10D2B000FFF778FB03003B623B6A002B16D17B69CA
:10D2C0003A6852685A607B697A69526828329A6073
:10D2D0007B697A69D268283ADA607A697B681100DA
:10D2E0001800FFF70FFF03003B620EE02723FB1837
:10D2F00001221A7009E02723FB1801221A7004E0AA
:10D30000C04602E0C04600E0C0462723FB181B7859
:10D31000002B04D03B685B681800FCF7B5F9C046E9
:10D32000BD460AB080BDC046F83B002080B586B03F
:10D3300000AF78607B68002B01D12C4B51E07B68FB
:10D340001B68002B01D1294B4BE07B685B68002BED
:10D3500001D1264B45E0FCF79BF8FFF701FB00F0FD
:10D36000A7FAFEF7C3FDFFF745F8214B1022002175
:10D370001800FAF71BFF7B685A681E4B1A601E4B99
:10D3800000221A6000237B6109E07B69DA001B4BF5
:10D39000D3181800FFF7D2FD7B6901337B617B69ED
:10D3A000002BF2D000237B6107E07B69002118008D
:10D3B000FFF700FC7B6901337B617B69022BF4D9A9
:10D3C0007B681A680823FB181A600823FB180C4AAC
:10D3D0005A600823FB18180001F0B4FC03003B61FD
:10D3E0003B691800BD4606B080BDC0460EC00000B7
:10D3F000784D0020B03B0020F83B0020F03B00209F
:10D40000A5D1010080B584B000AF786039600E4BC3
:10D410001B68002B01D10D4B12E03B68002B01D1A2
:10D420000B4B0DE07B68002B01D1094B08E03A68FB
:10D430007B6811001800FFF76BFC0300FB60FB68C2
:10D440001800BD4604B080BDB03B002080C0000085
:10D450000EC0000080B58CB000AFF860B9607A6093
:10D460003C4B1B68002B01D13B4B6EE07B68002BD3
:10D4700001D13A4B69E0FB68002B01D1374B64E0E6
:10D4800000233B620023BB6200237B627A68FB6857
:10D4900011001800FFF718FD0300FB61FB69002B6A
:10D4A00052D1BB68002B4FD0FB681B685B69BB6126
:10D4B0000023FB6235E02A4ABB69DB00D218FB6A15
:10D4C000D31804331B787B617B69FF2B26D0254959
:10D4D0007A6913009B009B189B00CB1810331B78B4
:10D4E000022B1BD17A6913009B009B189B001D4ADD
:10D4F0009A187B6811001800FFF79AFC03003B6242
:10D500003A6ABB6A9A4209D33B6ABB627A691300E2
:10D510009B009B189B00134A9B187B62FB6A01339C
:10D52000FB62FB6A022BC6D97B6A002B06D1BB6863
:10D53000102200211800FAF739FE05E0BB68796A6D
:10D540001022180002F0A3F9FB691800BD460CB0C8
:10D5500080BDC046B03B002080C000000EC000006F
:10D56000F03B0020B43B002080B586B000AF78606F
:10D570003960274B1B68002B01D1264B43E03B68E9
:10D58000002B01D1244B3EE07B68002B01D1224BC4
:10D5900039E07B685B69FB60204B3B6100237B616A
:10D5A0002DE01F4AFB68DB00D2187B69D3180433D7
:10D5B0001B78BB60BB68FF2B1ED0BA6813009B00B2
:10D5C0009B189B00174A9B1839681022180002F01C
:10D5D0004FF9031E10D1124AFB68DB00D2187B6999
:10D5E000D3180433FF221A707B6901211800FFF75A
:10D5F000E1FA00233B6105E07B6901337B617B69D4
:10D60000022BCED93B691800BD4606B080BDC0468E
:10D61000B03B002080C000000EC0000005C000002C
:10D62000F03B0020B43B002080B584B000AF7860B0
:10D630003960124B1B68002B01D1114B1AE03B687B
:10D64000002B01D10F4B15E07B68002B01D10D4B56
:10D6500010E03B6899683B68DB689AB27B68180009
:10D6600001F0A0FB0300FB603B6800211800FFF7FE
:10D6700003FAFB681800BD4604B080BDB03B002033
:10D6800080C000000EC0000080B586B000AFF8601A
:10D6900008007A6019000A23FB18021C1A8009236B
:10D6A000FB180A1C1A707B681A881623FB18120ACA
:10D6B0001A807B681A881423FB18FF210A401A80FD
:10D6C0006BE00A23FB181B88012B11D1FB681B7828
:10D6D00099B21623FB181622BA1812888A181A80D3
:10D6E0000A23FB180A22BA181288013A1A801EE08F
:10D6F000FB685A1CFA601B7899B21623FB18162295
:10D70000BA1812888A181A80FB685A1CFA601B78AB
:10D7100099B21423FB181422BA1812888A181A8096
:10D720000A23FB180A22BA181288023A1A80142314
:10D73000FB181A88FF231B02134013D01423FB1875
:10D740001B881B0A99B21623FB181622BA181288D6
:10D750008A181A801423FB181422BA181288FF2181
:10D760000A401A801623FB181A88FF231B02134055
:10D7700013D01623FB181B881B0A99B21423FB181D
:10D780001422BA1812888A181A801623FB18162237
:10D79000BA181288FF210A401A800A23FB181B8836
:10D7A000002B00D08DE71623FB181B881B0299B2B3
:10D7B0001623FB181422BA1812888A181A80092313
:10D7C000FB181B78002B09D01623FB181B88084A6E
:10D7D000934203D11623FB1800221A807B6816227D
:10D7E000BA1812881A80C046BD4606B080BDC04631
:10D7F000FFFF000080B582B000AF78607B686022D8
:10D800001A707B6800225A707B6800225A807B68FD
:10D81000FF229A717B684022DA717B6800229A802D
:10D82000C046BD4602B080BD80B582B000AF786012
:10D830007B6800221A807B6800225A807B68002265
:10D840005A627B6800229A627B68043310220021AE
:10D850001800FAF7ABFC7B68143310220021180083
:10D86000FAF7A4FCC046BD4602B080BD80B584B0C6
:10D8700000AF0200BB1D1A800023FB600BE00B4BC6
:10D88000FA682C214A43D35ABA1D12889A4206D00C
:10D89000FB680133FB60FB68012BF0D900E0C04658
:10D8A000FB681800BD4604B080BDC046003C0020A7
:10D8B00080B582B000AF00237B600AE07B682C2239
:10D8C0005A43094BD3181800FFF7AEFF7B680133AA
:10D8D0007B607B68012BF1D9044B01221A70002375
:10D8E0001800BD4602B080BD003C0020FC3B00207B
:10D8F00080B584B000AF7860114B1B780122534093
:10D90000DBB2002B01D00F4B15E07B68002B01D15F
:10D910000D4B10E00020FFF7A9FF0300BB600023C0
:10D92000FB60BB68022B03D07B68BA681A6001E019
:10D93000064BFB60FB681800BD4604B080BDC046C6
:10D94000FC3B002080C200000EC2000004C20000A8
:10D9500080B582B000AF7860104B1B780122534035
:10D96000DBB2002B01D00E4B14E07B68002B01D101
:10D970000C4B0FE07B681B68012B01D90A4B09E0B7
:10D980007B681B682C225A43084BD3181800FFF7FA
:10D990004BFF00231800BD4602B080BDFC3B0020B9
:10D9A00080C200000EC2000010C20000003C002037
:10D9B00080B582B000AF78603960184B1B780122C7
:10D9C0005340DBB2002B01D0154B23E07B68002BCA
:10D9D00001D1144B1EE03B68002B01D1114B19E023
:10D9E0007B681B68012B01D90F4B13E07B681A6819
:10D9F0000E4B2C214A43D35A002B01D10C4B09E08A
:10DA00007B681B68094A2C214B43D31824333A689E
:10DA10001A6000231800BD4602B080BDFC3B002008
:10DA200080C200000EC2000010C20000003C0020B6
:10DA300007C2000090B587B000AFF860B960BB1DA9
:10DA40001A802F4B1B7801225340DBB2002B01D0F0
:10DA50002C4B51E0FB68002B01D12B4B4CE0BB68F9
:10DA6000002B01D1284B47E0FB681B68012B01D933
:10DA7000264B41E0BB1D1B88002B01D1244B3BE012
:10DA800000237B61BB1D1B881B0A9BB21AB2BB1D06
:10DA90001B881B021BB213431AB2BB1D1A80002342
:10DAA0003B610DE01B4B3A692C214A43D35ABA1D06
:10DAB00012889A4201D1184B7B613B6901333B616B
:10DAC0003B69012BEED97B69002B14D1FB681A68E6
:10DAD000104B2C214A43B91D0988D152FB681B68A1
