:1000000000800020DD0B0000250C0000270C000004
:1000100000000000000000000000000000000000E0
:10002000000000000000000000000000290C00009B
:1000300000000000000000002B0C00002D0C000050
:100040002F0C00002F0C00002F0C00002F0C0000C4
:100050002F0C0000000000002F0C00002F0C0000EF
:10006000C50B00002F0C00002F0C00002F0C00000F
:100070002F0C00002F0C00002F0C00002F0C000094
:100080002F0C00002F0C00002F0C00002F0C000084
:100090002F0C00002F0C00002F0C00002F0C000074
:1000A0002F0C00002F0C00000000000000000000DA
:1000B0000000000000000000000000000000000040
:1000C000164B002B00D1144B9D46402292029A1AE7
:1000D000924600218B460F461348144A121A00F02C
:1000E00065F80F4B002B00D098470E4B002B00D02B
:1000F00098470020002104000D000D48002802D080
:100100000C4800E000BF00F02DF82000290000F0AE
:10011000F3F900F011F8C04600000800008000204C
:100120000000000000000000600000207C000020B3
:100130000000000000000000084B10B50400002B78
:1001400002D0002100E000BF054B1868836A002B35
:1001500000D09847200000F031F8C04600000000B1
:10016000480C000070B500260C4D0D4C641BA4100B
:10017000A64209D1002600F05BFD0A4D0A4C641B23
:10018000A410A64205D170BDB300EB5898470136C4
:10019000EEE7B300EB5898470136F2E76000002025
:1001A0006000002060000020600000200300821832
:1001B000934200D1704719700133F9E7FEE7C0465A
:1001C00080B500AF00F01CF8031E06D0094B0A4AA8
:1001D0001A600A4B802212021A6000F051F8031EC6
:1001E00005D08023DA05C123DB000121D150C046B0
:1001F000BD4680BD04050040DFFF07C0186C00400D
:1002000080B500AF1A4B1B68FF221340012B2AD187
:10021000184B1B680F22134025D1174B1B68F02287
:10022000134006D1154B1B68F022134001D1012366
:100230001AE0114B1B68F0221340102B06D10F4B14
:100240001B68F022134001D101230DE00A4B1B680B
:10025000F0221340302B06D1084B1B68F0221340CC
:1002600001D1012300E000231800BD4680BDC04637
:10027000E00F00F0E40F00F0E80F00F0EC0F00F0EA
:1002800080B500AF0D4B1B68FF221340012B11D12D
:100290000B4B1B680F2213400CD10A4B1B68F0223A
:1002A0001340402B06D1084B1B68F022134001D1AC
:1002B000012300E000231800BD4680BDE00F00F0E0
:1002C000E40F00F0E80F00F0EC0F00F080B582B012
:1002D00000AF7860A023DB057A68C132FF3292005C
:1002E0000321D150C046BD4602B080BD80B582B06A
:1002F00000AF78600A00FB1C1A70A023DB05FA1C13
:100300001278920011007A68C132FF329200D15007
:10031000C046BD4602B080BD80B582B000AF7860F7
:10032000A023DA0501217B689940A123DB00D1508D
:10033000C046BD4602B080BD80B582B000AF7860D7
:10034000A023DB0501217A6891400A0002495A5036
:10035000C046BD4602B080BD0C05000080B582B02D
:1003600000AF786039603B68002B04D17B681800CF
:10037000FFF7E2FF03E07B681800FFF7CDFFC04600
:10038000BD4602B080BD80B582B000AF7860A023CA
:10039000DA05A223DB00D2587B68DA401300012281
:1003A00013401800BD4602B080BD000080B582B089
:1003B00000AF02003960BB1D1A80BB1D1A88A02344
:1003C0005B009A4200D086E0454B1B68002B19D198
:1003D00001210320FFF7C2FF424B00221A60424B6B
:1003E00000221A60414B00221A60A023DB0540491D
:1003F0008022D2035A50A023DA05A123DB0000217A
:10040000D15038E0364B1B68142B04D10021032057
:10041000FFF7A4FF2FE0324B1B68142B2BD9304B76
:100420001A689023FF339A4225D80420FFF7ABFFC8
:100430000300012B08D12B4B1B68002B04D1284B48
:100440001A68284B1A6016E00420FFF79CFF031E71
:1004500011D1244B1B68002B0DD0244B1B68002BA3
:1004600009D11F4B1A681F4B1B68D21A1E4B1A600A
:100470001E4B01221A601A4B1B68142B1CD9184BF7
:100480001B681C4A934217D8174B1B68042B13D9BF
:10049000154B1B680B2B0FD8144B1B68002B0BD074
:1004A000A023DA05A123DB008021C903D150A023BA
:1004B000DB050F4A00219950094B1B685A1C084B59
:1004C0001A60074B1A68FA23DB009A4202D1044BE8
:1004D00000221A60C046C046BD4602B080BDC0467C
:1004E0006000002064000020680000206C000020F4
:1004F0000C050000CF07000080B586B002AF0023D6
:10050000BB600320FFF7E2FE01210420FFF7EEFEAF
:100510000023FB600EE0F823DA03FB681A411300A6
:100520000122134003D0FB681800FFF7CFFEFB68E1
:100530000133FB60FB681F2BEDD9A023DB051749B6
:10054000F822D2035A50A023DA05A123DB000021B0
:10055000D150134A134B0021180000F0F5F90300A5
:10056000BB60BB687B607B68002B05D07B6800228A
:100570000021180000F026F8FA231B013B603A68BE
:100580000848012300930123002100F099FA054B4C
:10059000180000F039FA30BFFDE7C0460C05000036
:1005A000AD0300004C0C000080B500AFBFF34F8FCF
:1005B000024B034ADA60BFF34F8FFEE700ED00E025
:1005C0000400FA0580B584B000AFF860B9607A60C5
:1005D000FFF7EAFFC046BD4604B080BD80B582B0DB
:1005E00000AF0200FB1D1A70064BFA1D12781100B5
:1005F0001F220A40012191400A001A60C046BD46F0
:1006000002B080BD00E100E080B582B000AF020022
:10061000FB1D1A70084AFB1D1B7819001F230B4095
:10062000012199400B001900C0235B00D150C04646
:10063000BD4602B080BDC04600E100E0B0B582B06A
:1006400000AF02003960FB1D1A70FB1D1B787F2B69
:1006500032D92F4CFB1D1B781A000F231340083B87
:1006600099082B4AFB1D1B7818000F230340083BF9
:100670009B0806339B00D31804331B68FA1D1278BD
:10068000100003220240D200FF2090400200D2431B
:100690001A403B689B01FF201840FB1D1B781D0082
:1006A00003232B40DB00984003001A438B1D9B0063
:1006B000E31804331A6027E0164CFB1D1B785BB26D
:1006C0009B081449FA1D127852B29208C032920067
:1006D0005258F91D0978080003210140C900FF2084
:1006E00088400100C94311403A689201FF20104040
:1006F000FA1D1278150003222A40D2009040020011
:100700000A43C0339B001A51C046BD4602B0B0BD7B
:1007100000ED00E000E100E080B582B000AF020033
:10072000FB1D1A70BB1D0A1C1A70BB1D1A78FB1D1D
:100730001B785BB211001800FFF780FFFB1D1B78D0
:100740005BB21800FFF760FFFB1D1B785BB218005F
:10075000FFF744FFC046BD4602B080BD80B582B001
:1007600000AF78600A00FB1C1A70FB1C1B787A68CB
:10077000D31801221A60C046BD4602B080BD80B5C4
:1007800082B000AF78600A00BB1C1A80BB1C1B88BB
:100790007A68D31800221A60C046BD4602B080BDF8
:1007A00080B582B000AF78600A00BB1C1A80BB1C09
:1007B0001B887A68D3181B685A1E9341DBB2180055
:1007C000BD4602B080BD80B582B000AF78603960B0
:1007D0007A6880239B00D2583B681A4311007A68DC
:1007E00080239B00D150C046BD4602B080BD80B57D
:1007F00082B000AF786039607A6880239B00D3585C
:100800003A68D2431A4011007A6880239B00D15085
:10081000C046BD4602B080BD80B582B000AF7860F2
:100820000A00FB1C1A707B68084A9B5801229343FC
:100830001A00FB1C1B7801210B401A437B680349FB
:100840005A50C046BD4602B080BDC04604050000F7
:1008500080B582B000AF78600A00FB1C1A707A681D
:10086000A123DB00D358032293431A00FB1C1B78FF
:1008700003210B401A4311007A68A123DB00D150F9
:10088000C046BD4602B080BD80B582B000AF786082
:100890000A00FB1C1A707A68A223DB00D3580F22CF
:1008A00093431A00FB1C1B780F210B401A431100C5
:1008B0007A68A223DB00D150C046BD4602B080BD9D
:1008C00080B584B000AFF8607A600B23FB180A1C77
:1008D0001A700B23FB181A78FB685132FF32920012
:1008E0007968D150C046BD4604B080BD80B582B0A5
:1008F00000AF786039607A68C1239B003968D150B5
:10090000C046BD4602B080BD80B582B000AF786001
:1009100039607A68C1239B00D3583A6813405A1E45
:100920009341DBB21800BD4602B080BD80B582B0F5
:1009300000AF786039607A68C2239B003968D15073
:10094000C046BD4602B080BD80B584B000AFF8603F
:10095000B9607A60FB685B791A00274B9B5C002BBF
:1009600001D0082344E0BB68002B05D1FB685B790C
:10097000DA00224BD318BB60FB6804229A56BB688E
:10098000DB7819001000FFF7C7FEFB685B791A00DF
:10099000BB6859681A4B9200D1507B68002B26D057
:1009A000FB685B791A00174B92007968D150FB689D
:1009B0001A68BB685B7819001000FFF72DFFFB6811
:1009C0001A68BB689B7819001000FFF741FFFB68AD
:1009D0001A68BB681B7819001000FFF755FFFB6809
:1009E0005B791A00044B01219954002300E007238E
:1009F0001800BD4604B080BD74000020540C0000F7
:100A0000780000207000002080B582B000AF7860D0
:100A10007B681B6800211800FFF7A0FE7B685B79EC
:100A20001A00034B02219954C046BD4602B080BD56
:100A30007400002080B582B000AF78607B689BB204
:100A400050339BB29B009BB21800BD4602B080BDE4
:100A500080B586B000AFF86008007A6019000B23FB
:100A6000FB18021C1A700A23FB180A1C1A700B23AD
:100A7000FB181B78802252029A4013007B610A23E4
:100A8000FB181B78002B07D0FB681B687A691100E4
:100A90001800FFF72BFF06E0FB681B687A6911005E
:100AA0001800FFF743FFFB6818687A680B23FB18F0
:100AB0001B781900FFF704FFC046BD4606B080BD95
:100AC00090B585B000AFF86008007A6019000B237C
:100AD000FB18021C1A700823FB180A1C1A80FB68FA
:100AE00018680B23FB181B78802252009A400B23B6
:100AF000FB181B78012199400B0013431900FFF7E5
:100B000076FEFB681A680823FB181B881900100082
:100B1000FFF759FE2023FB181C787A680B23FB187B
:100B20001978F8682300FFF793FFC046BD4605B06B
:100B300090BD000090B585B000AF786039600023AB
:100B4000FB6034E00A23FC18FB681800FFF772FF13
:100B5000030023800A23FB181A887B681100180001
:100B6000FFF71EFE031E1FD080235A02FB689A4027
:100B70007B6811001800FFF7C7FE031E14D00A237C
:100B8000FB181A887B6811001800FFF7F8FD0B4B63
:100B90003A689200D3580A4A3968890089580A226B
:100BA000BA18128810009847FB680133FB60FB6895
:100BB000032BC7D9C046BD4605B090BD70000020CC
:100BC0007800002080B500AF034B00211800FFF72C
:100BD000B1FFC046BD4680BD0080004003210A48E9
:100BE00002680A430260094802680A430260084931
:100BF000084A094B9B1A03DD043BC858D050FBDC64
:100C00000648804706480047240500405405004038
:100C1000640C00000000002060000020C101000002
:100C2000C1000000FEE7FEE7FEE7FEE7FEE7FEE7A5
:100C3000F8B5C046F8BC08BC9E467047F8B5C0463B
:100C4000F8BC08BC9E4670470000002000800040B1
:0C0C50000800000000000303000000008A
:080C5C0064F4FF7F01000000B9
:100C64000000000000000000000000000000000080
:100C74000000000000000000000000000000000070
:100C84000000000000000000000000000000000060
:100C94000000000000000000000000000000000050
:100CA4000000000000000000000000000000000040
:100CB4000000000000000000000000000000000030
:0400000300000BDD11
:00000001FF
