:020000021000EC
:10800000008000205DBB0100A5BB0100A7BB0100F3
:108010000000000000000000000000000000000060
:10802000000000000000000000000000A9BB0100EB
:108030000000000000000000ABBB0100ADBB010070
:10804000AFBB0100AFBB010001900100AFBB01005D
:10805000AFBB01000000000025960100AFBB01008E
:10806000AFBB0100AFBB0100AFBB0100AFBB010064
:10807000AFBB0100AFBB0100AFBB0100AFBB010054
:10808000AFBB0100758B0100AFBB0100AFBB0100AE
:10809000A18B0100AFBB010035BB0100AFBB0100EC
:1080A000AFBB0100AFBB01000000000000000000FA
:1080B00000000000000000000000000000000000C0
:1080C000164B002B00D1144B9D46402292029A1A67
:1080D000924600218B460F461348144A121A00F0AC
:1080E00065F80F4B002B00D098470E4B002B00D0AB
:1080F00098470020002104000D000D48002802D000
:108100000C4800E000BF00F02DF82000290002F02C
:10811000C9FA00F011F8C0460000080000800020F5
:108120000000000000000000702000201029002046
:108130000000000000000000084B10B50400002BF8
:1081400002D0002100E000BF054B1868836A002BB5
:1081500000D09847200000F031F8C0460000000031
:1081600054CF010070B500260C4D0D4C641BA410BB
:10817000A64209D1002604F0E1FE0A4D0A4C641B18
:10818000A410A64205D170BDB300EB589847013644
:10819000EEE7B300EB5898470136F2E77020002075
:1081A0007020002070200020702000200300821822
:1081B000934200D1704719700133F9E7FEE7C046DA
:1081C00070B5002401E00134E4B2164B1B789C42E8
:1081D00027D2154B1D68E300ED1828780123834052
:1081E000124A12681A42EED09A43104B1A6001F0FC
:1081F0000FFA2E780122B2400D4B1B68134002008B
:10820000B2409342DFD1697801394B425941411A5A
:1082100048424141C9B26B68002BD4D03000984726
:10822000D1E770BD70200020842000208020002035
:108230007C20002070B5050001248440134B186891
:1082400000F088FD002806D1114B1B68234203D0A3
:10825000A3430F4A136070BD280001F0D9F900282C
:108260000FD00C4A136823431360094B1A68144358
:108270001C60064B1868084B1968002200F038FD96
:10828000E9E7044A1368A3431360EEE7782000206F
:10829000802000207C2000207420002070B582B057
:1082A00006000D001400042A02D8072002B070BD99
:1082B00001F098F8002820D0154B1E60154B1D705A
:1082C000154B1C600023154A1360154A13606C1E81
:1082D000E4B2002D16D0E300F31801A903220A70BE
:1082E00000228A70CA709A784A7018780D4A01F094
:1082F000E5F80028DAD12500E9E701F047F8002881
:10830000DAD0D3E7084A0021084800F0C5FCCDE7E1
:108310008420002070200020742000207C20002079
:108320008020002035820100C181010078200020DA
:1083300010B5002407E0E300064A1268D05C012172
:1083400001F012F90134044B1B789C42F3D3002056
:1083500010BDC0468420002070200020BFF34F8F46
:10836000024A034BDA60BFF34F8FFEE70400FA05C1
:1083700000ED00E000290FD0002A01D1092070474C
:10838000531E134201D00920F9E7016083800023C6
:108390008360C3600020F2E70E20F0E78268C368C4
:1083A0009B1A82889A4201D204207047C3681A40FF
:1083B00003689954C3680133C3600020F5E78268FD
:1083C000C3689A420AD08268838813400268D35CEB
:1083D0000B70836801338360002070470520FCE741
:1083E000A123DB00064AD0500648C4218900435827
:1083F000054A1A40C0231B02134343507047C0462E
:108400000010014000E100E0FF00FFFF114B80225F
:108410005202D12189005A5040395A500E4A8021C7
:108420008902C02040001150116001221A605238A8
:10843000FF380138C046C046C046C046C046C046A8
:10844000C046C046C046C046C046C046F1D1034BF8
:108450001A7070470010014000E100E08E200020FB
:10846000802189028023184AD150184B8022520261
:10847000D22189005A5040395A5001225A602F2087
:108480000138C046C046C046C046C046C046C04689
:10849000C046C046C046C046C046F1D19A600023DF
:1084A0000B4A13602F200138C046C046C046C04664
:1084B000C046C046C046C046C046C046C046C0468C
:1084C000F1D1044A1370704700E100E00010014050
:1084D0009C2000208E200020F0B51D4B1E68C3009C
:1084E0001B189F00F7191B4B1D686B1C09D07C687B
:1084F000EA0052199300F3185A68944204D92A00EA
:108500000BE0144B186021E0141B5C603D62114BC2
:1085100018601BE0641A15001A6A531C06D0D100BB
:1085200089188B00F31859688C42F3D8531C06D075
:10853000D10089188B00F3185968091B59607C60B9
:108540003A62EB005D19AB00F6183062F0BDC04630
:10855000A8200020A020002010B5204B1C6823007C
:1085600021005A1C0AD0834208D0DA00D2189100A8
:108570001B4A126852181900136AF2E75A1C18D0E5
:10858000994217D0164A1268D800C0188300D31831
:108590005C68C8004118880010181B6A0362591CE7
:1085A00007D0D900CB189900521853689C466444F0
:1085B000546010BDE2001419A000094A1268121894
:1085C000126A064802600132DCD10122054882604D
:1085D00000240548046005480270D3E7A02000206D
:1085E000A8200020001001409C2000208D200020A9
:1085F0008021890280235B00014AD1507047C04628
:1086000000E100E08021490380235B00014AD15052
:108610007047C04600E100E0114B1B78114A127808
:10862000934218D00133DBB20D4A1370022B0ED0E7
:108630000B4B1B789B000C4A9B5803600B4A11683C
:108640008C4663441B021B0A136001207047002202
:10865000034B1A70ECE7002303600020F6E7C046E6
:108660009820002099200020902000209C200020AD
:10867000F0B5C64600B5274B1B689846264B1B78BD
:1086800033E000242AE0254A12685868C3001B180A
:108690009F00D7193B7D002B13D0FFF75DFF002310
:1086A0003B750EE01D4B1B68CA00521891005B1809
:1086B00000221A751A6A174B1A60164B19684B1C60
:1086C000F0D16B789C420FD063001B19DA006B6805
:1086D0009B180134E4B2AA789442D2D01A78022AC4
:1086E000D1D0032AE9D0ECE733005E1EF6B2002BAE
:1086F00005D00B4B1D68F300ED182C78E1E7054B16
:1087000018684346C01A471EB841C0B204BC904620
:10871000F0BDC046A0200020A4200020A8200020FA
:10872000AC200020F0B50026114B1D686B1C1ED03C
:10873000104B1F68EC006419A300FB185C68A04292
:1087400013D3001B361900245C601C75084C1F6A8B
:1087500027601F69002FE7D074182402240A9C6048
:10876000DF6014681C621560DEE7241A5C60F0BDEF
:10877000A0200020A8200020F8B5CE46474680B5AE
:1087800004003D4B1B6898463C4B1B785EE02B7801
:108790005900C918CA0069688C4662440133DBB2CB
:1087A0002B70A9788B421BD05068354B1E68C100D6
:1087B00009188B00F3181178012925D1197D00299A
:1087C00022D191689960D168D960116919615269A3
:1087D000DA612C4A1278002A22D000229A601FE027
:1087E00000232B70E0E7C91B0902090ADA688A42F4
:1087F00024D9511A596000229A60DA6001321A7540
:10880000023A1A62FFF768FE631C1AD0631CBED0DE
:108810001B4B1968E20012199300CB1820001C6A48
:108820009F68194A11687A1A1202120A174EB24248
:10883000D9D8D9688C4662445A60DCE700225A6075
:10884000D9E72A786B789A42E0D14B465E1EF2B2A5
:108850009146002B05D00E4B1D684B46DB00ED18F2
:10886000D2E7054B18684346C01A471EB841C0B24C
:108870000CBC90469946F8BDA0200020A420002002
:10888000A82000208D2000209C200020FEFF7F00DB
:10889000AC200020F8B51C4B1A68531C30D0D30014
:1088A0009B189A00194B1B689B185F68184B194A54
:1088B000D558194B1C682E1B3602360A0336174B47
:1088C0001B78002B16D03B00B74200D23300E318D0
:1088D0001B021B0A0F4AA821C90053500C495258C9
:1088E000521B1202120A03325B1B1B021B0A9A4222
:1088F00003D8F8BDFFF78AFDE5E7FFF779FEF8E753
:10890000FFF7AEFDF5E7C046A0200020A82000201C
:1089100004050000001001409C2000208E20002053
:10892000F0B585B001235B420393124B1C68124BD8
:108930001F6802A8FFF770FE0500FFF799FE01907F
:10894000002D0CD10398FFF717FF002800D10198E4
:1089500000280BD10022094B1A7005B0F0BD03AA04
:1089600021000298FFF7DEFE0195EBE73800FFF7E4
:1089700091FFEFE79C200020A02000208D20002008
:108980004170704743780133827893420AD002786D
:10899000934209D00B60426841784B005B18D800C5
:1089A000101870470023F2E70020FAE7F0B583B013
:1089B0000E0015001C00C7000F4B1868C01901A954
:1089C000FFF7E0FF002815D00123037046600B4B32
:1089D0000B4AD3588360C5600461089B4361064B12
:1089E0001868C0190199FFF7CBFFFFF70BFE0020B5
:1089F00003B0F0BD0420FBE7AC200020040500001C
:108A00000010014030B583B00D00C4000B4B186856
:108A1000001901A9FFF7B6FF00280DD0022303704B
:108A20004560064B186800190199FFF7A9FFFFF789
:108A3000E9FD002003B030BD0420FBE7AC2000209E
:108A40001A4B5B68DB05DB0D06D10423012B28D014
:108A5000032B28D0022025E0103B5BB2002B0DDB5E
:108A60009A08C03292001249525803210B40DB0091
:108A7000DA40920903231340DBB2E7E7DBB20F22AF
:108A80001A40083A92080632920008498C4662441D
:108A9000526803210B40DB00DA40920903231340A4
:108AA000EAE7002070470120FCE7C04600ED00E047
:108AB00000E100E010B50A4B1B68002B0BD0826967
:108AC000C16910009847002800D110BD0022002184
:108AD000FFF744FCF9E78369C0699847F5E7C046AA
:108AE0008820002070B51B4B1C68631C26D01A4BD5
:108AF0001A4AD5581A4B1B68ED1A2D022D0A00266A
:108B0000631C0ED0174B1868E3001B199A008018DD
:108B100043689D4205D3ED1AF618046AFFF7CAFFB1
:108B2000EEE7114B1A78114B1B789A4207D00F4B86
:108B30001B789B000E4A9E50FFF764FD70BD013309
:108B4000DBB20A4A1370022BF1D10022074B1A70D4
:108B5000EDE7C046A0200020040500000010014001
:108B60009C200020A8200020982000209920002090
:108B70009020002010B5094B0022A02149005A5036
:108B800004315A5004315A5004315A504C395A5019
:108B900004315A50FFF7A6FF10BDC0460010014037
:108BA00010B5FFF7BDFE10BDF8B504000E001700AC
:108BB0001D00AB0701D00720F8BD002D51D0FFF7F5
:108BC0004FFC294B069A1A60284B1E70284B1D60DB
:108BD000002207E0D10089188B00EB1800211970E2
:108BE00019750132B242F5DBF3009E19B300ED189E
:108BF0000322204B1A70204B1D60290018310022DF
:108C00000BE0D300EB180020187058709F7059606B
:108C10007B00DB19D80009180132022AF1DD01229C
:108C20005242164B1A600023154A1370154A1370EE
:108C3000154A802149038133FF33D150C52080007C
:108C40001358FF25AB433F3D2B43135011602000C9
:108C5000FFF7C6FB0D4B0E4AD2580E4B1A60002090
:108C6000AAE70720A8E7C046882000208C20002023
:108C7000A8200020A4200020AC200020A02000205C
:108C8000982000209920002000E100E00405000069
:108C9000001001409C200020F0B5134B1F68002FEE
:108CA0001BD0002A1BD000281BD000230F4C247897
:108CB000A34210DA1E00DD00ED18AC003C19257847
:108CC000002D01D00133F1E7012323706170A2610F
:108CD0000660002002E0042000E00820F0BD07202C
:108CE000FCE70720FAE7C046A82000208C200020DF
:108CF000F0B583B006000C001500144B1B68002B68
:108D000022D0134A1278824202D8072003B0F0BD65
:108D1000042901D80720F9E7C200121891005B1856
:108D20001A78012A01D00820F0E75B78012B09D0DE
:108D30000027FFF785FE00953B0022003100FFF77A
:108D400035FEE3E72700F4E70820DFE7A82000204E
:108D50008C20002010B504000C4B1B68002B13D096
:108D60000B4A1278824201D8072010BDC2001218A7
:108D700091005B5C012B01D00820F6E7FFF760FE55
:108D80002100FFF73FFEF0E70820EEE7A8200020D3
:108D90008C20002070B51600002405E04D1C0878DA
:108DA00000F06CFA01342900B442F7DB300070BDEA
:108DB00010B50C00200000F059FA0528FAD0012067
:108DC00010BD00000022054B1A70054B0121D9602F
:108DD0005960A021C9005A507047C046B0200020F9
:108DE0000020004010B5074B1B78DBB2012B02D0EE
:108DF000022B03D010BDFFF7E5FFFBE70322014B79
:108E00001A70F7E7B020002010B5FFF7DBFF10BDA8
:108E10000C4B0421A022D200995000220531FF31D1
:108E20005A5014315A500848195801329143195078
:108E30000121494264381950083019509A601A606B
:108E40007047C046002000406C05000010B50D4B77
:108E50000421A022D200995000220531FF315A503E
:108E600014315A50084C1959013211431951C47820
:108E7000A221C9005C508078083958509A601A6065
:108E800010BDC046002000406C05000000B583B056
:108E90000123064AD360064A137002336A461370F0
:108EA000044B1B686846984703B000BD0020004093
:108EB000B0200020B420002000B583B0104B1B78F8
:108EC000022B02D001220F4B9A606B46D91D0E482F
:108ED000FFF775FA002810D10A4B8022C2218900C1
:108EE0005A506946C8790949585002200449087007
:108EF000C12189005A5003B000BDFFF7C7FFFAE750
:108F0000B020002000200040C82000201C050000E8
:108F100010B50F4B1B78DBB2002B02D0032B13D004
:108F200010BD0C4B0421A022D200995001221A60DE
:108F3000094B9A68DB689A4202D0FFF7BDFFEFE762
:108F40000122034B1A70EBE70222014B1A70E7E78C
:108F5000B020002000200040C820002010B5044BA5
:108F60001B78012B00D010BDFFF7A6FFFBE7C04622
:108F7000B020002010B5054B9A68DB689A4202D0F9
:108F8000FFF79AFF10BDFFF781FFFBE7C820002025
:108F900010B5074B1B78DBB2002B05D0022B04D990
:108FA000032B01D1FFF70EFF10BDFFF7E3FFFBE737
:108FB000B020002010B5042805D88000084B1B58AD
:108FC0009F46FFF70FFF10BDFFF7A2FFFBE7FFF77C
:108FD000DFFFF8E7FFF7C2FFF5E7FFF715FFF2E75E
:108FE00058CF010010B500F013FB002803D1012079
:108FF000FFF7E0FF10BD0020FFF7DCFFFAE70000FD
:1090000000B583B084235B00284AD358002B0DD1D0
:109010008E235B00254AD358002B2CD192235B0072
:10902000224AD358002B2ED103B000BD13000021DB
:10903000842252009950A322D2009958C9B21C48E8
:10904000FFF7ACF900280DD1194A9168D3685B1A73
:10905000012BDDD100236A461370164B1B6868464E
:109060009847D5E701236A4613700190114B1B689E
:1090700068469847CCE700218E235B00D15003203F
:10908000FFF798FFCAE7130000219222520099507F
:109090009021C9005A585A50022369460B70019218
:1090A000044B1B6868469847BEE7C0460020004056
:1090B000B8200020B4200020F0B583B007000C00D9
:1090C0001E0000215C4B19705C4B1A60002C00D113
:1090D000AEE0A28821685A48FFF74CF9051E00D07F
:1090E000A7E0A168A2895748FFF744F9051E00D000
:1090F0009FE07B78A022D205C133FF339B00032180
:1091000099503B78C133FF339B0000219950797807
:109110004D4B4E4A995039784D4A99504D4AB9684D
:1091200099507B79002B33D00E214B4B464AD150BE
:109130003B79022B31D0012B73D0FFF769FE01225E
:109140003D4B1A70089B1B88002B05D1434A1378AE
:10915000591C1170089A13803B4B01214942C222CD
:1091600092009950A1218900043A99503C4A042167
:10917000C0235B00D150C02080001358394C2340DD
:10918000B605FF24240426401E431650116050E00B
:109190000021314B2C4AD150CAE700F023F90028B6
:1091A00003D100F0F3F800280DD103220021684616
:1091B000FEF7FCFF01236A465370B878694600F059
:1091C00019F9002801D0050033E01F4B0121494265
:1091D000A222D2009950B978083A99501E495A589B
:1091E000013002435A5001A903230B7000234B7036
:1091F0008B70CB70F8781C4A00F060F90028E2D13F
:10920000F878012100F0B0F9F87800F001FA0028B0
:1092100003D00020FFF7CEFE94E70120FFF7CAFE3F
:1092200090E73800FFF712FE0122034B1A7089E71E
:109230000725280003B0F0BDB0200020B420002096
:10924000B8200020C8200020002000400C050000AD
:1092500014050000240500006C05000064200020B7
:1092600000E100E0FFFF00FFE58F010010B5010005
:109270000148FFF7A4F810BDB820002010B5010088
:109280000448FFF78BF804000220FFF793FE20004C
:1092900010BDC046C8200020F0B500281ADB8308A6
:1092A000194EC0339B009D5903240440E400FF2263
:1092B0001700A740BD4389010A40A2402A439A51A2
:1092C0001F2318401E3B83400F4AC02149005350C2
:1092D0001360F0BDC5B20F232A002B40083B9B084A
:1092E00006339B00094CA44663445E680325154081
:1092F000ED00FF242200AA40964389010C40AC40B7
:1093000034435C60DCE7C04600E100E000ED00E0D3
:10931000F0B50600002A0DD00023002A0CD0042747
:10932000BB421BD29D000F4C64196068013005D010
:109330000133F5E70423F0E70A27F1E758B2094CB7
:10934000A5192C3528709D0064196160002A07D189
:10935000043B044AD3184C331E7001E00120404204
:10936000F0BDC046D82000208200074B9B18012288
:1093700052425A60032805D90438034B18184C3060
:10938000FF2303707047C046D820002010B5134B50
:109390001B78002B08D0082010BD104AD2182C32A0
:1093A000FF2111700133DBB21F2BF6D9002404E03A
:1093B0002000FFF7D9FF0134E4B2092CF8D90121CC
:1093C0000620FFF769FF80210906C1239B00044A9C
:1093D000D1500122014B1A700020DDE7D820002077
:1093E00000600040024B1878431E9841C0B270479D
:1093F000D8200020F0B5C64600B505000C002B4B68
:109400001B182C331B785BB2013303D0082004BC3B
:109410009046F0BD8B78002B19D1244B1B182C33B0
:10942000FE221A7000200028F1D12B00C133FF3337
:109430009B000321A022D20599506378012B2DD0E7
:109440000123AB401A4AA021C9058B50DFE7012256
:109450000021FFF75DFF431C1ED0217863789846FA
:10946000144E4530FF3080008359134F3B408351E9
:1094700087592B02F822520113400904C02292029C
:1094800011400B4342461205802149030A40134311
:109490003B4383510020C6E70420C4E7AB40A12230
:1094A000D200A021C9058B50B1E7C046D8200020CA
:1094B0000C05000000600040FFE0ECFF70B5050007
:1094C0000C001100254B1B182C331B785BB2002BB2
:1094D00001DB082070BDE278FFF71AFF431C3BD088
:1094E000A378002B17D0A021C9052B00C133FF336F
:1094F0009B005A580226B2435A50E378002B14D1ED
:10950000043822789201154B18184C300378134315
:1095100003700020DEE7627892002B00C133FF3336
:109520009B00A021C9055A50E7E723780C4A453033
:10953000FF30800081580B4C2140815081582D0212
:10954000F824640125401B04C024A40223401D43C9
:109550000D4385500020BDE70420BBE7D820002044
:1095600000600040FFE0FCFF70B5264B1B182C3359
:109570001B785BB2032B27DD1A1F224B9B184C3341
:109580001B789B09032B10D0012B1BD00324A02395
:10959000DB05C130FF308000C1581B4A1140C1506B
:1095A000C25824042243C25070BDA223DB00A02273
:1095B000D205D258012383401A4201D10224E6E7A2
:1095C0000324E4E70224E2E7DAB2032AECD81A0023
:1095D000403292B2920092B20C4D18004530FF30EA
:1095E00080004459012634434451AC466244002073
:1095F00010600029D8D001229A401300C1229200A5
:10960000AB50D1E7D8200020FFFFFCFF00600040F6
:10961000A223DB00A022D205D358C340012018406A
:1096200070470000F8B5CE46474680B5012180233B
:109630005B000022002603E0490004339BB20132A4
:10964000032A0FD8484818180468012CF4D1944014
:10965000C125AD00444F7D592542EDD00024046062
:109660000E43E9E7414B1B68012B09D00025330766
:109670002BD1002E00DA75E00CBC90469946F8BD5F
:1096800000223A4B1A6080231B061E43A223DB00F4
:10969000A022D205D558EAE77F000134032CE8D890
:1096A0003742F9D0304A23004533FF339B009858A6
:1096B000000A1F2108409B581B0C1C391940A200AE
:1096C0002B4B9B185B689847E6E701270024E5E7EA
:1096D00003292CD0B8470134052CCDD8244B1A19B6
:1096E0004C321178C022080090438909BF3A824069
:1096F0001B182C331B785BB2032BECDD9B001C4E3C
:10970000F3185F68002FE6D00300C133FF339B00DE
:10971000A026F6059B591B0C03261E402A4001D0AB
:10972000022ED5D0002AD6D1032ED4D1D0E7022ED6
:1097300015D002239C46A023DB0599460300C133C4
:10974000FF339B004A469E580A4A16404A469E509E
:109750009E586246120416434A469E50BAE70323B7
:109760009C46E8E70024B7E7006000407C610040C9
:10977000D8200020FFFFFCFF074B1B78002B01D1F6
:1097800008207047002804D0044B5B780360002059
:10979000F7E70E20F5E7C046F82100202C21002035
:1097A00010B5A022D205064BD358802149030C00E6
:1097B0009C43A120C00014500B400249535010BDDF
:1097C000040500000C05000070B50400172800D93E
:1097D0002BE28300CF4AD3589F46A023DB05D82134
:1097E000C903A122D20099500021CB4A9950CB4BFA
:1097F0001870002070BDA023DB05D021C903A12271
:10980000D20099500021C44A9950C54A9B585B0325
:109810001ED4A023DB058021C90204329950002107
:10982000BD4A9950022810D0FA200001BB4B1C7091
:10983000BC4B1C68642102F0BBF9BB4B1968414367
:1098400000222000FFF754FAD4E7E120C000EDE742
:10985000A023DB058021C902AF4A99500021043AB8
:109860009950022802D0C8204000DFE7C820DDE779
:10987000A023DB05D021C903A122D20099500021E9
:10988000A54A9950A64A9B585B031ED4A023DB052A
:109890008021C9020432995000219F4A995003281F
:1098A00010D0FA2000019D4B1C709E4B1C68642157
:1098B00002F07EF99C4B1968414300222000FFF71B
:1098C00017FA97E7C8208000EDE7A023DB05802189
:1098D000C902914A99500021043A9950032802D0B4
:1098E000C8204000DFE7C820DDE7A023DB05D0214A
:1098F000C903A122D20099500021874A9950884A71
:109900009B585B0319D4A023DB058021C9020432D4
:1099100099500021804A9950FA2000017F4B1C7019
:10992000804B1C68642102F043F97F4B1968414366
:1099300000222000FFF7DCF95CE7A023DB05802193
:10994000C902754A99500021043A9950C820400034
:10995000E4E7A023DB05D021C903A122D20099505E
:1099600000216D4A99506E4A9B585B031DD4A02379
:10997000DB058021C902043299500021664A9950C2
:10998000052810D0FA200001644B1C70654B1C6840
:10999000642102F00DF9644B196841430022200054
:1099A000FFF7A6F926E7C820EEE7A023DB05802114
:1099B000C902594A99500021043A9950052802D009
:1099C000C8204000E0E7C820DEE7A023DB05D02167
:1099D000C903A122D200995000214F4A9950504A00
:1099E0009B585B0312D4A023DB058021C9020432FB
:1099F00099500021484A9950484B1C70494B1868AF
:109A0000494B19680022FFF773F9F3E6A023DB0541
:109A10008021C902404A99500021043A9950EBE74D
:109A2000A023DB05A122D200D021C90399503A48D6
:109A3000002119508025ED021D509950374B1C70A4
:109A40000020D7E6A022D205354BD3588021090348
:109A50000C009C43A120C00014500B402E495350D1
:109A6000304B1868304B19680022FFF741F9C1E606
:109A7000A022D2052A4BD358802109030C009C4315
:109A8000A120C00014500B4023495350254B1868A7
:109A9000254B1B689900C9180022FFF729F9A9E690
:109AA000A022D2051E4BD358802109030C009C43F1
:109AB000A120C00014500B4017495350194B18688F
:109AC000194B19680022FFF713F993E6A022D2057B
:109AD000134BD358802109030C009C43A120C000E4
:109AE00014500B400C4953500E4B18680E4B1B681A
:109AF0009900C9180022FFF7FBF87BE6A023DB05DD
:109B0000F821C903044A99500021043A99500020D1
:109B100070E6C0466CCF01000C0500001C2200203E
:109B2000040500001422002000220020404B186889
:109B3000FFF710F911231C1B1BD0002819D1012C91
:109B40000DD93B4B1D68C8306043642102F030F8EA
:109B5000384B1968414300222800FFF7C9F8A023B9
:109B6000DB0580214903344A99500021043A995079
:109B700040E6A023DB0580214903A122D2009950B1
:109B800000212D4A995035E6A023DB05F821C903B1
:109B9000A122D20099500021274A9950274B1870D2
:109BA000002027E6A023DB05A122D200F021C90373
:109BB00099502148002119508025ED021D509950DF
:109BC0001E4B1C70002015E6A023DB05A122D2004D
:109BD000E821C903995018480021195080252D0308
:109BE0001D509950154B1C70002003E6A023DB0587
:109BF000A122D200E021C90399500F480021195039
:109C0000C0252D031D5099500C4B1C700020F1E510
:109C1000A023DB05F821C903074A99500021043A23
:109C20009950064B18700020E4E50020E2E5C0469C
:109C3000FC210020002200200C0500001C22002036
:109C400010B5054B1B68DB0700D410BD034B18781B
:109C5000FFF7BAFDF9E7C046102200201C220020C1
:109C600070B50500002400E00134012C04D8A300E5
:109C7000254A9B58AB42F7D1012C09D90026002E6A
:109C800005D0224B1B68002B01D03000984770BDD7
:109C9000012905D0002922D002292FD00026EEE785
:109CA0001B4B62001219D65C9B185B78002B07D106
:109CB00062001219164B9B189A78164B1A55DEE75C
:109CC000154B1868154B1A6893009B185900144AD5
:109CD000FFF70EF80028EBD1114B1D70E8E70E4B93
:109CE0001868FFF737F80B4B1A5D63001B19084C17
:109CF000E418A678B242C2D00026C0E763001B1960
:109D0000034CE4186678BAE7DCCF01001822002083
:109D1000082200202022002004220020002200200F
:109D2000F921002010B500780221FFF799FF10BD3E
:109D3000012803D900230B7000207047A223DB0009
:109D4000A022D205D2588000044BC0580123834082
:109D500093435A1E93410B70EEE7C046DCCF0100DF
:109D600010B5044B1B68DB0701D4002010BDFFF7C2
:109D70002BFDFBE710220020012801D907207047A6
:109D8000012A07D001290DD0002918D002290FD0AF
:109D90000720F4E7012901D00022F3E702000D3289
:109DA000D2B2EFE743001818084BC2540020E6E790
:109DB00043001B180548C01842700020DFE743002D
:109DC0001B180248C01882700020D8E70822002023
:109DD00070B505000E00254B1960254B1860254B0A
:109DE0001A60830729D40020EB070BD5A023DB05DD
:109DF000F822D203A121C9005A5000241E495C5008
:109E00000C315A50002824D0002828D070BD0122DF
:109E100001212000FFF7B0FF0134012C01D80028F8
:109E2000F5D000280CD0002810D00028DCD1134A2F
:109E300000211348FEF730FFD6E700240020ECE7AE
:109E4000720802210F48FEF729FAECE7FEF770FAD4
:109E5000EBE70D4A00210D48FEF71EFFD4E70C4A40
:109E600001210C48FEF718FFD0E7C0460022002071
:109E700010220020182200200C050000259D010062
:109E800004220020CCCF0100419C010014220020BC
:109E9000A1970100FC21002030B500210AE00F4D00
:109EA0002C401B042343C132FF329200A024E4055E
:109EB0001351013101290FD88B00094A9A58130018
:109EC000C133FF339B00A024E4051C5901238B40C0
:109ED0000340E4D00323E2E7002030BDFFFFFCFF96
:109EE000DCCF010010B5012200210020FFF744FF64
:109EF000002802D0072800D010BD0722022101202F
:109F0000FFF73AFF002801D00728F5D104220221EB
:109F10000020FFF731FF002803D00728ECD10020F4
:109F2000EAE70020E8E710B5012202210020FFF750
:109F300023FF002802D0072800D010BD07220221ED
:109F40000120FFF719FF002801D00728F5D10A22C8
:109F500000210020FFF710FF002803D00728ECD1D4
:109F60000020EAE70020E8E710B582B004006B4665
:109F7000D91D0020FFF7DCFE002801D002B010BD83
:109F80006B46991D0130FFF7D3FE0028F6D16B46D2
:109F900006331B78002B07D16B4607331B78002B49
:109FA00005D100232370E9E702232370E6E70B23A2
:109FB0002370E3E710B50320FFF76EFF002803D0FE
:109FC000062802D1002000E0002010BD10B5038853
:109FD000102B02D0112B13D010BD114B1B68002B7E
:109FE00004D00F4A136801331360F5E7FFF77AFFD7
:109FF0000028F6D00B4B1B68002BF2D09847F0E7F7
:10A00000074A1368013B1360002BE5D1FFF78BFF74
:10A010000028E1D0034B1B68002BDDD09847DBE71D
:10A02000282200202422002010B5094B18600029A6
:10A0300009D00800FFF798FF002803D1054B1B68E3
:10A04000002B02D010BD0020F8E7FFF76CFFF9E706
:10A05000242200202822002076DF70477ADF704714
:10A060007CDF70477FDF7047A9DF704760DF704794
:10A070003CDF704710B500220021FEF76FF910BDDC
:10A0800010B50378002B00D010BD064B18883B217B
:10A09000FFF7E2FF0028F7D000220021FEF75EF96B
:10A0A000F2E7C0466C20002010B504000388112B95
:10A0B00022D011D9132B2ED0522B17D11D4B18881B
:10A0C000002300220021FFF7CFFF00280ED000223E
:10A0D0000021FEF743F909E0102B07D10720FFF715
:10A0E0003FFE002803D1A288124B1A8010BD002227
:10A0F0000021FEF733F9F6E70020FFF731FE0028D4
:10A1000004D1012252420B4B1A80EFE700220021BA
:10A11000FEF724F9F5E7074B188800230022852174
:10A12000FFF7A0FF0028E1D000220021FEF716F97A
:10A13000DCE7C0466C20002010B5022803D1FFF7F1
:10A140000FFE002800D110BD00220021FEF706F905
:10A15000F9E710B50020FFF703FE002808D1FFF74C
:10A1600029FF002809D1FFF783FF00280AD110BD7D
:10A1700000220021FEF7F2F8F1E700220021FEF7AD
:10A18000EDF8F0E700220021FEF7E8F8EFE7000025
:10A1900010B5072815D00A2802D0042803D010BD16
:10A1A000FFF7D7FFFBE70C4B18881321FFF754FF8D
:10A1B0000828F4D00028F2D000220021FEF7CEF8C3
:10A1C000EDE701F003F80828E9D00028E7D00022E5
:10A1D0000021FEF7C3F8E2E76C20002070B5037899
:10A1E000012B2CD0002B02D0022B22D070BD174C9B
:10A1F0002078174D2818FFF739F822780132D2B2AB
:10A200002270531EEB5C0A2B01D0132AEED992B2B6
:10A210000F49104801F04EFB082801D0002803D157
:10A2200000220A4B1A70E1E700220021FEF796F89F
:10A23000F6E7406800220021FEF790F8D6E7406874
:10A2400000220021FEF78AF8D0E7C04668250020EA
:10A25000482500206C25002010B5484B1B78032BA7
:10A260001BD0474B1B68474A934200D981E0002B23
:10A2700017D0142B37D01A00153AB22A28D8A222A8
:10A28000D200A021C9058A58520433D53E4A12682B
:10A29000002A2FD13C4A13601AE00022374B1A7073
:10A2A000DFE7142239493A4801F004FB80214902D2
:10A2B000A123DB00A022D205D1500023324A136033
:10A2C000344A1360344A13602C4A137801331370F4
:10A2D0002B4B1B68C82B23D0C82B39D0284A1368B6
:10A2E0000133136010BD802149022C4BA022D205FE
:10A2F000D150EDE7A222D200A021C9058A5852040C
:10A30000E6D4214A1268002AE2D0234909680029CC
:10A31000DED19B1A1F4A136001221F4B1A60D7E738
:10A320001C4A1268012AD7D9052AD5D81A4A1268B8
:10A33000002AD1D01A49154801F0EAFCA023DB0518
:10A340000421A122D20099500C31144A9950C5E73A
:10A35000114B1B68002BC1D012490C4801F0D8FCEE
:10A36000A023DB0504210D4A99500C31043A995081
:10A37000B4E70022024B1A60B4E7C0462C25002047
:10A38000302500201F4E00005C25002034250020D1
:10A390006C25002060250020642500200C050000AD
:10A3A00028D001003CD0010030B58BB007A80F4B7E
:10A3B000020032CB32C20A236B4400221A800C4ABC
:10A3C00003928022520004920A490591069200935A
:10A3D0000323094A03A9FEF76FFE002801D10BB041
:10A3E00030BD00221100FDF7B9FFF8E7E4CF01000E
:10A3F0009425002094260020DDA1010010B5064A16
:10A4000001210648FEF748FC002800D110BD0022BB
:10A410001100FDF7A3FFF9E759A2010090250020E4
:10A4200010B582B00400104A10490320FFF7D0FC99
:10A4300000280FD16B46D91D0020FFF7F5FD00283D
:10A440000DD16B4607331B78023B5A4253412370B0
:10A4500002B010BD00221100FDF780FFEAE70022E4
:10A460001100FDF77BFFECE791A1010066060000FB
:10A4700000B583B0002348221549082001F02AFBCB
:10A48000002816D1082200216846FDF78FFE6B4692
:10A490001B78012293436A4613706846FFF7E6FD76
:10A4A00000280BD10B4801F03BFB00280BD103B077
:10A4B00000BD00221100FDF751FFE3E7002211006B
:10A4C000FDF74CFFEEE700221100FDF747FFEEE736
:10A4D000E4240020D9A4010010B5040000F0E8FF36
:10A4E0002100064801F090F92000FFF7DDFD200073
:10A4F00000F0F0FD2000FFF769FD10BD6C25002085
:10A5000030B585B001AC23780F22934301221A4362
:10A510000F231340102213432370154D280001F020
:10A5200019FC82B229002000FFF79AFD002815D1FE
:10A5300002AC082200212000FDF738FE1023238002
:10A540002C3363800023A3809133FF33E38020000A
:10A55000FFF784FD002806D105B030BD00221100B0
:10A56000FDF7FCFEE4E700221100FDF7F7FEF3E73C
:10A57000F0CF010000B583B00422002101A8FDF74F
:10A5800015FE074B019301A9064801F053F9002875
:10A5900001D103B000BD00221100FDF7DFFEF8E796
:10A5A000A9A501006C25002070B50D00160000243F
:10A5B00005E0285DFEF762FE0028FAD10134B442BE
:10A5C000F7D30A20FEF75AFE0028FAD170BD00002A
:10A5D000F0B5A3B016AC302200212000FDF7E6FD57
:10A5E000022323700027A7700333E3700AAE3022E2
:10A5F00000213000FDF7DAFD012333820E4B736139
:10A6000002AD202200212800FDF7D0FD01232B728E
:10A610004023EB6074332B610097084B2A00310014
:10A62000200000F083FB002801D123B0F0BD3A00E8
:10A630003900FDF793FEF8E76820002039A10100FA
:10A6400010B588B001AC1C2200212000FDF7AEFD42
:10A6500000230193A02252026260F022D202A26083
:10A6600003222273E3812374074B6361074BA361C9
:10A67000200000F0E1FE002801D108B010BD00224A
:10A680001100FDF76BFEF8E781A0010075A0010045
:10A6900010B50A0001000248FDF760FE10BDC0467B
:10A6A000EFBEADDE00B587B003AB334A03CA03C3C8
:10A6B000190013880B8000230093304B05220621DC
:10A6C0000120FEF771FA00280BD1FFF76DFEFFF7AE
:10A6D00095FE2B4B186800220821FEF709FB00238A
:10A6E00005E000220021FDF739FEEEE701331F2BC4
:10A6F0000DD8F822D2031A41D207F7D51A00C13279
:10A70000FF3292000320A021C9055050EEE7172028
:10A710006844FFF785FEFFF7ABFEFFF7F1FEFFF79A
:10A7200029FFFFF755FFFFF78BFFA023DB0503226F
:10A73000E821C9005A5038395A5008315A5004217A
:10A74000E722D200995003A90E4801F0C7FA0E493A
:10A750000E4801F0DDFA022000F0A4FB002805D12C
:10A760000B490A4801F0D4FA20BFFDE7002200217E
:10A77000FDF7F4FDF4E7C0461CD001002C220020B8
:10A780009025002004D0010008D0010034250020CD
:10A7900014D0010072DF704779DF70477DDF7047AA
:10A7A00065DF7047F0B5C64600B582B006000F0001
:10A7B00015001478A31C1F2B04DD0C2002B004BC70
:10A7C0009046F0BD437802331F2B01DD0C20F5E7E6
:10A7D0001D231B1B9BB298466B46991D43460B805D
:10A7E000A01C3818FFF7DAFF0028E7D13378022BD6
:10A7F00014D07378002B02D09BB2984515D26B46CB
:10A8000006331B880826621CD2B2DBB2591C3955AC
:10A81000BE542A789B1802332B70CFE76B46063361
:10A820001B889845E5D30926EDE70826EBE730B508
:10A8300083B005000C000B7804331F2B02DD0C20C5
:10A8400003B030BD6B46981DFFF7A6FF0028F7D177
:10A8500023785A1C22700322EA5423785A1C22704F
:10A860001922EA546B4606331B882278AD182B70E8
:10A870001B0A6B70237802332370E1E710B513785D
:10A88000DC1C1F2C01DD0C2010BD5C1C147002248C
:10A89000CC5413785C1C14700A24CC5413785C1CC0
:10A8A0001470C8540020EFE7F0B5DE4657464E4618
:10A8B0004546E0B583B005008A46170099460C9ED0
:10A8C00033789B4600239846002411E002212BE0B8
:10A8D00032784A446B46D91C01A8FFF761FF002873
:10A8E00041D133786A46033212789B1833700134B1
:10A8F0002B889C422CDAA1006B689C4661440422A0
:10A9000001A801F0E1F900226B46D91C01A8FFF76C
:10A9100047FF002827D16B4603331B78BB42E6D1A3
:10A920004246002AD2D0002132789B18CB181F2B28
:10A930000CDC4346002BCBD10132D2B2531C337016
:10A940004B465146995401239846C1E70C200AE032
:10A950004346002B0ED033785A469B1A013B4A4699
:10A9600059465354002003B03CBC90469946A24639
:10A97000AB46F0BD0020F6E770B582B004001600CB
:10A980001D00069B00932B000222FFF78DFF00287D
:10A9900001D002B070BD069B00932B001022310045
:10A9A0002000FFF781FFF4E70388052B01D807207B
:10A9B0007047124A9A1892B211498A4201D8072068
:10A9C000F6E74288052A01D80720F1E70B4951181C
:10A9D00089B20B48814201D80720E9E709498B4237
:10A9E00007D08A4207D0934201D90720E0E7002030
:10A9F000DEE70020DCE70020DAE7C0467FF3FFFF58
:10AA00007DF30000FFFF0000F8B507000D00140003
:10AA10001678B31D1F2B01D90C20F8BDFFF7C4FF1A
:10AA20000028FAD1731C23700523AB5523785A1CD8
:10AA300022701222EA543A882378EB181A70120A0C
:10AA40005A7023780233DBB223707A88ED182A70AB
:10AA5000120A6A70237802332370DEE7C3785B073B
:10AA600001D4072070470020FCE7C378002B01D0F9
:10AA7000072070470020FCE770B50500140002793C
:10AA8000931CDBB22678B01C1B181F2B01DD0C2099
:10AA900070BD731C237003328A5523785A1C2270B0
:10AAA000FF22CA542A882378CB181A70120A5A70C7
:10AAB00020780230C0B22070AA88002A0CD0AB687F
:10AAC000002B0BD00818190001F0FEF8AA88237893
:10AAD0009B1823700020DBE70020D9E70720D7E789
:10AAE000F0B5C64600B580460F001400836A002BFF
:10AAF00036D0002501E00135EDB22C234246D35C6F
:10AB00009D4229D26B005B199E0043469B6A9C467E
:10AB1000664433792278511C21700333BB54237867
:10AB20005A1C22701622FA5432882378FB181A70A5
:10AB3000120A5A7020780230C0B22070B288002AFF
:10AB4000D9D0B16800290DD0381801F0BDF8B2880D
:10AB500023789B182370CEE7002004BC9046F0BDFC
:10AB60000720FAE70720F8E770B582B004000E006E
:10AB70001500002313700378002B43D10020A37825
:10AB8000002B44D1E378002B0ED02B785A1C2A706E
:10AB90000222F2542B785A1C2A700122F2542B788C
:10ABA0005A1C2A70E278F2546368002B07D0002008
:10ABB00018562A003100FFF761FE002820D12389B2
:10ABC000002B2BD1238A002B33D1238B002B3BD19D
:10ABD000236A002B06D02A0031001800FFF714FF6B
:10ABE00000280DD1636A002B06D02A00310018001E
:10ABF000FFF742FF002803D12C23E35C002B2ED16A
:10AC000002B070BDFFF7CEFD0028B8D0F8E72900EC
:10AC10003000FFF70CFE0028B4D0F1E72000083028
:10AC20000095330006220221FFF7A6FE0028C9D0B6
:10AC3000E6E7200010300095330007220321FFF7DC
:10AC40009BFE0028C1D0DBE72000183000953300C0
:10AC500015221421FFF790FE0028B9D0D0E72A0072
:10AC600031002000FFF73CFFCAE730B593B0040085
:10AC70000D00002347226A44137046226A44137071
:10AC8000002828D0FFF7EAFE002801D013B030BD1D
:10AC900047226A4409A92000FFF766FF0028F5D182
:10ACA00009AC002D19D02800FFF7DFFE0028EDD1F8
:10ACB00046226A4401A92800FFF756FF0028E5D183
:10ACC00001AA46236B441B78472169440978200078
:10ACD000FFF760FDDAE70024E3E70022F1E773DF26
:10ACE000704774DF70470379002B06D1037B002B7C
:10ACF00001D1002002E0012000E001207047002384
:10AD0000052B04D8C25C002A03D10133F8E70020E8
:10AD100070470120FCE7000010B50722002102481F
:10AD2000FDF744FA10BDC04624280020F8B5050000
:10AD30000C00002800D194E0002A00D193E000200C
:10AD40004A4908704A490B604A4B069919604A48BB
:10AD50000300C2CAC2C31100C4C9C4C344C944C3A6
:10AD6000C368002B02D00369002B02D10022424BA2
:10AD70001A72414B9B69002B03D03F4BDB69002BC0
:10AD800002D100223C4B1A75FFF7C6FF3B4B3C4AF1
:10AD90001A603C4A9A603C4E302200213000FDF798
:10ADA00005FA2B783370AB78B370EB78F3706B786F
:10ADB0007370330010332A00103203CA03C3330008
:10ADC0000833103A03CA03C318362B00183306CBD6
:10ADD00006C66B6A002B12D02C4B2B4A53622C4AAE
:10ADE0009A606E6A32881A80B0889880002304E0E6
:10ADF000B268D15C264AD15401338342F8D3AB6A9E
:10AE0000002B16D0234B244A9A601F4A9362AE6AE5
:10AE1000B088988032881A80002304E0B268D15C40
:10AE20001D4AD15401338342F8D32C23E95C164ADE
:10AE3000D1542B6A002B07D0184B134A13622A6A8D
:10AE40005188598012881A806B68002B04D00E4BF1
:10AE5000134A5A606A685A6021000B48FFF705FFE1
:10AE6000F8BD0E20FCE70E20FAE7C046952700202B
:10AE7000F0270020EC2700209827002060280020E1
:10AE80007428002094280020B827002014280020CF
:10AE9000F42700202C2800203828002058280020E3
:10AEA0005C28002030B589B07F4B187000230193D7
:10AEB00001A8FEF761FC040008280BD0002806D189
:10AEC000019C002C09D00122784B1A70002420002C
:10AED00009B030BD00230193F2E7FFF71DFF744B6B
:10AEE0005B78002B03D0704B1B78012B40D06E4B4E
:10AEF0001B78012B4AD06E4B1B7A002B03D16A4B77
:10AF00001B78022B50D06A4B1B7D002B03D1664B64
:10AF10001B78032B4CD0674B1A68002A05D0624B74
:10AF20001B78023BDBB2012B48D90022624B1A701E
:10AF300002AD182200212800FDF738F900232B70FC
:10AF40006B602B72EB60584B1B78022B4FD0032B9E
:10AF500075D0012B40D0544B1B78002B00D096E0CD
:10AF6000544B1B68002BB2D0544A10789847AEE778
:10AF7000504B1B68002B05D00121514A117007204E
:10AF80009847B4E700224E4B1A70B0E7484B5B7805
:10AF9000002B05D04B480130FFF7B1FE0028AAD1A5
:10AFA0000222414B1A70A6E703223F4B1A70AAE710
:10AFB00000233D4A1370414A1370ACE73C4B1B78A9
:10AFC000002BB2D0404B1B78002BAED101213A4B65
:10AFD000197006209047ABE702AB3A4A0392012270
:10AFE0001A70002159821982344B1A70B3E7304A23
:10AFF00002AB118A5982D2681A823448FFF773FE75
:10B00000002807D02A4B1B78002B03D02E4B1B782F
:10B01000002B03D00222294B1A709CE702AB0222BC
:10B020001A722A4A05922A480423C3700021FFF7A6
:10B030001CFE002833D10422204B1A708BE71C4AD7
:10B0400002AB118B1982D2695A822048FFF74BFE5E
:10B05000002807D0164B1B78002B03D01A4B1B7807
:10B06000002B03D00322154B1A7074E702AB0222A7
:10B070001A72164A059216480423C3700021FFF77E
:10B08000F4FD00280DD105220C4B1A7063E702A8CD
:10B09000FFF725FE002800D162E7040017E704004F
:10B0A00015E7040013E7C04695270020E827002095
:10B0B00098270020F02700207028002094270020E7
:10B0C000202800202428002071280020602800204B
:10B0D000B827002010B50388112B08D0192B1DD0DC
:10B0E000102B00D010BD82882F4B1A80FAE7002267
:10B0F0002E4B1A702E4B5A682E4B1A7082882A4B90
:10B100001B889A42EED10120FFF7CCFE0028E9D03F
:10B11000294B1B68002BE5D09847E3E78379002B88
:10B12000E0D1264B1B78022B26D0032B32D0012BEB
:10B13000D8D1204B1C78002C05D021480130FFF7D6
:10B14000DEFD00280AD10220FFF7ACFE0028C9D09E
:10B15000194B1B68002BC5D09847C3E7013C154B22
:10B160001C700120FFF79EFE0028BBD0124B1B680D
:10B17000002BB7D09847B5E70222124B1A70032074
:10B18000FFF790FE0028ADD00B4B1B68002BA9D019
:10B190009847A7E700220B4B1A700B4B1B68002B3C
:10B1A000A0D0002098479DE76E2000207128002045
:10B1B00098270020E9270020EC2700209527002071
:10B1C0002428002094270020F027002010B5134BDE
:10B1D0001B78002B1BD0124B1B78002B19D1114B65
:10B1E0001B78002B03D0FFF77CFD002810D1012233
:10B1F0000B4B1A700B4B1878FFF754FE002807D042
:10B20000094B1B68002B06D09847002000E0002067
:10B2100010BD0020FCE70020FAE7C0469827002078
:10B220007128002095270020EC27002075DF70474B
:10B2300076DF70477ADF70477BDF70474388074AC5
:10B240001288934205D3054A5288934203D90020BD
:10B2500000E0002070470120FCE7C046E028002005
:10B2600000B583B01A4B18881A4B984217D01A4A67
:10B2700013780133DBB21370184A127B934210D952
:10B280000022154B1A70154B1B7C002B14D1134B4D
:10B290005B69002B03D001A800220270984703B01D
:10B2A00000BD0F49FFF7C2FF0028F8D00B4B9B6988
:10B2B000002BF4D09847F2E73B21FFF7B9FF0028B5
:10B2C000E5D0064B9B69002BE1D09847DFE7C046ED
:10B2D000B6280020FFFF0000E8280020B828002042
:10B2E000E028002010B501225242084B1A800022AB
:10B2F000074B1A70074B1868FDF72CFD002804D087
:10B30000054B9B69002B00D0984710BDB628002044
:10B31000E8280020D4280020B828002000B583B0F9
:10B320001A48FFF78BFF002822D1194B1B78002BFE
:10B3300008D0184B5B69002B22D001A800220270B4
:10B3400098471DE0144B1B78002B0ED1114B596808
:10B35000124B18680022FDF7CBFC002810D00D4BD3
:10B360009B69002B0CD098470AE00A4B9968EFE7DD
:10B37000084B5B69002B03D001A80122027098479B
:10B380000022034B1A7003B000BDC046D82800202D
:10B39000B4280020B8280020E8280020D428002065
:10B3A00010B58288094B1A8001001631082208481E
:10B3B00000F08AFC0022074B1A70074BDB89002B38
:10B3C00000D010BDFFF7AAFFFBE7C046B62800205B
:10B3D000D8280020E8280020B828002010B5C2880E
:10B3E0000D4BDB899A4200D010BDC38B022BFBD1E1
:10B3F0001E33C35CDB070BD4084B1868FDF7AAFCAF
:10B400000028F1D0044B9B69002BEDD09847EBE767
:10B41000FFF784FFE8E7C046B8280020D4280020C2
:10B4200010B5811D0822034800F04EFCFFF776FF9F
:10B4300010BDC046D828002070B516490B00020088
:10B4400032CA32C332CA32C312681A600022124BA7
:10B450001A700168002916D0104C0832200000F044
:10B4600033FC2000FFF7E6FE00280BD101225242F8
:10B470000B4B1A8000220B4B1A700B4A00210B4811
:10B48000FDF70AFC70BD0548FFF7D6FE0028EDD099
:10B49000F8E7C046B8280020B4280020E0280020A3
:10B4A000B6280020E828002061B20100D42800203E
:10B4B00010B50388112B0CD006D9122B0CD0502BB1
:10B4C00006D1FFF78BFF03E0102B01D1FFF768FFD8
:10B4D00010BDFFF707FFFBE7FFF7A2FFF8E7A0DFCC
:10B4E0007047A2DF7047A6DF704763DF70478B8825
:10B4F0008383704701235B428383704710B5CB88F9
:10B50000028A934203D0828893420DD010BDCA8B29
:10B51000022AF8D12023CB5CDB0702D501238377F5
:10B52000F4E700238377F1E7036A002BEED00C00E9
:10B530002034CA8B21009847E8E7F0B5DE4657462D
:10B540004E464546E0B591B0834608AD0322002142
:10B550002800FCF72BFE2B780F2292469343012202
:10B560009046424613430F263340102291464A46E6
:10B5700013432B706B785246934342461343334038
:10B580004A4613436B70AB7806229343043A134345
:10B59000AB7009AC1A3200212000FCF707FE2378BB
:10B5A0004A461343237000276760E760276165619F
:10B5B000A7615B461B786A4693720323138101AD32
:10B5C000032200212800FCF7F1FD2B78524693431B
:10B5D0004246134333404A4613432B706B7852461E
:10B5E0009343424613431E404B461E436E70AB7856
:10B5F00006229343043A1343DBB2063293430832E4
:10B60000934342461343AB7003AE14220021300033
:10B61000FCF7CCFD02AB0393756001233381778186
:10B620001333B3815B460C335A46508832002100F5
:10B63000FFF757FF11B03CBC90469946A246AB4677
:10B64000F0BDF0B5C64600B58EB0804607AC1C22F2
:10B6500000212000FCF7AAFD237808221343DBB267
:10B6600004221343237000276760E7602761676146
:10B67000A76143461B7801ADAB7002232B800322E8
:10B6800000216846FCF792FD6B461A780F26B243FC
:10B6900001210A430F239C461A40102002436B46A7
:10B6A0001A705A78B2430A436346134003436A460A
:10B6B000537093780622934302221343DBB208228D
:10B6C0009343083293430B436A46937002AE1422AD
:10B6D00000213000FCF76AFD02956B467360012380
:10B6E000338177811333B381434604334246508814
:10B6F00032002100FFF7F5FE0EB004BC9046F0BD0D
:10B70000F0B5DE4657464E464546E0B591B0834615
:10B7100008AD032200212800FCF748FD2B780F22FA
:10B720009246934301229046424613430F263340EC
:10B73000102291464A4613432B706B78524693432E
:10B740004246134333404A4613436B70AB7806229C
:10B750009343043A1343AB7009AC1A320021200022
:10B76000FCF724FD23784A461343237000276760C3
:10B77000E76027616561A7615B461B786A46937243
:10B780000423138101AD032200212800FCF70EFDE4
:10B790002B78524693434246134333404A46134361
:10B7A0002B706B7852469343424613431E404B46E0
:10B7B0001E436E70AB7806229343043A1343DBB208
:10B7C000063293430832934342461343AB7003AEB1
:10B7D000142200213000FCF7E9FC02AB03937560F2
:10B7E0000123338177811333B3815B4614335A4687
:10B7F000508832002100FFF774FE11B03CBC904627
:10B800009946A246AB46F0BD10B5002808D00029E5
:10B8100006D00B88112B07D0502B08D0102B00D04E
:10B8200010BDFFF764FEFBE7FFF764FEF8E7FFF7E4
:10B8300065FEF5E770B586B004000D0001AB1C4A4B
:10B8400043CA43C3190013680B60002C2AD0002D93
:10B850002AD001235B42A3832B6823620023A377B2
:10B86000210001A8FFF741FE00281ED1237805A979
:10B870008B7001230B80A21C0130FFF730FE0028E3
:10B8800013D129002000FFF758FE00280DD1290010
:10B890002000FFF7D6FE002807D129002000FFF77F
:10B8A0002FFF02E00E2000E00E2006B070BDC04663
:10B8B00050D0010070B586B004000D006B46DA80F0
:10B8C000002822D0828B134B9A4220D0837F002BFA
:10B8D00001D108201CE06B4606331B88142B01D9CC
:10B8E000072015E002AE102200213000FCF75EFCBC
:10B8F000A3893380F5606B460633B3600123B370D0
:10B90000A08B3100FFF7EFFD02E00E2000E00820E1
:10B9100006B070BDFFFF0000174B1A68FF231340ED
:10B92000012B01D000207047144B1B681B071DD151
:10B93000134B1A68F023134004D1124A1268F02105
:10B94000114215D0102B03D0302B08D00020EAE78D
:10B950000C4A1268F0211142F6D10120E3E7094BAD
:10B960001B68F0221A4205D00020DCE70020DAE74D
:10B970000120D8E70120D6E7E00F00F0E40F00F047
:10B98000E80F00F0EC0F00F00F4B1A68FF23134094
:10B99000012B01D0002070470C4B1B681B070ED1F8
:10B9A0000B4B1A68F0231340402B01D00020F2E724
:10B9B000084B1B68F0221A4203D00020EBE700205E
:10B9C000E9E70120E7E7C046E00F00F0E40F00F0F0
:10B9D000E80F00F0EC0F00F010B5FFF79DFF002816
:10B9E00006D0094A094B1A6080221202084B1A60DD
:10B9F000FFF7CAFF002805D00121C123DB00802208
:10BA0000D205D15010BDC046DFFF07C0040500407D
:10BA1000186C00402EDF704751DF704710DF704711
:10BA200061DF704710B508001100FEF731FE10BD50
:10BA300070B582B0224B1E78F6B2002E11D0214B89
:10BA40001C6863425C41E4B21F4B1D686B425D4160
:10BA5000EDB2002C07D0002D18D0002CF9D0002D0D
:10BA6000F7D002B070BD01A8FFF7D6FF05280BD0B4
:10BA7000002804D000220021FCF770FCEBE7114BFA
:10BA80001B6801989847E6E73400E4E701A90F4BEB
:10BA90001B880B800E4B1868FFF7C2FF05280CD0DF
:10BAA000002804D000220021FCF758FCD5E7084B01
:10BAB0001868054B1B689847CFE73500CDE7C046AF
:10BAC000F4280020F8280020EC280020EA28002094
:10BAD000FC28002010B5002915D08C0701D00720C4
:10BAE00010BD0A4C21600A490A800A4A13600A49BB
:10BAF000FFF794FF0028F3D10122084B1A7016308B
:10BB0000FFF788FFECE70720EAE7C046FC280020A3
:10BB1000EA280020F028002025BA0100F42800209F
:10BB2000002803D0024B1860002070470E20FCE76D
:10BB3000EC28002010B5084B1B68002B08D0984754
:10BB4000002800D110BD00220021FCF707FCF9E716
:10BB5000FFF76EFFF6E7C046F028002003210A48F1
:10BB600002680A430260094802680A430260084901
:10BB7000084A094B9B1A03DD043BC858D050FBDC34
:10BB80000648804706480047240500405405004009
:10BB9000FCD001000020002070200020D9B9010055
:10BBA000C1800100FEE7FEE7FEE7FEE7FEE7FEE7F5
:10BBB000002243088B4274D303098B425FD3030AEC
:10BBC0008B4244D3030B8B4228D3030C8B420DD3FF
:10BBD000FF22090212BA030C8B4202D3121209028D
:10BBE00065D0030B8B4219D300E0090AC30B8B42CB
:10BBF00001D3CB03C01A5241830B8B4201D38B0379
:10BC0000C01A5241430B8B4201D34B03C01A52411D
:10BC1000030B8B4201D30B03C01A5241C30A8B4260
:10BC200001D3CB02C01A5241830A8B4201D38B024B
:10BC3000C01A5241430A8B4201D34B02C01A5241EF
:10BC4000030A8B4201D30B02C01A5241CDD2C30961
:10BC50008B4201D3CB01C01A524183098B4201D3DD
:10BC60008B01C01A524143098B4201D34B01C01AC8
:10BC7000524103098B4201D30B01C01A5241C30840
:10BC80008B4201D3CB00C01A524183088B4201D3AF
:10BC90008B00C01A524143088B4201D34B00C01A9B
:10BCA0005241411A00D20146524110467047FFE707
:10BCB00001B5002000F006F802BDC0460029F7D00B
:10BCC00076E770477047C046002310B59A4200D10E
:10BCD00010BDCC5CC4540133F8E700000FB40B4B2B
:10BCE00013B51C68002C05D0A369002B02D12000DD
:10BCF00000F07AF805AB049AA1682000019300F0E7
:10BD0000F5FA16BC08BC04B01847C0460020002055
:10BD10000EB410B59DB002A9029008610B488224B0
:10BD200088604861012040421FABC881084804CBAD
:10BD3000A400006801938C8100F0ACF90023029A02
:10BD400013701DB010BC08BC03B01847FFFFFF7F85
:10BD5000002000200023C25C0133002AFBD1581EC2
:10BD60007047000010B5024900F0B2F810BDC0469F
:10BD7000E9CB0100002310B5040003604360836039
:10BD800081814366C2810361436183611900082296
:10BD90005C30FCF70BFA054B24626362044BA36230
:10BDA000044BE362044B236310BDC04659C8010035
:10BDB00081C80100B9C80100E5C8010070B5682557
:10BDC0004A1E55430E002900743100F0A3F8041EEA
:10BDD00008D000212A00016046600C30A060683263
:10BDE000FCF7E4F9200070BD836913B50400002B53
:10BDF00028D18364C3640365134B144A1B688262B1
:10BE00000193984201D101238361200000F020F8C2
:10BE10006060200000F01CF8A060200000F018F81E
:10BE20000022E06004216068FFF7A4FF01220921DD
:10BE3000A068FFF79FFF02221221E068FFF79AFF38
:10BE40000123A36113BDC04654CF010065BD0100AD
:10BE5000F8B51E4B07001E68B369002B02D13000F5
:10BE6000FFF7C2FF4836B4687368013B04D53368F6
:10BE7000002B07D03668F6E70C22A55E002D0DD00A
:10BE80006834F2E704213800FFF798FF306000289B
:10BE9000F0D10C2304003B602000F8BD01232000FA
:10BEA0005B42E3810233A38165662560A56065601E
:10BEB00025616561A561082229005C30FCF776F9EF
:10BEC0006563A563A564E564E6E7C04654CF010059
:10BED000F7B504000700002601914834002C01D179
:10BEE0003000FEBD6368A5680093009B013B009392
:10BEF00001D52468F2E7AB89012B08D90E22AB5E8D
:10BF0000013304D029003800019B98470643683567
:10BF1000EBE70000032370B5CD1C9D4308350600F8
:10BF20000C2D1ED20C25A9421DD8300000F025FF93
:10BF3000254A14682100002919D1244C2368002BBC
:10BF400003D1300000F076FC20602900300000F0C2
:10BF500071FC431C2CD10C233000336000F00EFF29
:10BF600003E0002DDFDA0C233360002070BD0B6886
:10BF70005B1B1AD40B2B03D90B60CC18256003E094
:10BF80008C420ED163681360300000F0F7FE200091
:10BF900007220B30231D9043C31AE7D05A42E250C8
:10BFA000E4E74B6863600C00EEE70C004968C2E709
:10BFB0000323C41C9C43A042E0D0211A300000F0AF
:10BFC00039FC431CDAD1C6E70029002004290020EF
:10BFD000F0B58E6885B007000C00039201939E4275
:10BFE00039D890238A89DB001A4234D003250969A5
:10BFF00023685B1A0293636902985D43EB0F5D1936
:10C00000019B6D1001331B18AB4200D91D00530575
:10C0100032D529003800FFF77DFF061E09D10C2319
:10C020003B6040230120A28940421343A38105B015
:10C03000F0BD029A2169FFF747FEA389144A1A400E
:10C0400080231343A381029B2661F6182660656155
:10C05000019EED1AA560019BB34200D21E00320082
:10C060000399206800F077FEA36800209B1BA36063
:10C0700023689E192660DAE72A00380000F0CAFE1D
:10C08000061EE0D12169380000F07AFEC7E7C046FD
:10C090007FFBFFFFF0B59FB0029005938B890F00E7
:10C0A00016001B0611D50B69002B0ED14021FFF79E
:10C0B00031FF38603861002805D10C23029A01381D
:10C0C00013601FB0F0BD40237B61002306AD6B61A0
:10C0D00020336B761033AB7634002378002B47D1B6
:10C0E000A31B04930DD0A31B320039000298FFF765
:10C0F0006FFF431C00D1B5E06A69049B944663441A
:10C100006B612378002B00D1ACE001220023524266
:10C110006A6002A95432521801342B60EB60AB60A4
:10C120001370AB65584E05222178300000F008FEF0
:10C13000621C002820D12968CB0604D5532302AE07
:10C1400020309B1918700B0704D553232B2002AE07
:10C150009B19187023782A2B16D000200A21099BDE
:10C160002278303A092A55D9002815D0099313E0CE
:10C17000252BB5D00134B0E70123801B834029680B
:10C1800014000B432B60CDE7059B181D1B68059021
:10C19000002B39DB0993140023782E2B0BD1637805
:10C1A000621C2A2B3ED1059B02341A1D1B68059286
:10C1B000002B34DB0793354E21780322300000F04A
:10C1C000BFFD002806D04023801B83402A6801342D
:10C1D00013432B60217806222D48661C297600F037
:10C1E000AFFD002846D02B4B002B2FD12968059B93
:10C1F0000722C90528D59B189343083305936B691B
:10C20000039A9B186B6167E75B42EB6002230B4369
:10C210002B60C0E74B4301349B180120A0E70123AA
:10C220005B42C7E7002314000A201A006B602178E4
:10C230003039092903D9002BBDD00792BBE742430F
:10C24000013452180123F2E70733D5E705AB009319
:10C250003A00114B2900029800E000BF0390039BB5
:10C260000133CCD1BB890B985B0600D429E70120B0
:10C27000404226E705AB00933A00074B290002989D
:10C2800000F0BEF9EAE7C046C0D00100C6D0010008
:10C29000CAD0010000000000D1BF0100936810B5B2
:10C2A000013B9360002B05DA9469A34208DBCBB213
:10C2B0000A2B05D01368581C10601970C8B210BD45
:10C2C00000F016FBFBE7F8B506000F001400D518C8
:10C2D000AC4201D1002007E021783A003000FFF79E
:10C2E000DDFF0134431CF3D1F8BD0000F0B59FB071
:10C2F00006000F0014000593002804D08369002B6A
:10C3000001D1FFF771FD7F4B9F425CD17768BB89FC
:10C310001B0762D53B69002B5FD0002306AD6B6124
:10C3200020336B761033AB760294029C2378002B7B
:10C330005DD1029BE31A04930DD0049B029A39004D
:10C340003000FFF7C0FF431C00D1CCE06A69049BBA
:10C35000944663446B612378002B00D1C3E0012233
:10C36000002352426A6002A95432521801342B60F1
:10C37000EB60AB601370AB6521780522624800F07A
:10C38000DFFC631C9C46002835D12968CB0604D508
:10C39000532302AA20309B1818700B0704D553238F
:10C3A0002B2002AA9B18187023782A2B2CD000204F
:10C3B0000A21099B2278303A092A00D86BE000282C
:10C3C0002AD0099328E0514B9F4201D1B7689EE7DC
:10C3D0004F4B9F429BD1F76899E73900300000F03E
:10C3E000F1FA002899D0012040421FB0F0BD252B62
:10C3F0009FD001349AE7444B2968C01A0123834037
:10C400000B432B606446B7E7059B181D1B6805901E
:10C41000002B3ADB0993644623782E2B0BD16378EB
:10C42000621C2A2B3FD1059B02341A1D1B68059202
:10C43000002B35DB079321780322364800F080FC7F
:10C44000002807D0334B2A68C01A40238340134387
:10C450002B6001342178631C06222F480293297631
:10C4600000F06EFC002844D02C4B002B2FD1296803
:10C47000059B0722C90528D59B18934308330593CC
:10C480006B69039A9B186B614FE75B42EB60022379
:10C490000B432B60BFE74B4301349B18012089E716
:10C4A00001235B42C6E7002314000A201A006B60D8
:10C4B00021783039092903D9002BBCD00792BAE77B
:10C4C0004243013452180123F2E70733D5E705ABA5
:10C4D00000933A00124B2900300000E000BF0390A7
:10C4E000039B0133CCD1BB895B0600D57BE70B985E
:10C4F0007BE705AB00933A00094B2900300000F0C0
:10C500007FF8ECE780D00100C0D00100A0D001008E
:10C5100060D00100C6D00100CAD0010000000000B8
:10C52000C7C20100F7B5150001938A680B69009036
:10C530000C00934200DA130022002B604332127881
:10C54000002A01D001332B6023689B0602D52B689B
:10C5500002332B60062723681F4027D02300433374
:10C560001B785A1E93412268920630D4220001990A
:10C5700043320098089EB047431C25D0062320680C
:10C580002A68E16803400025042B03D18D1AEB4390
:10C59000DB171D40A3682269934201DD9B1AED1849
:10C5A0000027BD4220D1002010E00137E3682A684F
:10C5B0009B1A9F42D2DA2200012319320199009876
:10C5C000089EB047431CF0D101204042FEBD302000
:10C5D000E1184331087021005A1C45310978A2182E
:10C5E000433202331170C1E7220001231A3201994C
:10C5F0000098089EB047431CE6D00137D1E7000001
:10C60000F0B58BB006920A0043320793059004926E
:10C610000A7E0C00109B6E2A00D18FE017D8632A87
:10C620002CD008D8002A00D199E0582A54D02600EE
:10C630004236327029E0642A01D0692AF7D1216894
:10C640001A68080623D5111D1960156825E0732A9C
:10C6500000D188E008D86F2A29D0702AE7D120229B
:10C6600009680A43226003E0752A20D0782ADED1C7
:10C6700022007821453211706C4A30E00E001A68B1
:10C680004236111D196013683370012379E04906A1
:10C69000D9D5111D19600023D55E002D03DA2D2395
:10C6A000049A6D421370624B0A2703932FE02068AF
:10C6B0001968050603D5081D18600D6805E04006D9
:10C6C000F9D50D68081D1860ADB2594B08270393C2
:10C6D0006F2A18D00A2716E045310A70544A03928F
:10C6E0001A682168101D18601568080622D5CB0746
:10C6F00002D52023194321601027002D03D12023C8
:10C7000022689A4322602300002243331A70636830
:10C71000A360002B5CDB0422216891432160002D83
:10C7200058D1049E002B64D02600039B42361B7810
:10C7300033705EE04806DAD5ADB2D8E709681A680A
:10C74000080605D5111D1960136862691A6006E0B4
:10C750004906F7D5111D19601368A28A1A800023B3
:10C76000049E236154E01A68111D196016680021A7
:10C770006268300000F0E4FA002801D0801B60609D
:10C78000636823610023049A137041E02369320037
:10C7900006990598079DA847431C43D023680025A8
:10C7A0009B070FD4099BE06898423DDA18003BE0F4
:10C7B00022000123193206990598079EB047431CB1
:10C7C00030D00135E368099A9B1A9D42F0DBE9E716
:10C7D000002DA9D0049E28003900FFF76FFA039BB3
:10C7E000013E5B5C280033703900FFF7E1F9051E5C
:10C7F000F1D1082F09D12368DB0706D563682269C8
:10C80000934202DC3023013E3370049B9B1B236167
:10C81000079B09AA00932100069B0598FFF782FE5B
:10C82000431CB3D1012040420BB0F0BDE2D0010067
:10C83000D1D00100002370B5064C0500080023602C
:10C8400000F06EFB431C03D12368002B00D02B604B
:10C8500070BDC0460C29002070B50C000E25495F44
:10C8600000F0FEFA002803DB636D1B18636570BDE2
:10C87000A389024A1340A381F9E7C046FFEFFFFFF7
:10C88000F8B51F008B8905000C001600DB0505D5E7
:10C890000E23C95E0022022300F0D2F9A389054AC3
:10C8A00028001340A38132000E23E15E3B0000F01C
:10C8B00075F8F8BDFFEFFFFF70B50C000E25495F5E
:10C8C00000F0BEF9A389421C03D1054A1340A3819D
:10C8D00070BD802252011343A3816065F8E7C04612
:10C8E000FFEFFFFF10B50E23C95E00F0E1F810BDA9
:10C8F000F8B505000E001400002804D08369002B51
:10C9000001D1FFF771FA224B9C422DD16C68A369CB
:10C91000A360A3891B0731D52369002B2ED0236880
:10C920002269F7B2981A6369F6B2984205DB2100D2
:10C93000280000F059F9002826D1A3680130013BF6
:10C94000A36023685A1C22601F706369984204D058
:10C95000A389DB071AD50A2E18D12100280000F080
:10C9600043F9002812D00FE00A4B9C4201D1AC6879
:10C97000CDE7094B9C42CAD1EC68C8E721002800EA
:10C9800000F020F80028CAD0012676423000F8BD19
:10C9900080D00100A0D0010060D0010070B505007A
:10C9A000080011000022064C22601A00FCF7F2F980
:10C9B000431C03D12368002B00D02B6070BDC04600
:10C9C0000C290020364B70B51D6806000C00002DA8
:10C9D00005D0AB69002B02D12800FFF705FA314BD7
:10C9E0009C420FD16C680C23E25E93B219072DD4E0
:10C9F000D90611D409230120336037331343A381AF
:10CA0000404270BD284B9C4201D1AC68EBE7274BFC
:10CA10009C42E8D1EC68E6E75B0713D5616B00291F
:10CA200008D023004433994202D0300000F0A8F926
:10CA3000002363632422A3899343A38100236360BB
:10CA4000236923600823A2891343A3812369002B50
:10CA50000BD1A0218022A389890092000B40934230
:10CA600003D02100300000F027F90123A2891340F0
:10CA700011D00023A36063695B42A3610020236996
:10CA80008342BED10C23E25E1306BAD54023134382
:10CA9000A3810138B5E7920700D46369A360EDE78D
:10CAA0000020002080D00100A0D0010060D0010053
:10CAB000002370B5064C05000800236000F010FA52
:10CAC000431C03D12368002B00D02B6070BDC046EF
:10CAD0000C290020F7B58A8905000C00130760D4E3
:10CAE0004B68002B04DC0B6C002B01DC0020FEBD2E
:10CAF000E76A002FFAD000232E682B6080235B01A9
:10CB00001A4034D0606DA3895B0706D56368C01AEC
:10CB1000636B002B01D0236CC01A0200216A002332
:10CB20002800E76AB847A189431C06D12B681D2B52
:10CB300031D82C4ADA40D3072DD50023636023690E
:10CB40002360CB0405D5431C02D12B68002B00D1F8
:10CB50006065616B2E600029C8D023004433994280
:10CB600002D0280000F00CF900206063BFE7012329
:10CB7000216A2800B847431CC5D12B68002BC2D0BE
:10CB80001D2B01D0162B01D12E60AFE74023A289C7
:10CB90001343A381ABE740230B430120A381404211
:10CBA000A5E70F69002FA1D00B680F60DB1B019375
:10CBB0000023920700D14B69A360019B002B00DC8E
:10CBC00094E7019B3A00216A2800A66AB047002832
:10CBD00003DC4023A2891343DFE7019B3F181B1AA4
:10CBE0000193EAE7010040200B6970B505000C00D5
:10CBF000002B01D1002070BD002804D08369002BD8
:10CC000001D1FFF7F1F80B4B9C4209D16C680C2263
:10CC1000A35E002BEED021002800FFF75BFFEAE7C0
:10CC2000054B9C4201D1AC68F1E7044B9C42EED12C
:10CC3000EC68ECE780D00100A0D0010060D00100DA
:10CC400070B50500080011000022064C22601A0091
:10CC500000F05EF9431C03D12368002B00D02B6049
:10CC600070BDC0460C29002070B50E001D000E23BB
:10CC7000C95E90B01400002907DA00232B60B38945
:10CC80001B0611D48023DB000FE001AA00F0FCF8A2
:10CC90000028F2DBF022029B12021340054A9B1887
:10CCA0005A4253412B60EDE740230020236010B02F
:10CCB00070BDC04600E0FFFFF7B502268B89050076
:10CCC0000C00334206D02300473323602361012345
:10CCD0006361F7BD01AB6A46FFF7C6FF0099070025
:10CCE0002800FFF717F9002808D10C22A35E9A0547
:10CCF000EFD4032293431E43A681E4E70F4BAB62BC
:10CD00008023A28920601343A381009B206163617B
:10CD1000019B002B0DD00E23E15E280000F0C6F829
:10CD2000002806D00322A38993431A00012313434A
:10CD3000A381A0893843A081CBE7C04665BD01002F
:10CD4000C9B28218904201D10020704703788B420B
:10CD5000FBD00130F6E710B5884202D98B18984213
:10CD600008D300239A4207D0CC5CC4540133F9E7BE
:10CD70008B5C8354013AFBD210BD704770470000B2
:10CD800070B50500002910D00C1F2368002B00DAB5
:10CD9000E4182800FFF7F1FF1D4A1368002B05D1A6
:10CDA000636014602800FFF7E9FF70BDA34209D952
:10CDB000216860188342F3D118685B6841182160CC
:10CDC000EEE713005A68002A01D0A242F9D9196887
:10CDD0005818A0420BD120680918581819608242CF
:10CDE000E0D110685268411819605A60DAE7A04231
:10CDF00002D90C232B60D5E721686018824203D149
:10CE0000106852684118216062605C60CAE7C046E1
:10CE100000290020F8B507000D001600002905D1F3
:10CE20001100FFF777F804002000F8BD002A03D1B5
:10CE3000FFF7A6FF3400F7E700F04AF82C0086421F
:10CE4000F2D931003800FFF765F8041EECD0290054
:10CE50003200FEF739FF29003800FFF791FFE3E7C2
:10CE600070B50500080011000022064C22601A006F
:10CE7000FBF79EFF431C03D12368002B00D02B60DF
:10CE800070BDC0460C290020002370B5064C05007B
:10CE900008001100236000F02BF8431C03D1236825
:10CEA000002B00D02B6070BD0C290020002370B532
:10CEB000064C05000800236000F022F8431C03D153
:10CEC0002368002B00D02B6070BDC0460C290020C9
:10CED0000B1F1B68181F002B01DA0B58C018704776
:10CEE00058220120014B40421A6070470C29002053
:10CEF00058220120014B40421A6070470C29002043
:10CF00005822024B00201A607047C0460C290020AE
:10CF100058220120014B40421A6070470C29002022
:10CF2000044A1368002B03D01818106018007047CB
:10CF3000014BF9E70829002010290020F8B5C04668
:10CF4000F8BC08BC9E467047F8B5C046F8BC08BCA3
:10CF50009E46704704200020C28F0100C88F010048
:10CF6000D48F0100CE8F0100DA8F0100DA97010023
:10CF7000F6970100F697010070980100EA98010009
:10CF800052990100CA990100209A0100449A0100B7
:10CF9000709A0100A09A0100CC9A0100FC9A01004D
:10CFA0002C9B01002C9B01002C9B01002C9B010061
:10CFB0002C9B0100889B0100A49B0100C89B0100E1
:10CFC000EC9B0100109C0100109C0100100003006C
:10CFD000619C010011000300619C01001000000031
:10CFE00011000000020305040100000000509D0034
:10CFF0005041524B494E4720434F4E4E45435445B6
:10D00000000000002573000044656D617272616765
:10D010006500000044656D617272E90053746172CD
:10D02000742E2E2E0A0000005665446574656374E4
:10D030002020202020202020202020005061734428
:10D040006556652020202020202020202020000060
:10D050009ECADC240EE5A9E093F3A3B50000406E60
:10D0600000000000000000000000000000000000C0
:10D0700000000000000000000000000000000000B0
:10D0800000000000000000000000000000000000A0
:10D090000000000000000000000000000000000090
:10D0A0000000000000000000000000000000000080
:10D0B0000000000000000000000000000000000070
:10D0C000232D302B2000686C4C0065666745464771
:10D0D00000303132333435363738394142434445F4
:10D0E0004600303132333435363738396162636463
:04D0F0006566000071
:08D0F400CCAFFF7F010000003A
:10D0FC00042000200000000080D00100A0D001001E
:10D10C0060D00100000000000000000000000000E2
:10D11C000000000000000000000000000000000003
:10D12C0000000000000000000000000000000000F3
:10D13C0000000000000000000000000000000000E3
:10D14C0000000000000000000000000000000000D3
:10D15C00000000000100000001000200FFFFFFFFC3
:040000031000BB5DD1
:00000001FF
