:1000000000800020390F0000810F0000830F0000E6
:1000100000000000000000000000000000000000E0
:10002000000000000000000000000000850F00003C
:100030000000000000000000870F0000890F000092
:100040008B0F00008B0F0000A50400008B0F000039
:100050008B0F000000000000A90C00008B0F0000B7
:100060008B0F00008B0F00008B0F00008B0F000028
:100070008B0F00008B0F00008B0F00008B0F000018
:100080008B0F00008B0F00008B0F00008B0F000008
:100090008B0F00008B0F00008B0F00008B0F0000F8
:1000A0008B0F00008B0F000000000000000000001C
:1000B0000000000000000000000000000000000040
:1000C000164B002B00D1144B9D46402292029A1AE7
:1000D000924600218B460F461348144A121A00F02C
:1000E00065F80F4B002B00D098470E4B002B00D02B
:1000F00098470020002104000D000D48002802D080
:100100000C4800E000BF00F02DF82000290000F0AE
:10011000AFF800F011F8C046000008000080002091
:10012000000000000000000068000020E401002042
:100130000000000000000000084B10B50400002B78
:1001400002D0002100E000BF054B1868836A002B35
:1001500000D09847200000F031F8C04600000000B1
:100160007C1F000070B500260C4D0D4C641BA410C4
:10017000A64209D1002601F0F5FE0A4D0A4C641B87
:10018000A410A64205D170BDB300EB5898470136C4
:10019000EEE7B300EB5898470136F2E7680000201D
:1001A000680000206800002068000020030082181A
:1001B000934200D1704719700133F9E7FEE7C0465A
:1001C0001D4B1B78012B00D070471C4B1B681B0775
:1001D000FAD1F0221A4B1B68134018D1194B1B6837
:1001E00013421CD0154B1B681B07EDD1F022144B9A
:1001F0001B681340402BE7D1124B1B681342E3D11D
:10020000C12380220121DB00D205D150DCE7102B75
:1002100001D0302BEAD10B4B1B681342E6D10A4ABE
:100220000A4B1A6080220A4B12021A60024B1B789A
:10023000012BD7D0C8E7C046E00F00F0E40F00F074
:10024000E80F00F0EC0F00F0DFFF07C004050040EE
:10025000186C004010B50378022B02D0012B00D09F
:1002600010BD40680022002100F05EF8F8E7C046AB
:10027000F0B5C64600B500228AB003A80100224BA3
:100280001A60224B70CB70C10A236B441A80204A3B
:1002900000930692012207921E4A032308928022AD
:1002A0005200099206A91C4A00F08EF9002803D0DA
:1002B0000022002100F038F8184B802598460127CD
:1002C0000126174C6D0026606359002BFCD00023DB
:1002D0006351A123DB00E258920512D5E258114B7D
:1002E0001A430323D1170B409B189B10069367609A
:1002F0000699404600F04AFEFA20400000F006FB56
:10030000E1E7E258EDE7C04604C50040801F000069
:10031000680000206C000020550200008C1F0000C7
:1003200000C0004000FCFFFFBFF34F8F024A034BA9
:10033000DA60BFF34F8FFEE70400FA0500ED00E03E
:1003400010B500290DD00923002A01D1180010BDD5
:10035000541E2240FAD1826001608480C260002372
:10036000F4E70E23F2E7C046030010B59C888068CE
:10037000DA68121A0420944200D210BDDA68002014
:1003800014401A681155DA680132DA60F5E7C046A0
:1003900010B58468C26803000520944209D09A68A9
:1003A000988802401868825C00200A709A680132BE
:1003B0009A6010BD70B516000C008D18002A05DD7E
:1003C0002078013400F062FAAC42F9D1300070BDFF
:1003D00010B50C00200000F051FA0528FAD00120D9
:1003E00010BDC04630B585B000F054FC00282FD1B8
:1003F000274C2378DBB2002B05D0032B01D102233D
:10040000237005B030BDA0220421224BD2009950A8
:10041000012221481A608568C1688D4222D0217866
:10042000022900D09A606B46D91DFFF7B1FF002862
:1004300023D1C2218022174B89005A506946C879BE
:100440001649585002212170C12189005A50D8E71D
:100450000F4A1378DBB2012B06D0022BD1D1032334
:100460001370CEE72270CCE700211170094AD360E7
:100470005360A023DB00D150C3E70123054A02A843
:10048000D360237002330370054B1B689847B8E7AD
:100490006C01002000200040840100201C050000A9
:1004A00070010020842210B5414B5200995884B04D
:1004B00000292DD18E223E4B52009958002914D18B
:1004C00092223B4B5200995800290CD000219950A0
:1004D0009021C9005A5802A85A5002230370354B84
:1004E00042601B68984704B010BD0021324C9950FF
:1004F0002278D2B2002AE3D0022A21D9032ADFD1FE
:10050000023A2170DA605A60A022D2009950D7E7EF
:1005100000219950A322D2009958284CC9B220003A
:10052000FFF722FF00282AD1A268E3689B1A012B5B
:10053000C0D1204A02AB1870126818009047B9E782
:100540001F488168C26891422DD02278022A01D0CA
:1005500001229A606B46D91DFFF71AFF002817D1B8
:10056000C2218022124B89005A506946C879154928
:10057000585002212170C12189005A50A0E7012260
:1005800002AB1A700B4A039012681800904791E76B
:100590000123074AD3602370032302A80370054B8D
:1005A0001B6898478CE70122DA602270F4E7C046A6
:1005B00000200040700100206C0100207401002028
:1005C000840100201C050000F0B54E464546574604
:1005D000DE4698460023E0B59A4D9B4E87B0070053
:1005E00089462B7032600724002906D08A889748F4
:1005F0000968FFF7A5FE041E07D0200007B03CBC29
:1006000090469946A246AB46F0BD4B469A899968FA
:100610008F4B18009946FFF793FE041EEDD1A022E0
:1006200003217B78D205C133FF339B0099503B787F
:10063000C133FF339B0098507978864B864A995096
:100640003978864A9950B968854A99507A79002A4A
:1006500047D00E21834A99503B79022B5ED0012B63
:1006600042D0A02204217B4BD200995000220531B8
:10067000FF315A507B4814315A5019580132914376
:1006800019500121643849421950083019509A60B4
:100690001A602A70109B1B88002B05D1724A1378B0
:1006A000591C1170109A13800121C222694B4942D2
:1006B00092009950A121043A89009950C023042046
:1006C0006A4A5B00D050C0254346FF26AD00360481
:1006D0009B0551593340664E31400B4353511060D6
:1006E0008BE7604A9850B7E7A0210420594AC90017
:1006F000505000210530FF3011501430115059482E
:10070000115819431150A221F878C9005050B878F7
:1007100008395050936013602B70BBE700F080F9EC
:10072000002804D100F04EF98246002810D102AB17
:100730009A46032200211800FFF738FD5346012294
:100740005A705146B87800F073F98246002801D0FB
:10075000544652E73F4B01229B46A2235946524240
:10076000DB00CA50BA78083BCA503E4A8B58012178
:100770000B4359468B50032303A90B7048708870B4
:10078000C870F8783B4A00F0B9F982460028DFD1FA
:10079000F878012100F030FAF87800F07BFA2B7835
:1007A000DBB2002807D0012B0DD0022B00D071E75F
:1007B00003232B706EE7002B0FD0032B00D069E7CB
:1007C00002232B7066E752462A705A46D360536064
:1007D000A0235146DB00D1505CE7A02304225946F8
:1007E000DB00CA504B46033A0A609A68DB689A42BB
:1007F0001AD02B78022B01D001228A606B46DF1DB4
:1008000039004846FFF7C4FD002810D1C2218022DC
:10081000104B89005A5038781749585002212970D6
:10082000C12189005A5035E701232B7032E701239B
:10083000084A04A8D3602B700233037033689847CA
:1008400028E7C0466C0100207001002074010020E0
:1008500084010020002000400C0500001405000069
:10086000240500006C0500006400002000E100E0A9
:10087000FFFF00FFE50300001C05000010B50100AC
:100880000148FFF785FD10BD7401002070B51A4DB9
:10089000010084B02800FFF767FD184C060023789C
:1008A000DBB2012B02D0300004B070BD2278022AE6
:1008B00001D0134A93606B462800D91DFFF768FDED
:1008C00000280ED1C22180220D4B89005A50694662
:1008D000C8790C49585002212170C12189005A5011
:1008E000E1E70123064A02A8D360237002330370B4
:1008F000054B1B689847D6E7840100206C01002057
:10090000002000401C0500007001002082B0019012
:10091000019B002B14D0019B0A48013B0193013835
:10092000C046C046C046C046C046C046C046C04697
:10093000C046C046C046C046F1D1019B002BEAD15B
:1009400002B07047E7030000F0B500281EDB1B4A29
:1009500003249446FF2217008308C026C0B2044037
:10096000E4008901A7400A40A2409B006344B6000E
:100970009D59BD432A439A511F23C02118401E3B55
:1009800083400E4A490053501360F0BDFF240C4AC7
:100990000325944622000F23C0B20540ED008901D3
:1009A000AA400C40AC400340083B9B089B006344BA
:1009B000DE6996433443DC61DEE7C04600E100E0D7
:1009C00000ED00E010B5144C08202378002B00D077
:1009D00010BD3C22013BA354E361C3322362636236
:1009E000A362E36223636363A3636360A360E36062
:1009F00023616361A36101213E330238E254FFF7B2
:100A0000A3FF8021C123054A9B000906D150012381
:100A100000202370DCE7C046940100200060004005
:100A2000024B1878431E9841C0B2704794010020D1
:100A3000F0B51C252D4B02001C1865570820013508
:100A400000D0F0BD8878002830D05868013046D0FA
:100A50009868013045D0D868013044D01C69042022
:100A60000134EED10138224D9C18AC46A2252077E6
:100A70008000ED001B180024604446591D4F5C6047
:100A80003E40C0270B78BF021B043B4080274C78B8
:100A90007F0324053C40F827465123437F0114027D
:100AA00046593C4023433343435101E0FE2323771F
:100AB0001300A0200324C133FF339B00C0051C504A
:100AC0004B78012B05D0012393400B4A8350002023
:100AD000B7E79340A122D20083500020B1E7002065
:100AE000C1E70120BFE70220BDE7C0469401002016
:100AF00000600040FFE0ECFF0C050000F0B53B4B50
:100B000008241D182E7F7F2E01D82000F0BDCE783E
:100B1000002E0DD05C68013464D09C6801345FD035
:100B2000DC6801345AD01C6901343CD00424ECE761
:100B30005C6901342FD09C6905250134F6D11F185A
:100B40006CB23C77AF00DF197A60002E27D08A782C
:100B5000002A14D10200A0264D78C132FF32AD0028
:100B60009200F6059551CA78002A1ED11C19383416
:100B70000A78237892011A4322700024C5E7A02541
:100B8000ED05AC46E026022782006244F600955946
:100B9000BD439551E7E704242C7704255A615D197C
:100BA00038352870D3E70325C9E7114AA4009446D5
:100BB000A2226444D2000B780E4DA15800022940B5
:100BC000F8256D012840C025A1501B04AD02A15895
:100BD0002B4018430843A050002496E70225AEE7B7
:100BE0000125ACE700245A602C77B0E7940100207F
:100BF00000600040FFE0FCFF30B5234B1A18127F65
:100C000052B2032A18DD9B1838331B789B09032B3B
:100C10002DD0012B34D0C025AD02A023DB059C468E
:100C2000E02380006044DB00C158184C2140C150D3
:100C3000C2582A43C25030BDD3B2032BFBD814484C
:100C4000A2258446012493006344ED0058592043B3
:100C5000585113006046002540339B009BB21D5045
:100C60000029E8D0C12394409B00C450E3E7A223AD
:100C7000A022DB00D205D258012383401A42CAD1F8
:100C80008025AD02C9E7C04694010020FFFFFCFFAC
:100C900000600040A223A022DB00D205D358C3404D
:100CA000012018407047C046F8B5CE46474680B58B
:100CB000974A00241368012B00D171E0954B1A6804
:100CC000012A00D17AE0944B1A68012A00D185E00C
:100CD000924B1A68012A00D190E0914B00251A68C6
:100CE000012A00D19BE023070BD0E30700D5A0E049
:100CF000A30700D5C8E0630700D5AAE0230700D505
:100D0000B6E0002C03DB0CBC90469946F8BD3C23B2
:100D1000844CE15C84330800984323181B7F5BB24A
:100D2000032B17DD9B00E3185E68002E12D0A02372
:100D30000127DB059C46E023874082006244DB00FC
:100D4000D35889099B039B0F3D4200D0B4E0032B8D
:100D500000D1B8E03D23E15C8333080098432318B9
:100D60001B7F5BB2032BCEDD9B00E4186668002E70
:100D7000C9D0A0230124DB059C46E02384408200E7
:100D80006244DB00D35889099B039B0F254200D0A6
:100D900089E0032BB7D1032900D1A8E0B047B2E71F
:100DA000C1216148890044581C4000D186E70023D6
:100DB0001360584B1A68012A00D084E7C1225A49AF
:100DC0009200895802220A4200D17CE70021196072
:100DD000514B14431A68012A00D079E7C1225249C5
:100DE0009200895804220A4200D171E7002119605B
:100DF0004A4B14431A68012A00D06EE7C1224A49BF
:100E00009200895808220A4200D166E70021196041
:100E1000434B14431A680025012A00D063E71D6084
:100E200080231B061C43A022A223D205DB00D55839
:100E300059E7A2233C4ADB00D058D158394B8903EB
:100E4000C0045B68890FC00E9847A30700D452E71F
:100E50001AE0A323344ADB00D058D158314B890320
:100E6000C004DB68890FC00E9847230700D448E709
:100E70002D4A2E4BD058D1582A4B8903C004890FD4
:100E8000C00E1B6998473CE7294B274AD058D158D8
:100E9000244B8903C0049B68890FC00E98476307E1
:100EA00000D42BE7D5E7022B00D02CE7032900D094
:100EB00074E7C027BF021CE0022B00D04AE70329D9
:100EC00022D0B04746E70329FBD180239B029C46F2
:100ED000E023DB009946D758164B1F404B46D750AE
:100EE000D75863461F434B46D750B04732E7802759
:100EF000BF02E023DB00D5580E4C2540D550D45816
:100F00003C43D450B047FEE6C0239B029C46DFE73B
:100F10000061004004610040086100400C61004035
:100F20007C61004094010020006000401C0500002E
:100F300014050000FFFFFCFF03210A4802680A4372
:100F40000260094802680A4302600849084A094BDE
:100F50009B1A03DD043BC858D050FBDC0648804791
:100F60000648004724050040540500404420000086
:100F70000000002068000020C1010000C100000046
:100F8000FEE7FEE7FEE7FEE7FEE7FEE70FB40B4BEA
:100F900013B51C68002C05D0A369002B02D12000DA
:100FA00000F050F805AB049AA1682000019300F00E
:100FB00065F916BC08BC04B01847C0460000002004
:100FC00010B5024900F0B2F810BDC046791B000010
:100FD000002310B504000360436083608181436691
:100FE000C281036143618361190008225C30FFF70D
:100FF000DDF8054B24626362044BA362044BE36299
:10100000044B236310BDC046E9170000111800000F
:10101000491800007518000070B568254A1E554330
:101020000E002900743100F0A3F8041E08D000213E
:101030002A00016046600C30A0606832FFF7B6F805
:10104000200070BD836913B50400002B28D1836490
:10105000C3640365134B144A1B6882620193984270
:1010600001D101238361200000F020F8606020009E
:1010700000F01CF8A060200000F018F80022E060EA
:1010800004216068FFF7A4FF01220921A068FFF78F
:101090009FFF02221221E068FFF79AFF0123A3615C
:1010A00013BDC0467C1F0000C10F0000F8B51E4BE9
:1010B00007001E68B369002B02D13000FFF7C2FFA2
:1010C0004836B4687368013B04D53368002B07D0F9
:1010D0003668F6E70C22A55E002D0DD06834F2E7E5
:1010E00004213800FFF798FF30600028F0D10C236E
:1010F00004003B602000F8BD012320005B42E38137
:101100000233A38165662560A56065602561656120
:10111000A561082229005C30FFF748F86563A563E4
:10112000A564E564E6E7C0467C1F0000F7B504004F
:101130000700002601914834002C01D13000FEBD8B
:101140006368A5680093009B013B009301D5246868
:10115000F2E7AB89012B08D90E22AB5E013304D034
:1011600029003800019B984706436835EBE70000EB
:10117000032370B5CD1C9D43083506000C2D1ED2EF
:101180000C25A9421DD8300000F0ADFD254A146899
:101190002100002919D1244C2368002B03D13000F1
:1011A00000F010FB20602900300000F00BFB431C16
:1011B0002CD10C233000336000F096FD03E0002DAD
:1011C000DFDA0C233360002070BD0B685B1B1AD480
:1011D0000B2B03D90B60CC18256003E08C420ED199
:1011E00063681360300000F07FFD200007220B30A1
:1011F000231D9043C31AE7D05A42E250E4E74B68FC
:1012000063600C00EEE70C004968C2E70323C41CCE
:101210009C43A042E0D0211A300000F0D3FA431CD6
:10122000DAD1C6E7D4010020D8010020936810B5B8
:10123000013B9360002B05DA9469A34208DBCBB233
:101240000A2B05D01368581C10601970C8B210BD65
:1012500000F016FBFBE7F8B506000F001400D518E8
:10126000AC4201D1002007E021783A003000FFF7BE
:10127000DDFF0134431CF3D1F8BD0000F0B59FB091
:1012800006000F0014000593002804D08369002B8A
:1012900001D1FFF7D7FE7F4B9F425CD17768BB89B6
:1012A0001B0762D53B69002B5FD0002306AD6B6145
:1012B00020336B761033AB760294029C2378002B9C
:1012C0005DD1029BE31A04930DD0049B029A39006E
:1012D0003000FFF7C0FF431C00D1CCE06A69049BDB
:1012E000944663446B612378002B00D1C3E0012254
:1012F000002352426A6002A95432521801342B6012
:10130000EB60AB601370AB6521780522624800F09A
:10131000DFFC631C9C46002835D12968CB0604D528
:10132000532302AA20309B1818700B0704D55323AF
:101330002B2002AA9B18187023782A2B2CD000206F
:101340000A21099B2278303A092A00D86BE000284C
:101350002AD0099328E0514B9F4201D1B7689EE7FC
:101360004F4B9F429BD1F76899E73900300000F05E
:10137000F1FA002899D0012040421FB0F0BD252B82
:101380009FD001349AE7444B2968C01A0123834057
:101390000B432B606446B7E7059B181D1B6805903F
:1013A000002B3ADB0993644623782E2B0BD163780C
:1013B000621C2A2B3FD1059B02341A1D1B68059223
:1013C000002B35DB079321780322364800F080FCA0
:1013D000002807D0334B2A68C01A402383401343A8
:1013E0002B6001342178631C06222F480293297652
:1013F00000F06EFC002844D02C4B002B2FD1296824
:10140000059B0722C90528D59B18934308330593EC
:101410006B69039A9B186B614FE75B42EB60022399
:101420000B432B60BFE74B4301349B18012089E736
:1014300001235B42C6E7002314000A201A006B60F8
:1014400021783039092903D9002BBCD00792BAE79B
:101450004243013452180123F2E70733D5E705ABC5
:1014600000933A00124B2900300000E000BF0390C7
:10147000039B0133CCD1BB895B0600D57BE70B987E
:101480007BE705AB00933A00094B2900300000F0E0
:101490007FF8ECE7C81F000008200000E81F0000EC
:1014A000A81F00000E200000122000000000000015
:1014B00057120000F7B5150001938A680B69009078
:1014C0000C00934200DA130022002B6043321278A2
:1014D000002A01D001332B6023689B0602D52B68BC
:1014E00002332B60062723681F4027D02300433395
:1014F0001B785A1E93412268920630D4220001992B
:1015000043320098089EB047431C25D0062320682C
:101510002A68E16803400025042B03D18D1AEB43B0
:10152000DB171D40A3682269934201DD9B1AED1869
:101530000027BD4220D1002010E00137E3682A686F
:101540009B1A9F42D2DA2200012319320199009896
:10155000089EB047431CF0D101204042FEBD302020
:10156000E1184331087021005A1C45310978A2184E
:10157000433202331170C1E7220001231A3201996C
:101580000098089EB047431CE6D00137D1E7000021
:10159000F0B58BB006920A0043320793059004928F
:1015A0000A7E0C00109B6E2A00D18FE017D8632AA8
:1015B0002CD008D8002A00D199E0582A54D026000F
:1015C0004236327029E0642A01D0692AF7D12168B5
:1015D0001A68080623D5111D1960156825E0732ABD
:1015E00000D188E008D86F2A29D0702AE7D12022BC
:1015F00009680A43226003E0752A20D0782ADED1E8
:1016000022007821453211706C4A30E00E001A68D1
:101610004236111D196013683370012379E04906C1
:10162000D9D5111D19600023D55E002D03DA2D23B5
:10163000049A6D421370624B0A2703932FE02068CF
:101640001968050603D5081D18600D6805E04006F9
:10165000F9D50D68081D1860ADB2594B08270393E2
:101660006F2A18D00A2716E045310A70544A0392AF
:101670001A682168101D18601568080622D5CB0766
:1016800002D52023194321601027002D03D12023E8
:1016900022689A4322602300002243331A70636851
:1016A000A360002B5CDB0422216891432160002DA4
:1016B00058D1049E002B64D02600039B42361B7831
:1016C00033705EE04806DAD5ADB2D8E709681A682B
:1016D000080605D5111D1960136862691A6006E0D5
:1016E0004906F7D5111D19601368A28A1A800023D4
:1016F000049E236154E01A68111D196016680021C8
:101700006268300000F0E4FA002801D0801B6060BD
:10171000636823610023049A137041E02369320057
:1017200006990598079DA847431C43D023680025C8
:101730009B070FD4099BE06898423DDA18003BE014
:1017400022000123193206990598079EB047431CD1
:1017500030D00135E368099A9B1A9D42F0DBE9E736
:10176000002DA9D0049E2800390000F0C7FB039B80
:10177000013E5B5C28003370390000F039FB051E28
:10178000F1D1082F09D12368DB0706D563682269E8
:10179000934202DC3023013E3370049B9B1B236188
:1017A000079B09AA00932100069B0598FFF782FE7C
:1017B000431CB3D1012040420BB0F0BD2A200000F1
:1017C00019200000002370B5064C050008002360B6
:1017D00000F0BAFB431C03D12368002B00D02B6020
:1017E00070BDC046E001002070B50C000E25495FB9
:1017F00000F0C6FA002803DB636D1B18636570BD3B
:10180000A389024A1340A381F9E7C046FFEFFFFF17
:10181000F8B51F008B8905000C001600DB0505D507
:101820000E23C95E0022022300F0D2F9A389054AE3
:1018300028001340A38132000E23E15E3B0000F03C
:1018400075F8F8BDFFEFFFFF70B50C000E25495F7E
:1018500000F0BEF9A389421C03D1054A1340A381BD
:1018600070BD802252011343A3816065F8E7C04632
:10187000FFEFFFFF10B50E23C95E00F0E1F810BDC9
:10188000F8B505000E001400002804D08369002B71
:1018900001D1FFF7D7FB224B9C422DD16C68A36985
:1018A000A360A3891B0731D52369002B2ED02368A1
:1018B0002269F7B2981A6369F6B2984205DB2100F3
:1018C000280000F059F9002826D1A3680130013B17
:1018D000A36023685A1C22601F706369984204D079
:1018E000A389DB071AD50A2E18D12100280000F0A1
:1018F00043F9002812D00FE00A4B9C4201D1AC689A
:10190000CDE7094B9C42CAD1EC68C8E7210028000A
:1019100000F020F80028CAD0012676423000F8BD39
:10192000C81F0000E81F0000A81F000070B50500D8
:10193000080011000022064C22601A00FEF73AFD52
:10194000431C03D12368002B00D02B6070BDC04620
:10195000E0010020364B70B51D6806000C00002D1C
:1019600005D0AB69002B02D12800FFF76BFB314B90
:101970009C420FD16C680C23E25E93B219072DD400
:10198000D90611D409230120336037331343A381CF
:10199000404270BD284B9C4201D1AC68EBE7274B1D
:1019A0009C42E8D1EC68E6E75B0713D5616B002940
:1019B00008D023004433994202D0300000F096F959
:1019C000002363632422A3899343A38100236360DC
:1019D000236923600823A2891343A3812369002B71
:1019E0000BD1A0218022A389890092000B40934251
:1019F00003D02100300000F027F90123A289134011
:101A000011D00023A36063695B42A36100202369B6
:101A10008342BED10C23E25E1306BAD540231343A2
:101A2000A3810138B5E7920700D46369A360EDE7AD
:101A300000000020C81F0000E81F0000A81F0000D1
:101A4000002370B5064C05000800236000F05CFA26
:101A5000431C03D12368002B00D02B6070BDC0460F
:101A6000E0010020F7B58A8905000C00130760D457
:101A70004B68002B04DC0B6C002B01DC0020FEBD4E
:101A8000E76A002FFAD000232E682B6080235B01C9
:101A90001A4034D0606DA3895B0706D56368C01A0D
:101AA000636B002B01D0236CC01A0200216A002353
:101AB0002800E76AB847A189431C06D12B681D2B73
:101AC00031D82C4ADA40D3072DD50023636023692F
:101AD0002360CB0405D5431C02D12B68002B00D119
:101AE0006065616B2E600029C8D0230044339942A1
:101AF00002D0280000F0FAF800206063BFE701235D
:101B0000216A2800B847431CC5D12B68002BC2D0DE
:101B10001D2B01D0162B01D12E60AFE74023A289E7
:101B20001343A381ABE740230B430120A381404231
:101B3000A5E70F69002FA1D00B680F60DB1B019395
:101B40000023920700D14B69A360019B002B00DCAE
:101B500094E7019B3A00216A2800A66AB047002852
:101B600003DC4023A2891343DFE7019B3F181B1AC4
:101B70000193EAE7010040200B6970B505000C00F5
:101B8000002B01D1002070BD002804D08369002BF8
:101B900001D1FFF757FA0B4B9C4209D16C680C221C
:101BA000A35E002BEED021002800FFF75BFFEAE7E1
:101BB000054B9C4201D1AC68F1E7044B9C42EED14D
:101BC000EC68ECE7C81F0000E81F0000A81F000039
:101BD00070B50500080011000022064C22601A00B2
:101BE00000F0AAF9431C03D12368002B00D02B601E
:101BF00070BDC046E001002070B50E001D000E2330
:101C0000C95E90B01400002907DA00232B60B38965
:101C10001B0611D48023DB000FE001AA00F0C4F8FA
:101C20000028F2DBF022029B12021340054A9B18A7
:101C30005A4253412B60EDE740230020236010B04F
:101C400070BDC04600E0FFFFF7B502268B89050096
:101C50000C00334206D02300473323602361012365
:101C60006361F7BD01AB6A46FFF7C6FF0099070045
:101C70002800FFF77DFA002808D10C22A35E9A0500
:101C8000EFD4032293431E43A681E4E70F4BAB62DC
:101C90008023A28920601343A381009B206163619C
:101CA000019B002B0DD00E23E15E280000F08EF882
:101CB000002806D00322A38993431A00012313436B
:101CC000A381A0893843A081CBE7C046C10F0000A3
:101CD000C9B28218904201D10020704703788B422C
:101CE000FBD00130F6E770477047000070B5050083
:101CF000002910D00C1F2368002B00DAE4182800FC
:101D0000FFF7F1FF1D4A1368002B05D163601460D3
:101D10002800FFF7E9FF70BDA34209D921686018C8
:101D20008342F3D118685B6841182160EEE7130025
:101D30005A68002A01D0A242F9D919685818A0425D
:101D40000BD120680918581819608242E0D1106838
:101D50005268411819605A60DAE7A04202D90C2390
:101D60002B60D5E721686018824203D11068526861
:101D70004118216062605C60CAE7C046D40100205F
:101D800070B50500080011000022064C22601A0000
:101D9000FEF71EFB431C03D12368002B00D02B60F1
:101DA00070BDC046E0010020002370B5064C050060
:101DB00008001100236000F0AFF8431C03D1236832
:101DC000002B00D02B6070BDE0010020002370B517
:101DD000064C05000800236000F0A6F8431C03D160
:101DE0002368002B00D02B6070BDC046E0010020AE
:101DF000002243088B4274D303098B425FD3030A4A
:101E00008B4244D3030B8B4228D3030C8B420DD35C
:101E1000FF22090212BA030C8B4202D312120902EA
:101E200065D0030B8B4219D300E0090AC30B8B4228
:101E300001D3CB03C01A5241830B8B4201D38B03D6
:101E4000C01A5241430B8B4201D34B03C01A52417B
:101E5000030B8B4201D30B03C01A5241C30A8B42BE
:101E600001D3CB02C01A5241830A8B4201D38B02A9
:101E7000C01A5241430A8B4201D34B02C01A52414D
:101E8000030A8B4201D30B02C01A5241CDD2C309BF
:101E90008B4201D3CB01C01A524183098B4201D33B
:101EA0008B01C01A524143098B4201D34B01C01A26
:101EB000524103098B4201D30B01C01A5241C3089E
:101EC0008B4201D3CB00C01A524183088B4201D30D
:101ED0008B00C01A524143088B4201D34B00C01AF9
:101EE0005241411A00D20146524110467047FFE765
:101EF00001B5002000F006F802BDC0460029F7D069
:101F000076E770477047C04658220120014B404297
:101F10001A607047E001002058220120014B404226
:101F20001A607047E00100205822024B00201A601E
:101F30007047C046E001002058220120014B40427A
:101F40001A607047E0010020044A1368002B03D098
:101F50001818106018007047014BF9E7DC010020E9
:101F6000E8010020F8B5C046F8BC08BC9E467047A2
:101F7000F8B5C046F8BC08BC9E4670470400002077
:101F80000B09080A0100000000509D0041637475B0
:101F9000616C2074656D70657261747572653A204C
:101FA00025640A0D00000000000000000000000091
:101FB0000000000000000000000000000000000021
:101FC0000000000000000000000000000000000011
:101FD0000000000000000000000000000000000001
:101FE00000000000000000000000000000000000F1
:101FF00000000000000000000000000000000000E1
:102000000000000000000000232D302B2000686C31
:102010004C0065666745464700303132333435360B
:102020003738394142434445460030313233343544
:0C20300036373839616263646566000071
:08203C0084E0FF7F01000000B9
:102044000400002000000000C81F0000E81F00007A
:10205400A81F0000000000000000000000000000B5
:10206400000000000000000000000000000000006C
:10207400000000000000000000000000000000005C
:10208400000000000000000000000000000000004C
:10209400000000000000000000000000000000003C
:0820A400000000000100000033
:0400000300000F39B1
:00000001FF
