:020000021000EC
:108000000080002059E00100A1E00100A3E0010090
:108010000000000000000000000000000000000060
:10802000000000000000000000000000A5E00100CA
:108030000000000000000000A7E00100A9E001002E
:10804000ABE00100ABE00100298E0100ABE00100D4
:10805000ABE001000000000085920100ABE00100F0
:10806000ABE00100ABE00100ABE00100ABE00100E0
:10807000ABE00100ABE00100ABE00100ABE00100D0
:10808000ABE0010081840100ABE00100ABE0010046
:1080900065850100ABE0010025E00100ABE00100D7
:1080A000ABE00100ABE001000000000000000000B8
:1080B00000000000000000000000000000000000C0
:1080C000164B002B00D1144B9D46402292029A1A67
:1080D000924600218B460F461348144A121A00F0AC
:1080E00065F80F4B002B00D098470E4B002B00D0AB
:1080F00098470020002104000D000D48002802D000
:108100000C4800E000BF00F02DF82000290002F02C
:108110008DFF00F011F8C04600000800008000202C
:1081200000000000000000007C200020D828002073
:108130000000000000000000084B10B50400002BF8
:1081400002D0002100E000BF054B1868836A002BB5
:1081500000D09847200000F031F8C0460000000031
:108160001CE2010070B500260C4D0D4C641BA410E0
:10817000A64209D1002606F045F80A4D0A4C641BB8
:10818000A410A64205D170BDB300EB589847013644
:10819000EEE7B300EB5898470136F2E77C20002069
:1081A0007C2000207C2000207C20002003008218FE
:1081B000934200D1704719700133F9E7FEE7C046DA
:1081C000F8B54E46DE4657464546E0B5224B19788F
:1081D000994600292AD0214B00249846204B214F54
:1081E00001269A4603E00134E4B28C421ED2434693
:1081F0001B6832009C46E500654428783B68824055
:108200001342F0D093433B6001F032F833002A78F8
:108210005146934009680B40010091408B420BD0BE
:108220004B4601341978E4B28C42E0D33CBC904612
:108230009946A246AB46F8BD6B689B46002BEFD033
:10824000697801394B424B41191A4D424D4110009A
:10825000E9B2D847E4E7C0467C2000209020002007
:10826000882000208C200020F8B5124D07002868D7
:1082700000F040FD002807D10124BC400E4E3368B9
:10828000234202D0A3433360F8BD380000F0F0FF72
:108290000A4A136800280BD0234313603368286808
:1082A0001C43074B00221968346000F09BFCEBE78D
:1082B000A343F2E7842000208C20002088200020A7
:1082C00080200020F0B54746CE4680B50D0007005F
:1082D00083B014000720042A04D803B00CBC9046D5
:1082E0009946F0BD00F0AAFE00282DD0194B1A4A7D
:1082F0001F601A4B1D701A4B1C6000231360194A33
:108300006C1E1360E4B2002D18D0174B002699465E
:108310000323984601AD4246E300FB182A70AE7075
:10832000EE709A7818786A7029004A4600F08EFE3E
:108330000028D2D1013CE4B2FF2CECD10B4A002141
:108340000B4800F01BFCC8E700F03EFE0028CDD033
:10835000C3E7C04690200020882000207C20002019
:10836000802000208C20002069820100C181010052
:108370008420002070B5094D2B78002B0BD00024F1
:10838000074E3268E300985C012100F023FF2B7850
:108390000134A342F5D8002070BDC0467C200020E7
:1083A00090200020BFF34F8F024A034BDA60BFF3E7
:1083B0004F8FFEE70400FA0500ED00E0030010B562
:1083C0009C888068DA68121A0420944200D210BD9A
:1083D000DA68002014401A681155DA680132DA6050
:1083E000F5E7C04610B58468C268030005209442D2
:1083F00009D09A68988802401868825C00200A7048
:108400009A6801329A6010BD80218023184A89023F
:10841000D1508022D221174B520289005A50403944
:108420005A5001222F205A600138C046C046C0462B
:10843000C046C046C046C046C046C046C046C0460C
:10844000C046F1D19A6000230B4A2F2013600138F7
:10845000C046C046C046C046C046C046C046C046EC
:10846000C046C046C046C046F1D1044A13707047AA
:1084700000E100E000100140A82000209A20002028
:10848000A021F0B50022C6462C4B490000B55A5039
:1084900004315A5004315A5004315A504C395A5010
:1084A00004315A50264A17687A1C38D0254A0025CC
:1084B0009C58254B254E1B68E41A254B2402240AA0
:1084C000984601E07B1C1BD03268FB009446DB1908
:1084D0009B0063445A68A24212D8A41AAD181F6ABE
:1084E0009A69D96943461B68002B1BD01000984736
:1084F0000028E7D000220021FFF754FF7B1CE3D1C6
:108500001449154A0B7812789A420ED0134A9B00F0
:108510009D5080218023124A49035B00D15004BC46
:108520009046F0BD08009047CCE70132D3B2022B51
:1085300001D00B70EAE700230B70E7E70010014061
:10854000AC20002004050000A8200020B42000205A
:1085500094200020A5200020A42000209C200020A2
:1085600000E100E0F0B5DE4657464E464546E0B530
:10857000D34BD44A1B68D4498DB00593097813783E
:10858000994200D173E10133DBB2022B00D172E1D9
:108590001370CE4A9B009B58059A9C4662440293F6
:1085A0001302C74A1B0A136001230693C84B00201D
:1085B0001B681D000B93C74BAA461B781A00039338
:1085C000C54B93461B680493C44B1F68BC4B1B6888
:1085D0000993C34B1B780A930023079308930193D5
:1085E0005B46013BDBB29B46FF2B70D05B46DE0057
:1085F000049B9C466644337872789342F0D074684A
:108600005900A446C918B4780133C900DBB26144EB
:108610009C4238D00C78022C10D0032CEDD1691C70
:10862000EBD0EA0052199200BA18156A10756A1C4C
:10863000F7D101217278AA460191DEE749688C469C
:10864000CC006444A40039190091097D88460029B2
:10865000D3D06A1C13D0AC4500D104E16446290094
:108660009C46A94602E09C420FD01900CA0052184D
:108670009200BA18136A5D1CF5D163464D46009A04
:1086800010757278B9E70023C4E76346A446009CDE
:108690004D46A1468C450ED049464C68096A116288
:1086A0004A1CECD0CA0052189200BA1851685546BC
:1086B00009195160E3E7E9004919890079180D6A41
:1086C000691C00D1C3E04146AA460191E4E7019B41
:1086D000002B00D0D1E0089B002B00D0B1E1079B1C
:1086E000002B05D06A46282152187D4B12781A704B
:1086F000069B002B00D06BE10B9B5B1B5A1E93412A
:10870000DBB2069301235B429C46714A744B1268AC
:108710001B78029200220593694BA8461B680192C0
:1087200007939B46039B9146013BDBB20895664647
:108730000393FF2B00D1E2E0049A45469246DB000A
:108740009A44731C42D0F000801980003818B44657
:108750008268C168066A5B46624CD31A1B021B0A18
:10876000A3426BD85B1843604B468360C360012310
:10877000037501235B4203626B1C00D195E0EB00A3
:108780005B199B00FB1841685C68A14279D980465F
:108790002A00200006E0D3009B189B00FB185868B5
:1087A000884279D214001A6A091A531CF3D1404640
:1087B0001300A046009203624346DC006346444433
:1087C000A4003C1941602362731CBCD1534654463B
:1087D0001A7859780095914200D187E0606853007B
:1087E00084469B18A0780132DB00D2B26344227029
:1087F000904260D018780128EDD158688446C000B6
:10880000604480003818057DA846002DE3D19A68A1
:10881000A2468260D968009DC1601C6904615B69E1
:10882000C361059B002B96D04346002283605B46C4
:108830002C4CD31A1B021B0AA34293D95B469A1AEB
:108840001202120A8A4224D28A1A42608CE7012458
:108850002549AA468C60414607910A9108910191E9
:108860000021099118E700990A00894627E70023AB
:10887000029306939AE600238AE65246144B1A6046
:1088800029E7611A59600562012365460193029543
:1088900057E74B46436067E7009222000400641AE2
:1088A00040465C609046009B85E763460293012347
:1088B0006546019345E74A46227000229AE7C04682
:1088C000A8200020A4200020A52000209C2000201B
:1088D000AC200020B0200020B8200020B4200020D0
:1088E00099200020FEFF7F0000100140009B984669
:1088F000039B013BDBB20393FF2B00D01CE7019BE2
:10890000089D002B00D0A0E0454500D15CE0434627
:10891000013300D192E043464F4A5048DB00815872
:10892000079A4F4C43448A1A9B0012022578FF187D
:10893000120A7B680332002D1FD18025D1266D02DB
:10894000B6008551403E8551C0278026454DB60270
:108950007F00EE512E60012505602F200138C046B2
:10896000C046C046C046C046C046C046C046C046D7
:10897000C046C046C046F1D12570934200D21300D4
:10898000079AA82094466344344A1B021B0AC0007D
:10899000135031485B1A12581B02521A1202120A63
:1089A00003321B0A9A4205D9802180232D4A89026D
:1089B0005B00D15000232C4A13700DB03CBC904694
:1089C0009946A246AB46F0BD069B002BF2D09EE72F
:1089D000264B0020196801235B429C46002300249B
:1089E00098461DE0EB005B199B00FB185A68029E3D
:1089F000B2421DD8B11AA41842465A6042461869BC
:108A000002911A75196A002808D0059AD8601219BF
:108A10001202120A9A606246AC461A620D0006986B
:108A20006B1CDFD1002800D16FE6104B19606CE69B
:108A300000280ED10299521A5A6066E6FFF7E4FC4C
:108A4000B8E70B4B099A1A6049E6084B029A1A607C
:108A50005AE706480160EDE70405000000100140F8
:108A60009A20002000E100E099200020AC200020A6
:108A7000A8200020F8B51E0005000F0014000720F4
:108A8000B30700D0F8BD002EFCD0FFF7BDFC2E4B85
:108A9000069A1A602D4B1F702D4B1E60002F50D070
:108AA00033000022F900C819800030181A701A75B6
:108AB00024338342FAD1CB190321264A9B00F318B1
:108AC0001170190060000019C000234A1831596064
:108AD00009181360D96000220918596101211A7020
:108AE0005A709C701A725A729C721A745A749C74DE
:108AF0001A4B494219608021C520FF24184B4903B5
:108B00001A70184B80001A70174B8132FF3299503F
:108B10001A58A2433F3C22431A50A122C4241348AE
:108B2000D2001960A40085501A5911491140C02281
:108B300012020A431A510F4BC2580F4B00201A6001
:108B4000A0E70021B7E7C04694200020982000202D
:108B5000B4200020B0200020B8200020AC2000204D
:108B6000A4200020A520002000E100E0001001402A
:108B7000FF00FFFF04050000A8200020F0B5174B00
:108B800094461E68002E1DD0002A19D0002817D048
:108B9000134B1F78002F11D03378002B14D03400E2
:108BA0000023243407E0260024342500243D2D78BA
:108BB0001A00002D09D00133BB42F4DB0420F0BDC4
:108BC0000720FCE70820FAE7002201233370634600
:108BD0007170B36102600020F1E7C046B42000204C
:108BE00098200020F0B53B4B04001B68002B40D0C0
:108BF000394805780720A54200D8F0BD0429FCD9E2
:108C0000E000001980001B181D780820012DF4D108
:108C10005B780025012B46D0304B10205B68DB05CC
:108C2000DB0D28D12E4B1B681B1858789E78471CEB
:108C3000B7423CD01E78BE4237D04600361858683E
:108C4000F600844666440420002ED6D003383070E7
:108C500074602448244C2058F160B0607261356122
:108C600080215F708023214A49035B00D15000209E
:108C7000C3E70820C1E7103B58B2002819DB800881
:108C8000C0301A4E8000865903200340DB00DE40CE
:108C9000B3091840C3B20020012BC3D00830032B06
:108CA000C0D00830BEE70D00B6E70420A5E70027D6
:108CB000C0E70F4E0F20B4460326DBB21840334006
:108CC000B34008388008800060444068D84080097C
:108CD0003040DFE7B42000209820002000ED00E0C5
:108CE000B8200020040500000010014000E100E071
:108CF00018ED00E010B5304B1A68002A32D02F4B27
:108D000019780723814201D8180010BDC3001B1831
:108D10009B009A5C0823012AF6D1294B10215B683D
:108D2000DB05DB0D20D1274B1A6852185378917858
:108D30005C1C8C4232D01178A1422DD05900C91848
:108D40005368C9009C46614404230029DCD0023BDF
:108D50000B704860802154701B4AFE334903D15088
:108D60000023D1E70823CFE7103B5AB2002A17DBD4
:108D70009208C03214499200515803221340DB007C
:108D8000D9408B091A40D2B20021012ACBD0083138
:108D9000032AC8D00831C6E70423B5E70024CAE790
:108DA0000F220A49DBB28C461A40083A9208920018
:108DB00062445168E1E7C046B420002098200020BA
:108DC00000ED00E0B820002000E100E018ED00E038
:108DD0000B7B002B04D101220B68027103607047EA
:108DE0004B680022F9E7C04610B502790300002A5B
:108DF00008D048681C688A68011B91420CD9A018E9
:108E0000186008E004688A680868211A914207D847
:108E1000012218601A7110BD002218601A71FAE759
:108E2000A01A1860F7E7C046842210B5414B5200E3
:108E3000995884B000292DD18E223E4B520099586A
:108E4000002914D192223B4B5200995800290CD092
:108E5000002199509021C9005A5802A85A50022363
:108E60000370354B42601B68984704B010BD002169
:108E7000324C99502278D2B2002AE3D0022A21D96A
:108E8000032ADFD1023A2170DA605A60A022D200B0
:108E90009950D7E700219950A322D2009958284C25
:108EA000C9B22000FFF78AFA00282AD1A268E36835
:108EB0009B1A012BC0D1204A02AB1870126818000F
:108EC0009047B9E71F488168C26891422DD0227847
:108ED000022A01D001229A606B46D91DFFF782FA5F
:108EE000002817D1C2218022124B89005A506946AE
:108EF000C8791549585002212170C12189005A5062
:108F0000A0E7012202AB1A700B4A03901268180006
:108F1000904791E70123074AD3602370032302A8F7
:108F20000370054B1B6898478CE70122DA602270BA
:108F3000F4E7C04600200040C0200020BC200020F4
:108F4000C4200020D42000201C050000F0B500281B
:108F50001EDB1B4A03249446FF2217008308C02609
:108F6000C0B20440E4008901A7400A40A2409B002F
:108F70006344B6009D59BD432A439A511F23C02123
:108F800018401E3B83400E4A490053501360F0BD09
:108F9000FF240C4A0325944622000F23C0B205404B
:108FA000ED008901AA400C40AC400340083B9B08FF
:108FB0009B006344DE6996433443DC61DEE7C046D0
:108FC00000E100E000ED00E010B51A4C0820237825
:108FD000002B00D010BD4C22FF21013BA3540132D5
:108FE000A1540132A3540132A3540132A354E362C9
:108FF000013223636363A363E36323646364A36451
:10900000FE390238A3546360A360E36023616361A7
:10901000A361E36123626362A362FFF797FF80218C
:10902000C123054A9B000906D1500123002023706B
:10903000D0E7C046E420002000600040024B1878D2
:10904000431E9841C0B27047E4200020F0B5CE46E0
:10905000474680B55C4C914623182C331E78082572
:109060007F2E04D828000CBC90469946F0BDCD78E0
:10907000AC46002D48D0626804270126013200D199
:109080009DE0B50063195B68013343D0731C9D00FC
:109090006219526801323ED0B31CBB4232D29D00ED
:1090A00062195268013236D0F31CBB422AD29D00AD
:1090B0006219526801322ED0331DBB4222D29D006C
:1090C00062195268013226D0731DBB421AD29D002C
:1090D0006219526801321ED0B31DBB4212D29D00EC
:1090E00062195268013216D0F31DBB420AD29D00AC
:1090F0006219526801320ED00836BE4202D2A36A0B
:10910000013340D00425ADE76269013231D00A272E
:109110000526B6E733004A4665196A606246271895
:109120005EB22C373E70002A29D08B78002B14D1E8
:109130000300A0254A78C133FF3392009B00ED0560
:109140005A51CB78002B21D1A41948340B782278BE
:109150009B0113432370002584E7A022D205944687
:10916000E025022783006344ED005A59BA435A515F
:10917000E7E704251D704B46042663610423E318CA
:1091800048331870D1E709232425C4E70F4AB600F5
:109190009446A2226644D2000B780D4CB1580002CE
:1091A0002140F82464012040C024B1501B04A402D3
:1091B000B158234018430843B050002552E7002619
:1091C0001E704B466360B0E7E42000200060004062
:1091D000FFE0FCFF30B5234B1A182C32127852B244
:1091E000032A18DD9B1848331B789B09032B2DD0CD
:1091F000012B34D0C025AD02A023DB059C46E02323
:1092000080006044DB00C158174C2140C150C25857
:109210002A43C25030BDD3B2032BFBD81348A2253A
:109220008446012493006344ED005859204358516B
:1092300013006046002540339B009BB21D5000295F
:10924000E8D0C12394409B00C450E3E7A223A022AE
:10925000DB00D205D258012383401A42CAD18025AF
:10926000AD02C9E7E4200020FFFFFCFF00600040E2
:10927000A223A022DB00D205D358C340012018400E
:109280007047C046F0B5D6464F464646C0B5D04AB0
:1092900000241368012B00D10DE1CE4B1A68012A7E
:1092A00000D116E1CC4B1A68012A00D121E1CB4B49
:1092B0001A68012A00D12CE1C94B00251A68012A3D
:1092C00000D137E123070BD0E30700D53CE1A3072A
:1092D00000D564E1630700D546E1230700D552E1DC
:1092E000002C04DB1CBC90469946A246F0BD4C23E2
:1092F000BC4CE15C74330800984323182C331B7872
:109300005BB2032B17DD9B00E3185E68002E12D0C2
:10931000A0230127DB059C46E023874082006244AE
:10932000DB00D35889099B039B0F3D4200D063E1CA
:10933000032B00D187E14D23E15C73330800984390
:1093400023182C331B785BB2032B17DD9B00E3182B
:109350005E68002E12D0A0230127DB059C46E02387
:10936000874082006244DB00D35889099B039B0F2E
:109370003D4200D050E1032B00D191E14E23E15C4E
:1093800072330800984323182C331B785BB2032BED
:1093900017DD9B00E3185E68002E12D0A023012782
:1093A000DB059C46E023874082006244DB00D35803
:1093B00089099B039B0F3D4200D03CE1032B00D168
:1093C00055E14F23E15C71330800984323182C3397
:1093D0001B785BB2032B17DD9B00E3185E68002E41
:1093E00012D0A0230127DB059C46E02387408200A2
:1093F0006244DB00D35889099B039B0F3D4200D098
:1094000012E1032B00D15FE15023E15C70330800CF
:10941000984323182C331B785BB2032B17DD9B007A
:10942000E3185E68002E12D0A0230127DB059C46BE
:10943000E023874082006244DB00D35889099B0304
:109440009B0F3D4200D0DFE0032B00D155E15123BB
:10945000E15C6F330800984323182C331B785BB210
:10946000032B00DC3EE79B00E4186668002E00D169
:1094700038E7A0230124DB059C46E02384408200DA
:109480006244DB00D35889099B039B0F254200D01F
:1094900094E0032B00D025E703290AD18027BF02DF
:1094A000E023DB00D558504C2540D550D4583C43E0
:1094B000D450B04716E7C1214C48890044581C409D
:1094C00000D1EAE600231360424B1A68012A00D05B
:1094D000E8E6C12245499200895802220A4200D199
:1094E000E0E6002119603C4B14431A68012A00D0C1
:1094F000DDE6C1223D499200895804220A4200D18A
:10950000D5E600211960354B14431A68012A00D0B2
:10951000D2E6C12235499200895808220A4200D178
:10952000CAE6002119602E4B14431A680025012A4F
:1095300000D0C7E61D6080231B061C43A022A22387
:10954000D205DB00D558BDE6A223284ADB00D0585F
:10955000D158244B8903C0045B68890FC00E98471B
:10956000A30700D4B6E61AE0A323204ADB00D058B4
:10957000D1581C4B8903C004DB68890FC00E984783
:10958000230700D4ACE6194A194BD058D158154BD3
:109590008903C004890FC00E1B699847A0E6154BCC
:1095A000124AD058D1580F4B8903C0049B68890FC9
:1095B000C00E9847630700D48FE6D5E7022B00D092
:1095C00090E6032900D074E7C027BF0268E7C046D1
:1095D0000061004004610040086100400C610040EF
:1095E0007C610040E4200020FFFFFCFF00600040A1
:1095F0001C05000014050000022B00D09BE6032987
:1096000000D19BE0B04796E6022B00D01FE703296C
:1096100000D18FE0B0471AE7022B00D0AEE6032955
:1096200000D18FE0B047A9E6022B00D0ECE6032979
:109630007CD0B047E8E6022B00D0C2E6032900D177
:1096400084E0B047BDE60329DCD180239B029C4621
:10965000E023DB009946D7583E4B1F404B46D7507E
:10966000D75863461F434B46D750B04763E603299C
:10967000E7D180239B029A46E023DB00D758994626
:10968000BC46344FB846674643461F403B004F46F2
:10969000D351D35957461F434B46D750B04790E656
:1096A0000329BFD180239B029C46E023DB0099461F
:1096B000D758284B1F404B46D750D75863461F43B7
:1096C0004B46D750B04759E60329B2D180239B02BD
:1096D0009A46E023DB00D7589946BC461D4FB84652
:1096E000674643461F403B004F46D351D359574628
:1096F0001F434B46D750B04786E603298AD18023C3
:109700009B029A46E023DB00D7589946BC46114F8E
:10971000B846674643461F403B004F46D351D35996
:1097200057461F434B46D750B04790E6C0239B0295
:109730009A46CEE7C0239B029A46E3E7C0239B02EA
:109740009C4685E7C0239B029C46AEE7C0239B0254
:109750009A4691E7FFFFFCFF29DF704728DF70473B
:10976000F8B54746CE4680B5714C1F002378804639
:109770000E001500002B1BD113003B431FD10233F9
:1097800023703000FFF7EAFF00280DD1002D00D034
:10979000CBE0002F00D0B8E043461B78042B00D06C
:1097A00089E00723002023700CBC90469946F8BD41
:1097B000062B00D9A7E05F4A9B00D3589F460123A0
:1097C00023705D4B5869431C00D1A2E080235B05E8
:1097D00019690904090C04F069FC80225205136917
:1097E0001169126909041B0492B2090C1B0C01389F
:1097F000920871435843FFF7AFFF0028D4D10223EA
:109800002370D1E74C4B5869431C00D189E0802379
:109810005B0519690904090C04F048FC0300802267
:109820005205106911690004013B000C09045843FA
:10983000090C04F03BFCFFF791FF0028B4D107238B
:109840002370B1E780235B05186943460004000CD0
:1098500046435A88A800920819693018FFF77CFF20
:109860000028A1D13D439CD00623002023709BE714
:1098700080235B051969304A09045069090C4E437D
:10988000421C4CD019690904090C04F00FFC802318
:109890005B05196901380904090C41432A003000AD
:1098A000FFF75AFF002800D07EE7002F2DD1434656
:1098B0001B78042BD8D005230020237074E7802365
:1098C00042885B05914619691B4A0904090C4E43FD
:1098D0005069AD004E447619421C1ED01969090426
:1098E000090C04F0E3FB80235B05196901380904C6
:1098F000090C41434D4449193A003000FFF72CFF51
:109900000028D4D050E703204EE704230020237022
:109910004AE780235B0558695FE75869E3E75869C0
:10992000B5E780235B055B6979E7032323703BE799
:109930001E22002020E2010000100010F8B547466A
:10994000CE4680B5454D2F78BB00DC19A400261DFE
:109950002C1998462369AE1999462379042B3BD0DC
:10996000052B17D00F20022B03D00CBC9046994634
:10997000F8BD3B4BE2881B88616920899B02C018B7
:10998000D21AC918374B48449A424ED89208FFF76A
:10999000E3FE1CE080277F05396948460904090C6D
:1099A00004F084FB01003A693B6912041B044F1C5C
:1099B0001B0C7B43120C20894A434844E4881B1A41
:1099C000821A1B1B9B0892083000FFF7C9FE002873
:1099D000CBD10123AB70C8E7E268234B11015B18C0
:1099E0005968894526D0022A2AD080246405216935
:1099F00048460904090C04F059FB0100226920695A
:109A0000474400044B1C000CBF005843EF19FB886F
:109A100012044B44C31A4846120C4A43821A9B084C
:109A200092083000FFF79CFED1E780225200FFF73A
:109A300093FECCE719895B894B43E1888B42D2D1F5
:109A400080235B05196948460904090C04F02EFBC4
:109A5000034B1B88C018FFF781FEB8E748210020A0
:109A60001C220020FF03000038210020F8B5174E0B
:109A700006AC24887778A44604240A2F1BD03478B7
:109A80003C19E5B2092D01D90A3DEDB2AC006419CB
:109A9000A4003419207162610020220060710C3230
:109AA00021C921C2E38063462381B3780024002BBF
:109AB00003D0013777702000F8BDFFF73FFF7778BC
:109AC00004001128F5D10024F3E7C0464821002006
:109AD000F0B5C64600B55B4C82B0A378002B28D009
:109AE0000023594AA3701578082D26D0022843D0A8
:109AF00003281ED1207885002D18AD0066197379D2
:109B00000133DBB27371032B00D18CE0FFF716FF3A
:109B100000280ED011280CD00C356419F588F26895
:109B2000736931790095494D1201555902002000A1
:109B3000A84702B004BC9046F0BD022800D0444AB9
:109B400013706378002BF4D0FFF7F8FE021EF0D0FC
:109B50001128EED023789D00ED18AD00280066197D
:109B6000F5880C302018F468736931790095374D09
:109B700024016459A047DCE727783649B8000B88F0
:109B8000C6190133B6009BB2A61998460B803379EB
:109B90009C46022B3DD0052B34D0042B34D1072D0D
:109BA0003CD04346F6889B029E422DDC002D2BD1F3
:109BB000002313700B806378013B63707B1CDBB266
:109BC000092B01D93B00093BC01980002518EA6820
:109BD0001E49237012016B690C30009656582018EC
:109BE00000226146B047002301222B71EB80EA601E
:109BF0002B616B612B816378002B9AD0A378002BAB
:109C000097D1A1E7072D09D06378002B00D190E709
:109C10009AE74346F5889B02AB42F5DBC3199B00EC
:109C2000E318DE88C4E728000C302018F488F268B6
:109C3000736931790094054C120114590D22A04723
:109C400077E7C046482100201E220020382100204E
:109C5000142200201C220020002300222C20544922
:109C600010B50B800121534C225414302254023081
:109C7000235202302352103022540230227062707C
:109C8000A2702271E3802361636123812276638362
:109C90006362A362A383E385A363E3632386E36430
:109CA0002365E16021626163A16423520230235283
:109CB00010302254023023520230235210302254EA
:109CC00002302352063021500430235004302350F8
:109CD0000C382352103022540230235206302150C7
:109CE00004302350043023500C38235210302254B7
:109CF00002302352063021500430235004302350C8
:109D00000C38235210302254BA22A3520632A150EA
:109D10000432A3500432236663666367A367E16578
:109D20002167A3500C3AA352234A1380234B58694E
:109D3000431C37D080235B0519690904090C04F022
:109D4000B5F903008021002249050869023B00049F
:109D5000000C58431A4B18601A4B1A601A819A81EA
:109D60005A81194B08321A70144B5869431C1DD084
:109D700009690904090C04F099F980225205136954
:109D800011691B041B0C013809045843090C04F029
:109D90008DF9FFF7E3FC002803D101230B4AA370E0
:109DA000137010BD80235B055B69CBE74869E4E76E
:109DB0001C22002048210020162200200010001044
:109DC00018220020382100201E220020142200200A
:109DD000F8B54E464546DE465746E0B5454B0500CC
:109DE0001B780E000824002B06D120003CBC9046B6
:109DF0009946A246AB46F8BD002872D0002970D023
:109E00000368002B6DD080225205136987889BB2AE
:109E1000013C9F42E9D80F2FE7D9C388002BE4D03B
:109E20007B439846344BC3469A461B689946334B4E
:109E3000CB445869431C56D011690904090C04F03D
:109E400035F980225205136901381B041B0C584355
:109E500007248345C9D813699BB2434507DA1069C3
:109E6000390080B204F0A8F989B20029BDD10724D5
:109E7000BB07BAD1224F033C38880128B5D04B46E6
:109E80004A46204C736030600601A3195A602B6863
:109E90003100A3516A68AB889446EA886546083168
:109EA000655080255A436D05002309E0296909049E
:109EB000090C521A29690904090C8944002A14D092
:109EC0002969013389B29BB29142EFD351462A6985
:109ED00092B24A440A60A4190130A3813880002458
:109EE00083E70E2481E75069ABE75246494611608B
:109EF000F1E7C046142200201822002000100010B4
:109F0000162200203821002030B5114B1C78082380
:109F1000002C01D1180030BD002806D0002A04D042
:109F20000368002B03D00723F4E70E23F2E7094D63
:109F30002C68002CF7D02C89406861430918688987
:109F4000444368682418A142EDD213605160E1E7F0
:109F50001422002038210020F0B51C4C0500247884
:109F600083B00820002C01D103B0F0BD00292AD015
:109F7000002D28D02C680138002CF5D1144E3468FF
:109F8000002CF1D06C683789A446748976687C43CC
:109F9000A419A445E8D2002AE6D09742E4D3D41805
:109FA000A742E1DB09308C07DED103242342DBD159
:109FB00066462642D8D100930E3813000A002900C5
:109FC000FFF754FDD0E70E20CEE7C0461422002054
:109FD00038210020F0B51C4C0500247883B00820FF
:109FE000002C01D103B0F0BD00292AD0002D28D0CB
:109FF0002C680138002CF5D1144E3468002CF1D0B7
:10A000006C683789A446748976687C43A419A44592
:10A01000E8D2002AE6D09742E4D3D418A742E1DB85
:10A0200009308C07DED103242342DBD16646264269
:10A03000D8D100930B3813000A002900FFF716FD52
:10A04000D0E70E20CEE7C0461422002038210020A1
:10A05000F0B54F464646D646C0B51700264A82B0F0
:10A06000127806000D000824002A06D1200002B054
:10A070001CBC90469946A246F0BD002906D0002897
:10A0800004D00C68002C03D00724EFE70E24EDE782
:10A090001A4A90461268002AF6D042461089528920
:10A0A0004968424391464246526894464A46624451
:10A0B0009142E9D2002FE7D0B842E5D3FA18904296
:10A0C000E2DBB20701D01024D0E70322914613420D
:10A0D000F9D10A409246F6D159183A00300004F0FE
:10A0E00080F842462B6800971B01D7584946330039
:10A0F00052462800B847B9E7142200203821002032
:10A1000070B5174B04001B7882B00D000820002B9F
:10A1100001D102B070BD002C20D023680138002B83
:10A12000F7D1104B1A68002AF3D05E6819895B8951
:10A1300062684B439B199A42EBD209309307E8D1EE
:10A14000901B04F039F807200029E2D100912B0080
:10A15000002221000338FFF789FCDAE70E20D8E758
:10A160001422002038210020074B1A780823002AE7
:10A1700001D118007047002804D0044B5B780360BD
:10A180000023F6E70E23F4E71422002048210020E4
:10A190008021A022090410B50C00A120044BD20597
:10A1A000D358C0009C430B4002491450535010BD7B
:10A1B000040500000C050000F8B5CE464746040033
:10A1C00080B5112809D012283AD013283AD0142883
:10A1D0003AD00CBC90469946F8BD0025012911D013
:10A1E00000291FD00229F4D16B005B19204DED1816
:10A1F0006E78002EEDD01F4B1B68002BE9D030008D
:10A200009847E6E71A4F6B0098465B19FE5CFB180F
:10A210005B78002B1AD143465B19FF18BA78164BAE
:10A220005A55E6E7154B1868FEF764FD6A00104BB7
:10A2300052199B189E78104B5B5DB342C9D1D8E789
:10A240000125CBE70225C9E70325C7E70C4B994653
:10A250000C4B4A461B689900C918084B49001868FE
:10A26000FEF7C0FC0028D6D14B461C70D3E7C04691
:10A270002C220020402200204822002028220020FA
:10A280001F22002024220020F8B5A94B1B68DB0701
:10A2900000D4F8BDA74A1478172CFAD8A649A30011
:10A2A000CB589F468021A022C9030C00A120A34BBC
:10A2B000D205D358C0009C430B40A14914505350C1
:10A2C000A04B00221B689900C9189F4B1868FEF725
:10A2D00089FCDEE7A023F021DB054904984A995068
:10A2E0000021043A9950D4E78021A022C9030C0030
:10A2F000A120924BD205D358C0009C430B409049FB
:10A30000145053508F4B002219688F4B1868FEF77A
:10A3100069FCBEE7A021A120A0230026C9055B049B
:10A32000C000874C0B50854B0E51CD58F0235B0479
:10A330006B408025AD032B4000D1F1E00D50082388
:10A340000E51032111707F4A1168002259437E4B40
:10A350001868FEF747FC9CE7A021A120A023002657
:10A36000C9055B04C000764C0B50744B0E51CD58A0
:10A37000F0235B046B408025AD032B4000D1CAE085
:10A380000D5028230E510421DCE7A023A122E02157
:10A39000DB05D20049048024995000216848A403B9
:10A3A00019501C50995074E7684D2868FEF7A2FCBC
:10A3B00011231C1B00D19EE0002800D09BE0012C43
:10A3C0000BD0C8306421604303F070FE5D4B002267
:10A3D000196841432868FEF705FCA0238021DB05AE
:10A3E00009047BE7A023B021DB054904A122D200A8
:10A3F00099500021524A99504BE7A021A120A02357
:10A400000027C9055B04C0004D4D0B504B4B4F510D
:10A41000CE58F0235B0473408026B60333406FD0E0
:10A420000E5028234F51022C62D014708BE7A023CA
:10A43000A122C021DB05D2004904C024995000218B
:10A440003F48E40319501C50995022E7A023A12251
:10A45000D021DB05D20049048024995000213848DE
:10A46000E40319501C50995013E7A023F021DB0599
:10A470004904BBE7A023A122DB05D200A02189E784
:10A48000A021A120A0230026C9055B04C0002C4CFC
:10A490000B502A4B0E51CD58F0235B046B408025A6
:10A4A000AD032B4034D00D500E5105231370254BB6
:10A4B00000221968244B49001868FEF793FBE8E670
:10A4C000A021A120A0230026C9055B04C0001C4CCC
:10A4D0000B501A4B0E51CD58F0235B046B40802576
:10A4E000AD032B4021D00D500E510623137009E708
:10A4F000163B147027E7A0238021DB05090475E7CC
:10A500004E510B500423022C8FD1023B14701AE7DA
:10A510000D510B50C9E70D510B500423042111E7D5
:10A520000D510B50022303210CE70D510B50DCE7BA
:10A5300038220020442200203CE2010004050000F3
:10A540000C050000242200203C22002020220020B4
:10A5500010B50378112B15D0122B15D0132B03D067
:10A560000322142B01D010BD022253009A18074B6E
:10A570009B1858780028F6D0054B1B68002BF2D0AA
:10A580009847F0E70022F0E70122EEE72C220020B6
:10A5900040220020002303280DD8A223A022DB00A4
:10A5A000D205D258054B8000C05801238340934305
:10A5B0005A1E9341DBB200200B7070471CE3010070
:10A5C00070B5CB4B04001B680020DB0700D470BDC6
:10A5D000172CFCD8C74AA300D3589F468021A0223D
:10A5E000C9030C00A120C44BD205D358C0009C4322
:10A5F0000B40C24914505350C14B00221B689900B4
:10A60000C918C04B1868FEF7EDFAE0E78021A022D8
:10A61000C9030C00A120B84BD205D358C0009C43FD
:10A620000B40B64914505350B54B00221968B54B36
:10A630001868FEF7D7FACAE7B34D2868FEF75AFB49
:10A6400011231C1B00D12EE1002800D02BE1012C8E
:10A650000BD0C8306421604303F028FDA84B0022D2
:10A66000196841432868FEF7BDFAA0238021A34A58
:10A67000DB05090499500021043A9950A7E7A0236B
:10A68000F021A122DB054904D200995000219B4A08
:10A690000020995012229D4B1A7098E7A023A12206
:10A6A000E021DB05D2004904802499500021934821
:10A6B000A40319501C5099501322944B00201A7077
:10A6C00085E7A023F0218D4ADB054904995000213C
:10A6D000043A99508D4B00201C7078E7A022B021DD
:10A6E000A123D2054904DB00D15000238349002077
:10A6F0005350864A13706AE7A022A121A0230026A6
:10A70000D2055B04C9007D4853507B4B1650D55889
:10A71000F0235B046B408025AD032B4000D1D5E0D6
:10A72000555028231650022C00D1DEE0774A1470D1
:10A73000734A116800225943724B1868FEF752FAA7
:10A7400045E7A023F0216D4ADB054904995000211B
:10A75000043A995000203AE7A023A122D021DB053A
:10A76000D20049048024995000216448E403195020
:10A770001C5099501422654B00201A7027E7A02224
:10A78000A121A0230025D2055B04C9005B485350DA
:10A79000594B1550D458F0235B0463408024A40324
:10A7A000234000D18AE0545008231550032117E0BC
:10A7B000A022A121A0230025D2055B04C9004F4897
:10A7C00053504D4B1550D458F0235B046340802404
:10A7D000A403234000D181E02823545015500421C4
:10A7E0004A4A1170A4E7A023A122A021DB05D200D0
:10A7F00049048024995000214048A40319501C505A
:10A8000099500722414B00201A70E0E6A023A122B4
:10A81000C021DB05D2004904C024995000213748EB
:10A82000E40319501C5099501522384B00201A701F
:10A83000CDE6A022A121A0230025D2055B04C900FA
:10A840002E4853502C4B1550D458F0235B046340D2
:10A850008024A403234036D05450155005222B4B9E
:10A860001A70274B00221968264B49001868FEF71A
:10A87000B9F9ACE6A022A121A0230025D2055B04F2
:10A88000C9001E4853501C4B1550D458F0235B048C
:10A8900063408024A403234024D054501550062242
:10A8A0001A4B1A70C0E6A0238021A122DB050904FF
:10A8B000D20099500021114A995088E61450535003
:10A8C000022303218CE714505350C7E7155053500F
:10A8D0000423022C00D029E7023B27E714505350F1
:10A8E00004237CE714505350D9E7163B1EE7C046BB
:10A8F000382200209CE20100040500000C05000045
:10A90000242200203C22002020220020442200207B
:10A91000234B10B51960234B04001860224B1A60BA
:10A92000830712D50D22214B21481A700132DA70AB
:10A9300001329A7101325A724A080421FDF7C2FCB1
:10A94000002820D0E30703D410BD0020E3070DD575
:10A95000A023F022A1210024DB055204C9005A5093
:10A9600014495C500C315A500028EDD1124A002194
:10A970001248FEF703F90028E6D1114A01211148D7
:10A98000FEF7FCF8E0E7FDF7F5FC0028DAD10E4A07
:10A9900000210E48FEF7F2F8E307D9D4E4E7C046F9
:10A9A0002422002038220020402200202C220020D7
:10A9B000FCE201000C05000089A201003C220020FD
:10A9C00091A101002022002051A501002822002091
:10A9D00003000720032B00D97047012A13D0012957
:10A9E00017D0002908D0022919D15800C0180D4BE2
:10A9F0001B185A700020EFE75800C018094B1B18AD
:10AA00009A700020E8E700220129E8D11A000D32EF
:10AA1000D2B258000349C3185A540020DCE707207B
:10AA2000DAE7C0462C220020E0231D4ADB00D35881
:10AA30001C4A1A400023C10701D5C0239B021343BF
:10AA4000E0221749D2008B50174B9B58154A1A40E9
:10AA50000023810701D5C0239B021343E022124942
:10AA6000D2008B50114B9B580E4A1A4000234107CD
:10AA700001D5C0239B021343E0220C49D2008B5026
:10AA80000B4B9B58074A1A400023010701D5C023EE
:10AA90009B021343E0220649D20000208B507047EE
:10AAA00044000050FFFFFCFF480000504C000050E5
:10AAB0005000005010B50320FFF7B6FF002801D06A
:10AAC000062800D010BD0020FCE7C04610B5038862
:10AAD000102B08D0112B05D1294A1368013B1360B4
:10AAE000002B07D010BD264C2368002B11D001335A
:10AAF0002360F7E7012202210020FFF769FF002809
:10AB00002BD0072829D01F4B1B68002BEAD0984771
:10AB1000E8E7012200210020FFF75AFF002808D0B3
:10AB2000072806D0174B1B68002B00D098472368D6
:10AB3000DDE7072202210120FFF74AFF002801D0AC
:10AB40000728EFD1042202210020FFF741FF00284F
:10AB5000EDD00728E6D12368C9E7072202210120AA
:10AB6000FFF736FF002801D00728CCD10A220021A8
:10AB70000020FFF72DFF0028B4D00728C3D1B1E78C
:10AB8000502200204C22002010B5234B82B00C1E16
:10AB9000186018D06B460020991DFFF7FBFC0028B9
:10ABA00001D002B010BD6B460130D91DFFF7F2FC99
:10ABB0000028F6D16B46DB79002B26D16B469B79BA
:10ABC000002B25D12370154B1B68002B01D00020D2
:10ABD000E7E7012202210020FFF7FAFE002801D05A
:10ABE0000728DED1072202210120FFF7F1FE00280D
:10ABF00001D00728D5D10A2200210020FFF7E8FE66
:10AC00000028E4D00728CCD1E1E702232370DAE75B
:10AC10000B232370D7E7C0464C220020502200208F
:10AC200076DF704778DF70477ADF70477CDF7047E8
:10AC300060DF70473CDF704748DF704710B5002287
:10AC40000021FDF7AFFB10BD10B50B490B48FEF717
:10AC5000CBF8C1B20A4801F065FC082302009A4310
:10AC600009D0084B984206D0074B984203D00022E7
:10AC70000021FDF797FB10BD7025002080250020E6
:10AC800058250020043000000134000010B50400F5
:10AC9000FEF71EFF200001F0BFFA10BD10B5040042
:10ACA0000100204801F082FC21001F4801F024FB34
:10ACB000200001F073FF200002F03CFD2000FFF7B0
:10ACC00005FF2388112B1FD0552B0ED0102B03D03E
:10ACD000200001F0F7F910BD0720FFF771FC0028F4
:10ACE0001AD1A288114B1A80F2E7A379002BEFD179
:10ACF0000E4B13211888FFF793FF0028E8D000229D
:10AD00000021FDF74FFBE3E70122084B52421A8076
:10AD10000022074B1A70DBE700220021FDF742FBFF
:10AD2000DFE7C0468C250020582500206C2000203D
:10AD3000A825002010B50378002B00D010BD064BCD
:10AD40003B211888FFF76CFF0028F7D00022002174
:10AD5000FDF728FBF2E7C0466C200020F0B5CE4698
:10AD60004746002380B58BB001AC2370324B1D7871
:10AD700099460123002D03D0AB1E5A425341DBB24A
:10AD8000002763703A000123AB427A4116202B4B17
:10AD9000A2702A019E18D35C7188A371F388218167
:10ADA000A38133790822A372738968442382337A9A
:10ADB000E770A373224B27711900984603F011FA2C
:10ADC000F3890135A383337BEDB2A3764B46042D83
:10ADD00030D01D7043469A7913001B33DBB23B2BF6
:10ADE0001CD94346213A9A715B790133DBB23B2B84
:10ADF00000D90023424621001248537101F054FD4E
:10AE0000002813D0082804D10BB00CBC90469946FA
:10AE1000F0BD00220021FDF7C5FAF5E7424621000A
:10AE20000848937101F040FD0028EBD10122064B48
:10AE30001A70E9E71F70CDE7EC250020AC25002053
:10AE4000702000208C250020A825002010B582B09D
:10AE5000072838D02BD90A2817D00D2813D1244B16
:10AE60001A88244B9A420ED06B46DC1D21002248E2
:10AE700001F0B2FD002836D12378002B03D01F4B00
:10AE80001B78002B2CD002B010BD0020FFF798FBE0
:10AE9000002820D1FFF70EFE002817D1FFF7CAFEC9
:10AEA0000028F0D000220021FDF77CFAEBE704280F
:10AEB000E9D10F4B13211888FFF7B2FE08230200D7
:10AEC0009A43E0D0EEE701F0D1F9F7E70022002144
:10AED000FDF768FAE2E700220021FDF763FAD9E7FF
:10AEE000FFF73CFFCFE700220021FDF75BFAC3E745
:10AEF0006C200020FFFF00008C250020A8250020EA
:10AF000010B5002806D0022803D1FFF759FB00280E
:10AF10000DD110BD0020FFF753FB00280CD1FFF727
:10AF2000C9FD00280DD1FFF785FE0028F1D00022D1
:10AF30000021FDF737FAECE700220021FDF732FA95
:10AF4000EDE700220021FDF72DFAECE710B50B78B4
:10AF500082B0002B06D0022B02D100220D4B1A70BA
:10AF600002B010BD6B46DC1D21000B4801F034FD22
:10AF7000002809D12378002BF2D0064B1B78002B38
:10AF8000EED1FFF7EBFEEBE700220021FDF70AFA16
:10AF9000F0E7C046A82500208C25002030B5100021
:10AFA00083B00C00002A23D12378152B02D0002077
:10AFB00003B030BD6B46164D9C1D2100280001F0EA
:10AFC0000BFD002819D12378002BF0D06B46DC1D37
:10AFD0002100280001F000FD002813D12378002B68
:10AFE000E5D00C4B1B78002BE1D1FFF7B7FEDEE775
:10AFF00000220021FDF7D6F9D6E700220021FDF757
:10B00000D1F9E0E700220021FDF7CCF9E6E7C046E0
:10B010008C250020A825002010B50A000100024858
:10B02000FDF7C0F910BDC046EFBEADDEF0B5C646B7
:10B03000002300B5A2B000930522EB4B06210020AF
:10B04000FDF718FD002803D000220021FDF7AAF922
:10B05000E64EE74A01213000FDF790FD002803D0BD
:10B0600000220021FDF79EF9E24AE3490320FFF7A1
:10B070004FFC002803D000220021FDF793F912AC09
:10B0800021000020FFF780FD002803D000220021CE
:10B09000FDF788F927784822023F7B425F41D74974
:10B0A00000230820FFB202F083FF002803D0002213
:10B0B0000021FDF777F9082200212000FDF776F83E
:10B0C00001222378200093432370FFF7B1FD00286D
:10B0D00003D000220021FDF765F9C94802F08EFF78
:10B0E000002803D000220021FDF75CF9C54802F0DA
:10B0F0008FFF002803D000220021FDF753F90AAD8D
:10B100002F70FEF7A9FD002803D000220021FDF7D3
:10B1100049F9280002F034FA002803D00022002167
:10B12000FDF740F94D20052200216844FDF73EF867
:10B130000122637921001343E12213400C221343BF
:10B14000CD22134063710723A3710933E371AE4B22
:10B15000AE4812930123237102F0AEFA002803D007
:10B1600000220021FDF71EF90F2301212A78A84FA4
:10B170009A430A4313401022380013432B7003F004
:10B1800039F8390082B22800FFF750FD002803D0BB
:10B1900000220021FDF706F9E0208000FFF742FDC4
:10B1A000002803D000220021FDF7FCF8082200212E
:10B1B0002000FCF7FBFF974B20001293C8235B0491
:10B1C0001393FFF731FD002803D000220021FDF783
:10B1D000E9F8302200212000FCF7E8FF02230127D4
:10B1E00023700433E370033B23828B4B2022002126
:10B1F00028006361A770FCF7D9FF2823EB608C332C
:10B200002B6100232F722A0000930021834B200022
:10B2100000F07CFE002803D000220021FDF7C2F8D8
:10B2200003AF0C2200213800FCF7C0FF7C4B0F223B
:10B2300003931123012120207B813B7993430B430E
:10B24000134003433B7100237B71BB71FB7975484D
:10B2500093430B431A4010231A4300233900FA7119
:10B260003B7201F0DDF9002803D000220021FDF738
:10B2700099F8142200212800FCF798FF0F230120E1
:10B2800010216A7B9A4302431A400A436A73AA7BDD
:10B290009A4302431A400A43AA730022EA732A7CA3
:10B2A0009A43104303400B432B74002301220A935B
:10B2B000AB60290064335C482A712B7301F048F8B5
:10B2C000002803D000220021FDF76CF84022002165
:10B2D0002000FCF76BFF5549200001F0A3FE544904
:10B2E00014A801F09FFE1121524806AB0690079169
:10B2F0003C2123630F2301204F4A0892625C9A434A
:10B300000243134010221343635400223D232000C4
:10B31000E25401F007FD002803D000220021FDF7D0
:10B3200041F851236427454998460B604448503BF7
:10B330008B600B734F60FDF74BFD7921414B00256E
:10B3400059824146D9826A21752259832239D9838B
:10B35000423159846A395D543831D98434395D5465
:10B360005431598550395D544131D9853D395D5449
:10B370006531598661395D5404315D545A804F31CD
:10B38000293ADA8059871B324B395A815D542B3A5E
:10B390004531DA81D9871D701D711D721D731D74B1
:10B3A0001D751D761D77DF8600219D542000203AF3
:10B3B000FCF7FCFEA0239B026360F0231B03A36049
:10B3C00003232373002323741F4B200063611F4B4F
:10B3D0001295E581A36101F0A5FB002838D0002279
:10B3E0000021FCF7DFFF33E05422002088250020F5
:10B3F00049AC01004DAE0100CD0C00000C25002031
:10B400009DAC01008DAC01009DAF010054250020D2
:10B410002CE30100900120036020002001AF010017
:10B420004DAF01008C2500205825002038E3010095
:10B430004CE30100554433228877660070250020D4
:10B4400080250020AC25002035AD01003DAC010079
:10B450008021306800224902FDF7C4FB002803D098
:10B4600000220021FCF79EFF022000F00DFE0028C4
:10B4700003D1FFF7E1FB0028FBD000220021FCF7FD
:10B4800091FFF6E772DF704779DF70477DDF704725
:10B4900065DF7047F0B54E46DE4645465746E0B597
:10B4A00085B09B460E9B060099461B780091019340
:10B4B00003889046002B63D000239A4602AB0024F9
:10B4C000DD1C03E033880134A3422DDD7368A10045
:10B4D0009C460422614403A802F083FE0022290056
:10B4E00003A8FFF7D5FF071E28D12B784345E9D1E4
:10B4F0005346002B2AD04B461A784346D3181F2BAD
:10B5000040DC5A44290003A8FFF7C2FF002835D1C8
:10B510004B462A781B7801349B184A461370012346
:10B520009A463388A342D1DC5346002B28D04B46A1
:10B5300059461B78019A013B9B1A8B54380005B081
:10B540003CBC90469946A246AB46F0BD4B464246AF
:10B550001B789A181D2A15DC49469A1C0A70694600
:10B560005A4609780133DBB2D1544B461A78290088
:10B570005A4403A8FFF78CFF0028C9D00700DDE775
:10B580000027DBE70C27D9E7F0B557464546DE46EE
:10B590004E460023E0B597B005AD02AA04000F00A7
:10B5A0002B70537300284CD0C278530741D50378D1
:10B5B000002B00D071E28378002B00D0C3E200237F
:10B5C00006AE0221F154991CC9B288460121581CCB
:10B5D000C0B2315441460333DBB22B7072546268FF
:10B5E000002A0ED01C2B22D80021515602220A20FC
:10B5F000F2545A1CD2B2B054DA1C0233DBB22A70B5
:10B60000F1542389002B00D03EE1238A002B00D087
:10B6100013E2238B002B00D027E2226A002A00D1FC
:10B62000FDE02B78991D8A461F2900D8AFE00C2039
:10B6300000E0072017B03CBC90469946A246AB46B6
:10B64000F0BD00239946002F00D178E2FB78002B53
:10B65000EFD102AA53733B78002B00D076E2BB787F
:10B66000002B00D026E37A68002A00D0D1E13B8984
:10B67000002B00D063E13B8A002B00D080E13B8BA4
:10B68000002B00D0A4E13A6A002A40D002AB5B7BD9
:10B69000991D1F29CBD810880528CAD9C94CCA4E74
:10B6A0000419A4B2B046B442C3D95488A246052CAA
:10B6B000BFD9C44E6C46B446D4446646A681A6891A
:10B6C0004645B6D9C14EB04203D0B24501D050452F
:10B6D000AFD80EA8804605204446E054981CC0B25E
:10B6E00002AC60738446122640465C1CE4B20655E8
:10B6F0006046148840440470240A447050881A1D1F
:10B70000D2B24244107002AB000A507059737C6A86
:10B71000002C2ED002AB20795A7B831C911CDBB20B
:10B72000CB181F2B00DD82E70EAB984603309854F0
:10B730004646FF20C9B202AB5973531CDBB2F0542A
:10B74000238841440B7004321B0A4B70D0B202AB09
:10B750005873A288002A0CD0A168002900D168E79C
:10B76000404402F03EFD02AA527BA3889B1802AA25
:10B7700053732C23FB5C0393002B00D054E202ABE9
:10B780005B7B0EAA29784846FFF77CFE52E71188BA
:10B790008B46052900D84CE78A4968468C46DC442C
:10B7A0006146818181898C46874988468C4500D8CD
:10B7B0003FE751888C46052900D83AE78149614422
:10B7C00081818189414500D833E780498B4504D088
:10B7D0008C4502D0E34500D92BE70520F054981C96
:10B7E000C1B2684629708946591C0173017B043334
:10B7F0008C46122188466146404670541188DBB25F
:10B800008C4649467018614601706146090A4170CC
:10B810005288F3181A70120A5A7053462B70636AD2
:10B820009846002B29D018792A78831C911CDBB20A
:10B83000CB181F2B00DDFAE60330B054FF20531C59
:10B84000DBB2F0544346C9B229701B8871180B70E3
:10B850001B0A4B7043460432D0B228709A88002AE3
:10B860000BD09968002900D1E3E6301802F0B9FC4A
:10B8700043462A789B889B182B702C23E35C9C46BC
:10B88000002B19D1B146DEE608239846A044009566
:10B890003300022202214046FFF7FCFD002800D0C1
:10B8A000C8E600953300102206214046FFF7F2FD5E
:10B8B000002800D1A9E6BDE6A36A002B00D1B8E6B6
:10B8C000002291461632924616322878934600E0BE
:10B8D000A36A4A46984652004A449200904443461E
:10B8E00051469B88421C0333D2B23354B154424672
:10B8F000831CDBB22B701288F3181A70120A5A706C
:10B9000043460430C0B228709A88002A0FD0996844
:10B91000002900D18DE6301802F063FC4346988878
:10B920002B78C0185B46E35CC0B29C4628704B463F
:10B930000133DBB299466345CAD3B14683E60EAB09
:10B9400002AA984694463C000D23083463440093B1
:10B950000222434602212000FFF79CFD002800D070
:10B9600068E602AA94460D236344009310224346DE
:10B9700006212000FFF78EFD002800D17BE659E666
:10B980000EAB02AA984694463C000D231034634443
:10B9900000930222434603212000FFF77BFD00288D
:10B9A00000D047E602AA94460D2363440093102278
:10B9B000434607212000FFF76DFD002800D15EE619
:10B9C00038E6C0467FF3FFFF7DF30000FFFF000075
:10B9D0000EAB02AA984694463C000D2318346344EB
:10B9E00000930222434614212000FFF753FD002854
:10B9F00000D01FE602AA94460D2363440093102250
:10BA0000434615212000FFF745FD002800D13AE606
:10BA100010E60EA900238846002140465156022216
:10BA20004446C2540A205A1CD2B2A054DA1C023333
:10BA300002A8DBB24273E15419E610239846A044F1
:10BA400000953300022203214046FFF723FD002822
:10BA500000D0EFE500953300102207214046FFF7A4
:10BA600019FD002800D1D4E5E4E518239846A04448
:10BA700000953300022214214046FFF70BFD0028F9
:10BA800000D0D7E500953300102215214046FFF77E
:10BA900001FD002800D1C0E5CCE563780C201D2B0A
:10BAA00000DDC7E50EAB98461D234246138002AB6E
:10BAB0009C46063041466044FFF7E8FC002800D071
:10BAC000B8E52378022B00D1F9E06378002B03D08E
:10BAD0009BB208221D2B02D9434608221B8806AEC2
:10BAE00072702A78DBB20232591C9B18DBB23170BB
:10BAF0002B70A278002A04D1E278002A00D16EE5EA
:10BB00005FE50C201B2B00D994E54046FFF7BCFCF9
:10BB1000002800D08EE5032219212B7806AEF254BE
:10BB20005A1CD2B2B154424611889A1CD2B2B218F1
:10BB300004331170DBB2090A51702B70DCE702ABE1
:10BB40005B7B00221EE60EAB9846DEE77B780C207E
:10BB50001D2B00DD6EE502AB9C460E241D236444C4
:10BB60002630210060442380FFF790FC002800D09D
:10BB700060E53B78022B00D1A8E07B78002B03D056
:10BB80009BB208221D2B01D9082223880EA98846C2
:10BB90004046427002AA527BDBB20232591C9B180B
:10BBA000DBB202AA01705373BA78002A1AD1FC786A
:10BBB000002C0ED00222414646460120CA54591C90
:10BBC0009A1CC9B203337054D2B2DBB202A94B73D0
:10BBD000B4547A68002A00D149E51C2B00D81BE731
:10BBE0000C2027E50C201B2B00D923E52000FFF7B4
:10BBF0004BFC002800D01DE50EAA904603224146CA
:10BC000002AB5B7B4046CA5419215A1CD2B2815404
:10BC10009A1C2188D2B2424411700433090A51702F
:10BC2000DBB202AA5373C2E7BC6A002C00D100E564
:10BC30000EAA9046162202AB924616325B7B002675
:10BC4000934600E0BC6A4046720092199200A41824
:10BC5000A28841460332C2549A1CD2B202A842734F
:10BC600094465246581CC0B20A5462462088424448
:10BC700010700433000A5070DBB202AA5373A2881A
:10BC8000002A10D0A168002900D1D2E44344180052
:10BC900002F0A7FA02AAA388507B1B18DBB25373E9
:10BCA0005A46BA5C03920136039AF6B29642C9D359
:10BCB000424667E502AB0E249C46644496E7434641
:10BCC0001B8809221D2B00D809E7FEE623880922DC
:10BCD0001D2B00D85AE750E773DF704774DF7047B9
:10BCE000F0B5C64600B57F4B86B01800072200218C
:10BCF0009846FCF75BFA7C4C7C4E637835787C4F39
:10BD0000002B32D0012D00D1A6E0237A3A68002B17
:10BD100001D1022D32D0237D002B43D0002A02D046
:10BD2000023D012D31D90022724B1A7018220021D8
:10BD30006846FCF73BFA00236A46137013723278A8
:10BD400001930393022A66D0032A43D0012A30D0FC
:10BD5000002A35D13B68002B3AD0674A10789847C3
:10BD6000002006B004BC9046F0BD012DCDD10223C9
:10BD70003370237A3A68002B00D09FE0032333709E
:10BD8000237D002B10D0002ACDD02378002BCAD0E1
:10BD90005A4B1B78002BC6D10121564B0620197037
:10BDA0009047C3E7032DB9D10023534A3370137072
:10BDB000B9E741460191694604934F4B0A701A70E6
:10BDC0006846FFF789FF0028CBD13B68002BC4D120
:10BDD0000020C6E76B46228B1A82A28B5A82484B00
:10BDE0001A79002A6CD02278002A6CD0434A127843
:10BDF000002A68D1694603930423023241480A723B
:10BE00000021C370FFF7C0FB0028AAD105223A4BDE
:10BE10001A7032789CE76B46228A5A82A2891A826B
:10BE2000374B1A79002A52D02278002A52D0334A4E
:10BE30001278002A4ED169460424023231480A722F
:10BE400000210393C470FFF79FFB002800D088E710
:10BE5000294B32781C707BE73A682B4B002A3DD087
:10BE600007201D7090473378012B39D163783A68E9
:10BE7000002B1DD043465B78002B00D04EE7434695
:10BE80009B78002B00D049E74346DB78002B00D09D
:10BE900044E743461B79002B00D03FE743465B79DC
:10BEA000002B00D03AE743469B79002B00D035E7C2
:10BEB00002233370237A002B00D15FE702252DE7A0
:10BEC0001A7B002A8FD103220B4B1A7078E71A7B5A
:10BED000002AA9D10222084B1A7071E71A70C9E72B
:10BEE0001D0012E77C260020F0250020EE25002012
:10BEF00048260020C8260020ED250020C926002065
:10BF0000B82600201026002078260020F8B504006E
:10BF10000E00002800D196E0002A00D193E0002016
:10BF20004A4908704A490B6006994A4B19604A49C8
:10BF30000B00A1CAA1C3A1CAA1C321CA21C3CB6856
:10BF4000002B00D074E000230B728B69002B00D112
:10BF500076E0CB69002B00D172E0072200213F4838
:10BF6000FCF724F93E4B3F4A3F4D1A603F4A0021FF
:10BF70009A6028003022FCF719F9237822002B70F0
:10BF8000A3781032AB70E378EB7063786B702B00A2
:10BF9000103303CA03C32B00103A083303CA03C388
:10BFA0002B000832183303CA03C3636A002B11D075
:10BFB0002F4B304F6B62616A9F600A881A808888B5
:10BFC0009880002806D000238A68D25CFA54013396
:10BFD0008342F9D1A36A002B14D0274B274FAB62C1
:10BFE000A06A9F608188998002881A8000230029B6
:10BFF00005D08268D25CFA5401338B42F9D12C23EC
:10C00000E25CEA54236A002B06D01D4B2B62226AA5
:10C010005188598012881A806368002B03D0194B0D
:10C020006B6063686B6031002800FFF7ADFAF8BD04
:10C030000B69002B00D186E78B69002B00D088E7C5
:10C0400000230B7589E70E20F1E7C046EE2500209E
:10C050004826002044260020F02500207C260020D1
:10C06000B8260020CC26002010260020EC26002038
:10C070006C2600204C2600208426002090260020DC
:10C08000B0260020B426002010B500240B4B82B04F
:10C09000187001A80194FEF767F8082809D0002855
:10C0A00005D1019B002B05D00122054B1A7002B06F
:10C0B00010BD0194FFF714FEF9E7C046EE250020FD
:10C0C0004026002030B5038883B0112B3DD0192BBA
:10C0D00007D0102B01D003B030BD8288444B1A80AA
:10C0E000F9E78479002CF6D1424A1378022B49D023
:10C0F000032B5DD0012BEED13F480178002912D0EF
:10C100003E4B5C78002C5DD19C78002C5AD1DC78B9
:10C11000002C57D11C79002C54D15C79002C51D1C2
:10C120009B79002B4ED10223002401A813700194A7
:10C13000FEF71AF808282FD0002832D1019B002BD7
:10C140002BD001222E4B1A70C5E700242D4B1C70FA
:10C150002D4B5A68284B1A70254B82881B889A42AF
:10C16000B9D10125234B01A81D700194FDF7FCFFF7
:10C17000082811D0002814D1019B002B0DD0204B92
:10C180001D70A8E7214901A80B70032313700194C7
:10C19000FDF7EAFF0828CFD10194FFF7A1FD0028A1
:10C1A00099D01B4B1B68002B00D194E7984792E76E
:10C1B000164B1C70174B1B68002B00D18BE700201F
:10C1C000984788E7012400250139017001A81470FF
:10C1D0000195FDF7C9FF082807D00028E1D1019B90
:10C1E000002BDAD0064B1C7075E70195D5E7C046E9
:10C1F00078200020EE250020412600207C2600200B
:10C2000040260020C9260020F0250020ED25002032
:10C21000442600204826002030B5023883B001288B
:10C2200003D8104C2378002B01D103B030BD00257A
:10C2300001A825700195FDF797FF082807D0002871
:10C240000AD1019B002B03D001232370EDE7019558
:10C25000FFF746FD0028E8D0034B1B68002BE4D015
:10C260009847E2E7402600204426002030B5184BCE
:10C2700083B01B78002B22D0164C2378002B1ED1C4
:10C28000154B1B78002B1DD101252570002401A81A
:10C290000194FDF769FF082807D000280AD1019B07
:10C2A000002B03D00D4B1D700AE00194FFF718FD21
:10C2B000002804D00A4B1B68002B00D098470020B0
:10C2C00003B030BDFFF70AFD0028DDD0F8E7C04617
:10C2D000F0250020C9260020EE2500204026002061
:10C2E00044260020A0DF7047A2DF7047A3DF70471D
:10C2F000A4DF7047A6DF704730B50B8883B0112BE1
:10C3000022D0502B06D0102B01D003B030BD8B882B
:10C310004382FAE7037D002BF7D0CA8843899A420B
:10C32000F3D1CB8B022BF0D10468002CEDD020226E
:10C330001F33CB5C8A5C1B021A43012301AD93437C
:10C340002B702900A047E0E701235B424382DCE732
:10C35000F0B5DE4657464E464546E0B50B6895B00B
:10C36000036001235B4243820A798946037406A96C
:10C3700002338B70684B02750700021D01200B8091
:10C38000FFF7B0FF051E07D0280015B03CBC904653
:10C390009946A246AB46F0BD3B7D002B00D0A1E004
:10C3A0000DAD1C2200212800FBF700FF02232A7894
:10C3B000397D1A43013B18009A46D3B21022084037
:10C3C0009343000103432B70002390464A1E914182
:10C3D0009B466B60EB602B61494204AB0B406B6189
:10C3E0005B465246AB6102AB9A754C4B05AE02AA56
:10C3F0009382002103223000FBF7D8FE4B469B7B43
:10C40000062233704B46DB7B08AC7370B378002197
:10C410009343043A1343DBB20632934342469343B9
:10C4200052469343B3704B461B7B02AAD370200045
:10C430001422FBF7BBFE07AB0893534623815B46F0
:10C4400063815346A38102AB0333236166602900F5
:10C45000BB1DB8882200FFF747FF051E94D14B464D
:10C460009B68002B3CD0012302AA93752C4B002122
:10C47000938230000322FBF799FE4B461B7C062279
:10C48000337000237370B3789343043A1343DBB2E1
:10C49000063293434246934352469343B3704B460E
:10C4A000996803AB1800994600F0B6FD8046142247
:10C4B00000212000FBF77AFE07AB23606A46434663
:10C4C000D3804B46D0883A00658166602081A08188
:10C4D00023610E32F8882100FFF708FF050053E7BB
:10C4E000F88151E704AC032200212000FBF75EFE37
:10C4F0000F23012122789A430A4313401022134349
:10C5000023704B4606225B7B6370A3789343022221
:10C510001343A37044E7C0460F180000192A000017
:10C520000829000070B588B06B46D971DD1D037C09
:10C53000040000208B4218D001260822002102A806
:10C54000FBF734FE2B78E1882374608A02AA0296F6
:10C550000395FFF7CDFE002807D1628A0E4B083005
:10C560009A4202D0237D002B01D108B070BD04ADEA
:10C57000102200212800FBF719FEE388AE702B8003
:10C580006B465B892900AB8002ABAB60039BEB6021
:10C59000608AFFF7AFFEE8E7FFFF0000A0DF70470B
:10C5A000A2DF7047A5DF7047A6DF704730B50B8864
:10C5B00083B0112B29D023D9502B07D0532B03D173
:10C5C000CA88C3889A4224D003B030BDCA88438940
:10C5D0009A42F9D1CB8B022BF6D10468002CF3D010
:10C5E0001F33CA5C013BCB5C1202134301225B0880
:10C5F0005340012201AD13402B702900A047E3E70F
:10C60000102BE1D18B88C382DEE701235B42C3821A
:10C61000DAE7022301A90B7003689847D4E7C04604
:10C62000F0B54546DE4657464E460123E0B50125A6
:10C630000A685B420260C3824B899FB00383974BB9
:10C64000021D81468A46012002A98D700B80FFF7EA
:10C65000A5FF01248046002807D040461FB03CBCFF
:10C6600090469946A246AB46F0BD0322002168469B
:10C67000FBF79CFD6B461A780F239A432243134025
:10C68000102213436A4613709378022293460627BA
:10C690005A46BB4313436A46937053461B790EAE0A
:10C6A000537000211C223000FBF780FD20223378DC
:10C6B00000211343337043467360F36033616B466C
:10C6C00073614346B3616B466A469D73744B01AD1B
:10C6D000938128000322FBF769FD5A46AB780021BD
:10C6E000BB431A4353465B7904AF2B7053469B7987
:10C6F00038006B70E72313401C43AC70142215AC58
:10C70000FBF754FD222200212000FBF74FFD03AB75
:10C71000049306237D602189E3560905090D1B0357
:10C720000B4309AD1BB26B701B0AAB700A23A189C6
:10C73000E3560905090D1B030B431BB2EB701B0AE3
:10C740002B710E23218AE35609051B03090D0B43A8
:10C750001BB26B711B0AAB7163782278002B00D07F
:10C7600086E0092307209846023BA17800290ED0D5
:10C7700004231A431A23A18BE35609051B03090D51
:10C780000B431BB2281803701B0A43704346E17821
:10C79000002905D00821A07F0A43591CE854CBB2D8
:10C7A0002179002908D010210A43218CE818017052
:10C7B0000233090A4170DBB23B8100237B811433D1
:10C7C0002A70BB814A464B463D61908806333A0049
:10C7D0003100FFF7E5FE8046002800D03DE71C222F
:10C7E00000212000FBF7E2FC022293465A46237800
:10C7F00000211343237043466360E3602361636158
:10C80000A3610123AB70274B032238002B80FBF779
:10C81000CDFC0622BB78002193435A461A43534667
:10C82000DB7930003B7053461B7A7B70E723134063
:10C83000012293431332BB70FBF7B8FC53466A46A0
:10C840005B890E9513731B0A53730223338143468E
:10C8500073810223B38103AB33614A464B46776051
:10C8600090880E3332002100FFF79AFE8046F4E6EE
:10C870005B461A43638AD2B2EB711B0A2B72237D8B
:10C880000E206B72637DAB72A37DEB72E37D2B7325
:10C89000237E6B7310239846023B66E71018000056
:10C8A000352A0000492A0000F0B5C64600B5494BBC
:10C8B000C28A05008AB008209A4203D10AB004BC9B
:10C8C0009046F0BD06230889CB560005000D1B03DA
:10C8D000034305AC1BB263701B0AA3700A2388894B
:10C8E000CB560005000D1B0303431BB2E3701B0A6C
:10C8F00023710E23088ACB5600051B03000D03434A
:10C900001BB263711B0AA3714B780A78002B4BD1C1
:10C910000926072007238F78002F0ED004231A43FF
:10C920001A238F8BCB563F051B033F0D3B431BB296
:10C93000201803701B0A43703300C878002805D004
:10C9400008208E7F0243581CE654C3B208790028A1
:10C9500008D01020098C0243E01801700233090A44
:10C960004170DBB29BB298466B469E1C434601AFBA
:10C9700022700021102238003380FBF717FCEB886F
:10C98000BE603B800223BB700023FC60BB80E88A52
:10C990003900FFF709FE002800D08FE733884345B0
:10C9A00000D18BE70C3089E702231A434B8A10260B
:10C9B000E3711B0A23720B00087D12336072487DFD
:10C9C000A072887DE072C87D20739B790E2063730E
:10C9D0000E23A0E7FFFF000030B585B00400082259
:10C9E0000D0002A80021FBF7E1FB022361890293FD
:10C9F000E08A01AB02AA0393FFF7D4FD002804D11B
:10CA00006B461B799B07DB0F2B7005B030BDC04612
:10CA100075DF704776DF70477ADF70477BDF7047DE
:10CA200010B5184B82B01888174B984214D0174A8B
:10CA3000174C13780133DBB21370217B99420DD26E
:10CA400000231370237C002B12D16369002B03D0C9
:10CA5000002201A80270984702B010BD0D49FFF7EF
:10CA6000D7FF0028F8D0A369002BF5D09847F3E74B
:10CA70003B21FFF7CFFF0028E7D0A369002BE4D0CC
:10CA80009847E2E70E270020FFFF00004027002024
:10CA9000102700203827002030B51C4B1C4A5B882B
:10CAA000118883B099420FD852889A420CD3194BFF
:10CAB0005B69002B03D0012201A802709847164C35
:10CAC0000023237003B030BD134C2378002B08D013
:10CAD000104B5B69002BF3D0002201A8027098472D
:10CAE000EEE70E4B0B4D1B78002B0CD0A9680C4BBE
:10CAF00000221868FCF776F80028E1D0AB69002B1B
:10CB0000DED09847DCE76968F1E7C04630270020AF
:10CB100038270020102700200C2700204027002065
:10CB20002C270020164902000B0070B532CA32C310
:10CB300032CA32C312681A600022124B01681A709E
:10CB4000002916D0104C0832200001F04AFB2000CA
:10CB5000FFF762FF00280BD101220C4B52421A80D2
:10CB600000220B4B00211A700A480B4AFCF706F80A
:10CB700070BD0548FFF752FF0028EDD0F8E7C0462A
:10CB8000102700200C270020382700200E27002027
:10CB9000402700202C27002021CA010010B503885F
:10CBA000112B36D022D9122B18D0502B1DD1224C4C
:10CBB000C288E3899A4218D1C38B022B15D11E3348
:10CBC000C35CDB070FD41D4B1868FCF793F80028F3
:10CBD0000BD0A369002B08D0984706E0811D0822DE
:10CBE000174801F0FEFAFFF757FF10BD102BFCD1DC
:10CBF00001008288134B16311A801148082201F077
:10CC0000F0FA0022104B1A700B4BDB89002BECD191
:10CC1000E9E701220B4B52421A8000220A4B1A709C
:10CC2000064B1868FCF766F80028DED0024B9B69BB
:10CC3000002BDAD09847D8E7102700202C270020B7
:10CC4000302700200E27002040270020A0DF70475B
:10CC5000A2DF7047F0B557464E464546DE46E0B582
:10CC600091B00190894690469A46002951D043469A
:10CC7000002B04D1002200210020FBF793FB0225AA
:10CC800009AC1C2200212000FBF790FA237803AFA7
:10CC90002B43237001239B46BB706B4600269B8869
:10CCA0000322002102A83B806660E660266166617F
:10CCB000A661FBF77BFA53461B7802AA1370534612
:10CCC0005B78002153709378062293432B43E7252A
:10CCD0001D405B469D4302AB9D7004AD0E322800A3
:10CCE000FBF764FA02AB6B6043462B81AB814B468A
:10CCF0002B610B4B2A00188821001A9B04976E8128
:10CD0000FFF7A6FF11B03CBC90469946A246AB4641
:10CD1000F0BD002200210020FBF744FBA7E7C0463E
:10CD20007C270020F0B55746DE4645464E46012397
:10CD3000E0B595B004A98B70A34B05000B80A34B05
:10CD400001201A009A46FFF781FF071E00D0E6E097
:10CD50002A88002A00D0F7E02A89002A00D001E1C1
:10CD60002A8A002A00D009E12A8B002A00D011E18A
:10CD70002A8C002A00D019E12A8D002A00D0D6E0A2
:10CD80002B6B002B64D06A4619780226117669460F
:10CD90001A680DAC120A4A765A8820008A76DA7828
:10CDA000CA766A461979117769469B6853771A0AD9
:10CDB0001B0C8A77CB771C220021FBF7F7F923782D
:10CDC00000213343237000239B466360E3602361AB
:10CDD0006361A361013399466B464A469A756A4678
:10CDE0007B4B03A893820322FBF7E0F93C236A46BE
:10CDF000EB5C002113732B003C335B785373937B04
:10CE0000062293431E430823F6B298469E430833F6
:10CE10009E434B469E436B469E7308AE0E323000D7
:10CE2000FBF7C4F905AB089303AB7360434633814A
:10CE30005B4673814346B38106AB33615346320090
:10CE400018882100634BFFF703FF002800D079E02A
:10CE50006B6B002B0AD01A7919685F4B5F480093FF
:10CE60002B003C33FFF7F6FE00286BD1AB6B002B99
:10CE700055D0694602261A780DAC0A765A882000E9
:10CE80004A76120A8A769A8803AFCA76120A0A7715
:10CE9000DB881C224B771B0A8B770021FBF786F976
:10CEA0002378002133432370002399466360E360B5
:10CEB00023616361A36101339B466B465A469A75B1
:10CEC0006A46474B380093820322FBF76FF93C23F5
:10CED000EB5C06223B702B003C335B7800217B70BF
:10CEE000BB7893433343E7261E405B469E43BE70A8
:10CEF00008AE0E323000FBF759F905AB0893072353
:10CF00003381B38106AB4A46336153467281188838
:10CF10003200344B21007760FFF79AFE070038009B
:10CF200015B03CBC90469946A246AB46F0BD2E4B90
:10CF3000E96A00932B002D483C33FFF78BFE002855
:10CF400000D11DE70700EAE7294B696800932B0031
:10CF500028483C33FFF77EFE0028F3D12A89002AB7
:10CF600000D1FDE6244BE96800932B0023483C33B5
:10CF7000FFF770FE002800D1F2E6E3E7204B696975
:10CF800000932B001F483C33FFF764FE002800D1BC
:10CF9000EAE6D7E71C4BE96900932B001B483C33BA
:10CFA000FFF758FE002800D1E2E6CBE7184B696A8C
:10CFB00000932B0017483C33FFF74CFE002800D1AC
:10CFC000DAE60700ABE7C0460A1800007C2700201D
:10CFD000232A0000882700206C2700202A2A00002E
:10CFE000502A00006427002080270020282A000003
:10CFF00054270020292A00005C270020242A000052
:10D0000074270020252A00004C270020272A000032
:10D0100044270020262A00000B7803704B784370C9
:10D020000220704770B5040008000D0001F0E2F81E
:10D030006560208070BDC0467FDF704782DF70472B
:10D04000A7DF7047A9DF7047AADF7047002070474D
:10D050000020704700207047F0B5C64600B5417803
:10D060002F4BCA00521892009C469B185C68060021
:10D07000002C0DD04B002B4D581880002818807ABA
:10D0800047B2002F1DDB002200249046002704E059
:10D0900000230027234D98464B005B189B00EB189C
:10D0A0001889424623003900FFF7CCFF0B2812D025
:10D0B000002804D1012C19D004BC9046F0BD1A48B8
:10D0C000F8E74006DFD4A0B2170080466046083774
:10D0D00067448458E1E77278390053009B189B003D
:10D0E000EB18188942460123FFF7ACFF72780C2138
:10D0F00053009B189B00ED1828890C4AFFF7A0FFEE
:10D100000028D9D002220A4BC318934305D008281F
:10D1100003D0112801D00020CEE70348CCE7C04659
:10D12000C4270020B827002041800000FFFF000036
:10D13000FECFFFFFF0B589B01A236A4653804A78C4
:10D140002D4D53009B186A469B00EB1806000C00FF
:10D1500018890232032301A9FFF776FF002802D0C5
:10D16000002009B0F0BD6B465A886378234FD80081
:10D17000C01880000830381801A901F023F80028F1
:10D1800027D06178CB005A189200BA185268002A4A
:10D1900030D11B4D03225B189B00FA506B4661781F
:10D1A0005A88CB005B189B00FB185A60637801A972
:10D1B000D800C01880000830381801F012F86078E4
:10D1C0003823C10009188900791824223000A847A3
:10D1D000C6E7607843001B189B00ED18AB7A9B07ED
:10D1E000BED4C30018188000381824220021FAF792
:10D1F000DDFFB5E7034DCDE7B8270020C4270020A9
:10D20000599F0100D59F010070B506004A780C4C6B
:10D21000D3009B189B000D00E01824223823310016
:10D22000FCF716FF002807D16A78D3009B189B00F3
:10D23000E4186368013300D070BD6060FCE7C0464D
:10D24000C4270020F0B54F464646D646C0B5454EE9
:10D250001F00336890B0824688469146002B46D026
:10D26000189B602B43D8404B6A46019300231374EC
:10D27000189B0997089300243C4D02E00134072CC9
:10D2800011D0A1B202AA2800FCF73EFE0028F5D179
:10D29000082202A9504600F095FF0028EED1E4B222
:10D2A00001ADAC7003E001ADAC78FF2C1FD043465C
:10D2B000042B2DD02E4BFB1AC32B1ED92D4BFB1A42
:10D2C0001B2B30D800236B700AAB099318230893EB
:10D2D00008334246032A3DD0022213436A461374A0
:10D2E00007AB05934A46336804A92800984710B055
:10D2F0001CBC90469946A246F0BD4B461E49002BE9
:10D300000BD00B680122A24093430B602023E0E77F
:10D31000189B602B23D04323E0E70122A2400B6837
:10D320001342E4D0EEE715483F1A232FDFD830230D
:10D330006A46137400236B700133EB70104B9A7ABA
:10D3400030239207C5D424220021FAF72FFF6B4621
:10D350001B7CBEE7012213436A461374C0E72323F4
:10D36000BCE7C0469027002000FFFFFFB828002040
:10D37000F42700209C270020F0270020C42700204D
:10D38000B827002000207047002070470020704719
:10D390000020704770B506004A780C4CD3009B18EB
:10D3A0009B000D00E018242238233100FCF750FECA
:10D3B000002807D16A78D3009B189B00E4186368A3
:10D3C000013300D070BD6060FCE7C046C427002078
:10D3D000F0B5C64600B541782F4BCA0052189200EE
:10D3E0009C469B185C680600002C0DD04B002B4D12
:10D3F000581880002818807A47B2002F20DB0022BE
:10D4000000249046002704E000230027234D98467F
:10D410004B005B189B00EB1818894246230039002B
:10D42000FFF710FE0B2815D0002803D0012C1CD0CC
:10D430001B4802E0012C18D0002004BC9046F0BD2F
:10D440004006DCD4A0B21700804660460837674427
:10D450008458DEE77278390053009B189B00EB1864
:10D46000188942460123FFF7EDFD72780C21530025
:10D470009B189B00ED1828890A4AFFF7E1FD002858
:10D48000DAD00222084BC3189343D1D00828CFD05A
:10D490001128D1D10248D0E7C4270020B8270020A6
:10D4A00041800000FFFF0000FECFFFFFF0B589B014
:10D4B0001A236A4653804A782D4D53009B186A46BA
:10D4C0009B00EB1806000C0018890232032301A907
:10D4D000FFF7BAFD002802D0002009B0F0BD6B466E
:10D4E0005A886378234FD800C01880000830381855
:10D4F00001A900F067FE002827D06178CB005A18F8
:10D500009200BA185268002A30D11B4D03225B18D2
:10D510009B00FA506B4661785A88CB005B189B00E1
:10D52000FB185A60637801A9D800C0188000083041
:10D53000381800F056FE60783823C10009188900B9
:10D54000791824223000A847C6E7607843001B18EA
:10D550009B00ED18AB7A9B07BED4C300181880005F
:10D56000381824220021FAF721FEB5E7034DCDE754
:10D57000B8270020C4270020599F0100D59F010033
:10D58000F0B5DE4657464E464546E0B587B00190B9
:10D5900000286AD000223D4B01261A605A729A7206
:10D5A00001233B4876428372073200210681C6720E
:10D5B000FAF7FCFD242200213648FAF7F7FD364B36
:10D5C00000259A461C00354BFF279846344B9B4656
:10D5D000012399462000062200211130FAF7E6FDCA
:10D5E000102220000021FAF7E1FD4B464246AB40F5
:10D5F000126827749A431300424613605B465E55D7
:10D600000135A77626831C34072DE3D1254B264D03
:10D610000393264B290002A80293FCF7D9FB0028AC
:10D620001CD14B46224E3370019B1B78002B1ED120
:10D630000024A1B204AA2800FCF766FC00230028FD
:10D640001ED11C2204A95046FCF702FD002819D166
:10D650001C239C460134E244072CEAD107B03CBCB1
:10D6600090469946A246AB46F0BD1248F6E702AB9B
:10D670009988DB882800594389B2FCF741FDEDE722
:10D680003370EBE700233370E8E7C04690270020B3
:10D69000B8270020C4270020F4270020F02700200E
:10D6A000E827002060000700B828002045D20100CC
:10D6B000EF2700200E800000F8B5194B05001B78FD
:10D6C0000C00002B01D11748F8BD00280AD0002912
:10D6D00008D00B68002B05D0134E3768002F03D0FD
:10D6E0001248F1E71248EFE73000053108C0052283
:10D6F00000F077FD23790220B37201230421327AEE
:10D700009A430243D2B28A4332720122F37913431D
:10D71000DBB20343DBB28B43F37100202F70D3E7FE
:10D72000EF270020088000009027002004800000E0
:10D730000E800000F0B5DE4657464E464546FF23B4
:10D74000E0B58FB00393B44B04001B78002B3FD09F
:10D75000B24F3B689846002B3AD005AD031D6B6075
:10D760002A232B81AE4B04930388102B00D16DE14B
:10D77000FF218288AB4E9446B27A8946910705D53F
:10D78000A9498C452BD03189614528D0113B9BB2EA
:10D79000412B1DD8A5499B00CB589F4613232B70C6
:10D7A0000023994604AB9A464A4629005046C04792
:10D7B0002B78122B0CD1B37A012B09D00123B37231
:10D7C000023B3381F372072200213000FAF7EEFCAE
:10D7D0000FB03CBC90469946A246AB46F0BDF17AEC
:10D7E000894604A98A4648468870002150464170FF
:10D7F000CCE701217B7A8A468B437B720423133169
:10D800009A43B2722970A179002900D0A0E1E17990
:10D810000B42C5D04B46FF2BC2D008231A43E37AF4
:10D82000B2729B070AD54B464A465146DB009B1A0B
:10D830007F4A9B00D3189A7E8A439A76F37AFF2B0D
:10D84000AED03378022B00D18CE2794B4A46984611
:10D850004B46DB009B1A31689B0043441961B18839
:10D860009A7E9982B179997502218A439A764B46BC
:10D870006A4608ACD380D1886E482200FCF744FB8E
:10D8800004AB9A46002836D15A7853009B189B0067
:10D89000F3189B7A5B0600D461E2674B99465346C6
:10D8A0009B781C22D900C91A89004144002320001A
:10D8B000C847002812D153465A78403053009B186D
:10D8C0009B00F318997A81439972D100891A5B4BB6
:10D8D000890059181C221C232000C84753461A7877
:10D8E000514653009B189B00FB189B7A544A9B009F
:10D8F0009B58200098473B6898460023994653E779
:10D90000A379112B02D1130700D5A1E180235B423B
:10D910001A4395332B7004AB9A46B272BB7A494ACC
:10D920009B009B58504698473B6898460023994671
:10D930003AE7BB7A434A9B009B5804A8984747E7BD
:10D94000022311009943B172120700D4D6E004AA51
:10D950004BB29246002B00DABFE11023B3720233C0
:10D960002B70002399461FE713232B7004231A43BF
:10D97000F37AB272FF2B00D0AEE02D4A9046927E31
:10D98000FF2A00D101E2362241468A5CFF2A00D1FB
:10D9900038E252228A5CFF2A00D135E26E228A5C8C
:10D9A000FF2A00D134E28A228A5CFF2A00D12DE2CC
:10D9B000A6228A5CFF2A00D12EE2C2228A5CFF2ABC
:10D9C00000D127E2204A91460022D900C91A8900D5
:10D9D0001A4B41440B920C910D92089309920A92B2
:10D9E000A0883A1D08AB0021FFF726FB002800D0D5
:10D9F000EEE63B68984604AB9A46D5E6F37AFF2BF1
:10DA000000D1B8E00A4B0D499846002342466046D3
:10DA1000FFF714FBDCE6C046EF270020902700202C
:10DA200000FFFFFFB8270020FFFF00005CE30100BC
:10DA3000F4270020B8280020D59F01009C27002053
:10DA400084E4010064E40100438000000122E14E0F
:10DA50009046B37A1A4200D1BAE60223B3720F336A
:10DA60002B7004AB9A4600235246537083880722DA
:10DA70003381831D19003000994600F0B2FB424605
:10DA8000237D1A4200D1C8E0D34A5B08D35CFF2B48
:10DA900000D11FE10A22039399B2B2725246F37287
:10DAA0009370CE4808AAFCF72FFA002800D022E78E
:10DAB00053465B7808A9D800C01AC94B80001818D3
:10DAC0001C221C23FCF7C4FABB7AC64A9B009B5855
:10DAD000514608A898470EE71623C3481A2200218A
