:020000021000EC
:108000000080002091DD0100D9DD0100DBDD0100F1
:108010000000000000000000000000000000000060
:10802000000000000000000000000000DDDD010095
:108030000000000000000000DFDD0100E1DD0100C4
:10804000E3DD0100E3DD0100298E0100E3DD010035
:10805000E3DD01000000000085920100E3DD010086
:10806000E3DD0100E3DD0100E3DD0100E3DD01000C
:10807000E3DD0100E3DD0100E3DD0100E3DD0100FC
:10808000E3DD010081840100E3DD0100E3DD0100A7
:1080900065850100E3DD01005DDD0100E3DD010038
:1080A000E3DD0100E3DD010000000000000000004E
:1080B00000000000000000000000000000000000C0
:1080C000164B002B00D1144B9D46402292029A1A67
:1080D000924600218B460F461348144A121A00F0AC
:1080E00065F80F4B002B00D098470E4B002B00D0AB
:1080F00098470020002104000D000D48002802D000
:108100000C4800E000BF00F02DF82000290002F02C
:10811000C3FE00F011F8C0460000080000800020F7
:10812000000000000000000070200020182900203E
:108130000000000000000000084B10B50400002BF8
:1081400002D0002100E000BF054B1868836A002BB5
:1081500000D09847200000F031F8C0460000000031
:1081600054DF010070B500260C4D0D4C641BA410AB
:10817000A64209D1002605F0E1FE0A4D0A4C641B17
:10818000A410A64205D170BDB300EB589847013644
:10819000EEE7B300EB5898470136F2E77020002075
:1081A0007020002070200020702000200300821822
:1081B000934200D1704719700133F9E7FEE7C046DA
:1081C000F8B54E46DE4657464546E0B5224B19788F
:1081D000994600292AD0214B00249846204B214F54
:1081E00001269A4603E00134E4B28C421ED2434693
:1081F0001B6832009C46E500654428783B68824055
:108200001342F0D093433B6001F032F833002A78F8
:108210005146934009680B40010091408B420BD0BE
:108220004B4601341978E4B28C42E0D33CBC904612
:108230009946A246AB46F8BD6B689B46002BEFD033
:10824000697801394B424B41191A4D424D4110009A
:10825000E9B2D847E4E7C04670200020842000201F
:108260007C20002080200020F8B5124D07002868EF
:1082700000F040FD002807D10124BC400E4E3368B9
:10828000234202D0A3433360F8BD380000F0F0FF72
:108290000A4A136800280BD0234313603368286808
:1082A0001C43074B00221968346000F09BFCEBE78D
:1082B000A343F2E778200020802000207C200020CB
:1082C00074200020F0B54746CE4680B50D0007006B
:1082D00083B014000720042A04D803B00CBC9046D5
:1082E0009946F0BD00F0AAFE00282DD0194B1A4A7D
:1082F0001F601A4B1D701A4B1C6000231360194A33
:108300006C1E1360E4B2002D18D0174B002699465E
:108310000323984601AD4246E300FB182A70AE7075
:10832000EE709A7818786A7029004A4600F08EFE3E
:108330000028D2D1013CE4B2FF2CECD10B4A002141
:108340000B4800F01BFCC8E700F03EFE0028CDD033
:10835000C3E7C046842000207C200020702000203D
:10836000742000208020002069820100C18101006A
:108370007820002070B5094D2B78002B0BD00024FD
:10838000074E3268E300985C012100F023FF2B7850
:108390000134A342F5D8002070BDC04670200020F3
:1083A00084200020BFF34F8F024A034BDA60BFF3F3
:1083B0004F8FFEE70400FA0500ED00E0030010B562
:1083C0009C888068DA68121A0420944200D210BD9A
:1083D000DA68002014401A681155DA680132DA6050
:1083E000F5E7C04610B58468C268030005209442D2
:1083F00009D09A68988802401868825C00200A7048
:108400009A6801329A6010BD80218023184A89023F
:10841000D1508022D221174B520289005A50403944
:108420005A5001222F205A600138C046C046C0462B
:10843000C046C046C046C046C046C046C046C0460C
:10844000C046F1D19A6000230B4A2F2013600138F7
:10845000C046C046C046C046C046C046C046C046EC
:10846000C046C046C046C046F1D1044A13707047AA
:1084700000E100E0001001409C2000208E20002040
:10848000A021F0B50022C6462C4B490000B55A5039
:1084900004315A5004315A5004315A504C395A5010
:1084A00004315A50264A17687A1C38D0254A0025CC
:1084B0009C58254B254E1B68E41A254B2402240AA0
:1084C000984601E07B1C1BD03268FB009446DB1908
:1084D0009B0063445A68A24212D8A41AAD181F6ABE
:1084E0009A69D96943461B68002B1BD01000984736
:1084F0000028E7D000220021FFF754FF7B1CE3D1C6
:108500001449154A0B7812789A420ED0134A9B00F0
:108510009D5080218023124A49035B00D15004BC46
:108520009046F0BD08009047CCE70132D3B2022B51
:1085300001D00B70EAE700230B70E7E70010014061
:10854000A0200020040500009C200020A82000207E
:1085500088200020992000209820002090200020D2
:1085600000E100E0F0B5DE4657464E464546E0B530
:10857000D34BD44A1B68D4498DB00593097813783E
:10858000994200D173E10133DBB2022B00D172E1D9
:108590001370CE4A9B009B58059A9C4662440293F6
:1085A0001302C74A1B0A136001230693C84B00201D
:1085B0001B681D000B93C74BAA461B781A00039338
:1085C000C54B93461B680493C44B1F68BC4B1B6888
:1085D0000993C34B1B780A930023079308930193D5
:1085E0005B46013BDBB29B46FF2B70D05B46DE0057
:1085F000049B9C466644337872789342F0D074684A
:108600005900A446C918B4780133C900DBB26144EB
:108610009C4238D00C78022C10D0032CEDD1691C70
:10862000EBD0EA0052199200BA18156A10756A1C4C
:10863000F7D101217278AA460191DEE749688C469C
:10864000CC006444A40039190091097D88460029B2
:10865000D3D06A1C13D0AC4500D104E16446290094
:108660009C46A94602E09C420FD01900CA0052184D
:108670009200BA18136A5D1CF5D163464D46009A04
:1086800010757278B9E70023C4E76346A446009CDE
:108690004D46A1468C450ED049464C68096A116288
:1086A0004A1CECD0CA0052189200BA1851685546BC
:1086B00009195160E3E7E9004919890079180D6A41
:1086C000691C00D1C3E04146AA460191E4E7019B41
:1086D000002B00D0D1E0089B002B00D0B1E1079B1C
:1086E000002B05D06A46282152187D4B12781A704B
:1086F000069B002B00D06BE10B9B5B1B5A1E93412A
:10870000DBB2069301235B429C46714A744B1268AC
:108710001B78029200220593694BA8461B680192C0
:1087200007939B46039B9146013BDBB20895664647
:108730000393FF2B00D1E2E0049A45469246DB000A
:108740009A44731C42D0F000801980003818B44657
:108750008268C168066A5B46624CD31A1B021B0A18
:10876000A3426BD85B1843604B468360C360012310
:10877000037501235B4203626B1C00D195E0EB00A3
:108780005B199B00FB1841685C68A14279D980465F
:108790002A00200006E0D3009B189B00FB185868B5
:1087A000884279D214001A6A091A531CF3D1404640
:1087B0001300A046009203624346DC006346444433
:1087C000A4003C1941602362731CBCD1534654463B
:1087D0001A7859780095914200D187E0606853007B
:1087E00084469B18A0780132DB00D2B26344227029
:1087F000904260D018780128EDD158688446C000B6
:10880000604480003818057DA846002DE3D19A68A1
:10881000A2468260D968009DC1601C6904615B69E1
:10882000C361059B002B96D04346002283605B46C4
:108830002C4CD31A1B021B0AA34293D95B469A1AEB
:108840001202120A8A4224D28A1A42608CE7012458
:108850002549AA468C60414607910A9108910191E9
:108860000021099118E700990A00894627E70023AB
:10887000029306939AE600238AE65246144B1A6046
:1088800029E7611A59600562012365460193029543
:1088900057E74B46436067E7009222000400641AE2
:1088A00040465C609046009B85E763460293012347
:1088B0006546019345E74A46227000229AE7C04682
:1088C0009C2000209820002099200020902000204B
:1088D000A0200020A4200020AC200020A820002000
:1088E0008D200020FEFF7F0000100140009B984675
:1088F000039B013BDBB20393FF2B00D01CE7019BE2
:10890000089D002B00D0A0E0454500D15CE0434627
:10891000013300D192E043464F4A5048DB00815872
:10892000079A4F4C43448A1A9B0012022578FF187D
:10893000120A7B680332002D1FD18025D1266D02DB
:10894000B6008551403E8551C0278026454DB60270
:108950007F00EE512E60012505602F200138C046B2
:10896000C046C046C046C046C046C046C046C046D7
:10897000C046C046C046F1D12570934200D21300D4
:10898000079AA82094466344344A1B021B0AC0007D
:10899000135031485B1A12581B02521A1202120A63
:1089A00003321B0A9A4205D9802180232D4A89026D
:1089B0005B00D15000232C4A13700DB03CBC904694
:1089C0009946A246AB46F0BD069B002BF2D09EE72F
:1089D000264B0020196801235B429C46002300249B
:1089E00098461DE0EB005B199B00FB185A68029E3D
:1089F000B2421DD8B11AA41842465A6042461869BC
:108A000002911A75196A002808D0059AD8601219BF
:108A10001202120A9A606246AC461A620D0006986B
:108A20006B1CDFD1002800D16FE6104B19606CE69B
:108A300000280ED10299521A5A6066E6FFF7E4FC4C
:108A4000B8E70B4B099A1A6049E6084B029A1A607C
:108A50005AE706480160EDE70405000000100140F8
:108A60008E20002000E100E08D200020A0200020CA
:108A70009C200020F8B51E0005000F001400072000
:108A8000B30700D0F8BD002EFCD0FFF7BDFC2E4B85
:108A9000069A1A602D4B1F702D4B1E60002F50D070
:108AA00033000022F900C819800030181A701A75B6
:108AB00024338342FAD1CB190321264A9B00F318B1
:108AC0001170190060000019C000234A1831596064
:108AD00009181360D96000220918596101211A7020
:108AE0005A709C701A725A729C721A745A749C74DE
:108AF0001A4B494219608021C520FF24184B4903B5
:108B00001A70184B80001A70174B8132FF3299503F
:108B10001A58A2433F3C22431A50A122C4241348AE
:108B2000D2001960A40085501A5911491140C02281
:108B300012020A431A510F4BC2580F4B00201A6001
:108B4000A0E70021B7E7C046882000208C20002045
:108B5000A8200020A4200020AC200020A02000207D
:108B6000982000209920002000E100E00010014042
:108B7000FF00FFFF040500009C200020F0B5174B0C
:108B800094461E68002E1DD0002A19D0002817D048
:108B9000134B1F78002F11D03378002B14D03400E2
:108BA0000023243407E0260024342500243D2D78BA
:108BB0001A00002D09D00133BB42F4DB0420F0BDC4
:108BC0000720FCE70820FAE7002201233370634600
:108BD0007170B36102600020F1E7C046A820002058
:108BE0008C200020F0B53B4B04001B68002B40D0CC
:108BF000394805780720A54200D8F0BD0429FCD9E2
:108C0000E000001980001B181D780820012DF4D108
:108C10005B780025012B46D0304B10205B68DB05CC
:108C2000DB0D28D12E4B1B681B1858789E78471CEB
:108C3000B7423CD01E78BE4237D04600361858683E
:108C4000F600844666440420002ED6D003383070E7
:108C500074602448244C2058F160B0607261356122
:108C600080215F708023214A49035B00D15000209E
:108C7000C3E70820C1E7103B58B2002819DB800881
:108C8000C0301A4E8000865903200340DB00DE40CE
:108C9000B3091840C3B20020012BC3D00830032B06
:108CA000C0D00830BEE70D00B6E70420A5E70027D6
:108CB000C0E70F4E0F20B4460326DBB21840334006
:108CC000B34008388008800060444068D84080097C
:108CD0003040DFE7A82000208C20002000ED00E0DD
:108CE000AC200020040500000010014000E100E07D
:108CF00018ED00E010B5304B1A68002A32D02F4B27
:108D000019780723814201D8180010BDC3001B1831
:108D10009B009A5C0823012AF6D1294B10215B683D
:108D2000DB05DB0D20D1274B1A6852185378917858
:108D30005C1C8C4232D01178A1422DD05900C91848
:108D40005368C9009C46614404230029DCD0023BDF
:108D50000B704860802154701B4AFE334903D15088
:108D60000023D1E70823CFE7103B5AB2002A17DBD4
:108D70009208C03214499200515803221340DB007C
:108D8000D9408B091A40D2B20021012ACBD0083138
:108D9000032AC8D00831C6E70423B5E70024CAE790
:108DA0000F220A49DBB28C461A40083A9208920018
:108DB00062445168E1E7C046A82000208C200020D2
:108DC00000ED00E0AC20002000E100E018ED00E044
:108DD0000B7B002B04D101220B68027103607047EA
:108DE0004B680022F9E7C04610B502790300002A5B
:108DF00008D048681C688A68011B91420CD9A018E9
:108E0000186008E004688A680868211A914207D847
:108E1000012218601A7110BD002218601A71FAE759
:108E2000A01A1860F7E7C046842210B5414B5200E3
:108E3000995884B000292DD18E223E4B520099586A
:108E4000002914D192223B4B5200995800290CD092
:108E5000002199509021C9005A5802A85A50022363
:108E60000370354B42601B68984704B010BD002169
:108E7000324C99502278D2B2002AE3D0022A21D96A
:108E8000032ADFD1023A2170DA605A60A022D200B0
:108E90009950D7E700219950A322D2009958284C25
:108EA000C9B22000FFF78AFA00282AD1A268E36835
:108EB0009B1A012BC0D1204A02AB1870126818000F
:108EC0009047B9E71F488168C26891422DD0227847
:108ED000022A01D001229A606B46D91DFFF782FA5F
:108EE000002817D1C2218022124B89005A506946AE
:108EF000C8791549585002212170C12189005A5062
:108F0000A0E7012202AB1A700B4A03901268180006
:108F1000904791E70123074AD3602370032302A8F7
:108F20000370054B1B6898478CE70122DA602270BA
:108F3000F4E7C04600200040B4200020B02000200C
:108F4000B8200020C82000201C050000F0B5002833
:108F50001EDB1B4A03249446FF2217008308C02609
:108F6000C0B20440E4008901A7400A40A2409B002F
:108F70006344B6009D59BD432A439A511F23C02123
:108F800018401E3B83400E4A490053501360F0BD09
:108F9000FF240C4A0325944622000F23C0B205404B
:108FA000ED008901AA400C40AC400340083B9B08FF
:108FB0009B006344DE6996433443DC61DEE7C046D0
:108FC00000E100E000ED00E010B51A4C0820237825
:108FD000002B00D010BD4C22FF21013BA3540132D5
:108FE000A1540132A3540132A3540132A354E362C9
:108FF000013223636363A363E36323646364A36451
:10900000FE390238A3546360A360E36023616361A7
:10901000A361E36123626362A362FFF797FF80218C
:10902000C123054A9B000906D1500123002023706B
:10903000D0E7C046D820002000600040024B1878DE
:10904000431E9841C0B27047D8200020F0B5CE46EC
:10905000474680B55C4C914623182C331E78082572
:109060007F2E04D828000CBC90469946F0BDCD78E0
:10907000AC46002D48D0626804270126013200D199
:109080009DE0B50063195B68013343D0731C9D00FC
:109090006219526801323ED0B31CBB4232D29D00ED
:1090A00062195268013236D0F31CBB422AD29D00AD
:1090B0006219526801322ED0331DBB4222D29D006C
:1090C00062195268013226D0731DBB421AD29D002C
:1090D0006219526801321ED0B31DBB4212D29D00EC
:1090E00062195268013216D0F31DBB420AD29D00AC
:1090F0006219526801320ED00836BE4202D2A36A0B
:10910000013340D00425ADE76269013231D00A272E
:109110000526B6E733004A4665196A606246271895
:109120005EB22C373E70002A29D08B78002B14D1E8
:109130000300A0254A78C133FF3392009B00ED0560
:109140005A51CB78002B21D1A41948340B782278BE
:109150009B0113432370002584E7A022D205944687
:10916000E025022783006344ED005A59BA435A515F
:10917000E7E704251D704B46042663610423E318CA
:1091800048331870D1E709232425C4E70F4AB600F5
:109190009446A2226644D2000B780D4CB1580002CE
:1091A0002140F82464012040C024B1501B04A402D3
:1091B000B158234018430843B050002552E7002619
:1091C0001E704B466360B0E7D8200020006000406E
:1091D000FFE0FCFF30B5234B1A182C32127852B244
:1091E000032A18DD9B1848331B789B09032B2DD0CD
:1091F000012B34D0C025AD02A023DB059C46E02323
:1092000080006044DB00C158174C2140C150C25857
:109210002A43C25030BDD3B2032BFBD81348A2253A
:109220008446012493006344ED005859204358516B
:1092300013006046002540339B009BB21D5000295F
:10924000E8D0C12394409B00C450E3E7A223A022AE
:10925000DB00D205D258012383401A42CAD18025AF
:10926000AD02C9E7D8200020FFFFFCFF00600040EE
:10927000A223A022DB00D205D358C340012018400E
:109280007047C046F0B5D6464F464646C0B5D04AB0
:1092900000241368012B00D10DE1CE4B1A68012A7E
:1092A00000D116E1CC4B1A68012A00D121E1CB4B49
:1092B0001A68012A00D12CE1C94B00251A68012A3D
:1092C00000D137E123070BD0E30700D53CE1A3072A
:1092D00000D564E1630700D546E1230700D552E1DC
:1092E000002C04DB1CBC90469946A246F0BD4C23E2
:1092F000BC4CE15C74330800984323182C331B7872
:109300005BB2032B17DD9B00E3185E68002E12D0C2
:10931000A0230127DB059C46E023874082006244AE
:10932000DB00D35889099B039B0F3D4200D063E1CA
:10933000032B00D187E14D23E15C73330800984390
:1093400023182C331B785BB2032B17DD9B00E3182B
:109350005E68002E12D0A0230127DB059C46E02387
:10936000874082006244DB00D35889099B039B0F2E
:109370003D4200D050E1032B00D191E14E23E15C4E
:1093800072330800984323182C331B785BB2032BED
:1093900017DD9B00E3185E68002E12D0A023012782
:1093A000DB059C46E023874082006244DB00D35803
:1093B00089099B039B0F3D4200D03CE1032B00D168
:1093C00055E14F23E15C71330800984323182C3397
:1093D0001B785BB2032B17DD9B00E3185E68002E41
:1093E00012D0A0230127DB059C46E02387408200A2
:1093F0006244DB00D35889099B039B0F3D4200D098
:1094000012E1032B00D15FE15023E15C70330800CF
:10941000984323182C331B785BB2032B17DD9B007A
:10942000E3185E68002E12D0A0230127DB059C46BE
:10943000E023874082006244DB00D35889099B0304
:109440009B0F3D4200D0DFE0032B00D155E15123BB
:10945000E15C6F330800984323182C331B785BB210
:10946000032B00DC3EE79B00E4186668002E00D169
:1094700038E7A0230124DB059C46E02384408200DA
:109480006244DB00D35889099B039B0F254200D01F
:1094900094E0032B00D025E703290AD18027BF02DF
:1094A000E023DB00D558504C2540D550D4583C43E0
:1094B000D450B04716E7C1214C48890044581C409D
:1094C00000D1EAE600231360424B1A68012A00D05B
:1094D000E8E6C12245499200895802220A4200D199
:1094E000E0E6002119603C4B14431A68012A00D0C1
:1094F000DDE6C1223D499200895804220A4200D18A
:10950000D5E600211960354B14431A68012A00D0B2
:10951000D2E6C12235499200895808220A4200D178
:10952000CAE6002119602E4B14431A680025012A4F
:1095300000D0C7E61D6080231B061C43A022A22387
:10954000D205DB00D558BDE6A223284ADB00D0585F
:10955000D158244B8903C0045B68890FC00E98471B
:10956000A30700D4B6E61AE0A323204ADB00D058B4
:10957000D1581C4B8903C004DB68890FC00E984783
:10958000230700D4ACE6194A194BD058D158154BD3
:109590008903C004890FC00E1B699847A0E6154BCC
:1095A000124AD058D1580F4B8903C0049B68890FC9
:1095B000C00E9847630700D48FE6D5E7022B00D092
:1095C00090E6032900D074E7C027BF0268E7C046D1
:1095D0000061004004610040086100400C610040EF
:1095E0007C610040D8200020FFFFFCFF00600040AD
:1095F0001C05000014050000022B00D09BE6032987
:1096000000D19BE0B04796E6022B00D01FE703296C
:1096100000D18FE0B0471AE7022B00D0AEE6032955
:1096200000D18FE0B047A9E6022B00D0ECE6032979
:109630007CD0B047E8E6022B00D0C2E6032900D177
:1096400084E0B047BDE60329DCD180239B029C4621
:10965000E023DB009946D7583E4B1F404B46D7507E
:10966000D75863461F434B46D750B04763E603299C
:10967000E7D180239B029A46E023DB00D758994626
:10968000BC46344FB846674643461F403B004F46F2
:10969000D351D35957461F434B46D750B04790E656
:1096A0000329BFD180239B029C46E023DB0099461F
:1096B000D758284B1F404B46D750D75863461F43B7
:1096C0004B46D750B04759E60329B2D180239B02BD
:1096D0009A46E023DB00D7589946BC461D4FB84652
:1096E000674643461F403B004F46D351D359574628
:1096F0001F434B46D750B04786E603298AD18023C3
:109700009B029A46E023DB00D7589946BC46114F8E
:10971000B846674643461F403B004F46D351D35996
:1097200057461F434B46D750B04790E6C0239B0295
:109730009A46CEE7C0239B029A46E3E7C0239B02EA
:109740009C4685E7C0239B029C46AEE7C0239B0254
:109750009A4691E7FFFFFCFF29DF704728DF70473B
:10976000F8B54746CE4680B5714C1F002378804639
:109770000E001500002B1BD113003B431FD10233F9
:1097800023703000FFF7EAFF00280DD1002D00D034
:10979000CBE0002F00D0B8E043461B78042B00D06C
:1097A00089E00723002023700CBC90469946F8BD41
:1097B000062B00D9A7E05F4A9B00D3589F460123A0
:1097C00023705D4B5869431C00D1A2E080235B05E8
:1097D00019690904090C04F005FB8022520513697C
:1097E0001169126909041B0492B2090C1B0C01389F
:1097F000920871435843FFF7AFFF0028D4D10223EA
:109800002370D1E74C4B5869431C00D189E0802379
:109810005B0519690904090C04F0E4FA03008022CD
:109820005205106911690004013B000C09045843FA
:10983000090C04F0D7FAFFF791FF0028B4D10723F1
:109840002370B1E780235B05186943460004000CD0
:1098500046435A88A800920819693018FFF77CFF20
:109860000028A1D13D439CD00623002023709BE714
:1098700080235B051969304A09045069090C4E437D
:10988000421C4CD019690904090C04F0ABFA80237E
:109890005B05196901380904090C41432A003000AD
:1098A000FFF75AFF002800D07EE7002F2DD1434656
:1098B0001B78042BD8D005230020237074E7802365
:1098C00042885B05914619691B4A0904090C4E43FD
:1098D0005069AD004E447619421C1ED01969090426
:1098E000090C04F07FFA80235B051969013809042B
:1098F000090C41434D4449193A003000FFF72CFF51
:109900000028D4D050E703204EE704230020237022
:109910004AE780235B0558695FE75869E3E75869C0
:10992000B5E780235B055B6979E7032323703BE799
:109930001222002058DF010000100010F8B5474641
:10994000CE4680B5454D2F78BB00DC19A400261DFE
:109950002C1998462369AE1999462379042B3BD0DC
:10996000052B17D00F20022B03D00CBC9046994634
:10997000F8BD3B4BE2881B88616920899B02C018B7
:10998000D21AC918374B48449A424ED89208FFF76A
:10999000E3FE1CE080277F05396948460904090C6D
:1099A00004F020FA01003A693B6912041B044F1CC1
:1099B0001B0C7B43120C20894A434844E4881B1A41
:1099C000821A1B1B9B0892083000FFF7C9FE002873
:1099D000CBD10123AB70C8E7E268234B11015B18C0
:1099E0005968894526D0022A2AD080246405216935
:1099F00048460904090C04F0F5F9010022692069C0
:109A0000474400044B1C000CBF005843EF19FB886F
:109A100012044B44C31A4846120C4A43821A9B084C
:109A200092083000FFF79CFED1E780225200FFF73A
:109A300093FECCE719895B894B43E1888B42D2D1F5
:109A400080235B05196948460904090C04F0CAF92A
:109A5000034B1B88C018FFF781FEB8E73C210020AC
:109A600010220020FF0300002C210020F8B5174E23
:109A700006AC24887778A44604240A2F1BD03478B7
:109A80003C19E5B2092D01D90A3DEDB2AC006419CB
:109A9000A4003419207162610020220060710C3230
:109AA00021C921C2E38063462381B3780024002BBF
:109AB00003D0013777702000F8BDFFF73FFF7778BC
:109AC00004001128F5D10024F3E7C0463C21002012
:109AD000F0B5C64600B55B4C82B0A378002B28D009
:109AE0000023594AA3701578082D26D0022843D0A8
:109AF00003281ED1207885002D18AD0066197379D2
:109B00000133DBB27371032B00D18CE0FFF716FF3A
:109B100000280ED011280CD00C356419F588F26895
:109B2000736931790095494D1201555902002000A1
:109B3000A84702B004BC9046F0BD022800D0444AB9
:109B400013706378002BF4D0FFF7F8FE021EF0D0FC
:109B50001128EED023789D00ED18AD00280066197D
:109B6000F5880C302018F468736931790095374D09
:109B700024016459A047DCE727783649B8000B88F0
:109B8000C6190133B6009BB2A61998460B803379EB
:109B90009C46022B3DD0052B34D0042B34D1072D0D
:109BA0003CD04346F6889B029E422DDC002D2BD1F3
:109BB000002313700B806378013B63707B1CDBB266
:109BC000092B01D93B00093BC01980002518EA6820
:109BD0001E49237012016B690C30009656582018EC
:109BE00000226146B047002301222B71EB80EA601E
:109BF0002B616B612B816378002B9AD0A378002BAB
:109C000097D1A1E7072D09D06378002B00D190E709
:109C10009AE74346F5889B02AB42F5DBC3199B00EC
:109C2000E318DE88C4E728000C302018F488F268B6
:109C3000736931790094054C120114590D22A04723
:109C400077E7C0463C210020122200202C21002072
:109C50000822002010220020002300222C2054493A
:109C600010B50B800121534C225414302254023081
:109C7000235202302352103022540230227062707C
:109C8000A2702271E3802361636123812276638362
:109C90006362A362A383E385A363E3632386E36430
:109CA0002365E16021626163A16423520230235283
:109CB00010302254023023520230235210302254EA
:109CC00002302352063021500430235004302350F8
:109CD0000C382352103022540230235206302150C7
:109CE00004302350043023500C38235210302254B7
:109CF00002302352063021500430235004302350C8
:109D00000C38235210302254BA22A3520632A150EA
:109D10000432A3500432236663666367A367E16578
:109D20002167A3500C3AA352234A1380234B58694E
:109D3000431C37D080235B0519690904090C04F022
:109D400051F803008021002249050869023B000404
:109D5000000C58431A4B18601A4B1A601A819A81EA
:109D60005A81194B08321A70144B5869431C1DD084
:109D700009690904090C04F035F8802252051369B9
:109D800011691B041B0C013809045843090C04F029
:109D900029F8FFF7E3FC002803D101230B4AA37045
:109DA000137010BD80235B055B69CBE74869E4E76E
:109DB000102200203C2100200A2200200010001068
:109DC0000C2200202C21002012220020082200203A
:109DD000F8B54E464546DE465746E0B5454B0500CC
:109DE0001B780E000824002B06D120003CBC9046B6
:109DF0009946A246AB46F8BD002872D0002970D023
:109E00000368002B6DD080225205136987889BB2AE
:109E1000013C9F42E9D80F2FE7D9C388002BE4D03B
:109E20007B439846344BC3469A461B689946334B4E
:109E3000CB445869431C56D011690904090C03F03E
:109E4000D1FF80225205136901381B041B0C5843B3
:109E500007248345C9D813699BB2434507DA1069C3
:109E6000390080B204F044F889B20029BDD107243A
:109E7000BB07BAD1224F033C38880128B5D04B46E6
:109E80004A46204C736030600601A3195A602B6863
:109E90003100A3516A68AB889446EA886546083168
:109EA000655080255A436D05002309E0296909049E
:109EB000090C521A29690904090C8944002A14D092
:109EC0002969013389B29BB29142EFD351462A6985
:109ED00092B24A440A60A4190130A3813880002458
:109EE00083E70E2481E75069ABE75246494611608B
:109EF000F1E7C046082200200C22002000100010CC
:109F00000A2200202C21002030B5114B1C78082398
:109F1000002C01D1180030BD002806D0002A04D042
:109F20000368002B03D00723F4E70E23F2E7094D63
:109F30002C68002CF7D02C89406861430918688987
:109F4000444368682418A142EDD213605160E1E7F0
:109F5000082200202C210020F0B51C4C050024789C
:109F600083B00820002C01D103B0F0BD00292AD015
:109F7000002D28D02C680138002CF5D1144E3468FF
:109F8000002CF1D06C683789A446748976687C43CC
:109F9000A419A445E8D2002AE6D09742E4D3D41805
:109FA000A742E1DB09308C07DED103242342DBD159
:109FB00066462642D8D100930E3813000A002900C5
:109FC000FFF754FDD0E70E20CEE7C0460822002060
:109FD0002C210020F0B51C4C0500247883B008200B
:109FE000002C01D103B0F0BD00292AD0002D28D0CB
:109FF0002C680138002CF5D1144E3468002CF1D0B7
:10A000006C683789A446748976687C43A419A44592
:10A01000E8D2002AE6D09742E4D3D418A742E1DB85
:10A0200009308C07DED103242342DBD16646264269
:10A03000D8D100930B3813000A002900FFF716FD52
:10A04000D0E70E20CEE7C046082200202C210020B9
:10A05000F0B54F464646D646C0B51700264A82B0F0
:10A06000127806000D000824002A06D1200002B054
:10A070001CBC90469946A246F0BD002906D0002897
:10A0800004D00C68002C03D00724EFE70E24EDE782
:10A090001A4A90461268002AF6D042461089528920
:10A0A0004968424391464246526894464A46624451
:10A0B0009142E9D2002FE7D0B842E5D3FA18904296
:10A0C000E2DBB20701D01024D0E70322914613420D
:10A0D000F9D10A409246F6D159183A00300003F0FF
:10A0E0001CFF42462B6800971B01D7584946330096
:10A0F00052462800B847B9E7082200202C2100204A
:10A1000070B5174B04001B7882B00D000820002B9F
:10A1100001D102B070BD002C20D023680138002B83
:10A12000F7D1104B1A68002AF3D05E6819895B8951
:10A1300062684B439B199A42EBD209309307E8D1EE
:10A14000901B03F0D5FE07200029E2D100912B00DF
:10A15000002221000338FFF789FCDAE70E20D8E758
:10A16000082200202C210020074B1A780823002AFF
:10A1700001D118007047002804D0044B5B780360BD
:10A180000023F6E70E23F4E7082200203C210020FC
:10A190008021A022090410B50C00A120044BD20597
:10A1A000D358C0009C430B4002491450535010BD7B
:10A1B000040500000C050000F8B5CE464746040033
:10A1C00080B5112809D012283AD013283AD0142883
:10A1D0003AD00CBC90469946F8BD0025012911D013
:10A1E00000291FD00229F4D16B005B19204DED1816
:10A1F0006E78002EEDD01F4B1B68002BE9D030008D
:10A200009847E6E71A4F6B0098465B19FE5CFB180F
:10A210005B78002B1AD143465B19FF18BA78164BAE
:10A220005A55E6E7154B1868FEF764FD6A00104BB7
:10A2300052199B189E78104B5B5DB342C9D1D8E789
:10A240000125CBE70225C9E70325C7E70C4B994653
:10A250000C4B4A461B689900C918084B49001868FE
:10A26000FEF7C0FC0028D6D14B461C70D3E7C04691
:10A2700020220020342200203C2200201C2200202A
:10A280001322002018220020F8B5A94B1B68DB0719
:10A2900000D4F8BDA74A1478172CFAD8A649A30011
:10A2A000CB589F468021A022C9030C00A120A34BBC
:10A2B000D205D358C0009C430B40A14914505350C1
:10A2C000A04B00221B689900C9189F4B1868FEF725
:10A2D00089FCDEE7A023F021DB054904984A995068
:10A2E0000021043A9950D4E78021A022C9030C0030
:10A2F000A120924BD205D358C0009C430B409049FB
:10A30000145053508F4B002219688F4B1868FEF77A
:10A3100069FCBEE7A021A120A0230026C9055B049B
:10A32000C000874C0B50854B0E51CD58F0235B0479
:10A330006B408025AD032B4000D1F1E00D50082388
:10A340000E51032111707F4A1168002259437E4B40
:10A350001868FEF747FC9CE7A021A120A023002657
:10A36000C9055B04C000764C0B50744B0E51CD58A0
:10A37000F0235B046B408025AD032B4000D1CAE085
:10A380000D5028230E510421DCE7A023A122E02157
:10A39000DB05D20049048024995000216848A403B9
:10A3A00019501C50995074E7684D2868FEF7A2FCBC
:10A3B00011231C1B00D19EE0002800D09BE0012C43
:10A3C0000BD0C8306421604303F00CFD5D4B0022CC
:10A3D000196841432868FEF705FCA0238021DB05AE
:10A3E00009047BE7A023B021DB054904A122D200A8
:10A3F00099500021524A99504BE7A021A120A02357
:10A400000027C9055B04C0004D4D0B504B4B4F510D
:10A41000CE58F0235B0473408026B60333406FD0E0
:10A420000E5028234F51022C62D014708BE7A023CA
:10A43000A122C021DB05D2004904C024995000218B
:10A440003F48E40319501C50995022E7A023A12251
:10A45000D021DB05D20049048024995000213848DE
:10A46000E40319501C50995013E7A023F021DB0599
:10A470004904BBE7A023A122DB05D200A02189E784
:10A48000A021A120A0230026C9055B04C0002C4CFC
:10A490000B502A4B0E51CD58F0235B046B408025A6
:10A4A000AD032B4034D00D500E5105231370254BB6
:10A4B00000221968244B49001868FEF793FBE8E670
:10A4C000A021A120A0230026C9055B04C0001C4CCC
:10A4D0000B501A4B0E51CD58F0235B046B40802576
:10A4E000AD032B4021D00D500E510623137009E708
:10A4F000163B147027E7A0238021DB05090475E7CC
:10A500004E510B500423022C8FD1023B14701AE7DA
:10A510000D510B50C9E70D510B500423042111E7D5
:10A520000D510B50022303210CE70D510B50DCE7BA
:10A530002C2200203822002074DF010004050000D6
:10A540000C050000182200203022002014220020D8
:10A5500010B50378112B15D0122B15D0132B03D067
:10A560000322142B01D010BD022253009A18074B6E
:10A570009B1858780028F6D0054B1B68002BF2D0AA
:10A580009847F0E70022F0E70122EEE720220020C2
:10A5900034220020002303280DD8A223A022DB00B0
:10A5A000D205D258054B8000C05801238340934305
:10A5B0005A1E9341DBB200200B70704754E001003B
:10A5C00070B5CB4B04001B680020DB0700D470BDC6
:10A5D000172CFCD8C74AA300D3589F468021A0223D
:10A5E000C9030C00A120C44BD205D358C0009C4322
:10A5F0000B40C24914505350C14B00221B689900B4
:10A60000C918C04B1868FEF7EDFAE0E78021A022D8
:10A61000C9030C00A120B84BD205D358C0009C43FD
:10A620000B40B64914505350B54B00221968B54B36
:10A630001868FEF7D7FACAE7B34D2868FEF75AFB49
:10A6400011231C1B00D12EE1002800D02BE1012C8E
:10A650000BD0C8306421604303F0C4FBA84B002238
:10A66000196841432868FEF7BDFAA0238021A34A58
:10A67000DB05090499500021043A9950A7E7A0236B
:10A68000F021A122DB054904D200995000219B4A08
:10A690000020995012229D4B1A7098E7A023A12206
:10A6A000E021DB05D2004904802499500021934821
:10A6B000A40319501C5099501322944B00201A7077
:10A6C00085E7A023F0218D4ADB054904995000213C
:10A6D000043A99508D4B00201C7078E7A022B021DD
:10A6E000A123D2054904DB00D15000238349002077
:10A6F0005350864A13706AE7A022A121A0230026A6
:10A70000D2055B04C9007D4853507B4B1650D55889
:10A71000F0235B046B408025AD032B4000D1D5E0D6
:10A72000555028231650022C00D1DEE0774A1470D1
:10A73000734A116800225943724B1868FEF752FAA7
:10A7400045E7A023F0216D4ADB054904995000211B
:10A75000043A995000203AE7A023A122D021DB053A
:10A76000D20049048024995000216448E403195020
:10A770001C5099501422654B00201A7027E7A02224
:10A78000A121A0230025D2055B04C9005B485350DA
:10A79000594B1550D458F0235B0463408024A40324
:10A7A000234000D18AE0545008231550032117E0BC
:10A7B000A022A121A0230025D2055B04C9004F4897
:10A7C00053504D4B1550D458F0235B046340802404
:10A7D000A403234000D181E02823545015500421C4
:10A7E0004A4A1170A4E7A023A122A021DB05D200D0
:10A7F00049048024995000214048A40319501C505A
:10A8000099500722414B00201A70E0E6A023A122B4
:10A81000C021DB05D2004904C024995000213748EB
:10A82000E40319501C5099501522384B00201A701F
:10A83000CDE6A022A121A0230025D2055B04C900FA
:10A840002E4853502C4B1550D458F0235B046340D2
:10A850008024A403234036D05450155005222B4B9E
:10A860001A70274B00221968264B49001868FEF71A
:10A87000B9F9ACE6A022A121A0230025D2055B04F2
:10A88000C9001E4853501C4B1550D458F0235B048C
:10A8900063408024A403234024D054501550062242
:10A8A0001A4B1A70C0E6A0238021A122DB050904FF
:10A8B000D20099500021114A995088E61450535003
:10A8C000022303218CE714505350C7E7155053500F
:10A8D0000423022C00D029E7023B27E714505350F1
:10A8E00004237CE714505350D9E7163B1EE7C046BB
:10A8F0002C220020D4DF0100040500000C0500001C
:10A9000018220020302200201422002038220020AB
:10A91000234B10B51960234B04001860224B1A60BA
:10A92000830712D50D22214B21481A700132DA70AB
:10A9300001329A7101325A724A080421FDF7C2FCB1
:10A94000002820D0E30703D410BD0020E3070DD575
:10A95000A023F022A1210024DB055204C9005A5093
:10A9600014495C500C315A500028EDD1124A002194
:10A970001248FEF703F90028E6D1114A01211148D7
:10A98000FEF7FCF8E0E7FDF7F5FC0028DAD10E4A07
:10A9900000210E48FEF7F2F8E307D9D4E4E7C046F9
:10A9A000182200202C220020342200202022002007
:10A9B00034E001000C05000089A2010030220020D3
:10A9C00091A101001422002051A501001C220020A9
:10A9D00003000720032B00D97047012A13D0012957
:10A9E00017D0002908D0022919D15800C0180D4BE2
:10A9F0001B185A700020EFE75800C018094B1B18AD
:10AA00009A700020E8E700220129E8D11A000D32EF
:10AA1000D2B258000349C3185A540020DCE707207B
:10AA2000DAE7C04620220020E0231D4ADB00D3588D
:10AA30001C4A1A400023C10701D5C0239B021343BF
:10AA4000E0221749D2008B50174B9B58154A1A40E9
:10AA50000023810701D5C0239B021343E022124942
:10AA6000D2008B50114B9B580E4A1A4000234107CD
:10AA700001D5C0239B021343E0220C49D2008B5026
:10AA80000B4B9B58074A1A400023010701D5C023EE
:10AA90009B021343E0220649D20000208B507047EE
:10AAA00044000050FFFFFCFF480000504C000050E5
:10AAB0005000005010B50320FFF7B6FF002801D06A
:10AAC000062800D010BD0020FCE7C04610B5038862
:10AAD000102B08D0112B05D1294A1368013B1360B4
:10AAE000002B07D010BD264C2368002B11D001335A
:10AAF0002360F7E7012202210020FFF769FF002809
:10AB00002BD0072829D01F4B1B68002BEAD0984771
:10AB1000E8E7012200210020FFF75AFF002808D0B3
:10AB2000072806D0174B1B68002B00D098472368D6
:10AB3000DDE7072202210120FFF74AFF002801D0AC
:10AB40000728EFD1042202210020FFF741FF00284F
:10AB5000EDD00728E6D12368C9E7072202210120AA
:10AB6000FFF736FF002801D00728CCD10A220021A8
:10AB70000020FFF72DFF0028B4D00728C3D1B1E78C
:10AB8000442200204022002010B5234B82B00C1E2E
:10AB9000186018D06B460020991DFFF7FBFC0028B9
:10ABA00001D002B010BD6B460130D91DFFF7F2FC99
:10ABB0000028F6D16B46DB79002B26D16B469B79BA
:10ABC000002B25D12370154B1B68002B01D00020D2
:10ABD000E7E7012202210020FFF7FAFE002801D05A
:10ABE0000728DED1072202210120FFF7F1FE00280D
:10ABF00001D00728D5D10A2200210020FFF7E8FE66
:10AC00000028E4D00728CCD1E1E702232370DAE75B
:10AC10000B232370D7E7C0464022002044220020A7
:10AC200076DF704778DF70477ADF70477CDF7047E8
:10AC300060DF70473CDF704748DF704710B5002287
:10AC40000021FDF7AFFB10BD10B584B06B460124A9
:10AC50006A461C7000231849184853709370FEF719
:10AC6000C3F86B46164998801648FEF7BDF86B4648
:10AC7000154998711548FEF7B7F86B466A46188172
:10AC8000C02392889B009A4201D96B469C7069460A
:10AC90000F4801F0FFFF082302009A4309D00D4B33
:10ACA000984206D00C4B984203D000220021FDF7B9
:10ACB00079FB04B010BDC0462026002030260020BD
:10ACC000D0250020E0250020E8250020F8250020E0
:10ACD00004260020043000000134000010B50B49A8
:10ACE0000B48FEF781F8C1B20A4801F053FB082374
:10ACF00002009A4309D0084B984206D0074B98426D
:10AD000003D000220021FDF74DFB10BDB42500202B
:10AD1000C42500209C2500200430000001340000E0
:10AD200010B50400FEF7D4FE200001F0ADF910BD0F
:10AD300010B5101E03D000220021FDF733FB0020C8
:10AD400010BDC04610B50378002B00D010BD064BD7
:10AD50003B211888FFF764FF0028F7D0002200216C
:10AD6000FDF720FBF2E7C0466C20002010B5040080
:10AD700002F07CFB2100134801F052FE2100124832
:10AD800001F0F2F9200001F007FC2000FFF79EFE21
:10AD90002388102B09D0112B03D101220B4B5242D7
:10ADA0001A80200001F0C6F810BD0720FFF708FC4C
:10ADB000002803D000220021FDF7F4FAA288034BFB
:10ADC0001A80EEE7042600209C2500206C2000203D
:10ADD00010B5072820D00A2810D0042800D010BDB4
:10ADE000144B13211888FFF71BFF082302009A4316
:10ADF000F5D000220021FDF7D5FAF0E70020FFF79B
:10AE0000DFFB002810D1FFF755FE002807D1FFF720
:10AE100011FF0028E3D0ECE701F060F9E5E700223C
:10AE20000021FDF7BFFAF2E700220021FDF7BAFA90
:10AE3000E9E7C0466C20002010B5002806D00228A3
:10AE400003D1FFF7BDFB00280DD110BD0020FFF797
:10AE5000B7FB00280CD1FFF72DFE00280DD1FFF71E
:10AE6000E9FE0028F1D000220021FDF79BFAECE773
:10AE700000220021FDF796FAEDE700220021FDF700
:10AE800091FAECE710B50A0001000248FDF78AFAD2
:10AE900010BDC046EFBEADDEF0B5CE46474600233E
:10AEA00080B59FB000930522E84B08210020FDF7F4
:10AEB000E1FD002803D000220021FDF773FAE44BE6
:10AEC000E44A012118009846FDF758FE002803D0F7
:10AED00000220021FDF766FADF4FE04A0121380029
:10AEE000FDF74CFE002803D000220021FDF75AFA9E
:10AEF000DB4ADC490320FFF70BFD002803D00022CA
:10AF00000021FDF74FFA0EAC21000020FFF73CFEB8
:10AF1000002803D000220021FDF744FA26784822B9
:10AF2000023E73425E41D04900230820F6B202F08F
:10AF3000DBFE002803D000220021FDF733FA0822AF
:10AF400000212000FDF732F90122237820009343ED
:10AF50002370FFF76DFE002803D000220021FDF7CB
:10AF600021FAC24802F0E6FE002803D000220021A8
:10AF7000FDF718FABE4802F0E7FE002803D00022D1
:10AF80000021FDF70FFA06AD2E70FEF765FE0028D2
:10AF900003D000220021FDF705FA280002F08CF909
:10AFA000002803D000220021FDF7FCF93D200522F6
:10AFB00000216844FDF7FAF8012263792100134368
:10AFC000E12213400C221343CD2213406371072367
:10AFD000A3710933E371A74BA7480E930123237193
:10AFE00002F006FA002803D000220021FDF7DAF96A
:10AFF0000F2301212A78A14E9A430A4313401022BD
:10B00000300013432B7002F091FF310082B2280010
:10B01000FFF70CFE002803D000220021FDF7C2F943
:10B020008820C000FFF7FEFD002803D00022002189
:10B03000FDF7B8F9082200212000FDF7B7F8904B82
:10B0400020000E93C8235B040F93FFF7EDFD00284B
:10B0500003D000220021FDF7A5F9302200212000B5
:10B06000FDF7A4F80223012623700433E370033BA9
:10B070002382844B2022002128006361A670FDF703
:10B0800095F82823EB608C332B6100232E722A0065
:10B09000009300217C4B200000F070FE002803D0BC
:10B0A00000220021FDF77EF903AE0C2200213000C2
:10B0B000FDF77CF800230F220120102103930533B4
:10B0C000738133799343034313400B43337100235C
:10B0D0007371B371F379934303431A4000233372BE
:10B0E0006A4B0A4318003100F271994601F0C2FC24
:10B0F000002803D000220021FDF754F9142200217A
:10B100002800FDF753F80F23012010216A7B9A4392
:10B1100002431A400A436A73AA7B9A4302431A40C5
:10B120000A43AA730022EA732A7C9A43104303401D
:10B130000B432B74002301220693AB602900643378
:10B1400053482A712B7301F03BF8002803D00022EA
:10B150000021FDF727F9402200212000FDF726F805
:10B160004C49200001F002FE3C210F230120625CCB
:10B170009A430243134010221343635400223D2399
:10B180002000E25401F0CCFA002803D00022002174
:10B19000FDF708F95123404940480B6013334B60D9
:10B1A000633B8B600B73FDF713FE80233C49002546
:10B1B0000B60D023DB004B60C0233A485B008B6000
:10B1C0000D73FDF705FE28231426374937480B6019
:10B1D00078334B608E600D73FDF7FAFD7D233449A3
:10B1E00034484B60783B8B600E600D73FDF7F0FDCB
:10B1F0001C2200212000FCF7D9FFA0239B026360E2
:10B20000F0231B03A360032323734B460E955B8936
:10B210002000E381284B25746361284BA36101F072
:10B220007FF9002803D000220021FDF7BBF8434638
:10B230008021186800224902FDF7D4FC00283FD085
:10B2400000220021FDF7AEF83AE0C0464822002077
:10B25000CC250020DDAC01000026002049AC010017
:10B26000D1AD0100CD0C0000502500206DAD0100D6
:10B2700021AD010031AD01009825002064E00100FE
:10B28000900120036020002039AE01000426002038
:10B290009C25002070E00100B4250020C42500207A
:10B2A0002026002030260020D0250020E025002088
:10B2B000E8250020F825002045AD01003DAC010047
:10B2C0008021386800220902FDF78CFC002803D099
:10B2D00000220021FDF766F8022000F00DFE002894
:10B2E00003D1FFF7A9FC0028FBD000220021FDF7C5
:10B2F00059F8F6E772DF704779DF70477DDF7047F6
:10B3000065DF7047F0B54E46DE4645465746E0B528
:10B3100085B09B460E9B060099461B7800910193D1
:10B3200003889046002B63D000239A4602AB00248A
:10B33000DD1C03E033880134A3422DDD7368A100D6
:10B340009C460422614403A802F0E7FD0022290084
:10B3500003A8FFF7D5FF071E28D12B784345E9D175
:10B360005346002B2AD04B461A784346D3181F2B3E
:10B3700040DC5A44290003A8FFF7C2FF002835D15A
:10B380004B462A781B7801349B184A4613700123D8
:10B390009A463388A342D1DC5346002B28D04B4633
:10B3A00059461B78019A013B9B1A8B54380005B013
:10B3B0003CBC90469946A246AB46F0BD4B46424641
:10B3C0001B789A181D2A15DC49469A1C0A70694692
:10B3D0005A4609780133DBB2D1544B461A7829001A
:10B3E0005A4403A8FFF78CFF0028C9D00700DDE707
:10B3F0000027DBE70C27D9E7F0B557464546DE4680
:10B400004E460023E0B597B005AD02AA04000F0038
:10B410002B70537300284CD0C278530741D5037862
:10B42000002B00D071E28378002B00D0C3E2002310
:10B4300006AE0221F154991CC9B288460121581C5C
:10B44000C0B2315441460333DBB22B707254626890
:10B45000002A0ED01C2B22D80021515602220A208D
:10B46000F2545A1CD2B2B054DA1C0233DBB22A7046
:10B47000F1542389002B00D03EE1238A002B00D019
:10B4800013E2238B002B00D027E2226A002A00D18E
:10B49000FDE02B78991D8A461F2900D8AFE00C20CB
:10B4A00000E0072017B03CBC90469946A246AB4648
:10B4B000F0BD00239946002F00D178E2FB78002BE5
:10B4C000EFD102AA53733B78002B00D076E2BB7811
:10B4D000002B00D026E37A68002A00D0D1E13B8916
:10B4E000002B00D063E13B8A002B00D080E13B8B36
:10B4F000002B00D0A4E13A6A002A40D002AB5B7B6B
:10B50000991D1F29CBD810880528CAD9C94CCA4E05
:10B510000419A4B2B046B442C3D95488A246052C3B
:10B52000BFD9C44E6C46B446D4446646A681A689AB
:10B530004645B6D9C14EB04203D0B24501D05045C0
:10B54000AFD80EA8804605204446E054981CC0B2EF
:10B5500002AC60738446122640465C1CE4B2065579
:10B560006046148840440470240A447050881A1DB0
:10B57000D2B24244107002AB000A507059737C6A18
:10B58000002C2ED002AB20795A7B831C911CDBB29D
:10B59000CB181F2B00DD82E70EAB98460330985482
:10B5A0004646FF20C9B202AB5973531CDBB2F054BC
:10B5B000238841440B7004321B0A4B70D0B202AB9B
:10B5C0005873A288002A0CD0A168002900D168E72E
:10B5D000404402F0A2FC02AA527BA3889B1802AA54
:10B5E00053732C23FB5C0393002B00D054E202AB7B
:10B5F0005B7B0EAA29784846FFF77CFE52E711884C
:10B600008B46052900D84CE78A4968468C46DC44BD
:10B610006146818181898C46874988468C4500D85E
:10B620003FE751888C46052900D83AE781496144B3
:10B6300081818189414500D833E780498B4504D019
:10B640008C4502D0E34500D92BE70520F054981C27
:10B65000C1B2684629708946591C0173017B0433C5
:10B660008C46122188466146404670541188DBB2F0
:10B670008C4649467018614601706146090A41705E
:10B680005288F3181A70120A5A7053462B70636A64
:10B690009846002B29D018792A78831C911CDBB29C
:10B6A000CB181F2B00DDFAE60330B054FF20531CEB
:10B6B000DBB2F0544346C9B229701B8871180B7075
:10B6C0001B0A4B7043460432D0B228709A88002A75
:10B6D0000BD09968002900D1E3E6301802F01DFC78
:10B6E00043462A789B889B182B702C23E35C9C464E
:10B6F000002B19D1B146DEE608239846A0440095F8
:10B700003300022202214046FFF7FCFD002800D052
:10B71000C8E600953300102206214046FFF7F2FDEF
:10B72000002800D1A9E6BDE6A36A002B00D1B8E647
:10B73000002291461632924616322878934600E04F
:10B74000A36A4A46984652004A44920090444346AF
:10B7500051469B88421C0333D2B23354B154424603
:10B76000831CDBB22B701288F3181A70120A5A70FD
:10B7700043460430C0B228709A88002A0FD09968D6
:10B78000002900D18DE6301802F0C7FB43469888A7
:10B790002B78C0185B46E35CC0B29C4628704B46D1
:10B7A0000133DBB299466345CAD3B14683E60EAB9B
:10B7B00002AA984694463C000D2308346344009343
:10B7C0000222434602212000FFF79CFD002800D002
:10B7D00068E602AA94460D23634400931022434670
:10B7E00006212000FFF78EFD002800D17BE659E6F8
:10B7F0000EAB02AA984694463C000D2310346344D5
:10B8000000930222434603212000FFF77BFD00281E
:10B8100000D047E602AA94460D2363440093102209
:10B82000434607212000FFF76DFD002800D15EE6AA
:10B8300038E6C0467FF3FFFF7DF30000FFFF000006
:10B840000EAB02AA984694463C000D23183463447C
:10B8500000930222434614212000FFF753FD0028E5
:10B8600000D01FE602AA94460D23634400931022E1
:10B87000434615212000FFF745FD002800D13AE698
:10B8800010E60EA9002388460021404651560222A8
:10B890004446C2540A205A1CD2B2A054DA1C0233C5
:10B8A00002A8DBB24273E15419E610239846A04483
:10B8B00000953300022203214046FFF723FD0028B4
:10B8C00000D0EFE500953300102207214046FFF736
:10B8D00019FD002800D1D4E5E4E518239846A044DA
:10B8E00000953300022214214046FFF70BFD00288B
:10B8F00000D0D7E500953300102215214046FFF710
:10B9000001FD002800D1C0E5CCE563780C201D2B9B
:10B9100000DDC7E50EAB98461D234246138002ABFF
:10B920009C46063041466044FFF7E8FC002800D002
:10B93000B8E52378022B00D1F9E06378002B03D01F
:10B940009BB208221D2B02D9434608221B8806AE53
:10B9500072702A78DBB20232591C9B18DBB231704C
:10B960002B70A278002A04D1E278002A00D16EE57B
:10B970005FE50C201B2B00D994E54046FFF7BCFC8B
:10B98000002800D08EE5032219212B7806AEF25450
:10B990005A1CD2B2B154424611889A1CD2B2B21883
:10B9A00004331170DBB2090A51702B70DCE702AB73
:10B9B0005B7B00221EE60EAB9846DEE77B780C2010
:10B9C0001D2B00DD6EE502AB9C460E241D23644456
:10B9D0002630210060442380FFF790FC002800D02F
:10B9E00060E53B78022B00D1A8E07B78002B03D0E8
:10B9F0009BB208221D2B01D9082223880EA9884654
:10BA00004046427002AA527BDBB20232591C9B189C
:10BA1000DBB202AA01705373BA78002A1AD1FC78FB
:10BA2000002C0ED00222414646460120CA54591C21
:10BA30009A1CC9B203337054D2B2DBB202A94B7361
:10BA4000B4547A68002A00D149E51C2B00D81BE7C2
:10BA50000C2027E50C201B2B00D923E52000FFF745
:10BA60004BFC002800D01DE50EAA9046032241465B
:10BA700002AB5B7B4046CA5419215A1CD2B2815496
:10BA80009A1C2188D2B2424411700433090A5170C1
:10BA9000DBB202AA5373C2E7BC6A002C00D100E5F6
:10BAA0000EAA9046162202AB924616325B7B002607
:10BAB000934600E0BC6A4046720092199200A418B6
:10BAC000A28841460332C2549A1CD2B202A84273E1
:10BAD00094465246581CC0B20A54624620884244DA
:10BAE00010700433000A5070DBB202AA5373A288AC
:10BAF000002A10D0A168002900D1D2E443441800E4
:10BB000002F00BFA02AAA388507B1B18DBB2537316
:10BB10005A46BA5C03920136039AF6B29642C9D3EA
:10BB2000424667E502AB0E249C46644496E74346D2
:10BB30001B8809221D2B00D809E7FEE6238809226D
:10BB40001D2B00D85AE750E773DF704774DF70474A
:10BB5000F0B5C64600B57F4B86B01800072200211D
:10BB60009846FCF723FB7C4C7C4E637835787C4F01
:10BB7000002B32D0012D00D1A6E0237A3A68002BA9
:10BB800001D1022D32D0237D002B43D0002A02D0D8
:10BB9000023D012D31D90022724B1A70182200216A
:10BBA0006846FCF703FB00236A4613701372327871
:10BBB00001930393022A66D0032A43D0012A30D08E
:10BBC000002A35D13B68002B3AD0674A1078984755
:10BBD000002006B004BC9046F0BD012DCDD102235B
:10BBE0003370237A3A68002B00D09FE00323337030
:10BBF000237D002B10D0002ACDD02378002BCAD073
:10BC00005A4B1B78002BC6D10121564B06201970C8
:10BC10009047C3E7032DB9D10023534A3370137003
:10BC2000B9E741460191694604934F4B0A701A7077
:10BC30006846FFF789FF0028CBD13B68002BC4D1B1
:10BC40000020C6E76B46228B1A82A28B5A82484B91
:10BC50001A79002A6CD02278002A6CD0434A1278D4
:10BC6000002A68D1694603930423023241480A72CC
:10BC70000021C370FFF7C0FB0028AAD105223A4B70
:10BC80001A7032789CE76B46228A5A82A2891A82FD
:10BC9000374B1A79002A52D02278002A52D0334AE0
:10BCA0001278002A4ED169460424023231480A72C1
:10BCB00000210393C470FFF79FFB002800D088E7A2
:10BCC000294B32781C707BE73A682B4B002A3DD019
:10BCD00007201D7090473378012B39D163783A687B
:10BCE000002B1DD043465B78002B00D04EE7434627
:10BCF0009B78002B00D049E74346DB78002B00D02F
:10BD000044E743461B79002B00D03FE743465B796D
:10BD1000002B00D03AE743469B79002B00D035E753
:10BD200002233370237A002B00D15FE702252DE731
:10BD30001A7B002A8FD103220B4B1A7078E71A7BEB
:10BD4000002AA9D10222084B1A7071E71A70C9E7BC
:10BD50001D0012E7C82600203C26002039260020BE
:10BD600094260020142700203826002015270020C4
:10BD7000042700205C260020C4260020F8B504001B
:10BD80000E00002800D196E0002A00D193E00020A8
:10BD90004A4908704A490B6006994A4B19604A495A
:10BDA0000B00A1CAA1C3A1CAA1C321CA21C3CB68E8
:10BDB000002B00D074E000230B728B69002B00D1A4
:10BDC00076E0CB69002B00D172E0072200213F48CA
:10BDD000FCF7ECF93E4B3F4A3F4D1A603F4A0021C9
:10BDE0009A6028003022FCF7E1F9237822002B70BA
:10BDF000A3781032AB70E378EB7063786B702B0034
:10BE0000103303CA03C32B00103A083303CA03C319
:10BE10002B000832183303CA03C3636A002B11D006
:10BE20002F4B304F6B62616A9F600A881A80888846
:10BE30009880002806D000238A68D25CFA54013327
:10BE40008342F9D1A36A002B14D0274B274FAB6252
:10BE5000A06A9F608188998002881A800023002947
:10BE600005D08268D25CFA5401338B42F9D12C237D
:10BE7000E25CEA54236A002B06D01D4B2B62226A37
:10BE80005188598012881A806368002B03D0194B9F
:10BE90006B6063686B6031002800FFF7ADFAF8BD96
:10BEA0000B69002B00D186E78B69002B00D088E757
:10BEB00000230B7589E70E20F1E7C04639260020E4
:10BEC00094260020902600203C260020C826002032
:10BED00004270020182700205C2600203827002097
:10BEE000B826002098260020D0260020DC2600203E
:10BEF000FC2600200027002010B500240B4B82B048
:10BF0000187001A80194FEF72FF9082809D000281D
:10BF100005D1019B002B05D00122054B1A7002B000
:10BF200010BD0194FFF714FEF9E7C0463926002042
:10BF30008C26002030B5038883B0112B3DD0192BFF
:10BF400007D0102B01D003B030BD8288444B1A803B
:10BF5000F9E78479002CF6D1424A1378022B49D0B4
:10BF6000032B5DD0012BEED13F480178002912D080
:10BF70003E4B5C78002C5DD19C78002C5AD1DC784B
:10BF8000002C57D11C79002C54D15C79002C51D154
:10BF90009B79002B4ED10223002401A81370019439
:10BFA000FEF7E2F808282FD0002832D1019B002BA1
:10BFB0002BD001222E4B1A70C5E700242D4B1C708C
:10BFC0002D4B5A68284B1A70254B82881B889A4241
:10BFD000B9D10125234B01A81D700194FEF7C4F8C7
:10BFE000082811D0002814D1019B002B0DD0204B24
:10BFF0001D70A8E7214901A80B7003231370019459
:10C00000FEF7B2F80828CFD10194FFF7A1FD002870
:10C0100099D01B4B1B68002B00D194E7984792E7FF
:10C02000164B1C70174B1B68002B00D18BE70020B0
:10C03000984788E7012400250139017001A8147090
:10C040000195FEF791F8082807D00028E1D1019B5F
:10C05000002BDAD0064B1C7075E70195D5E7C0467A
:10C060006E200020392600208D260020C8260020C2
:10C070008C260020152700203C2600203826002092
:10C08000902600209426002030B5023883B0012885
:10C0900003D8104C2378002B01D103B030BD00250C
:10C0A00001A825700195FEF75FF8082807D0002841
:10C0B0000AD1019B002B03D001232370EDE70195EA
:10C0C000FFF746FD0028E8D0034B1B68002BE4D0A7
:10C0D0009847E2E78C2600209026002030B5184BC8
:10C0E00083B01B78002B22D0164C2378002B1ED156
:10C0F000154B1B78002B1DD101252570002401A8AC
:10C100000194FEF731F8082807D000280AD1019BD6
:10C11000002B03D00D4B1D700AE00194FFF718FDB2
:10C12000002804D00A4B1B68002B00D09847002041
:10C1300003B030BDFFF70AFD0028DDD0F8E7C046A8
:10C140003C26002015270020392600208C260020C0
:10C1500090260020A0DF7047A2DF7047A3DF704762
:10C16000A4DF7047A6DF704730B50B8883B0112B72
:10C1700022D0502B06D0102B01D003B030BD8B88BD
:10C180004382FAE7037D002BF7D0CA8843899A429D
:10C19000F3D1CB8B022BF0D10468002CEDD0202200
:10C1A0001F33CB5C8A5C1B021A43012301AD93430E
:10C1B0002B702900A047E0E701235B424382DCE7C4
:10C1C000F0B5DE4657464E464546E0B50B6895B09D
:10C1D000036001235B4243820A798946037406A9FE
:10C1E00002338B70684B02750700021D01200B8023
:10C1F000FFF7B0FF051E07D0280015B03CBC9046E5
:10C200009946A246AB46F0BD3B7D002B00D0A1E095
:10C210000DAD1C2200212800FBF7C8FF02232A785D
:10C22000397D1A43013B18009A46D3B210220840C8
:10C230009343000103432B70002390464A1E914113
:10C240009B466B60EB602B61494204AB0B406B611A
:10C250005B465246AB6102AB9A754C4B05AE02AAE7
:10C260009382002103223000FBF7A0FF4B469B7B0B
:10C27000062233704B46DB7B08AC7370B378002129
:10C280009343043A1343DBB206329343424693434B
:10C2900052469343B3704B461B7B02AAD3702000D7
:10C2A0001422FBF783FF07AB0893534623815B46B9
:10C2B00063815346A38102AB033323616660290087
:10C2C000BB1DB8882200FFF747FF051E94D14B46DF
:10C2D0009B68002B3CD0012302AA93752C4B0021B4
:10C2E000938230000322FBF761FF4B461B7C062242
:10C2F000337000237370B3789343043A1343DBB273
:10C30000063293434246934352469343B3704B469F
:10C31000996803AB1800994600F022FD804614226C
:10C3200000212000FBF742FF07AB23606A4643462B
:10C33000D3804B46D0883A00658166602081A08119
:10C3400023610E32F8882100FFF708FF050053E74C
:10C35000F88151E704AC032200212000FBF726FFFF
:10C360000F23012122789A430A43134010221343DA
:10C3700023704B4606225B7B6370A37893430222B3
:10C380001343A37044E7C0460F180000192A0000A9
:10C390000829000070B588B06B46D971DD1D037C9B
:10C3A000040000208B4218D001260822002102A898
:10C3B000FBF7FCFE2B78E1882374608A02AA0296C0
:10C3C0000395FFF7CDFE002807D1628A0E4B083097
:10C3D0009A4202D0237D002B01D108B070BD04AD7C
:10C3E000102200212800FBF7E1FEE388AE702B80CD
:10C3F0006B465B892900AB8002ABAB60039BEB60B3
:10C40000608AFFF7AFFEE8E7FFFF000075DF7047C7
:10C4100076DF70477ADF70477BDF704710B5184BC7
:10C4200082B01888174B984214D0174A174C1378CB
:10C430000133DBB21370217B99420DD200231370BC
:10C44000237C002B12D16369002B03D0002201A8AA
:10C450000270984702B010BD0D49FFF7D7FF0028C2
:10C46000F8D0A369002BF5D09847F3E73B21FFF7FD
:10C47000CFFF0028E7D0A369002BE4D09847E2E77C
:10C480005A270020FFFF00008C2700205C27002097
:10C490008427002030B51C4B1C4A5B88118883B070
:10C4A00099420FD852889A420CD3194B5B69002BE2
:10C4B00003D0012201A802709847164C0023237074
:10C4C00003B030BD134C2378002B08D0104B5B69B0
:10C4D000002BF3D0002201A802709847EEE70E4B24
:10C4E0000B4D1B78002B0CD0A9680C4B0022186850
:10C4F000FCF778FB0028E1D0AB69002BDED0984731
:10C50000DCE76968F1E7C0467C270020842700202B
:10C510005C270020582700208C2700207827002047
:10C52000164902000B0070B532CA32C332CA32C398
:10C5300012681A600022124B01681A70002916D086
:10C54000104C0832200001F0E8FC2000FFF762FFE9
:10C5500000280BD101220C4B52421A8000220B4BB7
:10C5600000211A700A480B4AFCF708FB70BD054809
:10C57000FFF752FF0028EDD0F8E7C0465C27002007
:10C5800058270020842700205A2700208C270020CD
:10C59000782700201DC4010010B50388112B36D068
:10C5A00022D9122B18D0502B1DD1224CC288E389DE
:10C5B0009A4218D1C38B022B15D11E33C35CDB0703
:10C5C0000FD41D4B1868FCF795FB00280BD0A3690E
:10C5D000002B08D0984706E0811D0822174801F07B
:10C5E0009CFCFFF757FF10BD102BFCD10100828887
:10C5F000134B16311A801148082201F08EFC0022DC
:10C60000104B1A700B4BDB89002BECD1E9E70122B0
:10C610000B4B52421A8000220A4B1A70064B1868C4
:10C62000FCF768FB0028DED0024B9B69002BDAD0B8
:10C630009847D8E75C270020782700207C27002037
:10C640005A2700208C270020A0DF7047A2DF704708
:10C65000F0B557464E464546DE46E0B591B00190EE
:10C66000894690469A46002951D04346002B04D172
:10C67000002200210020FBF795FE022509AC1C22B8
:10C6800000212000FBF792FD237803AF2B4323709A
:10C6900001239B46BB706B4600269B88032200212A
:10C6A00002A83B806660E66026616661A661FBF7D2
:10C6B0007DFD53461B7802AA137053465B78002118
:10C6C00053709378062293432B43E7251D405B4626
:10C6D0009D4302AB9D7004AD0E322800FBF766FD52
:10C6E00002AB6B6043462B81AB814B462B610B4BFE
:10C6F0002A00188821001A9B04976E81FFF7A6FF75
:10C7000011B03CBC90469946A246AB46F0BD002213
:10C7100000210020FBF746FEA7E7C046C8270020FF
:10C72000F0B55746DE4645464E460123E0B595B086
:10C7300004A98B70A34B05000B80A34B01201A00AA
:10C740009A46FFF781FF071E00D0E6E02A88002AFC
:10C7500000D0F7E02A89002A00D001E12A8A002AC5
:10C7600000D009E12A8B002A00D011E12A8C002A8E
:10C7700000D019E12A8D002A00D0D6E02B6B002BC7
:10C7800064D06A4619780226117669461A680DAC9B
:10C79000120A4A765A8820008A76DA78CA766A4679
:10C7A0001979117769469B6853771A0A1B0C8A77A7
:10C7B000CB771C220021FBF7F9FC237800213343BF
:10C7C000237000239B466360E36023616361A36180
:10C7D000013399466B464A469A756A467B4B03A8D5
:10C7E00093820322FBF7E2FC3C236A46EB5C0021C8
:10C7F00013732B003C335B785373937B0622934374
:10C800001E430823F6B298469E4308339E434B4688
:10C810009E436B469E7308AE0E323000FBF7C6FC9B
:10C8200005AB089303AB7360434633815B4673816A
:10C830004346B38106AB336153463200188821006A
:10C84000634BFFF703FF002800D079E06B6B002BF0
:10C850000AD01A7919685F4B5F4800932B003C336C
:10C86000FFF7F6FE00286BD1AB6B002B55D0694665
:10C8700002261A780DAC0A765A8820004A76120AE7
:10C880008A769A8803AFCA76120A0A77DB881C2256
:10C890004B771B0A8B770021FBF788FC237800215C
:10C8A00033432370002399466360E360236163612F
:10C8B000A36101339B466B465A469A756A46474BBD
:10C8C000380093820322FBF771FC3C23EB5C0622C9
:10C8D0003B702B003C335B7800217B70BB7893432B
:10C8E0003343E7261E405B469E43BE7008AE0E32C1
:10C8F0003000FBF75BFC05AB089307233381B38162
:10C9000006AB4A4633615346728118883200344B75
:10C9100021007760FFF79AFE0700380015B03CBC95
:10C9200090469946A246AB46F0BD2E4BE96A00936D
:10C930002B002D483C33FFF78BFE002800D11DE76C
:10C940000700EAE7294B696800932B0028483C332D
:10C95000FFF77EFE0028F3D12A89002A00D1FDE6E8
:10C96000244BE96800932B0023483C33FFF770FE0B
:10C97000002800D1F2E6E3E7204B696900932B0021
:10C980001F483C33FFF764FE002800D1EAE6D7E7F2
:10C990001C4BE96900932B001B483C33FFF758FE02
:10C9A000002800D1E2E6CBE7184B696A00932B0020
:10C9B00017483C33FFF74CFE002800D1DAE60700A9
:10C9C000ABE7C0460A180000C8270020232A000051
:10C9D000D4270020B82700202A2A0000502A00006F
:10C9E000B0270020CC270020282A0000A027002004
:10C9F000292A0000A8270020242A0000C0270020A0
:10CA0000252A000098270020272A000090270020D0
:10CA1000262A0000A0DF7047A2DF7047A6DF70471C
:10CA200030B50B8883B0112B1FD0502B06D0102BA4
:10CA300001D003B030BD8B88C382FAE7CA8843892E
:10CA40009A42F6D1CB8B022BF3D10468002CF0D0A4
:10CA500020221F33CB5C8A5C1B021A43012301ADE9
:10CA600093432B702900A047E3E701235B42C38275
:10CA7000DFE7C046F0B5DE464E4657464546012341
:10CA8000E0B50A685B420260C3824B899DB00383B4
:10CA900001238A4605A98B709B467B4B021D80466D
:10CAA00001200B80FFF7B6FF01268146002807D042
:10CAB00048461DB03CBC90469946A246AB46F0BDE8
:10CAC00003AD032200212800FBF770FB0F23102782
:10CAD0002A7815AC9A43324313403B432B7053469C
:10CAE00006221B7900216B70AB7820009343043A37
:10CAF00013431A32AB70FBF759FB23785A461F4396
:10CB00004B466360E3602361A36102AB9A745F4BA1
:10CB1000656102AA04AD1382002103222800277058
:10CB2000FBF744FB53465B7906222B7053469B79F7
:10CB300000216B70AB7807AF9343043A1A43E723A5
:10CB400013401E43AE700BAE14223000FBF72EFBD9
:10CB500006AB75600B93BB8810AD6B701B0AAB7096
:10CB6000BB795A46EB7043461B8B1A420FD03A787A
:10CB7000002A0CD03A8906212A71120A6A710A2207
:10CB80009446043A9146033A0192023A07E0082299
:10CB90009446043A9146023A0192042100229807F1
:10CBA0000ED5787800280BD04946FA686918100A23
:10CBB0000A704870100C120ECA7088706146019A93
:10CBC0005B0705D5BB78002B02D004231A43D2B2F1
:10CBD0000023738114332A70B38142464346318166
:10CBE00035619088063332002100FFF715FF81463A
:10CBF000002800D05CE71C2200212000FBF7D6FAB9
:10CC0000022293465A4623780021134323704B4651
:10CC10006360E36023616361A3610123B3701C4B14
:10CC2000032238003380FBF7C1FA5346DB79062232
:10CC30003B7053461B7A00217B70BB7828009343DE
:10CC40005A461A43E7231340012293431332BB7021
:10CC5000FBF7ACFA53465B8902AA13741B0A5374A0
:10CC600002232B814B466B810223AB8106AB2B61E8
:10CC70004246434610966F6090880E332A0021008A
:10CC8000FFF7CAFE814613E714180000532A00007C
:10CC9000542A0000F0B5C64600B5304BC28A0400E5
:10CCA0008AB008209A4203D10AB004BC9046F0BD75
:10CCB0008B8805AF7B701B0ABB708B79FB70238B55
:10CCC000DA070ED50A78002A0BD00A8902383A71A1
:10CCD000120A7A7106229046043294460326093AD3
:10CCE00006E00422904604329446042002260022E4
:10CCF0009D070DD54D78002D0AD0CD683A18280A29
:10CD000015705070280C2D0E9070D570E0463200D2
:10CD10005B0705D58B78002B02D004231A43D2B2CF
:10CD20006B469E1C434601AD3A700021102228003C
:10CD30003380FBF73BFAE388AE602B800123AB70B6
:10CD40000023EF60AB80E08A2900FFF767FE002830
:10CD5000AAD133884345A7D00C30A5E7FFFF0000D8
:10CD60000B7803704B7843700220704770B5040055
:10CD700008000D0001F0DAF86560208070BDC04643
:10CD80007FDF704782DF7047A7DF7047A9DF7047FA
:10CD9000AADF7047002070470020704700207047CE
:10CDA000304BF0B59C46C646644600B54178060057
:10CDB0004B005A18D00024186468002C0BD02A4D60
:10CDC0009200AA18927A57B2002F1CDB002200248E
:10CDD0009046002703E0002200279046224D5B1872
:10CDE0009B00EB181889424623003900FFF7CEFF5D
:10CDF0000B2812D0002804D1012C19D004BC904675
:10CE0000F0BD1A48F8E75206E0D4A2B207009046F7
:10CE10006246083767441458E1E7727839005300D6
:10CE20009B189B00EB18188942460123FFF7AEFFC1
:10CE300072780C2153009B189B00ED1828890C4A2E
:10CE4000FFF7A2FF0028D9D002220A4BC318934350
:10CE500005D0082803D0112801D00020CEE70348D0
:10CE6000CCE7C046102800200428002041800000A4
:10CE7000FFFF0000FECFFFFFF0B587B00E236A462C
:10CE8000D3804A782C4D53009B186A469B00EB18C0
:10CE900006000C0018890632032302A9FFF778FF69
:10CEA000002802D0002007B0F0BD6B46DA88637816
:10CEB000224F5800C018C0000830381802A901F0ED
:10CEC0001DF8002827D061784B005A18D200BA18F4
:10CED0005268002A2ED11A4D03225B18DB00FA504B
:10CEE0006B466178DA884B005B18DB00FB185A60F0
:10CEF000637802A95800C018C0000830381801F043
:10CF00000CF86078382341000918C90079181822F4
:10CF10003000A847C6E763785800C0188300ED18B2
:10CF2000AB7A9B07BED4C000381818220021FBF74B
:10CF30003DF9B7E7034DCFE7042800201028002073
:10CF4000599F0100D59F010070B506004A780C4C2E
:10CF500053009B18DB000D00E01818223823310025
:10CF6000FDF776F8002807D16A7853009B18DB009C
:10CF7000E4186368013300D070BD6060FCE7C04610
:10CF800010280020F0B54F464646D646C0B5454E5F
:10CF90001F00336890B0824688469146002B46D0E9
:10CFA000189B542B43D8404B6A46019300231374BB
:10CFB000189B0997089300243C4D02E00134072C8C
:10CFC00011D0A1B202AA2800FCF79EFF0028F5D1DB
:10CFD000082202A9504600F091FF0028EED1E4B2E9
:10CFE00001ADAC7003E001ADAC78FF2C1FD043461F
:10CFF000042B2DD02E4BFB1AC32B1ED92D4BFB1A05
:10D000001B2B30D800236B700AAB099318230893AD
:10D0100008334246032A3DD0022213436A46137462
:10D0200007AB05934A46336804A92800984710B017
:10D030001CBC90469946A246F0BD4B461E49002BAB
:10D040000BD00B680122A24093430B602023E0E742
:10D05000189B542B23D04323E0E70122A2400B6806
:10D060001342E4D0EEE715483F1A172FDFD83023DC
:10D070006A46137400236B700133EB70104B9A7A7D
:10D0800030239207C5D418220021FBF78FF86B4696
:10D090001B7CBEE7012213436A461374C0E72323B7
:10D0A000BCE7C046DC27002000FFFFFFF828002077
:10D0B00034280020E82700203028002010280020F5
:10D0C000042800200020704700207047002070478F
:10D0D0000020704770B506004A780C4C53009B182E
:10D0E000DB000D00E018182238233100FCF7B0FFF8
:10D0F000002807D16A7853009B18DB00E4186368A6
:10D10000013300D070BD6060FCE7C04610280020ED
:10D11000304BF0B59C46C646644600B541780600E3
:10D120004B005A18D00024186468002C0BD02A4DEC
:10D130009200AA18927A57B2002F1FDB0022002417
:10D140009046002703E0002200279046224D5B18FE
:10D150009B00EB181889424623003900FFF716FEA2
:10D160000B2815D0002803D0012C1CD01B4802E04E
:10D17000012C18D0002004BC9046F0BD5206DDD42E
:10D18000A2B2070090466246083767441458DEE7AB
:10D190007278390053009B189B00EB18188942469F
:10D1A0000123FFF7F3FD72780C2153009B189B00BD
:10D1B000ED1828890A4AFFF7E7FD0028DAD0022295
:10D1C000084BC3189343D1D00828CFD01128D1D110
:10D1D0000248D0E7102800200428002041800000E9
:10D1E000FFFF0000FECFFFFFF0B587B00E236A46B9
:10D1F000D3804A782C4D53009B186A469B00EB184D
:10D2000006000C0018890632032302A9FFF7C0FDAF
:10D21000002802D0002007B0F0BD6B46DA886378A2
:10D22000224F5800C018C0000830381802A900F07A
:10D2300065FE002827D061784B005A18D200BA1832
:10D240005268002A2ED11A4D03225B18DB00FA50D7
:10D250006B466178DA884B005B18DB00FB185A607C
:10D26000637802A95800C018C0000830381800F0D0
:10D2700054FE6078382341000918C9007918182233
:10D280003000A847C6E763785800C0188300ED183F
:10D29000AB7A9B07BED4C000381818220021FAF7D9
:10D2A00085FFB7E7034DCFE70428002010280020B2
:10D2B000599F0100D59F0100F0B5DE4657464E4606
:10D2C0004546E0B587B0019000286AD000223D4B6A
:10D2D00001261A605A729A7201233B487642837281
:10D2E000073200210681C672FAF760FF182200217A
:10D2F0003648FAF75BFF364B00259A461C00354B43
:10D30000FF279846344B9B4601239946200006226E
:10D3100000211130FAF74AFF102220000021FAF70D
:10D3200045FF4B464246AB40126827749A431300B0
:10D33000424613605B465E550135A77626831C3452
:10D34000072DE3D1254B264D0393264B290002A838
:10D350000293FCF73DFD00281CD14B46224E337052
:10D36000019B1B78002B1ED10024A1B204AA280027
:10D37000FCF7CAFD002300281ED11C2204A9504638
:10D38000FCF766FE002819D11C239C460134E244B8
:10D39000072CEAD107B03CBC90469946A246AB4662
:10D3A000F0BD1248F6E702AB9988DB8828005943A4
:10D3B00089B2FCF7A5FEEDE73370EBE7002333708D
:10D3C000E8E7C046DC2700200428002010280020C1
:10D3D000342800203028002028280020540007008E
:10D3E000F828002085CF01002F2800200E800000A3
:10D3F000F8B5194B05001B780C00002B01D117481C
:10D40000F8BD00280AD0002908D00B68002B05D0F1
:10D41000134E3768002F03D01248F1E71248EFE7A8
:10D420003000053108C0052200F077FD2379022085
:10D43000B37201230421327A9A430243D2B28A435F
:10D4400032720122F3791343DBB20343DBB28B4325
:10D45000F37100202F70D3E72F28002008800000F0
:10D46000DC270020048000000E800000F0B5DE46BE
:10D4700057464E464546FF23E0B58FB00393B44B65
:10D4800004001B78002B3FD0B24F3B689846002B1E
:10D490003AD005AD031D6B602A232B81AE4B04935C
:10D4A0000388102B00D16DE1FF218288AB4E94469A
:10D4B000B27A8946910705D5A9498C452BD0318987
:10D4C000614528D0113B9BB2412B1DD8A5499B003B
:10D4D000CB589F4613232B700023994604AB9A46E2
:10D4E0004A4629005046C0472B78122B0CD1B37AFC
:10D4F000012B09D00123B372023B3381F37207225F
:10D5000000213000FAF752FE0FB03CBC904699461D
:10D51000A246AB46F0BDF17A894604A98A46484640
:10D520008870002150464170CCE701217B7A8A4601
:10D530008B437B72042313319A43B2722970A17911
:10D54000002900D0A0E1E1790B42C5D04B46FF2B6A
:10D55000C2D008231A43E37AB2729B070AD54B461E
:10D560004A465146DB009B1A7F4A9B00D3189A7E9D
:10D570008A439A76F37AFF2BAED03378022B00D110
:10D580008CE2794B4A4698464B46DB009B1A316841
:10D590009B0043441961B1889A7E9982B17999754B
:10D5A00002218A439A764B466A4608ACD380D188DA
:10D5B0006E482200FCF7A8FC04AB9A46002836D13E
:10D5C0005A7853009B189B00F3189B7A5B0600D493
:10D5D00061E2674B994653469B781C22D900C91AD1
:10D5E0008900414400232000C847002812D1534637
:10D5F0005A78403053009B189B00F318997A814366
:10D600009972D100891A5B4B890059181C221C237E
:10D610002000C84753461A78514653009B189B0078
:10D62000FB189B7A544A9B009B58200098473B6804
:10D6300098460023994653E7A379112B02D113078B
:10D6400000D5A1E180235B421A4395332B7004ABD4
:10D650009A46B272BB7A494A9B009B5850469847FB
:10D660003B689846002399463AE7BB7A434A9B00B9
:10D670009B5804A8984747E7022311009943B172C9
:10D68000120700D4D6E004AA4BB29246002B00DA6F
:10D69000BFE11023B37202332B70002399461FE7BA
:10D6A00013232B7004231A43F37AB272FF2B00D09A
:10D6B000AEE02D4A9046927EFF2A00D101E236224A
:10D6C00041468A5CFF2A00D138E252228A5CFF2A56
:10D6D00000D135E26E228A5CFF2A00D134E28A2230
:10D6E0008A5CFF2A00D12DE2A6228A5CFF2A00D1A3
:10D6F0002EE2C2228A5CFF2A00D127E2204A91460C
:10D700000022D900C91A89001A4B41440B920C918E
:10D710000D92089309920A92A0883A1D08AB002145
:10D72000FFF72EFB002800D0EEE63B68984604ABDE
:10D730009A46D5E6F37AFF2B00D1B8E00A4B0D49A3
:10D740009846002342466046FFF71CFBDCE6C046D5
:10D750002F280020DC27002000FFFFFF04280020E6
:10D76000FFFF000084E0010034280020F82800209A
:10D77000D59F0100E8270020ACE101008CE1010009
:10D78000438000000122E14E9046B37A1A4200D154
:10D79000BAE60223B3720F332B7004AB9A46002310
:10D7A00052465370838807223381831D190030004D
:10D7B000994600F0B2FB4246237D1A4200D1C8E0F0
:10D7C000D34A5B08D35CFF2B00D11FE10A220393ED
:10D7D00099B2B2725246F3729370CE4808AAFCF71F
:10D7E00093FB002800D022E753465B7808A9D800B5
:10D7F000C01AC94B800018181C221C23FCF728FCF7
:10D80000BB7AC64A9B009B58514608A898470EE72A
:10D810001623C3480E22002108302B70FAF7C6FCED
:10D820004022B37A134300229146BE4AB372904617
:10D83000F37A65E704AB9A464B46FF2B00D128E705
:10D84000DC00E41AA30018009846B64C11302018EA
:10D85000062244440021FAF7A9FC102200212000EE
:10D86000FAF7A4FCFF2348462374A376FE3B8340CB
:10D87000AD4901220868524298435346228308600A
:10D880009A703B68984604E76A46F37AA148D380C9
:10D89000D18808AA9846FCF737FB002800D18AE017
:10D8A000A37999463B68984604AB9A4618E69D4989
:10D8B000E3898846098B994200D14DE14146898E22
:10D8C000994200D146E150214046415A994200D147
:10D8D0004AE16C21415A994200D143E18821415AE1
:10D8E000994200D13CE1A421415A994200D135E14D
:10D8F000C021455A00219D4200D022E7063108236D
:10D90000C8B21A4302AB0391F072B272987289B234
:10D9100008AA8048FCF7F8FA002812D102AB5B7A1B
:10D920001C22D800C01A7C4B8000181808A91C23A0
:10D93000FCF78EFBBB7A794A9B009B5804A908A888
:10D940009847F37AFF2B00D010E1A38800219C4672
:10D95000F7E610229046734B0024984406E01C23FF
:10D960009C460134E044072C00D160E6072249467A
:10D97000404600F0C3FA0028F1D108210394B27A9E
:10D98000E3B20A43A1B224E765480E220021083021
:10D99000FAF70CFC162360222B70B37A1343022291
:10D9A000B3727B7A13437B723B6898460023994697
:10D9B00004AB9A4694E5542108A8FCF7A1FB002883
:10D9C00000D06DE743464246DB009B1A9B00994618
:10D9D000544B48469B46113006220021D9445844F6
:10D9E000FAF7E4FB102200214846FAF7DFFB4A462B
:10D9F000FF2313749376013BFF3B13834146534649
:10DA00008B40494A11689943116049E7FF210A2276
:10DA1000DFE66A464B4608ACD380D1883D482200F9
:10DA2000FCF772FA002800D02BE753465A785300CF
:10DA30009B189B00F3189B7A5B063FD53B4B98469F
:10DA400053469B781C22D900C91A364B89005918B5
:10DA500020000023C04700280FD1534659780C23DB
:10DA60004B43F3189A7A403082439A721C225143F6
:10DA7000294B200059181300C04753461A785146C5
:10DA800053009B189B00FB189B7A294A9B009B58CC
:10DA900020009847F5E6274B99469CE5214B4A46DE
:10DAA00098464B460121DB009B1A1B4A9B00528A79
:10DAB00043441A839A7E8A439A7674E51E4B9846AD
:10DAC000BEE700223378022B1CD0D300991A8900BC
:10DAD0004144080010308446306808616046B188CF
